:10000000ABC0C5C0E5CCC3C0C2C0C1C0C0C0BFC0CA
:1000100092CCBDC0BCC0BBC0CCCCB9C0B8C0323023
:1000200032323130303230333232000000000000E2
:1000300000000000000000000000000000000000C0
:1000400000000000000000000000000000000000B0
:1000500000000000000000000000000000000000A0
:100060000000000000000000000000000001030488
:10007000050708090B0C0E0F1113141618191B1D78
:100080001F21232527292B2D30323437393B3E4081
:100090004346484B4E5154575A5D606366696D70D4
:1000A00073777A7E8185898D9094989CA0A5A9AD5F
:1000B000B1B6BABFC3C8CDD1D6DBE0E5EAEFF4FAFA
:1000C000FF010102020303040405060708090A0CE4
:1000D0000D0E0F11131416181A1D1F2224272A2D76
:1000E0003033373B3E42464B4F54595D63686E7325
:1000F000797F868C939AA1A8B0B8C0C8D1D9E2EC18
:10010000F5FFFFFFFFFFFFFFFFFFFFFFFFFFFFFF09
:10011000FFFFFFFFFFFFFFFFFFFFFFFFFFFFFFFFEF
:10012000FFFFFFFFFFFFFFFFFFFFFFFFFFFFFFFFDF
:10013000FFFFFFFFFFFFFFFFFFFFFFFFFFFFFFFFCF
:10014000FFFFFFFFFFFFFFFFFFFFFFFFFFFFFFFFBF
:10015000FFFFFFFFFFFF000011241FBECFE5D2E02D
:10016000DEBFCDBF10E0A0E6B0E0E4E2FFE102C0F8
:1001700005900D92A639B107D9F721E0A6E9B0E0C4
:1001800001C01D92AD33B207E1F731DCC9CE38CFE3
:10019000482F9B01EAE0F1E080E090E05081552398
:1001A00031F00196339680319105C1F709C063E0C3
:1001B00070E058DEFC01E65FFE4F4083328321830E
:1001C00008950F931F93CF93DF93D0910A01DD23FE
:1001D00051F100910B0110910C01C091E700C15049
:1001E000C7FD0DC0EC2FEE0FFF0BE851FF4F019044
:1001F000F081E02DB8018D2F09958111F0CFEAE053
:10020000F1E0838180838481958192838183339619
:1002100081E0E733F807A9F710923701109239010E
:1002200010923801D2CFDF91CF911F910F91089595
:10023000BC0180913C01ACCF10923C0110923B017B
:1002400010923A0181E08093C200089590E822E084
:1002500048EA57E030E0815070F00FB6F89496BD50
:1002600026BD0FBEFA013197F1F70FB6F89496BD8F
:1002700036BD0FBEF0CF089586B383FB882780F983
:1002800091E089278093E0000895E0916600F09165
:1002900067003196FB70F460F0936700E0936600AE
:1002A0008091DC008B5A8093DC00E4918091DC002B
:1002B0008E0F0895CF93DF9300D000D000D0CDB73C
:1002C000DEB79091BC002091F8003091F9002850E1
:1002D000384009F492E0843019F46093BD0021C0E5
:1002E0006623F9F0823019F427E9261B622F26E0F5
:1002F000EFE7F0E0DE01119601900D922A95E1F70B
:10030000E82FF0E03197EE0FFF1F21E030E02C0FD7
:100310003D1FE20FF31F0190F081E02DE90FF11D69
:10032000608326960FB6F894DEBF0FBECDBFDF9177
:10033000CF910895BF92CF92DF92EF92FF920F93E9
:100340001F93CF93DF93EC014091BC00E091BE007E
:10035000EE2311F082E001C0842F90E0DC01AC5864
:10036000BF4F2C9120937800DC01AF58BF4F8C9188
:1003700080937700F0E0E259FF4F3181622F70E007
:10038000442349F0313039F49B01280F311DC90154
:100390009595879536C0C617D70794F1682F70E0FA
:1003A0006C177D0774F1411102C08C2F2AC0821B8B
:1003B000032F10E001501109E82EF12CC701B801FC
:1003C00082DD6093BA006695E62FF0E0822FC12CA3
:1003D000D12CB12CB316A9F0C601B80160DD822F73
:1003E000860FCE0CDF1CAE01481B510957FF03C01E
:1003F000519541955109E417F5071CF4B394EACFE0
:10040000822FDF91CF911F910F91FF90EF90DF909E
:10041000CF90BF90089581E00895611160937D00B1
:100420000895662389F0813061F48091FB009091FA
:10043000FA00891B681B6093FA0082E080937E00BB
:1004400003C0635E60937C0080917C00873418F069
:1004500086E480937C00089570E070936C00609354
:100460006B0008950F931F93CF93DF938091BC008F
:100470008093C300809174008093C40080917100C8
:100480008093C50080916E008093C60080917500B6
:100490008093C700809172008093C80080916F00A4
:1004A0008093C900809176008093CA008091730088
:1004B0008093CB00809170008093CC008091BE002F
:1004C0008093CD008091BD008093CE008091BB00D1
:1004D0008093CF00809179008093D0008091C000FC
:1004E0008093D1008091BF008093D20080916A00F8
:1004F0008093D300809168008093D400809169003C
:100500008093D50080916D008093D60080917C000F
:100510008093D7008091FA008093D80080917D006D
:100520008093D90080917B008093DA0080916B00EA
:100530008093DB00F89403EC10E0C1E0D1E0F80117
:1005400061918F01CE01DADC2196CA31F1E0DF073B
:10055000B1F765EA80E091E0D1DC7894DF91CF914A
:100560001F910F910895882321F0813029F4BC98C0
:1005700004C0BC98C4980895BC9AC49A0895CF93B7
:10058000C82F8093DE008093DD008091DF00811111
:1005900009C02C2F30E081E0233131050CF480E0DC
:1005A0008F5FE1DFC11103C019BC18BC0DC0C15081
:1005B0008C2F90E0FC01EF53FF4FE491E9BDFC016B
:1005C000E55DFF4FE491E8BD8091DE00863010F4D8
:1005D00092E005C08E3010F491E001C090E080E818
:1005E0000FB6F89486BD96BD0FBECF910895809347
:1005F000C100C5CFCF93C091DE0089E18C0F873950
:1006000008F080E0BCDF82E021DE8C2FCF91B7CFF5
:10061000CF93C091DE0080E0B2DF83E017DE8C2F45
:10062000CF91ADCF813019F41092C000089582307F
:1006300019F46093BF000895833019F46093BB00F0
:100640000895843011F46093790008959091FD002D
:100650009D3110F480E006C08F70E82FF0E0EB577A
:10066000FF4F808180CF883039F41092B90010920A
:10067000B7001092B6003FC0813B59F48091B90099
:1006800081508330D0F583E08093B9008093B80027
:1006900034C0853BA9F4CB016EE370E000DC892B0C
:1006A00051F58091B900853F30F5865F8093B900A0
:1006B0008093B8001092B7001092B6009BDF1BC069
:1006C0008130D9F48091B6009091B70001968838B6
:1006D0002EE0920728F49093B7008093B6000BC0E9
:1006E0001092B7001092B6008091B900882319F0DB
:1006F00081508093B90080E0089581E00895FF92D1
:100700000F931F93CF93DF938C01EB01F42E809115
:10071000F8009091F900892B31F0E091F800F09108
:10072000F90089E009951093F9000093F800012B76
:1007300039F0E091F800F091F900BE018F2D099594
:1007400081E08093C200DF91CF911F910F91FF90C4
:100750000895CF93DF93E091E700EE2359F0E15045
:10076000E093E700F0E0EE0FFF1FE851FF4FC0817C
:10077000D18102C0C0E0D0E0E091E700EE2341F07B
:10078000F0E0EE0FFF1FEA51FF4F8081918102C020
:1007900080E090E04AE060E070E0B1DFCE01DF9100
:1007A000CF910895883029F41092B30010929A00E6
:1007B00016C0813001F590919A00911107C0603206
:1007C000710570F180939A0037DD2AC0913089F469
:1007D000673381E0780728F082E080939A0080E018
:1007E0001EC061157105E1F06270862F880F8E5E64
:1007F00016C0AFDF15C0813811F0813E89F491E059
:1008000090939A00813E21F48091B300865F03C0EB
:100810008091B3008F5F8093B3000EDD8BE4AFDE79
:1008200080E008959C019091E700983088F4E92FCA
:10083000F0E0EE0FFF1FE851FF4F318320839F5FF1
:100840009093E70048E0C9015ADF8091E7000895DE
:100850008FEF08950F931F93CF93DF93EC018B01DC
:1008600078DFB801CE01DF91CF911F910F91DACFE0
:10087000843011F58091F8009091F9002AE0883FCA
:10088000920729F469E170E082EB95E013C0825B86
:10089000954061F49091DE00923040F0892F86956A
:1008A00096959695890FA3DE80E0089560E070E04C
:1008B00084ED94E0CFDFF8CF81E00895813C29F406
:1008C00060E070E084ED94E00DC0823C29F460E0CB
:1008D00070E08CE894E006C0833C31F460E070E0A6
:1008E00083EB94E0B7DF14C0813B41F4CB016EE3AE
:1008F00070E0D5DA892B61F47DDE0AC0813E51F4C7
:10090000CB016EE370E0CBDA6F5F60936D00AADD20
:1009100080E0089581E00895CF93C091BE00C11199
:100920001EC0813C29F460E070E084ED94E006C0D4
:10093000823C31F460E070E083EB94E08BDF10C028
:10094000833C29F460E070E08EE594E0F7CF873BCC
:1009500031F460E070E080E198E064DF01C0C1E064
:100960008C2FCF910895813C29F460E070E084EDF4
:1009700094E00DC0823C29F460E070E08EE594E0E4
:1009800006C0833C31F460E070E08CE894E062DF04
:1009900007C0873B39F460E070E084E198E042DF13
:1009A00080E0089581E008950F931F93CF938B010A
:1009B000883079F480E0E3DD80917B008370D3DDC3
:1009C0001092B900012B19F481E08093DF00C0E0A0
:1009D000C4C0813051F469317105C8F38093DF00E0
:1009E00080917B008370BFDDF2CF833019F52091B9
:1009F000C000222359F08091BF0090E062EC71E0CA
:100A000031DA0817190710F020937A0080917B00E3
:100A10008370833011F4802F19DE80916B009091E8
:100A20006C000097A1F262EC71E01CDA801791076C
:100A300070F64DC0813B99F481E090E07BDC9FDD56
:100A40008091BB008111C3CF8091BC00811104C093
:100A50000831110508F4BBCF61E070E028C0813E89
:100A6000D9F3813821F480917A0090E013C0813C61
:100A700021F46091DE0070E01AC0823B79F480912D
:100A800079009091BE0091118091BD00811104C048
:100A900086E990E04FDC05C086E903C0823E19F488
:100AA00080E06DDD94CF823C31F466E970E082EB4A
:100AB00095E0D0DE8CCF833999F3833C29F460E054
:100AC00070E08CE894E0F5CF843C31F493DD60E095
:100AD00070E08CE198E0EDCF8F3C29F460E070E0AD
:100AE0008BE092E0E6CFC091BE008A3B79F4672BA1
:100AF00069F4CC2329F07EDD1092BE00B3DC67CF11
:100B000060E070E088E098E08DDE27C0C11124C06D
:100B10008A3C29F46FDD81E08093BE001BC0833BDB
:100B200029F460E070E088EF9AE006C0853B31F47C
:100B300060E070E087E59CE08DDE0FC0873C61F4EB
:100B400090917B0081E0890F83709C7F982B90931C
:100B50007B0009DD87DC01C0C1E08C2FCF911F91A4
:100B60000F9108959F92AF92BF92CF92DF92EF9232
:100B7000FF920F931F93CF93DF93182FEB01D09029
:100B80007800F0907700A090BC00AA2019F0B090F7
:100B9000BA0002C0BB24B394C09079000091BE009B
:100BA0000111C090BD00CC2051F081E0C81621F0A9
:100BB00080917A008F1518F0A6E9EA2E01C0EF2C7B
:100BC0009090B900BE01812F4EDD6091B90066237F
:100BD00039F091100CC08091DE0080939E0007C018
:100BE000992029F060E070E084ED94E039C0812F15
:100BF0008D7F8830D9F41092B5001A3019F4C09165
:100C00007A00D0E08D2D90E08C179D0738F48F2D61
:100C100090E0C817D90710F4C0937A00CE018ADBA0
:100C2000E6DC81E08093650000E09FC1113CD1F2D9
:100C3000123C71F48091DE008E1510F48E2D02C0EE
:100C400080917A00D4DC8091DE0080939E00ECCF0E
:100C5000143C41F480E093DC60E070E08CE198E0CB
:100C6000F9DDE2CF8FE4810F823008F054C0AA2072
:100C700039F0CE0168E170E012D9892B31F0D4CF80
:100C800060916E0070E0CE01F7CF2091DE002097DA
:100C900061F4123B11F48FEF05C02F15E0F7D21667
:100CA000F8F081E0809365001BC0E0916E00F0E0F9
:100CB000CF0166E371E0D6D88C179D0710F42F158D
:100CC00050F7CF016CE672E0CDD88C179D0740F449
:100CD000D21630F08FDC60E070E08CE198E0BADD95
:100CE000D091DE00809165006B2D70E0082E000C25
:100CF000990BB8D88D0F911D1DDBC82F80937A00FA
:100D0000D81739F0813421F0F81611F0D81201C04B
:100D10007FDC8C2F97CF8FE1810F823020F4809180
:100D2000650081957FCF113009F093C0A99711F428
:100D300010936500662391F080919E0070E06150F1
:100D4000710990E08FD86091B80070E0BCD8611153
:100D500001C061E06093DD006093C1008091DD001F
:100D60009091DE00282F30E0291B310960919C0012
:100D700070919D006F5F7F4F70939D0060939C000A
:100D80002115310509F450CF37FF05C0913930F0F6
:100D900040E450E005C040E052E002C040E051E0D5
:100DA0005695479537FF02C02F5F3F4F35952795E2
:100DB00021153105A9F74617570708F035CF8917D0
:100DC00010F48FEF03C0981710F481E0890F7FEFC4
:100DD000780F272F30E0A9014F535F4FFA0164913C
:100DE000791738F499B5911104C06F3F11F469BDBA
:100DF0000CC099B5961718F499B59F5F05C099B5C1
:100E0000691718F499B5915099BD255D3F4FF901C7
:100E1000949168B5691718F498B59F5F05C068B5D7
:100E2000961718F498B5915098BD99B5FA01449168
:100E300094130AC098B5F9012491921305C0C0918A
:100E4000DD009DDBC093DD0010929D0010929C00A0
:100E5000EBCE1530A9F48091DE00823408F4E4CEA4
:100E600090E08C1B9D0B282F813491052CF0873945
:100E7000910518F026E901C021E42093DD00D4CECD
:100E80001630B9F49091DE008091C100981708F0F7
:100E9000CBCEC90FD11D90E08C179D0734F0C13423
:100EA000D10524F4C1E4D0E001C0EC01C093DD0021
:100EB000BBCE173079F49091DD008091DE00891768
:100EC00010F48F5F04C0981708F0AECE8150809365
:100ED000DD00AACE011148C0133C99F481E0A110B5
:100EE00080E08093BC00BEDA93DB8091DE0090E06E
:100EF00021DA80937A007BDB8091DE0080939E0074
:100F000034C0133B49F4CD2B09F08ECECC2011F028
:100F100086E9E82E8E2D04C0133E21F480917A00DC
:100F200066DB23C0153C41F480E029DB60E070E023
:100F300087E59CE08FDC19C0173B29F460E070E086
:100F400084E098E00FC01A3C39F48091DE00809371
:100F5000C00088DA4FDB09C01A3B31F460E070E072
:100F60008CE098E05FDC01C001E0802FDF91CF9141
:100F70001F910F91FF90EF90DF90CF90BF90AF90B7
:100F80009F900895883061F410929B0080E0F7DA1A
:100F90008091E000811136C081E080939B0022C0E7
:100FA000982F907F903BB1F420919B00421778F0EE
:100FB000CB016DE570E073D7029739F42F5F209372
:100FC0009B004217F8F088E303C082E101C080E093
:100FD000D6DA18C0903E61F480919B00882389F096
:100FE000481778F060E070E082ED93E01BDC0AC007
:100FF0008A3041F46091B30080919B00F90109951A
:1010000031DAA7DB80E008952AE531E043E0BACF8A
:101010002AE531E044E0B6CF22E133E044E0B2CF4C
:101020002DE032E041E0AECF21E132E042E0AACF54
:101030002CE232E041E0A6CF0F931F93CF93DF93D2
:10104000D82F8B0180798039B1F420917400909170
:1010500075008D2F8F70823041F48091C000811116
:1010600008C0822F291728F403C0822F921708F492
:10107000892F85DA1BC0803819F480E080DA08C037
:10108000D83031F480917B00869586956CDA41C02A
:10109000D13061F40931110508F45AC0D093DF0052
:1010A00080917B00869586955EDA52C0D33049F4F4
:1010B00080917B008C708C3009F04AC0802FC6DA9A
:1010C00047C0D33C31F496DA60E070E084ED94E000
:1010D0000AC0D43C89F4C091C000CC2331F06C2FFD
:1010E00070E082EB95E0B6DB33C060917A0070E08F
:1010F00082EB95E0AFDB2FC0D43B31F489DA10925C
:101100003C0161E070E0EDCFD53C19F466E970E098
:10111000E8CFC091BE00C1111DC0DA3B31F460E0E0
:1011200070E088E198E07EDB16C0D73C99F490919E
:101130007B00892F869586958F5F8370282F220FDD
:10114000220F9370920F90937B000DDA8BD903C01E
:10115000C0E001C0C1E08C2FDF91CF911F910F91B2
:1011600008958CE287B9109207011092080186B1A8
:10117000886486B908951092090124B195B130911F
:10118000DC002295269526952370892F90E0880F04
:10119000991F880F991F820F911D830F8093DC0088
:1011A0008091FE00882309F40BC11092FE0080910B
:1011B00007019091DF00992319F0379810920701E9
:1011C000811143C080917E00882349F06091030122
:1011D00070910401709300016093FF0004C060915E
:1011E000FF0070910001605F7F4FA6E076956795E4
:1011F000AA95E1F780E098E552D680917D0090E0D5
:101200000297680F791F769567956093FD0080912E
:10121000B200882311F0815007C06D3138F460E0CE
:1012200070E084E0B5D785E08093B2008091DF0064
:101230008111BDC08FEA87B981E0809307011092C8
:10124000080186B1886486B9B2C0813009F0AFC0A8
:1012500080917E00811143C0809101019091020133
:1012600040969C0145E0369527954A95E1F7A09177
:10127000FA00A901569547950A2E000CBB0BCD012B
:1012800083519140840F951F9093FC008093FB0045
:101290008091A100E82FF0E0EE0FFF1FEE55FF4F09
:1012A00040815181B901641B750B318320838F5FAD
:1012B00087708093A100CB01880F991F880F991F19
:1012C00040917C0050E04D5E5E4F4A1B5B0B440F2B
:1012D000551F841B950B820F931F23E01CC0809128
:1012E00005019091060190930201809301014096BF
:1012F00035E0969587953A95E1F7E2EAF0E081933B
:10130000919320E0E23BF207D1F7A6CF009709F0D6
:101310000196215029F018161906C4F70197F9CF44
:1013200018161906E4F477FD39C02091A0001216B2
:101330000CF1880F991FBC016350710977FF02C03F
:101340006F5F7F4F759567951616170614F061E06D
:1013500070E088E1861B8093A00085E026C08C3F6A
:101360002FEF9207DCF477FF19C02091A00027FF30
:1013700005C02450281B2093A00018C024EE281B71
:101380002093A0002091FD002F3180F06CEF7FEFC3
:10139000681B790B7595679586E007C08091FD0005
:1013A0008E3120F060E070E087E0F2D6DADE8091E6
:1013B0007E00882329F080917E00815080937E00FA
:1013C00008950F931F93CF931092E20080913A01FA
:1013D00090913B019C012F5F3F4F88279078822B93
:1013E000932B90933B0180933A01C091E00044D746
:1013F000C81729F11092DF008093E00090913C0122
:10140000882359F0892F80699F709F3009F08F5F82
:1014100080933C0180E090E00DC0892F8F7E95FD88
:1014200002C0806801C0806C80933C0180913A01C9
:1014300090913B01FDD610923B0110923A01009130
:101440003A0110913B018091DF00882379F0B801C7
:1014500083E09ED6B6D60F731127012B09F044C046
:1014600010929F007EDE87EE86B92EC0C0913C01AF
:101470008C2F807F803B19F460E070E001C0B801E0
:1014800081E086D6C4FF12C0C5FF02C0C8010CC0EF
:1014900008311105C8F010923B0110923A01C06268
:1014A000C0933C0180E090E0C3D60EC0CC2361F035
:1014B000C5FD09C00231110538F0C064C0933C017C
:1014C00080E090E0B5D6B8D680919F00811106C02B
:1014D00086B1886486B981E08093FE0080919F0088
:1014E0008F5F8F7180939F00CF911F910F9108950F
:1014F0008091090181113FDE8091E200811161CF6D
:101500000895CF92DF92EF92FF920F931F93CF93A4
:10151000DF93EC0110E800E088E0E82E87E0F82E89
:1015200092ECC92EDD24D394209709F18091C2005A
:1015300081111FC08091DE00863040F482E00FB63A
:10154000F89416BD86BD0FBEC60106C00FB6F8944E
:1015500016BD06BD0FBEC7010197F1F70FB6F8948F
:1015600016BD06BD0FBEC4DF2CD62197DDCF81E0AE
:1015700001C080E0DF91CF911F910F91FF90EF901C
:10158000DF90CF900895CF93C82F882381F089E111
:10159000F6D787EB90E0B5DF80E0F1D783E191E00B
:1015A000B0DFC150A1F78DED92E0CF91AACF89E1D4
:1015B000E6D786E490E0A5DF80E0E1D783E191E023
:1015C000A0DFF1CFCF93DF9364E65DD4282F892F7E
:1015D0006AE059D4EC01222341F0822FD4DF8C2F12
:1015E000D2DF8D2FDF91CF91CECFC111F8CFF9CFC0
:1015F000DF92EF92FF920F931F93CF93DF93D82F39
:101600008B01C0916A0081E08093B500C33009F07E
:10161000D3C0F090B9008D2F26D8FF2051F08091D3
:10162000B900811106C060E070E084ED94E012D949
:10163000C3C0D83021F481E080936300BFC0D23CA6
:1016400019F41092B900C8C0D13BC1F49091620066
:10165000012B49F49E3610F08FEF03C0923018F43E
:1016600081E08093630080916300890F11F481E031
:1016700013C18F3608F410C18EE60EC1D13E31F48D
:1016800080916300819580936300CFC0D23B61F469
:1016900081E08093630080916200823008F4CDC0C5
:1016A000815080936200C9C0D13009F099C00932DD
:1016B000110511F4D0936300D09099008D2D880FFF
:1016C000D7FC809590E067E070E0CCD3292FE090C4
:1016D00098008E2D880FE7FC8095D09161006D2FCA
:1016E00070E090E0BFD3290FF09097008F2D880F06
:1016F000F7FC8095C09160006C2F70E090E0B2D351
:10170000920F6091620070E0690F711D8091B900C5
:10171000813091F48091B6009091B70025E09695C4
:1017200087952A95E1F724E730E0A901481B590B7A
:10173000CA0198D3B901B3D3862F21D700FD05C0C4
:10174000A4D58170D80ED092990080919600E80EB1
:10175000E09298009AD565E296D3F90EF092970040
:1017600094D58F7329F491D56DE08DD39093960025
:10177000DD2331F08AD58F7319F4D150D0936100F5
:1017800084D5811107C081D56BE07DD39093610032
:1017900010929800C33030F078D58F7119F4C15091
:1017A000C093600072D58F7709F06AC06ED566E08D
:1017B0006AD39093600064C0D83021F481E08093B4
:1017C00064006CC0D13C31F460E070E084ED94E0E2
:1017D00041D864C0D23C31F4EC2FF0E0319607C020
:1017E000D13C91F3D33C41F4EC2FF0E03396E3701D
:1017F000FF27E0936A0034C0D13BA9F4C23008F05F
:101800004DC000FD4BC0EC2FF0E0E859FF4F808148
:1018100090916400891B883020F08F3FE9F48EEFAF
:101820001BC088E019C0D13E31F4809164008195DD
:101830008093640015C0D23B89F481E080936400FA
:10184000C23060F500FD2AC0EC2FF0E0E859FF4FF0
:1018500080818F3F19F18F5F808320C0D23E11F4C9
:1018600001D61CC0D53C41F460E070E087E59CE007
:10187000F1D780E084D612C0D13011F081E00FC0E2
:101880000932110519F481E0809364008091DC0035
:10189000080F0093DC0002C08093620080E0DF91BB
:1018A000CF911F910F91FF90EF90DF9008950F93CC
:1018B0001F93CF93DF93D82F8B01883031F4809121
:1018C000B500813011F488E093DE8D2F8079803966
:1018D00059F481E08093B400C091B500C1110AC0F1
:1018E00080917A004CD621C0803831F41092B40037
:1018F00080E045D6C0E019C0D130B1F4C091B40049
:10190000CC2351F08091B5008130A1F7B801DF916F
:10191000CF911F910F916CCE0733114058F3D093A4
:10192000DF0080E020D601C0C1E08C2FDF91CF9195
:101930001F910F9108951F920F920FB60F921124CD
:101940002F933F938F939F93AF93BF93EF93FF9307
:10195000809108018823E9F0E091070124B135B1B5
:10196000F0E0EE0FFF1FDF01AD5FBE4F2D933C9304
:10197000E150FF4F808191818217930708F401960F
:101980002817390708F401979183808381E08093B9
:10199000090181E080930801FF91EF91BF91AF9120
:1019A0009F918F913F912F910F900FBE0F901F909D
:1019B00018951F920F920FB60F9211248F9381E00A
:1019C0008093E2008F910F900FBE0F901F9018959B
:1019D0001F920F920FB60F9211248F9381E0809384
:1019E000E1008F910F900FBE0F901F901895F89403
:1019F00084B7877F84BF0FB6F894A89581B58861B6
:101A000081BD11BC0FBEB89A81E083BF81EA8ABD57
:101A1000B99A88E088BB85BB8BB780628BBFA895DD
:101A200081B5886181BD80E481BD9BDB87EE86B98D
:101A3000789481E00BD460E070E088E394E0F2D623
:101A40001092C200D7D518D4811108C0F89480E054
:101A500091E04CD2853A51F178949EC0C0E08C2F31
:101A60008ED583E190E04DDD8C2F869588D583E17E
:101A700090E047DD01D4882381F0CF5FC03479F74F
:101A800065E181E0CED4EED4C6E98C2F78D584E030
:101A900090E037DDC150C9F7D9CFCC23B9F28C2FF4
:101AA0006ED58DE090E02DDDC150F7CF03EC10E056
:101AB000C1E0D1E0CE011AD2F80181938F012196C5
:101AC000CA31F1E0DF07B1F778948091C3008093C9
:101AD000BC008091C400809374008091C500809305
:101AE00071008091C60080936E008091C700809342
:101AF00075008091C800809372008091C900809326
:101B00006F008091CA00809376008091CB00809313
:101B100073008091CC00809370008091CD00809301
:101B2000BE008091CE008093BD008091CF00809355
:101B3000BB008091D000809379008091D100809388
:101B4000C0008091D2008093BF008091D300809329
:101B50006A008091D400809368008091D5008093C2
:101B600069008091D60080936D008091D7008093AA
:101B70007C008091D8008093FA008091D9008093F6
:101B80007D008091DA0080937B008091DB0090E003
:101B900090936C0080936B008091C00081118093C2
:101BA0007A0061E070E084ED94E03CD643E4242EBA
:101BB00052E0352E67EE462E70E4872E99249394DA
:101BC000ECEFAE2EE3E0BE2EF7E05F2EA4EDCA2EC2
:101BD000A4E0DA2EF6D28091E5009091E60000971D
:101BE00049F06091E3007091E40034D61092E60071
:101BF0001092E5008091DF00882309F444C080E062
:101C0000BED4A89581B5886181BD21BC379834D3F5
:101C10008111FDCF11D38BB780628BBF1092090168
:101C20001092E2001092E1008091DF008823F9F029
:101C300085B7877E806185BF85B7806285BF8895BF
:101C400085B78F7D85BF8091E10081111092DF0003
:101C500080910901882329F090927E009092FE00E5
:101C60008ADA8091E2008823F9F2ABDBDDCF309293
:101C70007E008BB78F7D8BBF74DA46B8A89581B58F
:101C8000886181BD81BC34DC1092C2008091F80073
:101C90009091F90022E08B30920779F4CEE1D0E008
:101CA000FE01849180536FDC8CE291E02ADC219666
:101CB000F0E0CA32DF07A1F79EC02AE0883F920712
:101CC00079F0ECE087359E0709F08AC08091B50075
:101CD000813009F0BCC08091B400882309F4B7C0FA
:101CE000C0916A00C23018F0C230E1F073CFEC2F1F
:101CF000F0E0E859FF4FD08186E941D4C11109C015
:101D0000DA3220F4C5010197F1F707C081E090E0D5
:101D100003C08D2F869590E0F4DB80E030D48D2FCA
:101D200090E093C0B2D28F73E82EF12CAED2652D25
:101D3000AAD001E010E0380102C0660C771C9A9529
:101D4000E2F7A3D265E09FD0E80102C0CC0FDD1F0F
:101D50009A95E2F76C0E7D1E98D290E0B301B3D055
:101D6000E301C80FD91FC739D10514F0C6E9D0E087
:101D70008C2F05D4C701C5DB8E0133E0159507957F
:101D80003A95E1F7011101C001E010E0C701B9DBAC
:101D9000C01BD10BD7FF02C0C0E0D0E08C2FEFD327
:101DA00074D2837031F4C701ACDBCE019595879571
:101DB000E6D3C230D10554F768D26DE064D0C1E0FB
:101DC000D0E002C0CC0FDD1F9A95E2F75ED290E022
:101DD000BE0165D0C80FD91F80E0D1D3CE0135C078
:101DE000F4E08C389F0781F48091FD00EBDB80915B
:101DF000BE00882381F0D092E600C092E5001092E8
:101E0000E4001092E300E6CE24E0833B920731F435
:101E10008091FB00D7DB88EE93E017C08E5594408D
:101E2000B1F48091E0008111D5CE80917A00A7D3E2
:101E300084E690E066DB80E0A2D380916D0090E0C4
:101E400068EE73E00FD0845691095BDBC3CE85B793
:101E5000877E85BF85B7806285BF889585B78F7D72
:101E600085BFB8CE0024552704C0080E591F880F1F
:101E7000991F009729F076956795B8F37105B9F722
:101E8000802D952F0895991B79E004C0991F96170E
:101E900008F0961B881F7A95C9F780950895AA1BAC
:101EA000BB1B51E107C0AA1FBB1FA617B70710F045
:101EB000A61BB70B881F991F5A95A9F78095909577
:101EC000BC01CD01089597FB072E16F4009406D0AF
:101ED00077FD08D0E4DF07FC05D03EF490958195AE
:101EE0009F4F0895709561957F4F0895E199FECFBA
:101EF0009FBB8EBBE09A99278DB30895262FE19959
:101F0000FECF9FBB8EBBE09A01970DB2021639F04F
:101F10001CBA2DBB0FB6F894E29AE19A0FBE089551
:041F2000F894FFCF63
:101F2400060B180101010004294303D00202010732
:101F340005787878010A0A780101410932070274A8
:101F44000071006E000001020100000000000001A9
:061F540000000000000087
:00000001FF
