:100000006DC1000088C100000C94D01084C10000B4
:1000100082C100000C94C1107EC100007CC10000B0
:100020007AC1000078C1000076C1000074C10000F0
:1000300072C1000070C100000C9483106CC10000FC
:100040006AC1000068C1000066C1000064C1000010
:1000500062C1000060C100005EC100005CC1000020
:100060005AC1000058C1000056C1000054C1000030
:100070003230323231303032303236350001050420
:1000800014101115FF3F6935F2294B3C842EBB1F1C
:10009000EB31A439D02F8734BD36832EE72F3F3084
:1000A000E52F102F7E32B030C42EF62FB82D0D2E36
:1000B000AC2B7E2B052B552A7C298328742781277E
:1000C0004126F625A0242024C22222227021B1201C
:1000D000E81F191F451E6F1D991CC31BEF1A1E1A1E
:1000E00050198618C017BF1607161B153A1465134A
:1000F0009B12DA11FA102610600F820EB30DD30C8A
:10010000020C250B580A8109A308D607F0061C0625
:10011000470571049C03CA02FF01FF01FF01FF01B3
:10012000FF01FF01FF01FF01FF01FF01FF01FF01CF
:10013000FF01FF01FF01FF01FF01FF01FF01FF01BF
:10014000FF01FF01FF01FF01FF01FF01FF01FF01AF
:10015000FF01FF01FF01FF01FF01FF01FF01FF019F
:10016000FF01FF01FF01FF01FF01FF01FF01FF018F
:10017000FF01FF01FF01FF01FF01FF01FF01FF017F
:10018000FF01FF01FF01FF01FF01FF01FF01FF016F
:10019000FF01FF01FF01FF01FF01FF01FF01FF015F
:1001A000FF01FF01FF01FF01FF01FF01FF01FF014F
:1001B000010001000100020002000200030004002F
:1001C00004000500060006000700080009000A00F8
:1001D0000C000D000E00100011001300140016009A
:1001E00018001A001C001E00200023002500280013
:1001F0002A002D002F003200350038003B003E0061
:100200004100440047004A004D0050005300560092
:1002100059005B005E0060006200640066006800D8
:1002200069006A006B006B006B006A006900670080
:10023000650062005E005A0054004E0047003F0017
:1002400036002C00210023002500260028002A006B
:100250002C002E00300032003500370039003C0001
:100260003F004100440047004A004D005000530049
:1002700057005A005E00620066006A006E0072005D
:1002800076007B008000840089008E009400990035
:100290009F00A400AA00B000B700BD00C400CA00BF
:1002A000D100D800E000E700EF00F700FF000701F1
:1002B0001001190122012B0135013E0148015301B2
:1002C0005D01680173017E018A019601A201AE0100
:1002D000BB01C801D501E301F101FF0111241FBEDB
:1002E000CFEFD4E0DEBFCDBF11E0A0E0B1E0EEE2A1
:1002F000F8E202C005900D92A235B107D9F722E0CD
:10030000A2E5B1E001C01D92AB30B207E1F70E9457
:10031000DF100C94151474CEF89498ED9FBD83BF34
:1003200078940895482F9B01E6EDF1E080E090E09D
:100330005081552331F00196339680319105C1F7F4
:100340000AC063E070E00E947C13FC01EA52FE4F99
:1003500040833283218308950F931F93CF93DF93BC
:10036000D091D601DD2351F10091D7011091D80130
:10037000C091B301C150C7FD0DC0EC2FEE0FFF0BB4
:10038000EC54FE4F0190F081E02DB8018D2F0995BE
:100390008111F0CFE6EDF1E0838180838481958146
:1003A00092838183339682E0E330F807A9F71092B5
:1003B00003021092050210920402D2CFDF91CF9176
:1003C0001F910F910895BC0180910802ABCF10924C
:1003D0000802109207021092060281E080938701C2
:1003E00008950F931F93CF93C82F08EA17E0CC23EB
:1003F00049F082E091DFC8010197F1F780E08CDFDE
:10040000C150F5CFCF911F910F910895E091070151
:10041000F09108013196FB70F460F0930801E093CD
:1004200007018091A8018B5A8093A801E4918091E3
:10043000A8018E0F08950F931F93CF93DF9300D0E1
:100440001F92CDB7DEB72091260130912701409150
:10045000280129833A834B83FE01319640E050E026
:1004600090E061E070E0B1919A01220F331F8C019E
:1004700002C0159507952A95E2F79801237061F05F
:100480002130D1F4A0B39B0101C0220FBA95EAF745
:10049000322F30953A2318C0A0B39B0101C0220F20
:1004A000BA95EAF720953A2F322330BB32B3322384
:1004B00032BB31B323230EC0A0B39B0101C0220F76
:1004C000BA95EAF73A2F322B30BB32B3322B32BB1C
:1004D00031B3232B21BB4F5F5F4F4330510519F6DA
:1004E0000F900F900F90DF91CF911F910F91089572
:1004F000CF93DF9300D000D000D0CDB7DEB790917E
:1005000081012091C4013091C5012E54394009F474
:1005100092E0843019F46093820121C06623F9F0DF
:10052000823019F427E9261B622F26E0E9E2F1E088
:10053000DE01119601900D922A95E1F7E82FF0E087
:100540003197EE0FFF1F21E030E02C0F3D1FE20F2F
:10055000F31F0190F081E02DE90FF11D60832696D5
:100560000FB6F894DEBF0FBECDBFDF91CF910895D7
:10057000BF92CF92DF92EF92FF920F931F93CF9390
:10058000DF93EC0140918101E0918301EE2311F0B2
:1005900082E001C0842F90E0DC01AB5EBE4F2C9165
:1005A00020931901DC01AE5EBE4F8C91809318013F
:1005B000F0E0E15FFE4F3181622F70E0442349F0AB
:1005C000313039F49B01280F311DC901959587956C
:1005D00038C0C617D707A4F1682F70E06C177D07E5
:1005E00084F1411102C08C2F2CC0821B032F10E01C
:1005F00001501109E82EF12CC701B8010E94C61361
:1006000060937F016695E62FF0E0822FC12CD12CFC
:10061000B12CB316B1F0C601B8010E94B213822FFB
:10062000860FCE0CDF1CAE01481B510957FF03C0DB
:10063000519541955109E417F5071CF4B394E9CF9E
:10064000822FDF91CF911F910F91FF90EF90DF905C
:10065000CF90BF90089581E00895611160932401C7
:100660000895662389F0813061F48091C7019091EB
:10067000C601891B681B6093C60182E08093250137
:1006800003C0635E6093230180912301873418F0D7
:1006900086E480932301089570E070930D016093C8
:1006A0000C0108950F931F93CF93DF9380918101E5
:1006B00080938801809115018093890180911201B6
:1006C00080938A0180910F0180938B0180911601A4
:1006D00080938C018091130180938D018091100192
:1006E00080938E018091170180938F018091140176
:1006F00080939001809111018093910180918301F9
:100700008093920180918201809393018091800176
:100710008093940180911A018093950180918501C5
:100720008093960180918401809397018091770155
:1007300080939801809122018093990180917801A2
:1007400080939A018091210180939B0180910B01FC
:1007500080939C018091090180939D0180910A0101
:1007600080939E0180910E0180939F0180912301CF
:100770008093A0018091C6018093A1018091240102
:100780008093A20180911E018093A30180911D019D
:100790008093A401809120018093A50180911F0185
:1007A0008093A60180910C018093A70182E019DE5D
:1007B000F89408E811E0C1E8D0E0F80161918F01F8
:1007C000CE010E9403142196C13AD105B1F765EA22
:1007D00080E890E00E9403147894DF91CF911F91FC
:1007E0000F910895829A929A8A9A0895882331F0F7
:1007F000813041F48298929A8A9A089582989298C8
:100800008A980895EFCFEF92FF921F93CF93DF93D3
:10081000182F8091AA01811109C0112339F080910C
:100820002101181718F4EFDF82E0DBDD1093AA0135
:100830001093A9018091AB0181110AC0FCDD212F29
:1008400030E081E02A3131050CF480E08F5FCEDFAB
:10085000111113C010920A021092090210926D0039
:1008600010926C0010926B0010926A0010926F0050
:1008700010926E00889889982BC08FEF810F90E0BE
:10088000880F991FFC01E055FE4F2591349130935C
:100890000A0220930902FC01EC57FF4F2591349185
:1008A00080916001A90140525109882339F060917B
:1008B0006E0070916F0046175707B8F330936900C8
:1008C00020936800811104C010926F0010926E0096
:1008D000C0910902D0910A02E0906800F09069008E
:1008E0008091AA0181509091220191110BC090E05A
:1008F0006FEF70E00E947C1366E970E00E94B21313
:10090000262F1AC09F3F61F490E06FEF70E00E94C5
:100910007C1366E970E00E94B213262F20950CC06C
:10092000892F90E064E670E00E947C1363E670E03B
:100930000E94C6132FEF260FBE0180E090E030E04A
:1009400040E050E00E948D1361587F4F8F4F9F4FC2
:100950002FEF30E040E050E00E94D913C901C21BE4
:10096000D30BE216F30630F42E193F09C20FD31F42
:10097000C70109C0EC16FD0630F42E193F09CE015F
:10098000820F931FE701D0936D00C0936C0090938A
:100990006B0080936A00CD2B11F0889A01C0889873
:1009A000892B11F0899A01C0899810936001809178
:1009B000AA01823010F482E005C08A3010F481E090
:1009C00001C080E0DF91CF911F91FF90EF90A4CC08
:1009D000CF93C091AA0186E48C0F873908F080E09C
:1009E00012DF83E0FEDC8C2FCF910DCFCF93C0912F
:1009F000AA0180E008DF83E0F4DC8C2FCF9103CFE5
:100A00000F931F93CF93DF93E82F8091C9019FEF3E
:100A1000980F9C3120F480E00EDD80E08FC0CE2F57
:100A2000C295CF70DE2FDF709091AB01911103C0A2
:100A3000C33008F0C2E0D730A8F400915A0110E0AA
:100A40000F5F1F4FE3DC65E00E94A6139801290F9A
:100A5000311DC90166E070E00E94C61380935A01FF
:100A6000ED2F41C0D730A9F400915A0110E00F5F7B
:100A70001F4FCCDC65E00E94A6139801290F311DA1
:100A8000C90166E070E00E94C61380935A01FC0120
:100A900035C0D830B1F48091AB01882311F08FEFCD
:100AA00001C083E0682351F480915A0190E00196DF
:100AB00066E070E00E94C61380935A01E0915A01EB
:100AC00012C09091AB01992381F08D31D8F090E064
:100AD000E92FF0E0EE5BFE4F2081821710F09E5F61
:100AE000F7CF3197E081F0E009C0862F869563E06B
:100AF0000E94A613E92FF0E0EE0FFF1FE358FF4F0F
:100B0000E49101C0E0E0C33071F48091590190E0BC
:100B1000019663E170E00E94B21380935901DC01F9
:100B2000A15DBE4FCC91CC2321F0C13019F0EE0F66
:100B300001C0E0E08E2F7FDC80911C01DF91CF911E
:100B40001F910F9153CE813019F4109285010895B1
:100B5000823019F4609384010895833019F460930E
:100B600080010895843011F460931A010895813052
:100B700069F4611101C080E080937801611102C0C5
:100B80008FE701C081E0809322010895823011F443
:100B9000609321010895883039F410927E011092FB
:100BA0007C0110927B0140C0813B59F480917E0111
:100BB00081508330D8F583E080937E0180937D015E
:100BC00035C0853BB1F4CB016EE370E00E94B213F7
:100BD000892B51F580917E01853F30F5865F8093AA
:100BE0007E0180937D0110927C0110927B01F0DEEA
:100BF0001BC08130D9F480917B0190917C010196DA
:100C000088382EE0920728F490937C0180937B0132
:100C10000BC010927C0110927B0180917E01882391
:100C200019F0815080937E0180E0089581E008955D
:100C3000CF93833B09F052C080917801882381F0E3
:100C4000672B09F065C0809122018E3F19F081E089
:100C5000809322018091220180958093220153C0CC
:100C6000672B29F481E080935801109257018091FD
:100C70005801882309F44DC090910501809122010B
:100C8000191624F48E3F48F48F5F05C0992329F08C
:100C9000823018F0815080932201C09157019091C9
:100CA0002201C03449F481E48093570181E089270F
:100CB000809322019BDE0DC080915601891309C0EB
:100CC000C11102C093DE02C0CF3F19F0CF5FC093C5
:100CD0005701809122018093560115C0833EC1F4D3
:100CE00010925801809105018195809305018091B2
:100CF0002201823010F481E003C08E3F18F08FEFA4
:100D000080930501CFDC8091AA017DDD80E001C0E8
:100D100081E0CF910895FF920F931F93CF93DF93BC
:100D20008C01EB01F42E8091C4019091C501892BB7
:100D300031F0E091C401F091C50189E0099510936B
:100D4000C5010093C401012B39F0E091C401F09179
:100D5000C501BE018F2D099581E080938701DF9148
:100D6000CF911F910F91FF900895CF93DF93E09162
:100D7000B301EE2359F0E150E093B301F0E0EE0F40
:100D8000FF1FEC54FE4FC081D18102C0C0E0D0E013
:100D9000E091B301EE2341F0F0E0EE0FFF1FEE54BF
:100DA000FE4F8081918102C080E090E04AE060E0E7
:100DB00070E0B1DFCE01DF91CF910895883029F442
:100DC0001092750110925B0116C0813001F590916F
:100DD0005B01911107C06032710570F180935B0176
:100DE000F6DA2AC0913089F4673381E0780728F079
:100DF00082E080935B0180E01EC061157105E1F027
:100E00006270862F880F8E5E16C0AFDF15C08138E6
:100E100011F0813E89F491E090935B01813E21F4D1
:100E200080917501865F03C0809175018F5F80930B
:100E30007501CDDA8BE4E7DC80E008959C019091A8
:100E4000B301983088F4E92FF0E0EE0FFF1FEC5467
:100E5000FE4F318320839F5F9093B30148E0C90127
:100E60005ADF8091B30108958FEF08950F931F9378
:100E7000CF93DF93EC018B0178DFB801CE01DF91D6
:100E8000CF911F910F91DACF813C39F41092760106
:100E900060E070E08DED97E00DC0823C29F460E0E9
:100EA00070E085E997E006C0833C31F460E070E0D3
:100EB00085E697E0DBDF05C08A3C29F481E080937A
:100EC000760180E0089581E00895813C29F460E096
:100ED00070E08DED97E00DC0823C29F460E070E099
:100EE00084E497E006C0833C31F460E070E08CEB72
:100EF00097E0BCDF16C0813B49F4CB016EE370E0A4
:100F00000E94B213892B69F463DD0BC0813E59F452
:100F1000CB016EE370E00E94B2136F5F60930E012D
:100F2000C1DB80E0089581E00895CF93C0918301F3
:100F3000C1111EC0813C29F460E070E08DED97E0A6
:100F400006C0823C31F460E070E08CEB97E08EDF0D
:100F500010C0833C29F460E070E084E497E0F7CFB0
:100F6000873B31F460E070E08AE599E067DF01C01B
:100F7000C1E08C2FCF910895813C29F460E070E0AE
:100F80008DED97E00DC0823C29F460E070E085E6CD
:100F900097E006C0833C31F460E070E085E997E0BB
:100FA00065DF07C0873B39F460E070E08EE599E0CB
:100FB00045DF80E0089581E008950F931F93CF935C
:100FC0008B018830A1F480E01EDC60E0809120017C
:100FD00017DD80911E0180931C0108DC10927E01B8
:100FE000012B19F481E08093AB01C0E00BC181308B
:100FF00049F469317105C8F38093AB0180912001F8
:10100000FFDCF3CF833051F520918501222381F05D
:101010008091840190E062EC71E00E947C130817DB
:10102000190730F020931B018091770180932201F2
:10103000602F80912001E4DC80910C0190910D01E2
:10104000009799F262EC71E00E947C13801791077F
:1010500060F660E070E086E699E048C0813B99F474
:1010600081E090E085DACFDB809180018111BDCFF6
:1010700080918101811104C00831110508F4B5CFB8
:1010800061E070E028C0813ED9F3813821F480917D
:101090001B0190E013C0813C21F46091AA0170E033
:1010A0001AC0823B79F480911A01909183019111C9
:1010B00080918201811104C086E990E059DA05C06F
:1010C00086E903C0823E19F480E09DDB8ECF823C2E
:1010D00029F466E970E08AE79EE008C08339A1F34D
:1010E000833C31F460E070E085E997E0BFDE7DCFBE
:1010F000843C09F4AECF8F3C29F460E070E08BE2D1
:1011000093E0F4CFC09183018A3B71F4672B61F4C3
:10111000CC2329F05DDC10928301C4DA66CF60E055
:1011200070E08EE499E06BC0C1116BC08A3C29F479
:101130004FDC81E08093830158C08D3B41F4F894EB
:1011400088ED8FBD88E880BF7894A895FFCF833B5A
:1011500029F460E070E084EC9CE006C0853B31F44B
:1011600060E070E080E39EE081DE4CC0863C71F47C
:1011700080911E0190E0019663E070E00E94C6132A
:1011800080931E0180931C0131DB2FC0873C91F4BA
:1011900090912001892F82958F708F5F8370829547
:1011A000807F9F70892B8093200160E029DC7ADAB0
:1011B0000FDC28C0873BB9F4C8018F739927892BAE
:1011C00069F490912001892F8F708F5F292F207FE4
:1011D0006BE00E94A613922B90932001602F8091C8
:1011E00020010EDC0FC0873E11F45CDA0BC0893B96
:1011F00041F4012B31F460E070E086E599E01EDEF9
:1012000001C0C1E08C2FCF911F910F9108958830BC
:1012100061F410925C0180E0F6DA8091AC018111FA
:1012200037C081E080935C0123C0982F907F903B72
:10123000B9F420915C01421780F0CB016DE570E0BC
:101240000E94B213029739F42F5F20935C0142177A
:10125000F8F088E303C082E101C080E0D4DA18C06E
:10126000903E61F480915C01882389F0481778F002
:1012700060E070E08EED96E0E1DD0AC08A3041F476
:101280006091750180915C01F90109950BDA6DDDC2
:1012900080E0089528E732E043E0B9CF28E732E064
:1012A00044E0B5CF23EA35E044E0B1CF27EB35E0A9
:1012B00042E0ADCF2DE233E041E0A9CF21E333E0BE
:1012C00042E0A5CF2CE433E041E0A1CF0F931F9380
:1012D000CF93DF93D82F8B01873B19F480E093DA0B
:1012E00060C080798039B1F4209115019091160188
:1012F0008D2F8F70823041F480918501811108C05B
:10130000822F291728F403C0822F921708F4892FFF
:101310007ADA10C0803811F480E075DAD83051F4F0
:1013200060E080911F016CDB80911D0180931C01A6
:101330005DDA37C0D13039F40931110508F47EC0C7
:10134000D093AB0102C0D33029F4602F80911F01EC
:1013500057DB74C0D33C29F460E070E08DED97E07A
:101360001EC0D43C71F4C0918501CC2319F06C2FC0
:1013700070E013C060911B0170E08AE79EE076DDAB
:1013800060C0D43B31F432DB1092080261E070E0BF
:1013900004C0D53C31F466E970E08AE79EE066DD82
:1013A0004DC0C0918301C1114BC0DA3B31F460E004
:1013B00070E082E699E042DD44C0D63C71F4809151
:1013C0001D0190E0019663E070E00E94C6138093D7
:1013D0001D0180931C010ADA2FC0D73C91F4909133
:1013E0001F01892F82958F708F5F83708295807F18
:1013F0009F70892B80931F0160E002DB53D9E8DAEC
:1014000020C0D73BB9F4C8018F739927892B69F4A1
:1014100090911F01892F8F708F5F292F207F6BE0A4
:101420000E94A613922B90931F01602F80911F01A1
:10143000E7DA07C0D73E21F435D903C0C0E001C0C8
:10144000C1E08C2FDF91CF911F910F91089586E815
:1014500084B91092D3011092D40183B1886483B906
:101460000895F5DFE1E6F0E0808182608083139AE1
:1014700087EE83B908951092D50120B191B13091D2
:10148000A8012295269526952370892F90E0880F34
:10149000991F880F991F820F911D830F8093A801B8
:1014A0008091CA01882309F407C11092CA01809172
:1014B000D3019091AB01992319F01F981092D30199
:1014C00081113EC080912501882349F08091CF0190
:1014D0009091D0019093CC018093CB0104C0809176
:1014E000CB019091CC014096807E9695879561ECDA
:1014F00072E00E94B213809124018750680F6093BC
:10150000C90180917401882311F0815008C06D31A8
:1015100040F460E070E084E00E94920185E08093F6
:1015200074018091AB018111BEC08EE884B981E065
:101530008093D3011092D40183B1886483B9B3C07E
:10154000813009F0B0C080912501811143C08091A4
:10155000CD019091CE01409645E0969587954A95AC
:10156000E1F76091C601AC0156954795062E000C37
:10157000770B9B012A503140240F351F3093C8014F
:101580002093C70120916301E22FF0E0EE0FFF1FCF
:10159000EC59FE4F40815181DC01A41BB50BAD011C
:1015A000918380832F5F2770209363019D01220F19
:1015B000331F220F331F820F931F2091230130E02E
:1015C000261B370B265F3E4F220F331F821B930BC8
:1015D00023E01CC08091D1019091D2019093CE0163
:1015E0008093CD01409635E0969587953A95E1F741
:1015F000E4E6F1E081939193B1E0E437FB07D1F7A2
:10160000A6CF009709F00196215029F01816190667
:10161000C4F70197F9CF18161906E4F457FD39C03D
:101620002091620112160CF1880F991FBC016350C2
:10163000710977FF02C06F5F7F4F7595679516162A
:10164000170614F061E070E088E1861B8093620168
:1016500085E026C08C3F2FEF9207DCF457FF19C0BE
:101660002091620127FF05C02450281B20936201AE
:1016700019C024EE281B209362012091C9012F314B
:1016800088F06CEF7FEF681B790B7595679586E0A6
:1016900007C08091C9018E3128F060E070E087E0DA
:1016A0000E949201D4DE80912501882329F0809147
:1016B00025018150809325010895843021F5809182
:1016C000C4019091C5012CE0843C920729F469E1A2
:1016D00070E08AE79EE015C08A579E4071F49091B1
:1016E000AA01923050F0892F869596959695890F8C
:1016F0008093860188D880E0089560E070E08DEDE9
:1017000097E0B4DBF8CF81E008950F931F93CF9358
:101710001092AE0180910602909107029C012F5F0A
:101720003F4F88279078822B932B909307028093CA
:1017300006029091AC012FB1822F8095881F8827D7
:10174000881F8093AC01981729F11092AB01809308
:10175000AC0190910802892F27FD0AC080699F7013
:101760009F3009F08F5F8093080280E090E00CC00A
:101770008F7E95FD02C0806801C0806C8093080256
:1017800080910602909107020E94E30110920702E5
:101790001092060200910602109107028091AB019F
:1017A000882379F0B80183E00E9492010E94AC0185
:1017B0000F731127012B09F046C01092610151DE11
:1017C00032C0C09108028C2F807F803B19F460E00A
:1017D00070E001C0B80181E00E949201C4FF13C013
:1017E000C5FF02C0C8010CC008311105E0F010921D
:1017F000070210920602C062C093080280E090E0E7
:101800000E94E30110C0CC2371F0C5FD0AC0023173
:10181000110548F0C064C093080280E090E00E9487
:10182000E3010E94E70180916101811106C083B14B
:10183000886483B981E08093CA01809161018F5FE0
:101840008F7180936101CF911F910F9108958091C5
:10185000D501811110DE8091AE01811156CF08951E
:10186000EF92FF920F931F93CF93DF93EC0108E069
:1018700017E082ECE82EFF24F3942097D9F08091B2
:101880008701811119C08091AA01823028F482E079
:101890000E948C01C70104C080E00E948C01C80135
:1018A0000197F1F780E00E948C01D1DF0E94AC012A
:1018B0002197E3CF81E001C080E0DF91CF911F91BC
:1018C0000F91FF90EF900895FF920F931F93CF9386
:1018D000DF93C82F882311F007EB02C006E4C1E0B4
:1018E00082E0F82E10E0D1E0F0921C0160E08091DF
:1018F000200186D8C801B4DFD0931C0160E080913C
:1019000020017ED883E191E0ABDF80911E018093BE
:101910001C01C15049F78DED92E0DF91CF911F91ED
:101920000F91FF909DCFCF93DF9364E60FD7282FC1
:10193000892F6AE00BD7EC01222341F0822FC4DF0C
:101940008C2FC2DF8D2FDF91CF91BECFC111F8CF89
:10195000F9CFCF93DF93D82FC3E080911B010E9472
:10196000030488EC90E07CDFDD2319F080E991E04E
:1019700077DF80E00E94030488EC90E071DFC150C3
:1019800061F7DF91CF910895DF92EF92FF920F936D
:101990001F93CF93DF93D82F8B01C0910B0181E070
:1019A00080937A01C33009F0DEC0F0907E018D2F64
:1019B000F2D8FF2051F080917E01811106C060E0D5
:1019C00070E08DED97E052DACEC0D83021F481E09E
:1019D00080930301CAC0D23C19F410927E01D3C097
:1019E000D13BC1F490910201012B49F49F3510F0D5
:1019F0008FEF03C0923018F481E08093030180914F
:101A00000301890F11F481E020C1803608F41DC163
:101A10008FE51BC1D13E31F4809103018195809304
:101A20000301DAC0D23B61F481E08093030180912D
:101A30000201823008F4D8C0815080930201D4C0E2
:101A4000D13009F0A4C00932110511F4D09303017B
:101A5000D09055018D2D880FD7FC809590E06CE0DB
:101A600070E04AD6292FE09054018E2D880FE7FCB4
:101A70008095D09101016D2F70E090E03DD6290F47
:101A8000F09053018F2D880FF7FC8095C0910001D5
:101A90006C2F70E090E030D6920F6091020170E000
:101AA000690F711D80917E01813091F480917B01DD
:101AB00090917C0125E0969587952A95E1F724E79A
:101AC00030E0A901481B590BCA0116D6B9014AD604
:101AD000862F0E94030400FD06C00E94060281704A
:101AE000D80ED092550180915201E80EE092540137
:101AF0000E94060265E22AD6F90EF09253010E9476
:101B000006028F7331F40E9406026DE01FD6909397
:101B10005201DD2339F00E9406028F7319F4D1506F
:101B2000D09301010E940602811108C00E940602A2
:101B300062E10CD69093010110925401C33038F049
:101B40000E9406028F7119F4C150C09300010E94D7
:101B500006028F7709F06DC00E9406026AE0F6D592
:101B60009093000166C0D83021F481E08093040195
:101B70006EC0D13C31F460E070E08DED97E076D935
:101B800066C0D23C31F4EC2FF0E0319607C0D13C76
:101B900091F3D33C41F4EC2FF0E03396E370FF2750
:101BA000E0930B0134C0D13BA9F4C23008F04FC020
:101BB00000FD4DC0EC2FF0E0E75FFE4F808190917B
:101BC0000401891B883020F08F3FE9F48EEF1BC0A1
:101BD00088E019C0D13E31F4809104018195809351
:101BE000040115C0D23B89F481E080930401C23026
:101BF00070F500FD2CC0EC2FF0E0E75FFE4F808118
:101C00008F3F29F18F5F808322C0D23E19F40E945A
:101C100052031DC0D53C49F460E070E080E39EE0D3
:101C200025D980E00E94030412C0D13011F081E078
:101C30000FC00932110519F481E0809304018091ED
:101C4000A801080F0093A80102C08093020180E060
:101C5000DF91CF911F910F91FF90EF90DF9008954A
:101C60000F931F93CF93DF93D82F8B01883031F4DC
:101C700080917A01813011F488E086DE8D2F8079A1
:101C8000803961F481E080937901C0917A01C111BA
:101C90000EC080911B010E94030426C0803849F4C5
:101CA0001092790180E00E9403040E94F203C0E0D8
:101CB0001BC0D130C1F4C0917901CC2351F0809187
:101CC0007A018130A1F7B801DF91CF911F910F9177
:101CD0005BCE0733114058F3D093AB0160E080E056
:101CE0000E94000501C0C1E08C2FDF91CF911F91B0
:101CF0000F910895AF92BF92CF92DF92EF92FF9231
:101D00000F931F93CF93DF93182FEB01E0901901EE
:101D1000F0901801B0908101BB2019F0C0907F01B4
:101D200002C0CC24C39480911A0100918301011157
:101D300080918201882349F0813021F080911B013C
:101D40008F1518F0A6E9DA2E01C0DF2CA0907E01D5
:101D5000BE01812F0E94CB0560917E01662339F080
:101D6000A1100CC08091AA0180935F0107C0AA2036
:101D700029F060E070E08DED97E043C0812F8D7F0A
:101D80008830F9F410927A011A3019F4C0911B01CD
:101D9000D0E08E2D90E08C179D0738F48F2D90E0C9
:101DA000C817D90710F4C0931B01CE010E94B802D6
:101DB000809386010E94030481E08093060100E085
:101DC00096C1113CB1F2123C99F48091AA018D1593
:101DD00020F4D09286018D2D04C080911B01809348
:101DE00086010E9403048091AA0180935F01E7CFDE
:101DF000143C49F480E00E94030460E070E086E651
:101E000099E034D8DCCF8FE4810F823008F058C0DD
:101E1000BB2039F0CE0168E170E0A4D4892B31F009
:101E2000CECF60910F0170E0CE01F7CF2091AA01D3
:101E3000209761F4123B11F48FEF05C02F15E0F7E6
:101E4000E21608F181E0809306011DC0E0910F01C8
:101E5000F0E0CF0166E371E04FD48C179D0710F4DA
:101E60002F1550F7CF016CE672E046D48C179D0712
:101E700050F4E21640F00E94E80460E070E086E66C
:101E800099E00E943607D091AA01809106016C2D3D
:101E900070E0082E000C990B2FD48D0F911D0E941D
:101EA000B802C82F80931B01D81731F0F81611F033
:101EB000E81202C00E94F604C09386018C2F91CFD5
:101EC0008FE1810F823020F480910601819575CFDA
:101ED000113009F083C0A99711F41093060166230D
:101EE00091F080915F0170E06150710990E004D43D
:101EF00060917D0170E04AD4611101C061E060939E
:101F0000A90160938601C091A9018091AA012C2F9B
:101F100030E0281B310960915D0170915E016F5FB7
:101F20007F4F70935E0160935D012115310509F4C7
:101F300046CF37FF05C08D3830F040E450E005C093
:101F400040E052E002C040E051E05695479537FF2F
:101F500002C02F5F3F4F3595279521153105A9F711
:101F60004617570708F02BCFC81710F4815005C04B
:101F70008C1710F48F5F01C08C2FEFEFE80FF0E0AB
:101F8000EE0FFF1F9F0120553E4FF901659174919F
:101F90004091090250910A024617570718F44F5F03
:101FA0005F4F05C06417750730F4415051095093D5
:101FB0000A0240930902F9014591549120910902C6
:101FC00030910A024217530721F40E940304C09380
:101FD000A90110925E0110925D01F1CE1530A9F4B5
:101FE0008091AA018C3408F4EACE90E08C1B9D0B02
:101FF000282F8B3491052CF08739910518F026E9AC
:1020000001C02BE42093A901DACE1630B1F49091EF
:10201000AA0180918601981708F0D1CEC90FD11D71
:1020200090E08C179D0734F0CB34D10524F4CBE439
:10203000D0E001C0EC018C2F0EC0173079F49091E4
:10204000A9018091AA01891710F48F5F04C0981725
:1020500008F0B5CE81508093A901B1CE011146C0E0
:10206000133CC9F481E0B11080E0809381010E94AB
:1020700052030E94F6048091AA0190E00E94B802E7
:1020800080931B01809386010E9403048091AA0122
:1020900080935F012CC0153C51F480E00E94030442
:1020A00060E070E080E39EE00E94360720C0173BAE
:1020B00029F460E070E08AE499E015C01A3C69F404
:1020C0008091AA01809385018091220180937701FC
:1020D0000E9452030E94E8040AC01A3B39F460E0EF
:1020E00070E082E599E00E941E0701C001E0802FA8
:1020F000DF91CF911F910F91FF90EF90DF90CF90E4
:10210000BF90AF9008951F920F920FB60F921124B7
:102110002F933F938F939F93AF93BF93EF93FF932F
:102120008091D4018823E9F0E091D30120B131B14D
:10213000F0E0EE0FFF1FDF01A153BE4F2D933C9344
:10214000E553FE4F808191818217930708F4019631
:102150002817390708F401979183808381E08093E1
:10216000D50181E08093D401FF91EF91BF91AF91B0
:102170009F918F913F912F910F900FBE0F901F90C5
:1021800018951F920F920FB60F9211248F9381E032
:102190008093AE018F910F900FBE0F901F901895F6
:1021A0001F920F920FB60F9211248F9381E08093AC
:1021B000AD018F910F900FBE0F901F901895F8945E
:1021C00085B7877F85BF88ED90E00FB6F894A89516
:1021D0008FBD90B7977F90BF0FBE81E088B998E020
:1021E0009CB99FE790BB92EA9093720091E1909323
:1021F000710091E89BBB8ABB8FEF91E090936900DF
:102200008093680080E882BB87BD8CB788608CBFF4
:10221000A89580E480BF25D9789481E00E94F101DF
:1022200060E070E08DE59BE00E941E071092870140
:102230000E94E8049FB1892F8095881F8827881FF6
:102240008093AC0197FF0BC082E00E94F101F894EB
:1022500080E890E0D0D2853AB9F17894C6C0C0E069
:102260008C2F0E94030483E190E0FADA8C2F86958C
:102270000E94030483E190E0F3DA9FB1892F8095F7
:10228000881F8827881F8093AC0197FD13C0CF5FFC
:10229000C03431F765E181E00E9431030E945203AE
:1022A000C6E98C2F0E94030484E090E0D9DAC15083
:1022B000C1F7CACFCC2341F28C2F0E9403048DE0DA
:1022C00090E0CEDAC150F6CF08E811E0C1E8D0E0E6
:1022D000CE0191D2F80181938F012196C13AD105A7
:1022E000B9F7789480918801809381018091890168
:1022F0008093150180918A018093120180918B0156
:1023000080930F0180918C018093160180918D0143
:102310008093130180918E018093100180918F0131
:102320008093170180919001809314018091910115
:102330008093110180919201809383018091930198
:102340008093820180919401809380018091950116
:1023500080931A0180919601809385018091970165
:1023600080938401809198018093770180919901F5
:102370008093220180919A018093780180919B0142
:102380008093210180919C0180930B0180919D019C
:102390008093090180919E0180930A0180919F01A1
:1023A00080930E018091A001809323018091A1016F
:1023B0008093C6018091A201809324018091A301A2
:1023C00080931E018091A40180931D018091A5013D
:1023D000809320018091A60180931F018091A70125
:1023E00090E090930D0180930C0180918501811103
:1023F00080931B0160E070E088E196E00E941E0778
:1024000061E070E08DED97E00E941E0743E4442EEA
:1024100052E0552E60E4862E9924939477E0772E2F
:10242000CC24C394D12CF5E06F2EADEDAA2EA7E0FD
:10243000BA2E0E94AC018091B1019091B201009737
:1024400051F06091AF017091B0010E943607109277
:10245000B2011092B1018091AB01882309F448C008
:1024600080E00E940304A89540BE1F989FB1892F69
:102470008095881F8827881F8093AC0197FFF6CF2F
:102480000E94E7018CB788608CBF1092D501109232
:10249000AE011092AD018091AB01882301F186B7A6
:1024A0008F79806486BF86B7806186BF889586B73E
:1024B0008F7E86BF8091AD0181111092AB0180911A
:1024C000D501882331F0909225019092CA010E9493
:1024D0003B0A8091AE018823F1F217D9DCCF5092EC
:1024E00025018CB7877F8CBF0E94310AA89580BEDA
:1024F000AED9109287018091C4019091C501F3E09B
:102500008B329F0779F4C0E7D0E0FE0184918053BD
:10251000DBD98CE291E0A4D92196F0E0CC37DF073B
:10252000A1F7A1C02CE0843C920779F03EE0803313
:10253000930709F08DC080917A01813009F0D1C0F4
:1025400080917901882309F4CCC0C0910B01C2307D
:1025500018F0C230C1F06DCFEC2FF0E0E75FFE4F16
:10256000D08186E90E940304C11103C082E090E09B
:1025700003C08D2F869590E073D980E00E940304FC
:102580008D2F90E0ACC00E9406028F73E82EF12CD4
:102590000E940602672DDAD0E60102C0CC0FDD1FD3
:1025A0009A95E2F70E940602662DD0D0F60102C08D
:1025B000EE0FFF1F9A95E2F7CE0FDF1F0E94060273
:1025C00090E0BE01E3D0C80FD91FC739D10514F080
:1025D000C6E9D0E08C2F0E940304C70141D98E01C7
:1025E00033E0159507953A95E1F7011101C001E037
:1025F00010E0C70135D9C01BD10BD7FF02C0C0E026
:10260000D0E08C2F0E9403040E940602837039F4EC
:10261000C70126D9CE01959587950E940304C23043
:10262000D1053CF70E9406026DE090D0E60102C0A1
:10263000CC0FDD1F9A95E2F70E94060290E0BE01E2
:1026400091D0C80FD91F80E00E940304CE0147C07B
:10265000F7E085399F0781F48091C90164D98091A1
:102660008301882381F0B092B201A092B10110924F
:10267000B0011092AF01DDCE27E08C3B920731F420
:102680008091C70150D988EE93E029C037E08536A4
:102690009307B9F48091AC018111CBCE80911B01DD
:1026A0000E94030484E690E0DBD880E00E940304EB
:1026B00080910E0190E068EE73E01ED0845691097F
:1026C0000EC08454974069F480917601811105C051
:1026D00040D981E03ED980E03CD980ED97E0C0D878
:1026E000A8CE86B78F7986BF86B7806186BF88956A
:1026F00086B78F7E86BF9DCE0024552704C0080E66
:10270000591F880F991F009729F076956795B8F3A0
:102710007105B9F7802D952F0895EE27FF27AA2779
:10272000BB2708C0A20FB31FE41FF51F220F331FE2
:10273000441F551F969587957795679598F3704038
:10274000A9F7009799F7BD01CF010895991B79E08A
:1027500004C0991F961708F0961B881F7A95C9F731
:1027600080950895AA1BBB1B51E107C0AA1FBB1F80
:10277000A617B70710F0A61BB70B881F991F5A950D
:10278000A9F780959095BC01CD01089597FB072E80
:1027900016F4009406D077FD08D0E4DF07FC05D0DE
:1027A0003EF4909581959F4F0895709561957F4F68
:1027B0000895A1E21A2EAA1BBB1BFD010DC0AA1F82
:1027C000BB1FEE1FFF1FA217B307E407F50720F09A
:1027D000A21BB30BE40BF50B661F771F881F991F15
:1027E0001A9469F760957095809590959B01AC015E
:1027F000BD01CF010895E199FECF1FBA8EBBE09ACB
:1028000099278DB30895262FE199FECF1FBA8EBB6D
:10281000E09A81500DB2021639F01CBA2DBB0FB6EA
:0E282000F894E29AE19A0FBE0895F894FFCF63
:10282E000A1218010101010004294303D00202011A
:10283E0007058282820A0A0A820A014602010217EB
:10284E00271580320702050403150112010F01023C
:10285E000100000000000000010000000000000068
:10286E0000010000210123022503270429052C065F
:02287E00FF0653
:00000001FF
