:10000000ABC0C5C016CDC3C0C2C0C1C0C0C0BFC098
:10001000C3CCBDC0BCC0BBC0FDCCB9C0B8C03230C1
:1000200032323130303230343232000000000000E1
:1000300000000000000000000000000000000000C0
:1000400000000000000000000000000000000000B0
:1000500000000000000000000000000000000000A0
:100060000000000000000000000000000000000090
:10007000000000000000000000000000000000017F
:1000800002030405060708090A0B0C0D0F101113D3
:10009000141617191B1C1E1F21232527292B2D2F52
:1000A000323437393C3F4144474A4D5053575A5DEB
:1000B0006165696C7074797D81868B8F94999FA43A
:1000C000A901010202030304040505060607080846
:1000D000090A0A0B0C0D0E0F101112131516171921
:1000E0001A1B1D1F20222426282A2C2E3133363895
:1000F0003B3E4144474A4E5155595D61656A6E73B6
:10010000787D82888D9399A0A6ADB4BBC3CAD2DB9B
:10011000E3ECF5FFFFFFFFFFFFFFFFFFFFFFFFFF28
:10012000FFFFFFFFFFFFFFFFFFFFFFFFFFFFFFFFDF
:10013000FFFFFFFFFFFFFFFFFFFFFFFFFFFFFFFFCF
:10014000FFFFFFFFFFFFFFFFFFFFFFFFFFFFFFFFBF
:10015000FFFFFFFFFFFFFF0011241FBECFE5D2E02E
:10016000DEBFCDBF10E0A0E6B0E0E6EAFFE102C0EE
:1001700005900D92A639B107D9F721E0A6E9B0E0C4
:1001800001C01D92AE33B207E1F762DC0ACF38CF6F
:10019000482F9B01EBE0F1E080E090E05081552397
:1001A00031F00196339680319105C1F709C063E0C3
:1001B00070E099DEFC01E55FFE4F408332832183CE
:1001C00008950F931F93CF93DF93D0910B01DD23FD
:1001D00051F100910C0110910D01C091E800C15046
:1001E000C7FD0DC0EC2FEE0FFF0BE751FF4F019045
:1001F000F081E02DB8018D2F09958111F0CFEBE052
:10020000F1E0838180838481958192838183339619
:1002100081E0E833F807A9F71092380110923A010B
:1002200010923901D2CFDF91CF911F910F91089594
:10023000BC0180913D01ACCF10923D0110923C0178
:1002400010923B0181E08093C300089590E822E082
:1002500048EA57E030E0815070F00FB6F89496BD50
:1002600026BD0FBEFA013197F1F70FB6F89496BD8F
:1002700036BD0FBEF0CF089586B383FB882780F983
:1002800091E089278093E1000895E0916600F09164
:1002900067003196FB70F460F0936700E0936600AE
:1002A0008091DD008B5A8093DD00E4918091DD0028
:1002B0008E0F0895CF93DF9300D000D000D0CDB73C
:1002C000DEB79091BD002091F9003091FA002F51D6
:1002D000384009F492E0843019F46093BE0021C0E4
:1002E0006623F9F0823019F427E9261B622F26E0F5
:1002F000EFE7F0E0DE01119601900D922A95E1F70B
:10030000E82FF0E03197EE0FFF1F21E030E02C0FD7
:100310003D1FE20FF31F0190F081E02DE90FF11D69
:10032000608326960FB6F894DEBF0FBECDBFDF9177
:10033000CF910895BF92CF92DF92EF92FF920F93E9
:100340001F93CF93DF93EC014091BD00E091BF007C
:10035000EE2311F082E001C0842F90E0DC01AC5864
:10036000BF4F2C9120937800DC01AF58BF4F8C9188
:1003700080937700F0E0E259FF4F3181622F70E007
:10038000442349F0313039F49B01280F311DC90154
:100390009595879536C0C617D70794F1682F70E0FA
:1003A0006C177D0774F1411102C08C2F2AC0821B8B
:1003B000032F10E001501109E82EF12CC701B801FC
:1003C000C3DD6093BB006695E62FF0E0822FC12C61
:1003D000D12CB12CB316A9F0C601B801A1DD822F32
:1003E000860FCE0CDF1CAE01481B510957FF03C01E
:1003F000519541955109E417F5071CF4B394EACFE0
:10040000822FDF91CF911F910F91FF90EF90DF909E
:10041000CF90BF90089581E00895611160937D00B1
:100420000895662389F0813061F48091FC009091F9
:10043000FB00891B681B6093FB0082E080937E00B9
:1004400003C0635E60937C0080917C00873418F069
:1004500086E480937C00089570E070936C00609354
:100460006B0008950F931F93CF93DF938091BD008E
:100470008093C400809174008093C50080917100C6
:100480008093C60080916E008093C70080917500B4
:100490008093C800809172008093C90080916F00A2
:1004A0008093CA00809176008093CB008091730086
:1004B0008093CC00809170008093CD008091BF002C
:1004C0008093CE008091BE008093CF008091BC00CD
:1004D0008093D000809179008093D1008091C100F9
:1004E0008093D2008091C0008093D30080916A00F5
:1004F0008093D400809168008093D500809169003A
:100500008093D60080916D008093D70080917C000D
:100510008093D8008091FB008093D90080917D006A
:100520008093DA0080917B008093DB0080916B00E8
:100530008093DC00F89404EC10E0C1E0D1E0F80115
:1005400061918F01CE011BDD2196CA31F1E0DF07F9
:10055000B1F765EA80E091E012DD7894DF91CF9108
:100560001F910F910895882331F0813049F4BA9892
:10057000C29ABC9808C0BA98C298BC98C49808950A
:10058000BA9AC29ABC9AC49A0895CF93C82F8093FE
:10059000DF008093DE008091E000811101C0E3DF85
:1005A000C11103C019BC18BC0DC0C1508C2F90E004
:1005B000FC01EF53FF4FE491E9BDFC01E55DFF4F06
:1005C000E491E8BD8091DF00863010F492E005C030
:1005D0008D3010F491E001C090E080E80FB6F894FF
:1005E00086BD96BD0FBECF9108958093C200CDCF3A
:1005F000CF93C091DF0089E18C0F873908F080E04C
:10060000C4DF82E023DE8C2FCF91BFCFCF93C09188
:10061000DF0080E0BADF83E019DE8C2FCF91B5CF09
:10062000813019F41092C1000895823019F460935A
:10063000C0000895833019F46093BC00089584309D
:1006400011F46093790008959091FE009D3110F4AB
:1006500080E006C08F70E82FF0E0EB57FF4F8081FD
:1006600082CF883039F41092BA001092B8001092FC
:10067000B7003FC0813B59F48091BA00815083306C
:10068000D0F583E08093BA008093B90034C0853BF5
:10069000A9F4CB016EE370E043DC892B51F5809126
:1006A000BA00853F30F5865F8093BA008093B90029
:1006B0001092B8001092B7009BDF1BC08130D9F4B4
:1006C0008091B7009091B800019688382EE092078B
:1006D00028F49093B8008093B7000BC01092B80034
:1006E0001092B7008091BA00882319F0815080934E
:1006F000BA0080E0089581E00895FF920F931F9360
:10070000CF93DF938C01EB01F42E8091F90090914F
:10071000FA00892B31F0E091F900F091FA0089E0BC
:1007200009951093FA000093F900012B39F0E0913C
:10073000F900F091FA00BE018F2D099581E08093B8
:10074000C300DF91CF911F910F91FF900895CF9338
:10075000DF93E091E800EE2359F0E150E093E800E8
:10076000F0E0EE0FFF1FE751FF4FC081D18102C0C3
:10077000C0E0D0E0E091E800EE2341F0F0E0EE0FC1
:10078000FF1FE951FF4F8081918102C080E090E01E
:100790004AE060E070E0B1DFCE01DF91CF910895D3
:1007A000883029F41092B30010929A0016C081305C
:1007B00001F590919A00911107C06032710570F1B6
:1007C00080939A0039DD2AC0913089F4673381E043
:1007D000780728F082E080939A0080E01EC06115BF
:1007E0007105E1F06270862F880F8E5E16C0AFDF54
:1007F00015C0813811F0813E89F491E090939A0000
:10080000813E21F48091B300865F03C08091B300E4
:100810008F5F8093B30010DD8BE4B7DE80E0089536
:100820009C019091E800983088F4E92FF0E0EE0FF9
:10083000FF1FE751FF4F318320839F5F9093E800B4
:1008400048E0C9015ADF8091E80008958FEF0895CC
:100850000F931F93CF93DF93EC018B0178DFB801E7
:10086000CE01DF91CF911F910F91DACF813C39F406
:100870001092B40060E070E083EF94E00DC0823C21
:1008800029F460E070E08BEA94E006C0833C31F428
:1008900060E070E08DE794E0DBDF05C08A3C29F47E
:1008A00081E08093B40080E0089581E00895843071
:1008B00011F58091F9009091FA002BE089329207AE
:1008C00029F469E170E084ED95E013C0845D954002
:1008D00061F49091DF00923040F0892F86959695D3
:1008E0009695890F82DE80E0089560E070E083EFE6
:1008F00094E0AEDFF8CF81E00895813C29F460E018
:1009000070E083EF94E00DC0823C29F460E070E079
:1009100086E394E006C0833C31F460E070E082ED51
:1009200094E096DF14C0813B41F4CB016EE370E0AC
:10093000F7DA892B61F45CDE0AC0813E51F4CB0109
:100940006EE370E0EDDA6F5F60936D008BDD80E049
:10095000089581E00895CF93C091BF00C1111EC0DA
:10096000813C29F460E070E083EF94E006C0823CB3
:1009700031F460E070E082ED94E06ADF10C0833C07
:1009800029F460E070E086E394E0F7CF873B31F430
:1009900060E070E087E298E043DF01C0C1E08C2FA7
:1009A000CF910895813C29F460E070E083EF94E0FA
:1009B0000DC0823C29F460E070E08DE794E006C051
:1009C000833C31F460E070E08BEA94E041DF07C0E3
:1009D000873B39F460E070E08BE298E021DF80E053
:1009E000089581E008950F931F93CF938B01883072
:1009F00079F480E0CADD80917B008370B4DD1092D1
:100A0000BA00012B19F481E08093E000C0E0C7C078
:100A1000813051F469317105C8F38093E000809111
:100A20007B008370A0DDF2CF833019F52091C100E7
:100A3000222359F08091C00090E062EC71E053DA1B
:100A40000817190710F020937A0080917B008370BB
:100A5000833011F4802FF8DD80916B0090916C0051
:100A60000097A1F262EC71E03EDA8017910770F610
:100A70004DC0813B99F481E090E05CDC86DD8091A3
:100A8000BC008111C3CF8091BD00811104C0083129
:100A9000110508F4BBCF61E070E028C0813ED9F3B6
:100AA000813821F480917A0090E013C0813C21F4D8
:100AB0006091DF0070E01AC0823B79F48091790088
:100AC0009091BF0091118091BE00811104C086E910
:100AD00090E030DC05C086E903C0823E19F480E076
:100AE00054DD94CF823C31F466E970E084ED95E00A
:100AF000AFDE8CCF833999F3833C29F460E070E05A
:100B00008BEA94E0F5CF843C31F472DD60E070E074
:100B100083E398E0EDCF8F3C29F460E070E08BE058
:100B200092E0E6CFC091BF008A3B79F4672B69F46D
:100B3000CC2329F05DDD1092BF0094DC67CF60E02C
:100B400070E08FE198E06CDE2AC0C11127C08A3CBA
:100B500029F44EDD81E08093BF001EC0833B29F461
:100B600060E070E089E29BE006C0853B31F460E024
:100B700070E088E89CE06CDE12C0873C79F49091CC
:100B80007B0081E0890F8370813009F482E09C7FD3
:100B9000982B90937B00E7DC65DC01C0C1E08C2FD3
:100BA000CF911F910F9108959F92AF92BF92CF92D4
:100BB000DF92EF92FF920F931F93CF93DF93182F43
:100BC000EB01D0907800F0907700A090BD00AA20B3
:100BD00019F0B090BB0002C0BB24B394C090790060
:100BE0000091BF000111C090BE00CC2051F081E007
:100BF000C81621F080917A008F1518F0A6E9EA2E28
:100C000001C0EF2C9090BA00BE01812F2ADD6091C7
:100C1000BA00662339F091100CC08091DF008093F8
:100C20009E0007C0992029F060E070E083EF94E017
:100C300039C0812F8D7F8830D9F41092B6001A30D8
:100C400019F4C0917A00D0E08D2D90E08C179D07AB
:100C500038F48F2D90E0C817D90710F4C0937A00AC
:100C6000CE0168DBC2DC81E08093650000E094C1C6
:100C7000113CD1F2123C71F48091DF008E1510F41A
:100C80008E2D02C080917A00B0DC8091DF008093CD
:100C90009E00ECCF143C41F480E077DC60E070E033
:100CA00083E398E0D5DDE2CF8FE4810F823008F056
:100CB00049C0AA2039F0CE0168E170E031D9892B12
:100CC00031F0D4CF60916E0070E0CE01F7CF20916B
:100CD000DF00209761F4123B11F48FEF05C02F1550
:100CE000E0F7D216F8F081E0809365001BC0E09138
:100CF0006E00F0E0CF0166E371E0F5D88C179D0738
:100D000010F42F1550F7CF016CE672E0ECD88C1779
:100D10009D0740F4D21630F06BDC60E070E083E3B6
:100D200098E096DD809165006B2D70E0082E000C38
:100D3000990BD9D82091DF00820F911DFBDA8093A7
:100D40007A00A2CF8FE1810F823020F4809165007C
:100D500081958ACF113009F093C0A99711F41093AF
:100D60006500662391F080919E0070E061507109EA
:100D700090E0B9D86091B90070E0E6D8611101C087
:100D800061E06093DE006093C2008091DE0090918C
:100D9000DF00282F30E0291B310960919C00709101
:100DA0009D006F5F7F4F70939D0060939C002115A5
:100DB000310509F45BCF37FF05C0983830F040E4C7
:100DC00050E005C040E052E002C040E051E05695DE
:100DD000479537FF02C02F5F3F4F35952795211567
:100DE0003105A9F74617570708F040CF891710F4C7
:100DF0008FEF03C0981710F481E0890F7FEF780F11
:100E0000272F30E0A9014F535F4FFA016491791702
:100E100038F499B5911104C06F3F11F469BD0CC04D
:100E200099B5961718F499B59F5F05C099B56917DC
:100E300018F499B5915099BD255D3F4FF9019491F2
:100E400068B5691718F498B59F5F05C068B596171F
:100E500018F498B5915098BD99B5FA01449194133E
:100E60000AC098B5F9012491921305C0C091DE0023
:100E70008CDBC093DE0010929D0010929C00F6CE99
:100E80001530A9F48091DF008D3308F4EFCE90E0A7
:100E90008C1B9D0B282F8C3391052CF087399105E5
:100EA00018F026E901C02CE32093DE00DFCE1630D7
:100EB000B9F49091DF008091C200981708F0D6CE67
:100EC000C90FD11D90E08C179D0734F0CC33D105AC
:100ED00024F4CCE3D0E001C0EC01C093DE00C6CE28
:100EE000173079F49091DE008091DF00891710F4BB
:100EF0008F5F04C0981708F0B9CE81508093DE0050
:100F0000B5CE011148C0133C99F481E0A11080E0F6
:100F10008093BD00A7DA7ADB8091DF0090E00ADAE7
:100F200080937A0062DB8091DF0080939E0034C062
:100F3000133B49F4CD2B09F099CECC2011F086E972
:100F4000E82E8E2D04C0133E21F480917A004DDBF3
:100F500023C0153C41F480E018DB60E070E088E8D5
:100F60009CE076DC19C0173B29F460E070E08BE16F
:100F700098E00FC01A3C39F48091DF008093C100E3
:100F800071DA36DB09C01A3B31F460E070E083E2CD
:100F900098E046DC01C001E0802FDF91CF911F91E6
:100FA0000F91FF90EF90DF90CF90BF90AF909F9008
:100FB0000895883061F410929B0080E0E6DA809119
:100FC000E100811136C081E080939B0022C0982F00
:100FD000907F903BB1F420919B00421778F0CB01B9
:100FE0006DE570E09DD7029739F42F5F20939B0049
:100FF0004217F8F088E303C082E101C080E0C5DA5F
:1010000018C0903E61F480919B00882389F04817B6
:1010100078F060E070E080ED93E002DC0AC08A3096
:1010200041F46091B30080919B00F90109951ADAAF
:101030008EDB80E008952AE531E043E0BACF2AE56F
:1010400031E044E0B6CF20E133E044E0B2CF2DE020
:1010500032E041E0AECF21E132E042E0AACF2CE223
:1010600032E041E0A6CF0F931F93CF93DF93D82FA9
:101070008B0180798039B1F42091740090917500D2
:101080008D2F8F70823041F48091C100811108C092
:10109000822F291728F403C0822F921708F4892F72
:1010A00074DA1BC0803819F480E06FDA08C0D830D9
:1010B00031F480917B008695869555DA41C0D13018
:1010C00061F40931110508F45DC0D093E00080910E
:1010D0007B008695869547DA55C0D33049F48091D8
:1010E0007B008C708C3009F04DC0802FADDA4AC087
:1010F000D33C31F47DDA60E070E083EF94E00AC025
:10110000D43C89F4C091C100CC2331F06C2F70E045
:1011100084ED95E09DDB36C060917A0070E084ED4F
:1011200095E096DB32C0D43B31F470DA10923D0189
:1011300061E070E0EDCFD53C19F466E970E0E8CFEE
:10114000C091BF00C11120C0DA3B31F460E070E013
:101150008FE298E065DB19C0D73CB1F490917B0039
:10116000892F869586958F5F8370813009F482E0A0
:10117000282F220F220F9370920F90937B00F3D9A8
:1011800071D903C0C0E001C0C1E08C2FDF91CF91C5
:101190001F910F9108958CE287B910920801109267
:1011A000090186B1886486B9089510920A0124B1B4
:1011B00095B13091DD002295269526952370892FD3
:1011C00090E0880F991F880F991F820F911D830F40
:1011D0008093DD008091FF00882309F409C11092FB
:1011E000FF00809108019091E000992319F0379851
:1011F00010920801811141C080917E00882349F03E
:1012000060910401709105017093010160930001E8
:1012100004C06091000170910101605F7F4FA6E002
:1012200076956795AA95E1F780E098E579D6809163
:101230007D00680F711D769567956093FE00809123
:10124000B200882311F0815007C06D3138F460E09E
:1012500070E084E09DD785E08093B2008091E0004B
:101260008111BDC08FEA87B981E080930801109297
:10127000090186B1886486B9B2C0813009F0AFC077
:1012800080917E00811143C0809102019091030101
:1012900040969C0145E0369527954A95E1F7A09147
:1012A000FB00A901569547950A2E000CBB0BCD01FA
:1012B00083519140840F951F9093FD008093FC0013
:1012C0008091A100E82FF0E0EE0FFF1FEE55FF4FD9
:1012D00040815181B901641B750B318320838F5F7D
:1012E00087708093A100CB01880F991F880F991FE9
:1012F00040917C0050E04D5E5E4F4A1B5B0B440FFB
:10130000551F841B950B820F931F23E01CC08091F7
:10131000060190910701909303018093020140968A
:1013200035E0969587953A95E1F7E2EAF0E081930A
:10133000919320E0E23BF207D1F7A6CF009709F0A6
:101340000196215029F018161906C4F70197F9CF14
:1013500018161906E4F477FD39C02091A000121682
:101360000CF1880F991FBC016350710977FF02C00F
:101370006F5F7F4F759567951616170614F061E03D
:1013800070E088E1861B8093A00085E026C08C3F3A
:101390002FEF9207DCF477FF19C02091A00027FF00
:1013A00005C02450281B2093A00018C024EE281B41
:1013B0002093A0002091FE002F3180F06CEF7FEF92
:1013C000681B790B7595679586E007C08091FE00D4
:1013D0008E3120F060E070E087E0DAD6DCDE8091CC
:1013E0007E00882329F080917E00815080937E00CA
:1013F00008950F931F93CF931092E30080913B01C8
:1014000090913C019C012F5F3F4F88279078822B61
:10141000932B90933C0180933B01C091E1002CD72A
:10142000C81729F11092E0008093E10090913D01EE
:10143000882359F0892F80699F709F3009F08F5F52
:1014400080933D0180E090E00DC0892F8F7E95FD57
:1014500002C0806801C0806C80933D0180913B0197
:1014600090913C01E5D610923C0110923B01009115
:101470003B0110913C018091E000882379F0B80194
:1014800083E086D69ED60F731127012B09F044C046
:1014900010929F0080DE87EE86B92EC0C0913D017C
:1014A0008C2F807F803B19F460E070E001C0B801B0
:1014B00081E06ED6C4FF12C0C5FF02C0C8010CC0D7
:1014C00008311105C8F010923C0110923B01C06236
:1014D000C0933D0180E090E0ABD60EC0CC2361F01C
:1014E000C5FD09C00231110538F0C064C0933D014B
:1014F00080E090E09DD6A0D680919F00811106C02B
:1015000086B1886486B981E08093FF0080919F0056
:101510008F5F8F7180939F00CF911F910F910895DE
:1015200080910A01811141DE8091E300811161CF38
:101530000895CF92DF92EF92FF920F931F93CF9374
:10154000DF93EC0110E800E088E0E82E87E0F82E59
:1015500092ECC92EDD24D394209709F18091C30029
:1015600081111FC08091DF00863040F482E00FB609
:10157000F89416BD86BD0FBEC60106C00FB6F8941E
:1015800016BD06BD0FBEC7010197F1F70FB6F8945F
:1015900016BD06BD0FBEC4DF14D62197DDCF81E096
:1015A00001C080E0DF91CF911F910F91FF90EF90EC
:1015B000DF90CF900895CF93C82F882381F089E1E1
:1015C000E4D787EB90E0B5DF80E0DFD783E191E0FF
:1015D000B0DFC150A1F78DED92E0CF91AACF89E1A4
:1015E000D4D786E490E0A5DF80E0CFD783E191E017
:1015F000A0DFF1CFCF93DF9364E686D4282F892F25
:101600006AE082D4EC01222341F0822FD4DF8C2FB8
:10161000D2DF8D2FDF91CF91CECFC111F8CFF9CF8F
:10162000CF93DF93D82FC3E080917A00AED788ECB8
:1016300090E07FDFDD2319F080E991E07ADF80E040
:10164000A4D788EC90E075DFC15071F7DF91CF919E
:101650000895DF92EF92FF920F931F93CF93DF9342
:10166000D82F8B01C0916A0081E08093B600C3300F
:1016700009F0D3C0F090BA008D2FF3D7FF2051F0BE
:101680008091BA00811106C060E070E083EF94E0C1
:10169000DFD8C3C0D83021F481E080936300BFC09D
:1016A000D23C19F41092BA00C8C0D13BC1F4909159
:1016B0006200012B49F49E3610F08FEF03C0923088
:1016C00018F481E08093630080916300890F11F426
:1016D00081E013C18F3608F410C18EE60EC1D13EF1
:1016E00031F480916300819580936300CFC0D23B39
:1016F00061F481E08093630080916200823008F49D
:10170000CDC0815080936200C9C0D13009F099C02A
:101710000932110511F4D0936300D09099008D2DFA
:10172000880FD7FC809590E067E070E0DCD3292F2C
:10173000E09098008E2D880FE7FC8095D091610095
:101740006D2F70E090E0CFD3290FF09097008F2D90
:10175000880FF7FC8095C09160006C2F70E090E0DE
:10176000C2D3920F6091620070E0690F711D809189
:10177000BA00813091F48091B7009091B80025E0D3
:10178000969587952A95E1F724E730E0A901481B53
:10179000590BCA01A8D3B901C3D3862FF6D600FDD1
:1017A00005C073D58170D80ED092990080919600B3
:1017B000E80EE092980069D565E2A6D3F90EF092A2
:1017C000970063D58F7329F460D56DE09DD3909316
:1017D0009600DD2331F059D58F7319F4D150D09391
:1017E000610053D5811107C050D56BE08DD3909324
:1017F000610010929800C33030F047D58F7119F412
:10180000C150C093600041D58F7709F06AC03DD5C3
:1018100066E07AD39093600064C0D83021F481E010
:10182000809364006CC0D13C31F460E070E083EFE1
:1018300094E00ED864C0D23C31F4EC2FF0E0319645
:1018400007C0D13C91F3D33C41F4EC2FF0E0339648
:10185000E370FF27E0936A0034C0D13BA9F4C230A3
:1018600008F04DC000FD4BC0EC2FF0E0E859FF4FF1
:10187000808190916400891B883020F08F3FE9F4CB
:101880008EEF1BC088E019C0D13E31F48091640016
:1018900081958093640015C0D23B89F481E08093E8
:1018A0006400C23060F500FD2AC0EC2FF0E0E8597A
:1018B000FF4F80818F3F19F18F5F808320C0D23E20
:1018C00011F4D0D51CC0D53C41F460E070E088E84C
:1018D0009CE0BED780E059D612C0D13011F081E033
:1018E0000FC00932110519F481E0809364008091E2
:1018F000DD00080F0093DD0002C08093620080E0ED
:10190000DF91CF911F910F91FF90EF90DF9008959D
:101910000F931F93CF93DF93D82F8B01883031F42F
:101920008091B600813011F488E093DE8D2F8079AC
:10193000803959F481E08093B500C091B600C1119F
:101940000AC080917A0021D621C0803831F41092EB
:10195000B50080E01AD6C0E019C0D130B1F4C09112
:10196000B500CC2351F08091B6008130A1F7B801C9
:10197000DF91CF911F910F916CCE0733114058F337
:10198000D093E00080E0EFD501C0C1E08C2FDF9163
:10199000CF911F910F9108951F920F920FB60F9242
:1019A00011242F933F938F939F93AF93BF93EF9304
:1019B000FF93809109018823E9F0E091080124B1A7
:1019C00035B1F0E0EE0FFF1FDF01AC5FBE4F2D938E
:1019D0003C93E050FF4F808191818217930708F478
:1019E00001962817390708F401979183808381E0D5
:1019F00080930A0181E080930901FF91EF91BF91EB
:101A0000AF919F918F913F912F910F900FBE0F90AB
:101A10001F9018951F920F920FB60F9211248F935B
:101A200081E08093E3008F910F900FBE0F901F9085
:101A300018951F920F920FB60F9211248F9381E089
:101A40008093E2008F910F900FBE0F901F9018951A
:101A5000F89484B7877F84BF0FB6F894A89581B5B2
:101A6000886181BD11BC0FBEB89A81E083BF81EA55
:101A70008ABDB99A88E088BB85BB8BB780628BBF73
:101A8000A89581B5886181BD80E481BD84DB87EE46
:101A900086B9789481E0DAD360E070E087E594E07D
:101AA000BFD61092C300A4D5E7D3811108C0F89423
:101AB00080E091E05CD2853A51F178949EC0C0E01C
:101AC0008C2F63D583E190E034DD8C2F86955DD536
:101AD00083E190E02EDDD0D3882381F0CF5FC03446
:101AE00079F765E181E09DD4BDD4C6E98C2F4DD551
:101AF00084E090E01EDDC150C9F7D9CFCC23B9F204
:101B00008C2F43D58DE090E014DDC150F7CF04EC6D
:101B100010E0C1E0D1E0CE012AD2F80181938F011B
:101B20002196CA31F1E0DF07B1F778948091C400C3
:101B30008093BD008091C500809374008091C600A1
:101B4000809371008091C70080936E008091C800DF
:101B5000809375008091C900809372008091CA00C3
:101B600080936F008091CB00809376008091CC00B1
:101B7000809373008091CD00809370008091CE009F
:101B80008093BF008091CF008093BE008091D000F1
:101B90008093BC008091D100809379008091D20025
:101BA0008093C1008091D3008093C0008091D400C5
:101BB00080936A008091D500809368008091D60060
:101BC000809369008091D70080936D008091D80048
:101BD00080937C008091D9008093FB008091DA0093
:101BE00080937D008091DB0080937B008091DC00FE
:101BF00090E090936C0080936B008091C100811104
:101C000080937A0061E070E083EF94E009D643E4CA
:101C1000242E52E0352E67EE462E70E4872E99244E
:101C20009394ECEFAE2EE3E0BE2EF7E05F2EA3EF31
:101C3000CA2EA4E0DA2EC5D28091E6009091E7008A
:101C4000009749F06091E4007091E50001D6109290
:101C5000E7001092E6008091E000882309F444C078
:101C600080E093D4A89581B5886181BD21BC379867
:101C700003D38111FDCFE0D28BB780628BBF10926E
:101C80000A011092E3001092E2008091E0008823A4
:101C9000F9F085B7877E806185BF85B7806285BF93
:101CA000889585B78F7D85BF8091E2008111109264
:101CB000E00080910A01882329F090927E009092A2
:101CC000FF0073DA8091E3008823F9F292DBDDCF25
:101CD00030927E008BB78F7D8BBF5DDA46B8A895BA
:101CE00081B5886181BD81BC1BDC1092C3008091ED
:101CF000F9009091FA0022E08B30920779F4CEE15E
:101D0000D0E0FE018491805356DC8CE291E011DC3E
:101D10002196F0E0CA32DF07A1F79EC02BE089329E
:101D2000920779F0ECE088389E0709F08AC080912C
:101D3000B600813009F0CCC08091B500882309F449
:101D4000C7C0C0916A00C23018F0C230E1F073CF52
:101D5000EC2FF0E0E859FF4FD08186E916D4C1118D
:101D600009C0DA3220F4C5010197F1F707C081E01C
:101D700090E003C08D2F869590E0DBDB80E005D4FA
:101D80008D2F90E0A3C081D28F73E82EF12C7DD2ED
:101D9000652DBAD001E010E0380102C0660C771C56
:101DA0009A95E2F772D265E0AFD0E80102C0CC0F9D
:101DB000DD1F9A95E2F76C0E7D1E67D290E0B301AD
:101DC000C3D0E301C80FD91FC739D10514F0C6E944
:101DD000D0E08C2FDAD3C701ACDB8E0133E0159550
:101DE00007953A95E1F7011101C001E010E0C70144
:101DF000A0DBC01BD10BD7FF02C0C0E0D0E08C2F0E
:101E0000C4D343D2837031F4C70193DBCE019595DF
:101E10008795BBD3C230D10554F737D26DE074D06B
:101E2000C1E0D0E002C0CC0FDD1F9A95E2F72DD2C1
:101E300090E0BE0175D0C80FD91F80E0A6D3CE01B7
:101E400045C0F4E08B3A9F0781F48091FE00D2DB1D
:101E50008091BF00882381F0D092E700C092E60015
:101E60001092E5001092E400E6CE24E0823D920755
:101E700031F48091FC00BEDB88EE93E027C0E4E003
:101E80008D379E07A9F48091E1008111D4CE809115
:101E90007A007BD384E690E04CDB80E076D38091BF
:101EA0006D0090E068EE73E01ED0845691090EC07C
:101EB0008653944069F48091B400811105C0B0DB71
:101EC00081E0AEDB80E0ACDB80ED97E032DBB3CECF
:101ED00085B7877E85BF85B7806285BF889585B7C2
:101EE0008F7D85BFA8CE0024552704C0080E591F3A
:101EF000880F991F009729F076956795B8F37105BB
:101F0000B9F7802D952F0895991B79E004C0991F8A
:101F1000961708F0961B881F7A95C9F78095089543
:101F2000AA1BBB1B51E107C0AA1FBB1FA617B707FF
:101F300010F0A61BB70B881F991F5A95A9F780951B
:101F40009095BC01CD01089597FB072E16F40094DF
:101F500006D077FD08D0E4DF07FC05D03EF490956D
:101F600081959F4F0895709561957F4F0895E199F0
:101F7000FECF9FBB8EBBE09A99278DB30895262F85
:101F8000E199FECF9FBB8EBBE09A01970DB202167E
:101F900039F01CBA2DBB0FB6F894E29AE19A0FBE45
:061FA0000895F894FFCF44
:101FA600060B180101010004294303D002020107B0
:101FB6000578786C010A0A780102530E320702741A
:101FC6000071006E00000102010000000000000127
:061FD60000000000000005
:00000001FF
