:1000000003C200001EC200001CC200000C94AF100E
:1000100018C200000C94A01014C2000012C200000C
:1000200010C200000EC200000CC200000AC2000094
:1000300008C2000006C200000C94621002C2000058
:1000400000C20000FEC10000FCC10000FAC10000B7
:10005000F8C10000F6C10000F4C10000F2C10000C8
:10006000F0C10000EEC10000ECC10000EAC10000D8
:100070003230323231303032303237340001050420
:1000800014101115FF3FFF3FE62D6239DF23973033
:100090002F3583363536F8342533F130EB33E13004
:1000A000D431E131752EE32D352FCD2D412C342C5B
:1000B000632AD92916292A2820270126D424522444
:1000C0000B235A220B2141206B1F231E491D6B1C41
:1000D0008C1B611A8A1974186A17A6167D15971455
:1000E0008E139612AD11AC10BE0FBF0EB40DBF0C27
:1000F000C20BC00AD509D008CE07E306E805E10423
:10010000E203ED02F101FF00FF00FF00FF00FF002E
:10011000FF00FF00FF00FF00FF00FF00FF00FF00E7
:10012000FF00FF00FF00FF00FF00FF00FF00FF00D7
:10013000FF00FF00FF00FF00FF00FF00FF00FF00C7
:10014000FF00FF00FF00FF00FF00FF00FF00FF00B7
:10015000FF00FF00FF00FF00FF00FF00FF00FF00A7
:10016000FF00FF00FF00FF00FF00FF00FF00FF0097
:10017000FF00FF00FF00FF00FF00FF00FF00FF0087
:10018000FF00FF00FF00FF00FF00FF00FF00FF0077
:10019000FF00FF00FF00FF00FF00FF00FF00FF0067
:1001A000FF00FF00FF00FF00FF00FF00FF00FF0057
:1001B000000000000000000000000000000000003F
:1001C000000000000000000000000000000000002F
:1001D000000000000000000000000000000000001F
:1001E000000000000000000000000000000000000F
:1001F00000000000000000000000000000000000FF
:1002000000000000000000000000000000000000EE
:1002100000000000000000000000000000000000DE
:1002200000000000000000000000000000000000CE
:1002300000000000000000000000000000000000BE
:1002400000000000000000000000000000000000AE
:10025000000000000000000000000000000000009E
:10026000000000000000000000000000000000008E
:10027000000000000000000000000000000000007E
:10028000000000000000000000000000000000006E
:10029000000000000000000000000000000000005E
:1002A000000000000000000000000000000000004E
:1002B00000000000090014001E00290034003F0067
:1002C0004B005700630070007D008A009700A50076
:1002D000B300C200D000E000EF00FF00000001000A
:1002E00001000200020003000400050006000700F0
:1002F000080009000B000C000E0010001100130094
:10030000160018001A001D001F00220025002800FA
:100310002B002E003100350038003C003F00430028
:1003200047004A004E005200560059005D00600030
:100330006300670069006C006E007000720073005B
:10034000740074007300720070006D006A00650034
:100350005F005900510047003C00300022001300AC
:10036000140015001600170018001A001B001C00CE
:100370001E001F0020002200240025002700290065
:100380002B002D002F0031003300350038003A00DB
:100390003D003F004200450048004B004E00510028
:1003A000540058005B005F00630067006B006F0043
:1003B000730077007C00810085008A008F00950023
:1003C0009A009F00A500AB00B100B700BD00C400BB
:1003D000CB00D200D900E000E700EF00F700FF00FB
:1003E000FF00FF00FF00FF00FF00FF00FF00FF0015
:1003F000FF00FF00FF00FF00FF00FF00FF00FF0005
:10040000FF00FF00FF00000011241FBECFEFD4E06B
:10041000DEBFCDBF11E0A0E0B1E0E6E3F7E202C04D
:1004200005900D92A035B107D9F721E0A0E5B1E024
:1004300001C01D92AF3FB207E1F70E94BE100C94BD
:100440009913DECDF89498ED9FBD83BF78940895FD
:10045000482F9B01ECECF1E080E090E050815523C7
:1004600031F00196339680319105C1F70AC063E0FF
:1004700070E00E943B13FC01E453FE4F4083328343
:10048000218308950F931F93CF93DF93D091CC01D5
:10049000DD2351F10091CD011091CE01C091A90150
:1004A000C150C7FD0DC0EC2FEE0FFF0BE655FE4F00
:1004B0000190F081E02DB8018D2F09958111F0CFC9
:1004C000ECECF1E083818083848195819283818348
:1004D000339681E0E93FF807A9F71092F9011092ED
:1004E000FB011092FA01D2CFDF91CF911F910F91B2
:1004F0000895BC018091FE01ABCF1092FE011092D5
:10050000FD011092FC0181E08093800108950F931A
:100510001F93CF93C82F08EA17E0CC2349F082E05D
:1005200091DFC8010197F1F780E08CDFC150F5CF72
:10053000CF911F910F9108958BB182FB882780F98D
:1005400091E089278093A2010895E0910601F0913E
:1005500007013196FB70F460F0930701E093060108
:1005600080919E018B5A80939E01E49180919E011F
:100570008E0F08950F931F93CF93DF9300D01F9298
:10058000CDB7DEB72091240130912501409126019D
:1005900029833A834B83FE01319640E050E090E09E
:1005A00061E070E0B1919A01220F331F8C0102C00B
:1005B000159507952A95E2F79801237061F021308F
:1005C000D1F4A0B39B0101C0220FBA95EAF7322FF4
:1005D00030953A2318C0A0B39B0101C0220FBA95F1
:1005E000EAF720953A2F322330BB32B3322332BBA5
:1005F00031B323230EC0A0B39B0101C0220FBA95D3
:10060000EAF73A2F322B30BB32B3322B32BB31B345
:10061000232B21BB4F5F5F4F4330510519F60F90DD
:100620000F900F90DF91CF911F910F910895CF936D
:10063000DF9300D000D000D0CDB7DEB790917A0123
:100640002091BA013091BB012F553B4009F492E053
:10065000843019F460937B0121C06623F9F0823065
:1006600019F427E9261B622F26E0E7E2F1E0DE011C
:10067000119601900D922A95E1F7E82FF0E031975D
:10068000EE0FFF1F21E030E02C0F3D1FE20FF31FA4
:100690000190F081E02DE90FF11D608326960FB6E1
:1006A000F894DEBF0FBECDBFDF91CF9108958130AA
:1006B00011F4609320010895BF92CF92DF92EF92E0
:1006C000FF920F931F93CF93DF93EC0140917A0138
:1006D000E0917C01EE2311F082E001C0842F90E0D4
:1006E000DC01AC5EBE4F2C9120931801DC01AF5EA3
:1006F000BE4F8C9180931701F0E0E25FFE4F318195
:10070000622F70E0442349F0313039F49B01280F07
:10071000311DC9019595879538C0C617D707A4F133
:10072000682F70E06C177D0784F1411102C08C2F97
:100730002CC0821B032F10E001501109E82EF12C70
:10074000C701B8010E946C13609378016695E62F8B
:10075000F0E0822FC12CD12CB12CB316B1F0C60120
:10076000B8010E945813822F860FCE0CDF1CAE01F9
:10077000481B510957FF03C0519541955109E41792
:10078000F5071CF4B394E9CF822FDF91CF911F912D
:100790000F91FF90EF90DF90CF90BF90089581E090
:1007A00008956111609322010895662389F08130D4
:1007B00061F48091BD019091BC01891B681B60931D
:1007C000BC0182E08093230103C0635E609321013A
:1007D00080912101873418F086E4809321010895E7
:1007E00070E070930C0160930B0108950F931F93B9
:1007F000CF93DF9380917A018093810180911401DE
:1008000080938201809111018093830180910E0178
:10081000809384018091150180938501809112015C
:100820008093860180910F0180938701809116014A
:100830008093880180911301809389018091100138
:1008400080938A0180917C0180938B0180917B0150
:1008500080938C018091790180938D0180911901A1
:1008600080938E0180917E0180938F0180917D0124
:1008700080939001809120018093910180910A01E1
:1008800080939201809108018093930180910901E6
:100890008093940180910D018093950180912101B5
:1008A000809396018091BC018093970180912201F1
:1008B0008093980180911D018093990180911C0182
:1008C00080939A0180911F0180939B0180911E016A
:1008D00080939C0180910B0180939D0182E017DE43
:1008E000F89401E811E0C1E8D0E0F80161918F01CE
:1008F000CE010E9487132196CE39D105B1F765EA62
:1009000080E890E00E9487137894DF91CF911F9147
:100910000F910895829A929A8A9A0895882331F0C5
:10092000813041F48298929A8A9A08958298929896
:100930008A980895EFCFCF93C82F8091A00181119D
:1009400009C0CC2339F080912001C81718F4F3DFD7
:1009500082E0DDDDC093A001C0939F018091A101E1
:1009600081110AC007DE2C2F30E081E02A313105E9
:100970000CF480E08F5FD2DFC1110EC010926D00C9
:1009800010926C0010926B0010926A0010926F002F
:1009900010926E00689835C0689A8FEF8C0F90E0C7
:1009A000880F991FFC01E452FD4F2591349130933B
:1009B0006D0020936C00FC01E055FE4F25913491B1
:1009C00030936B0020936A00FC01EC57FF4F259198
:1009D000349180915B01A90140525109882339F07B
:1009E00060916E0070916F0046175707B8F330930F
:1009F000690020936800811104C010926F0010926A
:100A00006E00C0935B018091A001843010F482E0FD
:100A100005C08C3010F481E001C080E0CF9112CD90
:100A200080937F0188CFCF93C091A00182E38C0F88
:100A3000873908F080E07FDF83E069DD8C2FCF917C
:100A40007ACFCF93C091A00180E075DF83E05FDDB6
:100A50008C2FCF9170CF0F931F93CF93DF93E82FFD
:100A60008091BF019FEF980F9C3120F480E082DDE0
:100A700080E08FC0CE2FC295CF70DE2FDF709091B7
:100A8000A101911103C0C33008F0C2E0D730A8F42F
:100A90000091550110E00F5F1F4F57DD65E00E9488
:100AA0004C139801290F311DC90166E070E00E94C6
:100AB0006C1380935501ED2F41C0D730A9F40091FC
:100AC000550110E00F5F1F4F40DD65E00E944C13A1
:100AD0009801290F311DC90166E070E00E946C1376
:100AE00080935501FC0135C0D830B1F48091A1014B
:100AF000882311F08FEF01C083E0682351F48091C7
:100B0000550190E0019666E070E00E946C138093BE
:100B10005501E091550112C09091A101992381F0F6
:100B20008D31D8F090E0E92FF0E0E05CFE4F2081BD
:100B3000821710F09E5FF7CF3197E081F0E009C097
:100B4000862F869563E00E944C13E92FF0E0EE0FAC
:100B5000FF1FE358FF4FE49101C0E0E0C33071F4A0
:100B60008091540190E0019663E170E00E94581377
:100B700080935401DC01A35DBE4FCC91CC2321F0C6
:100B8000C13019F0EE0F01C0E0E08E2FF3DC809150
:100B90001B01DF91CF911F910F91C0CE813019F4CD
:100BA00010927E010895823019F460937D010895BA
:100BB000833019F4609379010895843011F46093BF
:100BC00019010895883039F4109277011092750157
:100BD0001092740140C0813B59F48091770181509B
:100BE0008330D8F583E0809377018093760135C018
:100BF000853BB1F4CB016EE370E00E945813892B62
:100C000051F580917701853F30F5865F80937701BC
:100C100080937601109275011092740104DF1BC05D
:100C20008130D9F4809174019091750101968838D2
:100C30002EE0920728F490937501809374010BC005
:100C4000109275011092740180917701882319F038
:100C500081508093770180E0089581E00895FF92AC
:100C60000F931F93CF93DF938C01EB01F42E8091B0
:100C7000BA019091BB01892B31F0E091BA01F0915A
:100C8000BB0189E009951093BB010093BA01012BC8
:100C900039F0E091BA01F091BB01BE018F2D0995A9
:100CA00081E080938001DF91CF911F910F91FF90A0
:100CB0000895CF93DF93E091A901EE2359F0E1501D
:100CC000E093A901F0E0EE0FFF1FE655FE4FC08153
:100CD000D18102C0C0E0D0E0E091A901EE2341F053
:100CE000F0E0EE0FFF1FE855FE4F8081918102C0BA
:100CF00080E090E04AE060E070E0B1DFCE01DF919B
:100D0000CF910895883029F4109270011092560105
:100D100016C0813001F590915601911107C06032E3
:100D2000710570F180935601E8DB2AC0913089F497
:100D3000673381E0780728F082E08093560180E0F5
:100D40001EC061157105E1F06270862F880F8E5EFE
:100D500016C0AFDF15C0813811F0813E89F491E0F3
:100D600090935601813E21F480917001865F03C00B
:100D7000809170018F5F80937001BFDB8BE4DBDDBE
:100D800080E008959C019091A901983088F4E92FA2
:100D9000F0E0EE0FFF1FE655FE4F318320839F5F8B
:100DA0009093A90148E0C9015ADF8091A9010895F3
:100DB0008FEF08950F931F93CF93DF93EC018B0177
:100DC00078DFB801CE01DF91CF911F910F91DACF7B
:100DD000813C39F41092710160E070E087EA97E09D
:100DE0000DC0823C29F460E070E08FE597E006C01A
:100DF000833C31F460E070E08FE297E0DBDF05C018
:100E00008A3C29F481E08093710180E0089581E0BB
:100E10000895843011F58091BA019091BB012EE0C4
:100E2000893A920729F469E170E08DEC98E013C0EB
:100E30008D5C984061F49091A001923040F0892F30
:100E4000869596959695890FEBDD80E0089560E094
:100E500070E087EA97E0AEDFF8CF81E00895813C4B
:100E600029F460E070E087EA97E00DC0823C29F445
:100E700060E070E088EE96E006C0833C31F460E00C
:100E800070E086E897E096DF16C0813B49F4CB011D
:100E90006EE370E00E945813892B69F4C4DD0BC027
:100EA000813E59F4CB016EE370E00E9458136F5FEE
:100EB00060930D019BDC80E0089581E00895CF935D
:100EC000C0917C01C1111EC0813C29F460E070E03A
:100ED00087EA97E006C0823C31F460E070E086E883
:100EE00097E068DF10C0833C29F460E070E088EE92
:100EF00096E0F7CF873B31F460E070E08BE69BE053
:100F000041DF01C0C1E08C2FCF910895813C29F4CD
:100F100060E070E087EA97E00DC0823C29F460E071
:100F200070E08FE297E006C0833C31F460E070E04F
:100F30008FE597E03FDF07C0873B39F460E070E062
:100F40008FE69BE01FDF80E0089581E008950F9316
:100F50001F93CF938B018830A1F480E0ECDC60E03C
:100F600080911F0178DD80911D0180931B01D6DCEB
:100F700010927701012B19F481E08093A101C0E068
:100F800007C1813049F469317105C8F38093A1012B
:100F900080911F0160DDF3CF833031F520917E0118
:100FA000222361F080917D0190E062EC71E00E946B
:100FB0003B130817190710F020931A01602F809136
:100FC0001F0149DD80910B0190910C010097B9F24E
:100FD00062EC71E00E943B138017910780F660E09D
:100FE00070E087E79BE048C0813B99F481E090E0A6
:100FF00063DBA1DC809179018111C1CF80917A01FD
:10100000811104C00831110508F4B9CF61E070E026
:1010100028C0813ED9F3813821F480911A0190E0F3
:1010200013C0813C21F46091A00170E01AC0823BA2
:1010300079F48091190190917C01911180917B014B
:10104000811104C086E990E037DB05C086E903C062
:10105000823E19F480E06FDC92CF823C29F466E98D
:1010600070E08DEC98E008C08339A1F3833C31F443
:1010700060E070E08FE597E09DDE81CF843C09F46D
:10108000AECF8F3C29F460E070E08FEC93E0F4CFBA
:10109000C0917C018A3B71F4672B61F4CC2329F069
:1010A000C2DC10927C01A2DB6ACF60E070E08FE5C9
:1010B0009BE06BC0C1116BC08A3C29F4B4DC81E0B9
:1010C00080937C0158C08D3B41F4F89488ED8FBD2E
:1010D00088E880BF7894A895FFCF833B29F460E02F
:1010E00070E089EA9EE006C0853B31F460E070E084
:1010F00088E190E15FDE4CC0863C71F480911D0177
:1011000090E0019663E070E00E946C1380931D01F3
:1011100080931B0103DC2FC0873C91F490911F0149
:10112000892F82958F708F5F83708295807F9F70EB
:10113000892B80931F0160E08EDC58DB74DC28C0B3
:10114000873BB9F4C8018F739927892B69F4909173
:101150001F01892F8F708F5F292F207F6BE00E94E6
:101160004C13922B90931F01602F80911F0173DC11
:101170000FC0873E11F43ADB0BC0893B41F4012BD1
:1011800031F460E070E087E69BE0FCDD01C0C1E087
:101190008C2FCF911F910F9108959F92AF92BF9284
:1011A000CF92DF92EF92FF920F931F93CF93DF9333
:1011B000182FEB01D0901801F0901701A0907A0140
:1011C000AA2019F0B090780102C0BB24B394C0905B
:1011D000190100917C010111C0907B01CC2051F0DC
:1011E00081E0C81621F080911A018F1518F0A6E948
:1011F000EA2E01C0EF2C90907701BE01812FE2DC36
:1012000060917701662339F091100CC08091A001A4
:1012100080935A0107C0992029F060E070E087EAC6
:1012200097E039C0812F8D7F8830D9F410927301F7
:101230001A3019F4C0911A01D0E08D2D90E08C176E
:101240009D0738F48F2D90E0C817D90710F4C0938C
:101250001A01CE0131DAE4DB81E08093050100E080
:10126000DAC1113CD1F2123C71F48091A0018E15CB
:1012700010F48E2D02C080911A01D2DB8091A00162
:1012800080935A01ECCF143C41F480E054DB60E0E1
:1012900070E087E79BE08EDDE2CF8FE4810F823044
:1012A00008F056C0AA2041F0CE0168E170E00E942B
:1012B0005813892B31F0D3CF60910E0170E0CE012D
:1012C000F6CF2091A001209761F4123B11F48FEF2B
:1012D00005C02F15E0F7D21608F181E080930501D3
:1012E0001DC0E0910E01F0E0CF0166E371E00E94C5
:1012F0003B138C179D0710F42F1548F7CF016CE6B0
:1013000072E00E943B138C179D0740F4D21630F018
:101310008ADB60E070E087E79BE04CDDD091A001C4
:10132000809105016B2D70E0082E000C990B0E9436
:101330003B138D0F911DC0D9C82F80931A01D81768
:1013400029F0F81611F0D81201C07BDB8C2F95CF55
:101350008FE1810F823020F48091050181957DCF4E
:10136000113009F0CDC0A99711F41093050166233F
:10137000A1F080915A0170E06150710990E00E94E3
:101380003B136091760170E00E946C13611101C003
:1013900061E060939F0160937F01C0919F01209164
:1013A000A0018C2F90E0821B9109609158017091EF
:1013B00059016F5F7F4F70935901609358010097F7
:1013C00009F44DCF97FF05C0233830F040E450E0DA
:1013D00005C040E052E002C040E051E0569547951C
:1013E00097FD0196959587950097C1F74617570782
:1013F00008F035CFC21710F48FEF03C02C1718F484
:1014000081E0820F01C08C2F9FEF980F492F50E091
:10141000440F551FBA0164527D4FFB01A591B49151
:10142000921770F420916C0030916D00232B41F4E1
:10143000AF3FB10529F4B0936D00A0936C001FC0BD
:1014400020916C0030916D002A173B0738F42091F1
:101450006C0030916D002F5F3F4F0DC020916C00EC
:1014600030916D00A217B30750F420916C003091B9
:101470006D002150310930936D0020936C009A016A
:1014800020553E4FF90145915491E0916A00F09149
:101490006B00E417F50738F440916A0050916B0037
:1014A0004F5F5F4F0DC0E0916A00F0916B004E17E7
:1014B0005F0750F440916A0050916B004150510910
:1014C00050936B0040936A00A0916C00B0916D0046
:1014D000FB0145915491A417B50769F440916A0046
:1014E00050916B00F901259134914217530719F47B
:1014F00022DAC0939F011092590110925801AFCE89
:101500001530A9F48091A001833408F4A8CE90E0AE
:101510008C1B9D0B282F823491052CF08739910567
:1015200018F026E901C022E420939F0198CE1630DE
:10153000B1F49091A00180917F01981708F08FCEAF
:10154000C90FD11D90E08C179D0734F0C234D1052E
:1015500024F4C2E4D0E001C0EC018C2F0EC017309F
:1015600079F490919F018091A001891710F48F5F09
:1015700004C0981708F073CE815080939F016FCEFE
:10158000011148C0133C99F481E0A11080E08093E0
:101590007A012CD956DA8091A00190E08DD8809301
:1015A0001A013EDA8091A00180935A0134C0133BA6
:1015B00049F4CD2B09F053CECC2011F086E9E82E6A
:1015C0008E2D04C0133E21F480911A0129DA23C024
:1015D000153C41F480E0AFD960E070E088E190E133
:1015E000E9DB19C0173B29F460E070E08BE59BE074
:1015F0000FC01A3C39F48091A00180937E01F6D887
:1016000012DA09C01A3B31F460E070E083E69BE037
:10161000B9DB01C001E0802FDF91CF911F910F91C5
:10162000FF90EF90DF90CF90BF90AF909F90089584
:10163000883061F41092570180E07DD98091A20139
:10164000811137C081E08093570123C0982F907F8C
:10165000903BB9F420915701421780F0CB016DE522
:1016600070E00E945813029739F42F5F20935701BE
:101670004217F8F088E303C082E101C080E05BD943
:1016800018C0903E61F480915701882389F0481773
:1016900078F060E070E082E896E074DB0AC08A309F
:1016A00041F46091700180915701F90109959ED82C
:1016B00000DB80E0089527E133E043E0B9CF27E184
:1016C00033E044E0B5CF2EEC35E044E0B1CF27E580
:1016D00033E041E0ADCF21ED33E041E0A9CF25ED8E
:1016E00033E042E0A5CF20EF33E041E0A1CF0F93FC
:1016F0001F93CF93DF93D82F8B01873B19F480E0A2
:101700001AD960C080798039B1F420911401909188
:1017100015018D2F8F70823041F480917E018111EF
:1017200008C0822F291728F403C0822F921708F4CB
:10173000892F01D910C0803811F480E0FCD8D8304E
:1017400051F460E080911E0186D980911C01809344
:101750001B01E4D837C0D13039F40931110508F440
:101760007EC0D093A10102C0D33029F4602F8091B4
:101770001E0171D974C0D33C29F460E070E087EA9F
:1017800097E01EC0D43C71F4C0917E01CC2319F0C7
:101790006C2F70E013C060911A0170E08DEC98E03E
:1017A00009DB60C0D43B31F44CD91092FE0161E0FA
:1017B00070E004C0D53C31F466E970E08DEC98E04F
:1017C000F9DA4DC0C0917C01C1114BC0DA3B31F454
:1017D00060E070E083E79BE0D5DA44C0D63C69F472
:1017E00080911C0190E0019663E070E075D78093D2
:1017F0001C0180931B0192D82FC0D73C99F4909183
:101800001E01892F82958F708F5F83708295807FF4
:101810009F70892B80931E0160E01DD90E94F60302
:1018200002D920C0D73BB1F4C8018F739927892B07
:1018300061F490911E01892F8F708F5F292F207F77
:101840006BE02AD7922B90931E01602F80911E018E
:1018500002D908C0D73E29F40E94F60303C0C0E0B5
:1018600001C0C1E08C2FDF91CF911F910F9108959E
:1018700086E884B91092C9011092CA0183B18864C4
:1018800083B90895F5DFE1E6F0E08081826080832E
:10189000139A87EE83B908951092CB0120B191B1CC
:1018A00030919E012295269526952370892F90E0F0
:1018B000880F991F880F991F820F911D830F8093A6
:1018C0009E018091C001882309F406C11092C001D5
:1018D0008091C9019091A101992319F01F9810924C
:1018E000C90181113DC080912301882349F0809175
:1018F000C5019091C6019093C2018093C10104C0BB
:101900008091C1019091C2014096807E9695879505
:1019100061EC72E0CDD6809122018750680F609310
:10192000BF0180916F01882311F0815008C06D3193
:1019300040F460E070E084E00E94280285E080933B
:101940006F018091A1018111BEC08EE884B981E050
:101950008093C9011092CA0183B1886483B9B3C06E
:10196000813009F0B0C080912301811143C0809182
:10197000C3019091C401409645E0969587954A959C
:10198000E1F76091BC01AC0156954795062E000C1D
:10199000770B9B012E503140240F351F3093BE0131
:1019A0002093BD0120915E01E22FF0E0EE0FFF1FBA
:1019B000E15AFE4F40815181DC01A41BB50BAD0102
:1019C000918380832F5F277020935E019D01220FFA
:1019D000331F220F331F820F931F2091210130E00C
:1019E000261B370B225F3E4F220F331F821B930BA8
:1019F00023E01CC08091C7019091C8019093C4015D
:101A00008093C301409635E0969587953A95E1F726
:101A1000EFE5F1E081939193B1E0EF36FB07D1F769
:101A2000A6CF009709F00196215029F01816190643
:101A3000C4F70197F9CF18161906E4F457FD39C019
:101A400020915D0112160CF1880F991FBC016350A3
:101A5000710977FF02C06F5F7F4F75956795161606
:101A6000170614F061E070E088E1861B80935D0149
:101A700085E026C08C3F2FEF9207DCF457FF19C09A
:101A800020915D0127FF05C02450281B20935D0194
:101A900019C024EE281B20935D012091BF012F3136
:101AA00088F06CEF7FEF681B790B7595679586E082
:101AB00007C08091BF018E3128F060E070E087E0C0
:101AC0000E942802D5DE80912301882329F080918D
:101AD000230181508093230108950F931F93CF9387
:101AE0001092A4018091FC019091FD019C012F5F57
:101AF0003F4F88279078822B932B9093FD01809302
:101B0000FC01C091A2010E949C02C81731F1109201
:101B1000A1018093A2019091FE01882359F0892FA1
:101B200080699F709F3009F08F5F8093FE0180E095
:101B300090E00DC0892F8F7E95FD02C0806801C0A6
:101B4000806C8093FE018091FC019091FD010E94C8
:101B500079021092FD011092FC010091FC0110919C
:101B6000FD018091A101882379F0B80183E00E94F2
:101B700028020E9442020F731127012B09F046C070
:101B800010925C017FDE32C0C091FE018C2F807FFD
:101B9000803B19F460E070E001C0B80181E00E9470
:101BA0002802C4FF13C0C5FF02C0C8010CC0083121
:101BB0001105E0F01092FD011092FC01C062C0938B
:101BC000FE0180E090E00E94790210C0CC2371F009
:101BD000C5FD0AC00231110548F0C064C093FE0182
:101BE00080E090E00E9479020E947D0280915C0179
:101BF000811106C083B1886483B981E08093C001FC
:101C000080915C018F5F8F7180935C01CF911F91F8
:101C10000F9108958091CB0181113EDE8091A40146
:101C200081115BCF0895EF92FF920F931F93CF9393
:101C3000DF93EC0108E017E082ECE82EFF24F39438
:101C40002097D9F080918001811119C08091A00165
:101C5000843028F482E00E942202C70104C080E0A0
:101C60000E942202C8010197F1F780E00E9422023F
:101C7000D1DF0E9442022197E3CF81E001C080E0E2
:101C8000DF91CF911F910F91FF90EF900895FF92F8
:101C90000F931F93CF93DF93C82F882311F007EB87
:101CA00002C006E4C1E082E0F82E10E0D1E0F0923C
:101CB0001B0160E080911F010E942B05C801B3DF6A
:101CC000D0931B0160E080911F010E942B0583E1EE
:101CD00091E0A9DF80911D0180931B01C15039F76C
:101CE0008DED92E0DF91CF911F910F91FF909BCFEF
:101CF000CF93DF9364E6D0D4282F892F6AE0CCD429
:101D0000EC01222341F0822FC2DF8C2FC0DF8D2F08
:101D1000DF91CF91BCCFC111F8CFF9CFCF93DF9333
:101D2000D82FC3E080911A010E949B0488EC90E0B8
:101D30007ADFDD2319F080E991E075DF80E00E9411
:101D40009B0488EC90E06FDFC15061F7DF91CF9189
:101D50000895DF92EF92FF920F931F93CF93DF933B
:101D6000D82F8B01C0910A0181E080937301C330A9
:101D700009F0DFC0F09077018D2F0E94E205FF206F
:101D800051F080917701811106C060E070E087EA30
:101D900097E010D8CEC0D83021F481E080930301C1
:101DA000CAC0D23C19F410927701D4C0D13BC1F41F
:101DB00090910201012B49F4993610F08FEF03C086
:101DC000923018F481E08093030180910301890F20
:101DD00011F481E022C18A3608F41FC189E61DC1D1
:101DE000D13E31F480910301819580930301DBC0E2
:101DF000D23B61F481E08093030180910201823043
:101E000008F4D9C0815080930201D5C0D13009F0C7
:101E1000A5C00932110511F4D0930301D0905301EC
:101E20008D2D880FD7FC809590E069E070E023D479
:101E3000292FE09052018E2D880FE7FC8095D091DC
:101E400001016D2F70E090E016D4290FF090510140
:101E50008F2D880FF7FC8095C09100016C2F70E0EA
:101E600090E009D4920F6091020170E0690F711D3A
:101E700080917701813091F4809174019091750186
:101E800025E0969587952A95E1F724E730E0A901AA
:101E9000481B590BCA01EFD3B9010AD4862F0E94FF
:101EA0009B0400FD06C00E94A5028170D80ED0924E
:101EB000530180915001E80EE09252010E94A50268
:101EC00065E2EAD3F90EF09251010E94A5028F73E8
:101ED00031F40E94A5026DE0DFD390935001DD2321
:101EE00039F00E94A5028F7319F4D150D0930101EB
:101EF0000E94A502811108C00E94A5026DE0CCD30A
:101F00009093010110925201C33038F00E94A50253
:101F10008F7119F4C150C09300010E94A5028F7700
:101F200009F06FC00E94A50267E0B6D3909300014C
:101F300068C0D83021F481E08093040170C0D13CA6
:101F400039F460E070E087EA97E00E94DA0667C043
:101F5000D23C31F4EC2FF0E0319607C0D13C89F34C
:101F6000D33C41F4EC2FF0E03396E370FF27E0938D
:101F70000A0134C0D13BA9F4C23008F050C000FDC2
:101F80004EC0EC2FF0E0E85FFE4F8081909104019D
:101F9000891B883020F08F3FE9F48EEF1BC088E06A
:101FA00019C0D13E31F480910401819580930401E0
:101FB00015C0D23B89F481E080930401C23078F5EA
:101FC00000FD2DC0EC2FF0E0E85FFE4F80818F3FD9
:101FD00031F18F5F808323C0D23E19F40E94F60353
:101FE0001EC0D53C51F460E070E088E190E10E94B1
:101FF000DA0680E00E949B0412C0D13011F081E02B
:102000000FC00932110519F481E080930401809119
:102010009E01080F00939E0102C08093020180E0A0
:10202000DF91CF911F910F91FF90EF90DF90089576
:102030000F931F93CF93DF93D82F8B01883031F408
:1020400080917301813011F488E083DE8D2F8079D7
:10205000803961F481E080937201C0917301C111F4
:102060000EC080911A010E949B0426C0803849F45A
:102070001092720180E00E949B040E948A04C0E0DA
:102080001BC0D130C1F4C0917201CC2351F08091BA
:1020900073018130A1F7B801DF91CF911F910F91AA
:1020A00058CE0733114058F3D093A10160E080E08F
:1020B0000E942B0501C0C1E08C2FDF91CF911F91B1
:1020C0000F9108951F920F920FB60F9211242F9324
:1020D0003F938F939F93AF93BF93EF93FF93809121
:1020E000CA018823E9F0E091C90120B131B1F0E0E3
:1020F000EE0FFF1FDF01AB53BE4F2D933C93EF5309
:10210000FE4F808191818217930708F4019628176A
:10211000390708F401979183808381E08093CB0194
:1021200081E08093CA01FF91EF91BF91AF919F91A0
:102130008F913F912F910F900FBE0F901F90189588
:102140001F920F920FB60F9211248F9381E080930C
:10215000A4018F910F900FBE0F901F9018951F92A2
:102160000F920FB60F9211248F9381E08093A301F9
:102170008F910F900FBE0F901F901895F89485B710
:10218000877F85BF88ED90E00FB6F894A8958FBD46
:1021900090B7977F90BF0FBE89E08CB98CE780BB6A
:1021A00082EA8093720081E1809371008FEF90E06A
:1021B000909369008093680084E08EB988BD8CB7E5
:1021C00080618CBFA89580E480BF5CDB789481E05F
:1021D0000E94870260E070E089E097E00E94C206FA
:1021E000109280010E9413050E949C0281110BC075
:1021F00082E00E948702F89480E890E080D2853ADD
:1022000089F17894B4C0C0E08C2F0E949B0483E1D4
:1022100090E009DD8C2F86950E949B0483E190E07D
:1022200002DD0E949C02882399F0CF5FC03461F7E1
:1022300065E181E00E94D5030E94F603C6E98C2F78
:102240000E949B0484E090E0EEDCC150C1F7D0CF47
:10225000CC2371F28C2F0E949B048DE090E0E3DC94
:10226000C150F6CF01E811E0C1E8D0E0CE0147D27D
:10227000F80181938F012196CE39D105B9F7789471
:102280008091810180937A01809182018093140171
:1022900080918301809311018091840180930E01CC
:1022A00080918501809315018091860180931201B0
:1022B0008091870180930F0180918801809316019E
:1022C000809189018093130180918A01809310018C
:1022D00080918B0180937C0180918C0180937B01A4
:1022E00080918D018093790180918E0180931901F5
:1022F00080918F0180937E018091900180937D0178
:1023000080919101809320018091920180930A0134
:102310008091930180930801809194018093090139
:102320008091950180930D01809196018093210108
:10233000809197018093BC01809198018093220144
:102340008091990180931D0180919A0180931C01D5
:1023500080919B0180931F0180919C0180931E01BD
:1023600080919D0190E090930C0180930B018091EE
:102370007E01811180931A0161E070E087EA97E0A5
:102380000E94C20643E4242E52E0352E60E4462E1D
:10239000992493947CEFA72E73E0B72EE7E08E2E5E
:1023A000F5E05F2EA7EACA2EA7E0DA2E0E944202CD
:1023B0008091A7019091A801009751F06091A5012B
:1023C0007091A6010E94DA061092A8011092A7014E
:1023D0008091A101882309F440C080E00E949B0401
:1023E000A89520BE1F980E949C028111FCCF0E94DC
:1023F0007D028CB780618CBF1092CB011092A4013A
:102400001092A3018091A1018823F9F086B78F79FA
:10241000806486BF86B7806186BF889586B78F7EC9
:1024200086BF8091A30181111092A1018091CB01FF
:10243000882329F0909223019092C0012DDA809197
:10244000A4018823F9F249DBDDCF309223018CB758
:102450008F7E8CBF17DAA89540BEDCDB109280011E
:102460008091BA019091BB01F3E08F3C9F0779F412
:10247000C0E7D0E0FE018491805309DC8CE291E05A
:10248000D2DB2196F0E0CC37DF07A1F7ABC02EE01E
:10249000893A920779F0E0E188319E0709F097C008
:1024A00080917301813009F0DBC080917201882333
:1024B00009F4D6C0C0910A01C23018F0C230F1F060
:1024C00075CFEC2FF0E0E85FFE4FD08186E90E94E7
:1024D0009B04C11109C0DA3220F4C5010197F1F75C
:1024E00007C081E090E003C08D2F869590E09BDBD4
:1024F00080E00E949B048D2F90E0B0C00E94A50256
:102500008F73E82EF12C0E94A502682DC5D001E042
:1025100010E0380102C0660C771C9A95E2F70E9421
:10252000A502652DB9D0E80102C0CC0FDD1F9A9538
:10253000E2F76C0E7D1E0E94A50290E0B301CCD0A4
:10254000E301C80FD91FC739D10514F0C6E9D0E09F
:102550008C2F0E949B04C70166DB8E0133E015952A
:1025600007953A95E1F7011101C001E010E0C701BC
:102570005ADBC01BD10BD7FF02C0C0E0D0E08C2FCC
:102580000E949B040E94A502837039F4C7014BDBB3
:10259000CE01959587950E949B04C230D1053CF7EA
:1025A0000E94A5026DE078D0C1E0D0E002C0CC0F5F
:1025B000DD1F9A95E2F70E94A50290E0BE0178D057
:1025C000C80FD91F80E00E949B04CE0147C0F7E0EE
:1025D0008F359F0781F48091BF018ADB80917C0158
:1025E000882381F0D092A801C092A7011092A60181
:1025F0001092A501DBCE27E08638920731F4809156
:10260000BD0176DB88EE93E029C0E7E08F329E07BC
:10261000B9F48091A2018111C9CE80911A010E9462
:102620009B0484E690E0FFDA80E00E949B048091A6
:102630000D0190E068EE73E01ED0845691090EC043
:10264000885E964069F480917101811105C066DB56
:1026500081E064DB80E062DB80ED97E0E4DAA6CE27
:1026600086B78F7986BF86B7806186BF889586B723
:102670008F7E86BF9BCE0024552704C0080E591FAD
:10268000880F991F009729F076956795B8F3710523
:10269000B9F7802D952F0895991B79E004C0991FF3
:1026A000961708F0961B881F7A95C9F780950895AC
:1026B000AA1BBB1B51E107C0AA1FBB1FA617B70768
:1026C00010F0A61BB70B881F991F5A95A9F7809584
:1026D0009095BC01CD01089597FB072E16F4009448
:1026E00006D077FD08D0E4DF07FC05D03EF49095D6
:1026F00081959F4F0895709561957F4F0895E19959
:10270000FECF1FBA8EBBE09A99278DB30895262F6E
:10271000E199FECF1FBA8EBBE09A81500DB202162E
:1027200039F01CBA2DBB0FB6F894E29AE19A0FBEAD
:062730000895F894FFCFAC
:10273600070D180101010004294303D00202010715
:10274600058282820A0A0A820A01460201021727C4
:1027560015320702050403140111010E01020100DE
:102766000000000000000100000000000000000161
:102776000000210123022503270429052C06FF0654
:00000001FF
