:1000000022C100003DC100000C94290F39C100003D
:1000100037C100000C941A0F33C1000031C1000039
:100020002FC100002DC100002BC1000029C100001C
:1000300027C1000025C100000C94DC0E21C1000086
:100040001FC100001DC100001BC1000019C100003C
:1000500017C1000015C1000013C1000011C100004C
:100060000FC100000DC100000BC1000009C100005C
:100070003230323231303032303133330001050426
:100080001410111500000000000000000000000026
:100090000000000000000000000000000000000060
:1000A0000000000000000000000000000000000050
:1000B0000000000000000000000000000000000040
:1000C0000000000000000000000000000000000030
:1000D0000000000000000000000000000000000020
:1000E00000030506080A0C0E10121417191B1E2017
:1000F0002326292C2F3235393C4043474B4F535749
:100100005C60656A6F74797F848A90969CA3A9B0BD
:10011000B7BEC5CDD5DDE5EDF6FF0000000000005F
:1001200000000000000000000000000000000000CF
:1001300000000000000000000000000000000000BF
:1001400000000000000000000000000000000000AF
:1001500000000000000000000C1015191E23292EBD
:10016000343A40474D545C636B737C858E97A1ACE9
:10017000B6C1CDD9E5F2FFFFFFFFFFFFFFFFFFFF95
:10018000FFFFFFFFFFFFFFFFFFFFFFFFFFFFFFFF7F
:10019000FFFFFFFFFFFFFFFFFFFFFFFFFFFFFFFF6F
:1001A000FFFFFFFFFFFFFFFFFFFFFFFFFFFFFF005E
:1001B000010102020303040505060708090A0B0CE6
:1001C0000D111213141516181A1C1E212326292C82
:1001D0002F3236393D41454A4F54595E646A717732
:1001E0007E868E969EA7B0BAC4CFDAE6F2FFFFFFF6
:1001F000FFFFFFFFFFFFFFFFFFFFFFFFFFFFFFFF0F
:10020000FFFFFFFFFFFFFFFFFFFFFFFFFFFFFFFFFE
:10021000FFFFFFFFFFFFFFFFFFFFFFFFFFFFFFFFEE
:10022000FFFFFFFFFFFFFFFFFFFFFFFFFFFFFFFFDE
:10023000FFFFFFFFFFFFFFFFFFFFFFFFFFFFFFFFCE
:10024000FFFFFFFFFF0011241FBECFEFD4E0DEBF92
:10025000CDBF11E0A0E0B1E0E8E0F4E202C005901B
:100260000D92AC34B107D9F721E0ACE4B1E001C0A4
:100270001D92A73FB207E1F70E94380F0C940212BB
:10028000BFCEF89498ED9FBD83BF78940895482F12
:100290009B01E4ECF1E080E090E05081552331F0E7
:1002A0000196339680319105C1F70AC063E070E092
:1002B0000E94A411FC01EC53FE4F40833283218342
:1002C00008950F931F93CF93DF93D091C401DD2343
:1002D00051F10091C5011091C601C091A101C15019
:1002E000C7FD0DC0EC2FEE0FFF0BEE55FE4F01903A
:1002F000F081E02DB8018D2F09958111F0CFE4EC4C
:10030000F1E0838180838481958192838183339618
:1003100081E0E13FF807A9F71092F1011092F30193
:100320001092F201D2CFDF91CF911F910F910895DA
:10033000BC018091F601ABCF1092F6011092F5014D
:100340001092F40181E080937B0108950F931F9335
:10035000CF93C82F08EA17E0CC2349F082E091DF61
:10036000C8010197F1F780E08CDFC150F5CFCF9144
:100370001F910F9108958FB182FB882780F991E03A
:10038000892780939A010895E0910601F091070171
:100390003196FB70F460F0930701E09306018091C1
:1003A00096018B5A80939601E491809196018E0F6D
:1003B00008950F931F93CF93DF9300D01F92CDB773
:1003C000DEB7209120013091210140912201298343
:1003D0003A834B83FE01319640E050E090E061E0CB
:1003E00070E0B1919A01220F331F8C0102C0159564
:1003F00007952A95E2F79801237061F02130D1F436
:10040000A0B39B0101C0220FBA95EAF7322F3095B5
:100410003A2318C0A0B39B0101C0220FBA95EAF796
:1004200020953A2F322330BB32B3322332BB31B363
:1004300023230EC0A0B39B0101C0220FBA95EAF797
:100440003A2F322B30BB32B3322B32BB31B3232B9A
:1004500021BB4F5F5F4F4330510519F60F900F904E
:100460000F90DF91CF911F910F910895CF93C82FD7
:10047000809398018093970180919901811101C027
:1004800098DFC1110AC010926D0010926C0018BA6A
:1004900010926B0010926A001AC0C1508C2F90E02D
:1004A000FC01E055FE4FE491F0E0F0936D00E09325
:1004B0006C00FC01E65EFE4FE491E8BBFC01EC57EA
:1004C000FF4FE491F0E0F0936B00E0936A008091BD
:1004D0009801883010F482E005C0823110F481E088
:1004E00001C080E0CF91CDCECF93DF9300D000D07C
:1004F00000D0CDB7DEB7909175012091B201309157
:10050000B3012C5F394009F492E0843019F4609310
:10051000760121C06623F9F0823019F427E9261B01
:10052000622F26E0E3E2F1E0DE01119601900D92E8
:100530002A95E1F7E82FF0E03197EE0FFF1F21E059
:1005400030E02C0F3D1FE20FF31F0190F081E02DF2
:10055000E90FF11D608326960FB6F894DEBF0FBE3B
:10056000CDBFDF91CF910895BF92CF92DF92EF92EE
:10057000FF920F931F93CF93DF93EC01409175018E
:10058000E0917701EE2311F082E001C0842F90E02A
:10059000DC01AC5EBE4F2C9120931801DC01AF5EF4
:1005A000BE4F8C9180931701F0E0E25FFE4F3181E6
:1005B000622F70E0442349F0313039F49B01280F59
:1005C000311DC9019595879538C0C617D707A4F185
:1005D000682F70E06C177D0784F1411102C08C2FE9
:1005E0002CC0821B032F10E001501109E82EF12CC2
:1005F000C701B8010E94D511609373016695E62F7B
:10060000F0E0822FC12CD12CB12CB316B1F0C60171
:10061000B8010E94C111822F860FCE0CDF1CAE01E3
:10062000481B510957FF03C0519541955109E417E3
:10063000F5071CF4B394E9CF822FDF91CF911F917E
:100640000F91FF90EF90DF90CF90BF90089580932F
:100650007A010CCF0F931F93CF93E82F8091B701AE
:100660009FEF980F9C3110F480E077C0CE2FC29599
:10067000CF70EF7090919901911103C0C33008F0D1
:10068000C2E0E73008F441C0E730A9F4009151011D
:1006900010E00F5F1F4F78DE65E00E94B5119801F2
:1006A000290F311DC90166E070E00E94D5118093C9
:1006B0005101FC0135C0E830B1F4809199018823E3
:1006C00011F08FEF01C083E0682351F48091510154
:1006D00090E0019666E070E00E94D5118093510190
:1006E000E091510112C090919901992381F08D31CF
:1006F000D8F090E0E92FF0E0E45CFE4F2081821713
:1007000010F09E5FF7CF3197E081F0E009C0862FAF
:10071000869563E00E94B511E92FF0E0EE0FFF1F10
:10072000E358FF4FE49101C0E0E0C33071F48091E1
:10073000500190E0019663E170E00E94C111809346
:100740005001DC01A75DBE4FCC91CC2321F0C1301C
:1007500019F0EE0F01C0E0E08E2FCF911F910F91A5
:1007600028CECF93C091980189E18C0F873908F08A
:1007700080E07CDE82E0EADD8C2FCF9177CECF93D4
:10078000C091980180E072DE83E0E0DD8C2FCF9194
:100790006DCE81E00895611160931E010895662376
:1007A00089F0813061F48091B5019091B401891B89
:1007B000681B6093B40182E080931F0103C0635EF5
:1007C00060931D0180911D01873418F086E48093A9
:1007D0001D01089570E070930C0160930B01089562
:1007E0000F931F93CF93DF938091750180937C01CA
:1007F0008091140180937D018091110180937E018D
:1008000080910E0180937F0180911501809380017A
:10081000809112018093810180910F018093820168
:10082000809116018093830180911301809384014C
:1008300080911001809385018091770180938601DA
:100840008091760180938701809174018093880163
:1008500080911901809389018091790180938A01A7
:100860008091780180938B0180910A0180938C01A3
:100870008091080180938D018091090180938E0100
:1008800080910D0180938F0180911D0180939001D3
:100890008091B4018093910180911E018093920117
:1008A00080911C018093930180911B01809394019E
:1008B00080910B0180939501F8940CE711E0C1E859
:1008C000D0E0F80161918F01CE010E94F0112196D4
:1008D000CB39D105B1F765EA80E890E00E94F011CC
:1008E0007894DF91CF911F910F910895813019F481
:1008F000109279010895823019F460937801089577
:10090000833019F4609374010895843011F4609376
:1009100019010895883039F4109272011092700113
:1009200010926F0140C0813B59F480917201815057
:100930008330D8F583E0809372018093710135C0D4
:10094000853BB1F4CB016EE370E00E94C111892BAD
:1009500051F580917201853F30F5865F8093720179
:10096000809371011092700110926F01FADE1BC02A
:100970008130D9F480916F0190917001019688388F
:100980002EE0920728F49093700180936F010BC0C2
:100990001092700110926F0180917201882319F0FA
:1009A00081508093720180E0089581E00895FF9264
:1009B0000F931F93CF93DF938C01EB01F42E809163
:1009C000B2019091B301892B31F0E091B201F09125
:1009D000B30189E009951093B3010093B201012B93
:1009E00039F0E091B201F091B301BE018F2D09956C
:1009F00081E080937B01DF91CF911F910F91FF9058
:100A00000895CF93DF93E091A101EE2359F0E150D7
:100A1000E093A101F0E0EE0FFF1FEE55FE4FC08105
:100A2000D18102C0C0E0D0E0E091A101EE2341F00D
:100A3000F0E0EE0FFF1FE056FE4F8081918102C073
:100A400080E090E04AE060E070E0B1DFCE01DF914D
:100A5000CF910895883029F410926B0110925201C1
:100A600016C0813001F590915201911107C060329A
:100A7000710570F1809352015FDC2AC0913089F4D6
:100A8000673381E0780728F082E08093520180E0AC
:100A90001EC061157105E1F06270862F880F8E5EB1
:100AA00016C0AFDF15C0813811F0813E89F491E0A6
:100AB00090935201813E21F480916B01865F03C0C7
:100AC00080916B018F5F80936B0136DC8BE4CEDC11
:100AD00080E008959C019091A101983088F4E92F5D
:100AE000F0E0EE0FFF1FEE55FE4F318320839F5F36
:100AF0009093A10148E0C9015ADF8091A1010895B6
:100B00008FEF08950F931F93CF93DF93EC018B0129
:100B100078DFB801CE01DF91CF911F910F91DACF2D
:100B2000813C39F410926C0160E070E08FE496E053
:100B30000DC0823C29F460E070E087E096E006C0DA
:100B4000833C31F460E070E087ED95E0DBDF05C0C9
:100B50008A3C29F481E080936C0180E0089581E073
:100B60000895843011F58091B2019091B3012DE088
:100B70008532920729F469E170E08DE497E013C0B3
:100B80008D54974061F490919801923040F0892FF4
:100B9000869596959695890F5ADD80E0089560E0D8
:100BA00070E08FE496E0AEDFF8CF81E00895813CFD
:100BB00029F460E070E08FE496E00DC0823C29F4F7
:100BC00060E070E080E995E006C0833C31F460E0CD
:100BD00070E08EE296E096DF16C0813B49F4CB01CF
:100BE0006EE370E00E94C111892B69F4BADD0BC07D
:100BF000813E59F4CB016EE370E00E94C1116F5F3A
:100C000060930D01EDDD80E0089581E00895CF93BC
:100C1000C0917701C1111EC0813C29F460E070E0F1
:100C20008FE496E006C0823C31F460E070E08EE232
:100C300096E068DF10C0833C29F460E070E080E952
:100C400095E0F7CF873B31F460E070E084E09AE014
:100C500041DF01C0C1E08C2FCF910895813C29F480
:100C600060E070E08FE496E00DC0823C29F460E023
:100C700070E087ED95E006C0833C31F460E070E001
:100C800087E096E03FDF07C0873B39F460E070E023
:100C900088E09AE01FDF80E0089581E008950F93D7
:100CA0001F93CF938B01883079F480E0DFDB60E025
:100CB00080911C01CFDC10927201012B19F481E0AC
:100CC00080939901C0E0E4C0813049F46931710535
:100CD000C8F38093990180911C01BCDCF3CF833071
:100CE00031F520917901222361F08091780190E023
:100CF00062EC71E00E94A4110817190710F020930C
:100D00001A01602F80911C01A5DC80910B0190914C
:100D10000C010097B9F262EC71E00E94A4118017F7
:100D2000910780F660E070E080E19AE03FC0813B8F
:100D300099F481E090E018DC99DB809174018111D5
:100D4000C1CF80917501811104C00831110508F4EB
:100D5000B9CF61E070E028C0813ED9F3813821F439
:100D600080911A0190E013C0813C21F460919801B8
:100D700070E01AC0823B79F480911901909177015B
:100D8000911180917601811104C086E990E0ECDB3D
:100D900005C086E903C0823E19F480E067DB92CF8C
:100DA000823C31F466E970E08DE497E0ABDE8ACFF7
:100DB000833999F3833C29F460E070E087E096E0A2
:100DC000F5CF843C09F4AECF8F3C29F460E070E0AD
:100DD00089EC93E0EBCFC09177018A3B79F4672BE4
:100DE00069F4CC2329F0BDDC10927701F9DC6ACFDD
:100DF00060E070E08CEF99E06DDE4AC0C11147C041
:100E00008A3C29F4AEDC81E0809377013EC0833BCD
:100E100029F460E070E085E29DE006C0853B31F496
:100E200060E070E084E99EE06DDE32C0873C91F4C2
:100E300090911C01892F82958F708F5F83708295AE
:100E4000807F9F70892B80931C0160E003DCC8DCED
:100E500088DC1EC0873BB9F4C8018F739927892BA2
:100E600069F490911C01892F8F708F5F292F207F4B
:100E70006BE00E94B511922B90931C01602F809122
:100E80001C01E8DB05C0873E11F4AADC01C0C1E00B
:100E90008C2FCF911F910F9108959F92AF92BF9287
:100EA000CF92DF92EF92FF920F931F93CF93DF9336
:100EB000182FEB01D0901801F0901701A090750148
:100EC000AA2019F0B090730102C0BB24B394C09063
:100ED0001901009177010111C0907601CC2051F0E9
:100EE00081E0C81621F080911A018F1518F0A6E94B
:100EF000EA2E01C0EF2C90907201BE01812F0ADD15
:100F000060917201662339F091100CC080919801B4
:100F10008093560107C0992029F060E070E08FE4CB
:100F200096E039C0812F8D7F8830D9F410926E0100
:100F30001A3019F4C0911A01D0E08D2D90E08C1771
:100F40009D0738F48F2D90E0C817D90710F4C0938F
:100F50001A01CE0109DB7BDB81E08093050100E013
:100F6000F8C1113CD1F2123C71F4809198018E15B8
:100F700010F48E2D02C080911A0169DB80919801D6
:100F800080935601ECCF143C41F480E06FDA60E0CE
:100F900070E080E19AE0B6DDE2CF8FE4810F82302D
:100FA00008F056C0AA2041F0CE0168E170E00E942E
:100FB000C111892B31F0D3CF60910E0170E0CE01C9
:100FC000F6CF20919801209761F4123B11F48FEF36
:100FD00005C02F15E0F7D21608F181E080930501D6
:100FE0001DC0E0910E01F0E0CF0166E371E00E94C8
:100FF000A4118C179D0710F42F1548F7CF016CE64C
:1010000072E00E94A4118C179D0740F4D21630F0B4
:10101000A8DB60E070E080E19AE074DDD091980197
:10102000809105016B2D70E0082E000C990B0E9439
:10103000A4118D0F911D98DAC82F80931A01D8172B
:1010400029F0F81611F0D81201C099DB8C2F95CF3A
:101050008FE1810F823020F48091050181957DCF51
:10106000113009F0EAC0A99711F410930501662325
:10107000A1F08091560170E06150710990E00E94EA
:10108000A4116091710170E00E94D511611101C03D
:1010900061E06093970160937A018091970190914C
:1010A0009801282F30E0291B31096091540170917B
:1010B00055016F5F7F4F7093550160935401211567
:1010C000310509F44CCF37FF05C0933830F040E4C8
:1010D00050E005C040E052E002C040E051E05695CB
:1010E000479537FF02C02F5F3F4F35952795211554
:1010F0003105A9F74617570708F031CF891710F4C3
:101100008FEF03C0981710F481E0890F2FEF280F9D
:10111000A22FB0E0AD0140555E4FFA01649129174E
:1011200058F4E0916C00F0916D00EF2B29F46F3FC3
:1011300019F46FEF70E01CC0E0916C00F0916D004D
:1011400070E0E617F70738F460916C0070916D005D
:101150006F5F7F4F0DC0E0916C00F0916D006E17D6
:101160007F0750F460916C0070916D0061507109BF
:1011700070936D0060936C00BD01665E7E4FFB0155
:101180003491291738F498B3911104C03F3F11F4FA
:1011900038BB0CC098B3931718F498B39F5F05C081
:1011A00098B3391718F498B3915098BB9D012C57F8
:1011B0003F4FF9019491A0916A00B0916B00E92F23
:1011C000F0E0AE17BF0730F4E0916A00F0916B00D9
:1011D00031960CC0A0916A00B0916B00EA17FB0732
:1011E00048F4E0916A00F0916B003197F0936B0046
:1011F000E0936A00A0916C00B0916D00FA014491F7
:1012000050E0A417B507A1F498B3FB0164919613BD
:101210000FC040916A0050916B00F901249130E0B9
:101220004217530729F4C091970120D9C093970121
:10123000109255011092540192CE1530A9F480916C
:1012400098018F3308F48BCE90E08C1B9D0B282FD8
:101250008E3391052CF08739910518F026E901C0ED
:101260002EE3209397017BCE1630B9F4909198012C
:1012700080917A01981708F072CEC90FD11D90E0C5
:101280008C179D0734F0CE33D10524F4CEE3D0E0A3
:1012900001C0EC01C093970162CE173079F49091B0
:1012A000970180919801891710F48F5F04C09817F7
:1012B00008F055CE81508093970151CE011148C05E
:1012C000133C99F481E0A11080E08093750188DAE5
:1012D00056DA8091980190E047D980931A01B7D9E6
:1012E000809198018093560134C0133B49F4CD2B73
:1012F00009F035CECC2011F086E9E82E8E2D04C001
:10130000133E21F480911A01A2D923C0153C41F467
:1013100080E0ACD860E070E084E99EE0F3DB19C0C7
:10132000173B29F460E070E088EF99E00FC01A3CA9
:1013300039F4809198018093790152DA12DA09C068
:101340001A3B31F460E070E080E09AE0C3DB01C05A
:1013500001E0802FDF91CF911F910F91FF90EF90CF
:10136000DF90CF90BF90AF909F900895883061F448
:101370001092530180E07AD880919A01811136C091
:1013800081E08093530122C0982F907F903BB1F46D
:1013900020915301421778F0CB016DE570E0F1D751
:1013A000029739F42F5F209353014217F8F088E336
:1013B00003C082E101C080E059D818C0903E61F4BA
:1013C00080915301882389F0481778F060E070E03D
:1013D0008AE295E07FDB0AC08A3041F460916B01BC
:1013E00080915301F9010995FBD90BDB80E0089549
:1013F00024E732E043E0BACF24E732E044E0B6CF5E
:1014000026E734E044E0B2CF2BEC33E041E0AECF4E
:101410002FEC33E042E0AACF2AEE33E041E0A6CF42
:101420000F931F93CF93DF93D82F8B01873B19F432
:1014300080E01CD85CC080798039B1F4209114011F
:10144000909115018D2F8F70823041F48091790138
:10145000811108C0822F291728F403C0822F921708
:1014600008F4892F03D80CC0803819F480E00E945A
:101470003602D83029F460E080911B01EBD837C0E8
:10148000D13039F40931110508F46DC0D0939901B8
:1014900002C0D33029F4602F80911B01DBD863C0D8
:1014A000D33C29F460E070E08FE496E01EC0D43CA9
:1014B00071F4C0917901CC2319F06C2F70E013C046
:1014C00060911A0170E08DE497E01CDB4FC0D43BC3
:1014D00031F455D91092F60161E070E004C0D53CBA
:1014E00031F466E970E08DE497E00CDB3CC0C0911C
:1014F0007701C1113AC0DA3B31F460E070E08CE072
:101500009AE0E8DA33C0D73C91F490911B01892F1F
:1015100082958F708F5F83708295807F9F70892BFB
:1015200080931B0160E096D85BD91BD91FC0D73BC5
:10153000B1F4C8018F739927892B61F490911B0135
:10154000892F8F708F5F292F207F6BE00ED7922B12
:1015500090931B01602F80911B017CD807C0D73E60
:1015600021F43ED903C0C0E001C0C1E08C2FDF915F
:10157000CF911F910F9108958DE084B91092C10110
:101580001092C20183B1886483B90895F5DF139A7C
:1015900087EE83B908951092C30120B191B13091C3
:1015A00096012295269526952370892F90E0880F25
:1015B000991F880F991F820F911D830F80939601A9
:1015C0008091B801882309F40DC11092B80180916F
:1015D000C10190919901992319F01F981092C101AE
:1015E000811144C080911F01882349F06091BD01A1
:1015F0007091BE017093BA016093B90104C060910B
:10160000B9017091BA01605F7F4FE6E0769567950A
:10161000EA95E1F780E098E5B4D680911E0190E06C
:101620000397680F791F769567956093B70180914E
:101630006A01882311F0815008C06D3140F460E0E8
:1016400070E084E00E94470185E080936A01809108
:1016500099018111BEC08EE884B981E08093C101F7
:101660001092C20183B1886483B9B3C0813009F09C
:10167000B0C080911F01811143C08091BB01909146
:10168000BC01409645E0969587954A95E1F76091B3
:10169000B401AC0156954795062E000C770B9B01C3
:1016A0002E503140240F351F3093B6012093B501E1
:1016B00020915901E22FF0E0EE0FFF1FE65AFE4F96
:1016C00040815181DC01A41BB50BAD019183808366
:1016D0002F5F2770209359019D01220F331F220F86
:1016E000331F820F931F20911D0130E0261B370B03
:1016F000225F3E4F220F331F821B930B23E01CC03F
:101700008091BF019091C0019093BC018093BB0177
:10171000409635E0969587953A95E1F7EAE5F1E050
:1017200081939193B1E0EA36FB07D1F7A6CF0097FA
:1017300009F00196215029F018161906C4F70197EF
:10174000F9CF18161906E4F457FD39C02091580155
:1017500012160CF1880F991FBC016350710977FFB5
:1017600002C06F5F7F4F759567951616170614F0C8
:1017700061E070E088E1861B8093580185E026C017
:101780008C3F2FEF9207DCF457FF19C020915801CE
:1017900027FF05C02450281B2093580119C024EEB0
:1017A000281B209358012091B7012F3188F06CEF4E
:1017B0007FEF681B790B7595679586E007C0809170
:1017C000B7018E3128F060E070E087E00E944701A9
:1017D000D3DE80911F01882329F080911F01815061
:1017E00080931F0108950F931F93CF9310929C0134
:1017F0008091F4019091F5019C012F5F3F4F882764
:101800009078822B932B9093F5018093F401C091F3
:101810009A010E94BB01C81731F11092990180937F
:101820009A019091F601882359F0892F80699F7061
:101830009F3009F08F5F8093F60180E090E00DC04B
:10184000892F8F7E95FD02C0806801C0806C8093D7
:10185000F6018091F4019091F5010E949801109297
:10186000F5011092F4010091F4011091F5018091BD
:101870009901882379F0B80183E00E9447010E9412
:1018800061010F731127012B09F046C01092570117
:101890007DDE32C0C091F6018C2F807F803B19F431
:1018A00060E070E001C0B80181E00E944701C4FF20
:1018B00013C0C5FF02C0C8010CC008311105E0F01B
:1018C0001092F5011092F401C062C093F60180E01D
:1018D00090E00E94980110C0CC2371F0C5FD0AC0B1
:1018E0000231110548F0C064C093F60180E090E039
:1018F0000E9498010E949C0180915701811106C0AD
:1019000083B1886483B981E08093B80180915701E5
:101910008F5F8F7180935701CF911F910F91089521
:101920008091C301811137DE80919C0181115BCFD1
:101930000895EF92FF920F931F93CF93DF93EC01E3
:1019400008E017E082ECE82EFF24F3942097D9F00A
:1019500080917B01811119C080919801883028F411
:1019600082E00E944101C70104C080E00E94410161
:10197000C8010197F1F780E00E944101D1DF0E9488
:1019800061012197E3CF81E001C080E0DF91CF9139
:101990001F910F91FF90EF900895CF93C82F882348
:1019A000A1F060E081E00E942A0387EB90E0C1DFB4
:1019B00060E082E00E942A0383E191E0BADFC15037
:1019C00081F78DED92E0CF91B4CF60E081E00E948D
:1019D0002A0386E490E0ADDF60E082E00E942A0303
:1019E00083E191E0A6DFEDCFCF93DF9364E6BDD432
:1019F000282F892F6AE0B9D4EC01222341F0822FED
:101A0000CCDF8C2FCADF8D2FDF91CF91C6CFC111D4
:101A1000F8CFF9CFCF93DF93D82FC3E080911A018D
:101A20000E94360288EC90E084DFDD2319F080E923
:101A300091E07FDF80E00E94360288EC90E079DF61
:101A4000C15061F7DF91CF910895DF92EF92FF923D
:101A50000F931F93CF93DF93D82F8B01C0910A016F
:101A600081E080936E01C33009F0DFC0F090720115
:101A70008D2F0E948A04FF2051F080917201811104
:101A800006C060E070E08FE496E03CD8CEC0D8306D
:101A900021F481E080930301CAC0D23C19F4109272
:101AA0007201D4C0D13BC1F490910201012B49F4E1
:101AB0009E3610F08FEF03C0923018F481E08093CF
:101AC000030180910301890F11F481E022C18F3657
:101AD00008F41FC18EE61DC1D13E31F4809103018F
:101AE000819580930301DBC0D23B61F481E0809358
:101AF000030180910201823008F4D9C081508093A3
:101B00000201D5C0D13009F0A5C00932110511F488
:101B1000D0930301D0904F018D2D880FD7FC809575
:101B200090E067E070E010D4292FE0904E018E2DF8
:101B3000880FE7FC8095D09101016D2F70E090E057
:101B400003D4290FF0904D018F2D880FF7FC80955D
:101B5000C09100016C2F70E090E0F6D3920F60917D
:101B6000020170E0690F711D80917201813091F462
:101B700080916F019091700125E0969587952A9547
:101B8000E1F724E730E0A901481B590BCA01DCD377
:101B9000B901F7D3862F0E94360200FD06C00E94CD
:101BA000C4018170D80ED0924F0180914C01E80E93
:101BB000E0924E010E94C40165E2D7D3F90EF09283
:101BC0004D010E94C4018F7331F40E94C4016DE085
:101BD000CCD390934C01DD2339F00E94C4018F7364
:101BE00019F4D150D09301010E94C401811108C0A1
:101BF0000E94C4016BE0B9D39093010110924E0191
:101C0000C33038F00E94C4018F7119F4C150C093E1
:101C100000010E94C4018F7709F06FC00E94C401C7
:101C200066E0A3D39093000168C0D83021F481E02E
:101C30008093040170C0D13C39F460E070E08FE41F
:101C400096E00E94820567C0D23C31F4EC2FF0E0B0
:101C5000319607C0D13C89F3D33C41F4EC2FF0E03E
:101C60003396E370FF27E0930A0134C0D13BA9F417
:101C7000C23008F050C000FD4EC0EC2FF0E0E85F2D
:101C8000FE4F808190910401891B883020F08F3FA6
:101C9000E9F48EEF1BC088E019C0D13E31F4809189
:101CA000040181958093040115C0D23B89F481E041
:101CB00080930401C23078F500FD2DC0EC2FF0E0D8
:101CC000E85FFE4F80818F3F31F18F5F808323C0BB
:101CD000D23E19F40E94F0031EC0D53C51F460E0DE
:101CE00070E084E99EE00E94820580E00E94360256
:101CF00012C0D13011F081E00FC00932110519F482
:101D000081E08093040180919601080F0093960171
:101D100002C08093020180E0DF91CF911F910F916B
:101D2000FF90EF90DF9008950F931F93CF93DF9371
:101D3000D82F8B01883031F480916E01813011F4FD
:101D400088E083DE8D2F8079803961F481E0809393
:101D50006D01C0916E01C1110CC080911A010E94E9
:101D6000360224C0803839F410926D0180E00E9460
:101D70003602C0E01BC0D130C1F4C0916D01CC234C
:101D800051F080916E018130A1F7B801DF91CF91C0
:101D90001F910F915ACE0733114058F3D0939901F8
:101DA00060E080E00E942A0301C0C1E08C2FDF9137
:101DB000CF911F910F9108951F920F920FB60F921E
:101DC00011242F933F938F939F93AF93BF93EF93E0
:101DD000FF938091C2018823E9F0E091C10120B115
:101DE00031B1F0E0EE0FFF1FDF01A354BE4F2D9382
:101DF0003C93E754FE4F808191818217930708F44A
:101E000001962817390708F401979183808381E0B0
:101E10008093C30181E08093C201FF91EF91BF9154
:101E2000AF919F918F913F912F910F900FBE0F9087
:101E30001F9018951F920F920FB60F9211248F9337
:101E400081E080939C018F910F900FBE0F901F90A7
:101E500018951F920F920FB60F9211248F9381E065
:101E600080939B018F910F900FBE0F901F9018953C
:101E7000F89485B7877F85BF88ED90E00FB6F8941A
:101E8000A8958FBD90B7977F90BF0FBE88E780BBA6
:101E900088E08CB981E088B991EA909372008093D0
:101EA000710091E89BBB8ABB84E082BB87BD8CB785
:101EB00088608CBFA89580E480BF68DB789481E05F
:101EC0000E94A60160E070E081EB95E00E946A0547
:101ED00010927B010E94B1030E94BB01811108C0D6
:101EE000F89480E890E074D2853A89F17894A8C09B
:101EF000C0E08C2F0E94360283E190E01ADD8C2F27
:101F000086950E94360283E190E013DD0E94BB01BA
:101F1000882399F0CF5FC03461F765E181E00E94CA
:101F2000CF030E94F003C6E98C2F0E94360284E0A2
:101F300090E0FFDCC150C1F7D3CFCC2389F28C2FC6
:101F40000E9436028DE090E0F4DCC150F6CF0CE741
:101F500011E0C1E8D0E0CE013BD2F80181938F01BE
:101F60002196CB39D105B9F7789480917C01809383
:101F7000750180917D018093140180917E01809391
:101F8000110180917F0180930E01809180018093E7
:101F900015018091810180931201809182018093CB
:101FA0000F018091830180931601809184018093B9
:101FB00013018091850180931001809186018093A7
:101FC00077018091870180937601809188018093C9
:101FD0007401809189018093190180918A01809315
:101FE000790180918B018093780180918C0180939D
:101FF0000A0180918D018093080180918E01809368
:10200000090180918F0180930D018091900180934F
:102010001D01809191018093B40180919201809380
:102020001E018091930180931C0180919401809303
:102030001B018091950190E090930C0180930B011E
:1020400080917901811180931A0161E070E08FE441
:1020500096E00E946A0543E4242E52E0352E60E4A7
:10206000462E992493947CEFA72E73E0B72EE7E0D9
:102070008E2EF5E05F2EAFE4CA2EA6E0DA2E0E9487
:10208000610180919F019091A001009751F06091B2
:102090009D0170919E010E9482051092A0011092F4
:1020A0009F0180919901882309F440C080E00E943B
:1020B0003602A89520BE1F980E94BB018111FCCF5B
:1020C0000E949C018CB788608CBF1092C301109253
:1020D0009C0110929B01809199018823F9F086B7A9
:1020E0008F79806486BF86B7806186BF889586B702
:1020F0008F7E86BF80919B01811110929901809102
:10210000C301882329F090921F019092B80143DA0D
:1021100080919C018823F9F266DBDDCF30921F01AC
:102120008CB7877F8CBF32DAA89540BEF9DB10925E
:102130007B018091B2019091B301F3E0893C9F074C
:1021400079F4C0E7D0E0FE018491805326DC8CE274
:1021500091E0EFDB2196F0E0CC37DF07A1F7ABC0D1
:102160002DE08532920779F0EEE084399E0709F080
:1021700097C080916E01813009F0DBC080916D01C4
:10218000882309F4D6C0C0910A01C23018F0C230C9
:10219000F1F075CFEC2FF0E0E85FFE4FD08186E9DB
:1021A0000E943602C11109C0DA3220F4C50101973C
:1021B000F1F707C081E090E003C08D2F869590E095
:1021C000B8DB80E00E9436028D2F90E0B0C00E9404
:1021D000C4018F73E82EF12C0E94C401682DC5D074
:1021E00001E010E0380102C0660C771C9A95E2F716
:1021F0000E94C401652DB9D0E80102C0CC0FDD1FDB
:102200009A95E2F76C0E7D1E0E94C40190E0B30126
:10221000CCD0E301C80FD91FC739D10514F0C6E9E6
:10222000D0E08C2F0E943602C70183DB8E0133E0A1
:10223000159507953A95E1F7011101C001E010E00D
:10224000C70177DBC01BD10BD7FF02C0C0E0D0E0D5
:102250008C2F0E9436020E94C401837039F4C7019A
:1022600068DBCE01959587950E943602C230D10574
:102270003CF70E94C4016DE078D0C1E0D0E002C01C
:10228000CC0FDD1F9A95E2F70E94C40190E0BE01D9
:1022900078D0C80FD91F80E00E943602CE0147C017
:1022A000F6E087309F0781F48091B7019DDB809134
:1022B0007701882381F0D092A001C0929F011092F3
:1022C0009E0110929D01DBCE26E08E32920731F402
:1022D0008091B50189DB88EE93E029C0E5E0873D78
:1022E0009E07B9F480919A018111C9CE80911A019B
:1022F0000E94360284E690E01CDB80E00E943602F9
:1023000080910D0190E068EE73E01ED08456910933
:102310000EC08059954069F480916C01811105C00F
:1023200079DB81E077DB80E075DB80ED97E001DB36
:10233000A6CE86B78F7986BF86B7806186BF88951F
:1023400086B78F7E86BF9BCE0024552704C0080E1B
:10235000591F880F991F009729F076956795B8F354
:102360007105B9F7802D952F0895991B79E004C068
:10237000991F961708F0961B881F7A95C9F78095C4
:102380000895AA1BBB1B51E107C0AA1FBB1FA617BC
:10239000B70710F0A61BB70B881F991F5A95A9F70E
:1023A00080959095BC01CD01089597FB072E16F4FA
:1023B000009406D077FD08D0E4DF07FC05D03EF49A
:1023C000909581959F4F0895709561957F4F0895E1
:1023D000E199FECF1FBA8EBBE09A99278DB308957D
:1023E000262FE199FECF1FBA8EBBE09A81500DB225
:1023F000021639F01CBA2DBB0FB6F894E29AE19A96
:082400000FBE0895F894FFCF10
:10240800060B180101010004294303D00202010749
:10241800058282760114148201013E1727320702D1
:10242800050403140111010E01020100000000005F
:102438000000010000000000000000010000210170
:0C24480023022503270429052C06FF06AB
:00000001FF
