:10000000ABC0C5C012CDC3C0C2C0C1C0C0C0BFC09C
:10001000BFCCBDC0BCC0BBC0F9CCB9C0B8C03230C9
:1000200032323130303230353131000000000000E2
:1000300000000000000000000000000000000000C0
:1000400000000000000000000000000000000000B0
:1000500000000000000000000000000000000000A0
:100060000000000000000000000000000000000090
:100070000102020303040405060708090A0B0C0D1C
:100080000E101113141617191A1C1E1F21232527D1
:10009000292B2D2F313436393B3E414346494C50B4
:1000A00053565A5D6165696D71757A7E83878C914F
:1000B000979CA1A7ADB3B9BFC5CCD3DAE1E8EFF700
:1000C000FF010102020303040405050607070809EE
:1000D0000A0B0C0D0E0F1112131516181A1C1E20E8
:1000E000222426292C2E3134373B3E42464A4E5399
:1000F000575C61666C72787E858B939AA2AAB2BBBC
:10010000C4CED7E2ECF8FFEBFFF0FFF5FFFFFFFFF7
:10011000FFFFFFFFFFFFFFFFFFFFFFFFFFFFFFFFEF
:10012000FFFFFFFFFFFFFFFFFFFFFFFFFFFFFFFFDF
:10013000FFFFFFFFFFFFFFFFFFFFFFFFFFFFFFFFCF
:10014000FFFFFFFFFFFFFFFFFFFFFFFFFFFFFFFFBF
:10015000FFFFFFFFFFFF000011241FBECFE5D2E02D
:10016000DEBFCDBF10E0A0E6B0E0E8E9FFE102C0ED
:1001700005900D92A639B107D9F721E0A6E9B0E0C4
:1001800001C01D92AE33B207E1F75EDC03CF38CF7A
:10019000482F9B01EBE0F1E080E090E05081552397
:1001A00031F00196339680319105C1F709C063E0C3
:1001B00070E092DEFC01E55FFE4F408332832183D5
:1001C00008950F931F93CF93DF93D0910B01DD23FD
:1001D00051F100910C0110910D01C091E800C15046
:1001E000C7FD0DC0EC2FEE0FFF0BE751FF4F019045
:1001F000F081E02DB8018D2F09958111F0CFEBE052
:10020000F1E0838180838481958192838183339619
:1002100081E0E833F807A9F71092380110923A010B
:1002200010923901D2CFDF91CF911F910F91089594
:10023000BC0180913D01ACCF10923D0110923C0178
:1002400010923B0181E08093C300089590E822E082
:1002500048EA57E030E0815070F00FB6F89496BD50
:1002600026BD0FBEFA013197F1F70FB6F89496BD8F
:1002700036BD0FBEF0CF089586B383FB882780F983
:1002800091E089278093E1000895E0916600F09164
:1002900067003196FB70F460F0936700E0936600AE
:1002A0008091DD008B5A8093DD00E4918091DD0028
:1002B0008E0F0895CF93DF9300D000D000D0CDB73C
:1002C000DEB79091BD002091F9003091FA002052E4
:1002D000384009F492E0843019F46093BE0021C0E4
:1002E0006623F9F0823019F427E9261B622F26E0F5
:1002F000EFE7F0E0DE01119601900D922A95E1F70B
:10030000E82FF0E03197EE0FFF1F21E030E02C0FD7
:100310003D1FE20FF31F0190F081E02DE90FF11D69
:10032000608326960FB6F894DEBF0FBECDBFDF9177
:10033000CF910895BF92CF92DF92EF92FF920F93E9
:100340001F93CF93DF93EC014091BD00E091BF007C
:10035000EE2311F082E001C0842F90E0DC01AC5864
:10036000BF4F2C9120937800DC01AF58BF4F8C9188
:1003700080937700F0E0E259FF4F3181622F70E007
:10038000442349F0313039F49B01280F311DC90154
:100390009595879536C0C617D70794F1682F70E0FA
:1003A0006C177D0774F1411102C08C2F2AC0821B8B
:1003B000032F10E001501109E82EF12CC701B801FC
:1003C000BCDD6093BB006695E62FF0E0822FC12C68
:1003D000D12CB12CB316A9F0C601B8019ADD822F39
:1003E000860FCE0CDF1CAE01481B510957FF03C01E
:1003F000519541955109E417F5071CF4B394EACFE0
:10040000822FDF91CF911F910F91FF90EF90DF909E
:10041000CF90BF90089581E00895611160937D00B1
:100420000895662389F0813061F48091FC009091F9
:10043000FB00891B681B6093FB0082E080937E00B9
:1004400003C0635E60937C0080917C00873418F069
:1004500086E480937C00089570E070936C00609354
:100460006B0008950F931F93CF93DF938091BD008E
:100470008093C400809174008093C50080917100C6
:100480008093C60080916E008093C70080917500B4
:100490008093C800809172008093C90080916F00A2
:1004A0008093CA00809176008093CB008091730086
:1004B0008093CC00809170008093CD008091BF002C
:1004C0008093CE008091BE008093CF008091BC00CD
:1004D0008093D000809179008093D1008091C100F9
:1004E0008093D2008091C0008093D30080916A00F5
:1004F0008093D400809168008093D500809169003A
:100500008093D60080916D008093D70080917C000D
:100510008093D8008091FB008093D90080917D006A
:100520008093DA0080917B008093DB0080916B00E8
:100530008093DC00F89404EC10E0C1E0D1E0F80115
:1005400061918F01CE0114DD2196CA31F1E0DF0700
:10055000B1F765EA80E091E00BDD7894DF91CF910F
:100560001F910F910895882321F0813029F4BC98C0
:1005700004C0BC98C4980895BC9AC49A0895CF93B7
:10058000C82F8093DF008093DE008091E00081110E
:1005900001C0E9DFC11103C019BC18BC0DC0C150B6
:1005A0008C2F90E0FC01EF53FF4FE491E9BDFC017B
:1005B000E55DFF4FE491E8BD8091DF00863010F4E7
:1005C00092E005C0873110F491E001C090E080E82E
:1005D0000FB6F89486BD96BD0FBECF910895809357
:1005E000C200CDCFCF93C091DF0089E18C0F873956
:1005F00008F080E0C4DF82E029DE8C2FCF91BFCFEE
:10060000CF93C091DF0080E0BADF83E01FDE8C2F44
:10061000CF91B5CF813019F41092C1000895823086
:1006200019F46093C0000895833019F46093BC00FE
:100630000895843011F46093790008959091FE003C
:100640009D3110F480E006C08F70E82FF0E0EB578A
:10065000FF4F808188CF883039F41092BA00109211
:10066000B8001092B7003FC0813B59F48091BA00A6
:1006700081508330D0F583E08093BA008093B90035
:1006800034C0853BA9F4CB016EE370E042DC892BDA
:1006900051F58091BA00853F30F5865F8093BA00AE
:1006A0008093B9001092B8001092B7009BDF1BC076
:1006B0008130D9F48091B7009091B80001968838C4
:1006C0002EE0920728F49093B8008093B7000BC0F7
:1006D0001092B8001092B7008091BA00882319F0E8
:1006E00081508093BA0080E0089581E00895FF92E0
:1006F0000F931F93CF93DF938C01EB01F42E809126
:10070000F9009091FA00892B31F0E091F900F09115
:10071000FA0089E009951093FA000093F900012B83
:1007200039F0E091F900F091FA00BE018F2D0995A2
:1007300081E08093C300DF91CF911F910F91FF90D3
:100740000895CF93DF93E091E800EE2359F0E15054
:10075000E093E800F0E0EE0FFF1FE751FF4FC0818C
:10076000D18102C0C0E0D0E0E091E800EE2341F08A
:10077000F0E0EE0FFF1FE951FF4F8081918102C031
:1007800080E090E04AE060E070E0B1DFCE01DF9110
:10079000CF910895883029F41092B30010929A00F6
:1007A00016C0813001F590919A00911107C0603216
:1007B000710570F180939A003FDD2AC0913089F471
:1007C000673381E0780728F082E080939A0080E028
:1007D0001EC061157105E1F06270862F880F8E5E74
:1007E00016C0AFDF15C0813811F0813E89F491E069
:1007F00090939A00813E21F48091B300865F03C0FC
:100800008091B3008F5F8093B30016DD8BE4B7DE79
:1008100080E008959C019091E800983088F4E92FD9
:10082000F0E0EE0FFF1FE751FF4F318320839F5F02
:100830009093E80048E0C9015ADF8091E8000895EC
:100840008FEF08950F931F93CF93DF93EC018B01EC
:1008500078DFB801CE01DF91CF911F910F91DACFF0
:10086000813C39F41092B40060E070E08DEE94E0C9
:100870000DC0823C29F460E070E085EA94E006C097
:10088000833C31F460E070E087E794E0DBDF05C093
:100890008A3C29F481E08093B40080E0089581E0EF
:1008A0000895843011F58091F9009091FA002BE0C1
:1008B0008532920729F469E170E08BEC95E013C072
:1008C0008B5C954061F49091DF00923040F0892F6D
:1008D000869596959695890F82DE80E0089560E072
:1008E00070E08DEE94E0AEDFF8CF81E00895813CBA
:1008F00029F460E070E08DEE94E00DC0823C29F4B4
:1009000060E070E080E394E006C0833C31F460E096
:1009100070E08CEC94E096DF14C0813B41F4CB0195
:100920006EE370E0F6DA892B61F45CDE0AC0813E8A
:1009300051F4CB016EE370E0ECDA6F5F60936D0011
:1009400091DD80E0089581E00895CF93C091BF00CC
:10095000C1111EC0813C29F460E070E08DEE94E08E
:1009600006C0823C31F460E070E08CEC94E06ADF19
:1009700010C0833C29F460E070E080E394E0F7CF9E
:10098000873B31F460E070E088E298E043DF01C02B
:10099000C1E08C2FCF910895813C29F460E070E094
:1009A0008DEE94E00DC0823C29F460E070E087E7B2
:1009B00094E006C0833C31F460E070E085EA94E0A6
:1009C00041DF07C0873B39F460E070E08CE298E0DB
:1009D00021DF80E0089581E008950F931F93CF9366
:1009E0008B01883079F480E0CADD80917B008370D0
:1009F000BADD1092BA00012B19F481E08093E00077
:100A0000C0E0C4C0813051F469317105C8F38093EE
:100A1000E00080917B008370A6DDF2CF833019F572
:100A20002091C100222359F08091C00090E062EC37
:100A300071E052DA0817190710F020937A008091BC
:100A40007B008370833011F4802FF8DD80916B0080
:100A500090916C000097A1F262EC71E03DDA801792
:100A6000910770F64DC0813B99F481E090E062DC23
:100A700086DD8091BC008111C3CF8091BD008111C2
:100A800004C00831110508F4BBCF61E070E028C054
:100A9000813ED9F3813821F480917A0090E013C02F
:100AA000813C21F46091DF0070E01AC0823B79F450
:100AB000809179009091BF0091118091BE008111C9
:100AC00004C086E990E036DC05C086E903C0823EBA
:100AD00019F480E054DD94CF823C31F466E970E093
:100AE0008BEC95E0AFDE8CCF833999F3833C29F40E
:100AF00060E070E085EA94E0F5CF843C31F472DD8B
:100B000060E070E084E398E0EDCF8F3C29F460E092
:100B100070E08BE092E0E6CFC091BF008A3B79F4B1
:100B2000672B69F4CC2329F05DDD1092BF009ADCBD
:100B300067CF60E070E080E298E06CDE27C0C11112
:100B400024C08A3C29F44EDD81E08093BF001BC0A5
:100B5000833B29F460E070E085E29BE006C0853BC2
:100B600031F460E070E084E89CE06CDE0FC0873C0C
:100B700061F490917B0081E0890F83709C7F982BBA
:100B800090937B00F0DC6EDC01C0C1E08C2FCF9134
:100B90001F910F9108959F92AF92BF92CF92DF92D3
:100BA000EF92FF920F931F93CF93DF93182FEB01D8
:100BB000D0907800F0907700A090BD00AA2019F0A6
:100BC000B090BB0002C0BB24B394C09079000091E8
:100BD000BF000111C090BE00CC2051F081E0C816CA
:100BE00021F080917A008F1518F0A6E9EA2E01C055
:100BF000EF2C9090BA00BE01812F2DDD6091BA00DC
:100C0000662339F091100CC08091DF0080939E0024
:100C100007C0992029F060E070E08DEE94E036C0C6
:100C2000812F8D7F8830C1F41092B6001A3019F4EC
:100C3000C0917A00D0E08D2D90E08C179D0738F49C
:100C40008F2D90E0C817D90710F4C0937A00CE0119
:100C500071DBC5DC81E078C0113CE9F2123C71F433
:100C60008091DF008E1510F48E2D02C080917A00E5
:100C7000B6DC8091DF0080939E0033C1143C41F4C8
:100C800080E07DDC60E070E084E398E0DBDD29C19A
:100C90008FE4810F823008F050C0AA2039F0CE01D5
:100CA00068E170E036D9892B31F01BC160916E008C
:100CB00070E0CE01F7CF2091DF00209761F4123B66
:100CC00011F48FEF05C02F15E0F7D216F8F081E090
:100CD000809365001BC0E0916E00F0E0CF0166E3F9
:100CE00071E0FAD88C179D0710F42F1550F7CF013B
:100CF0006CE672E0F1D88C179D0740F4D21630F004
:100D000071DC60E070E084E398E09CDDD091DF006E
:100D1000809165006B2D70E0082E000C990BDCD8DB
:100D20008D0F911D07DBC82F80937A00D81719F01B
:100D3000F81201C065DC8C2F9BCF8FE1810F8230D0
:100D400030F480916500819580936500CAC01130B0
:100D500009F093C0A99711F410936500662391F0F0
:100D600080919E0070E06150710990E0B5D860916B
:100D7000B90070E0E2D8611101C061E06093DE006B
:100D80006093C2008091DE009091DF00282F30E058
:100D9000291B310960919C0070919D006F5F7F4F0E
:100DA00070939D0060939C002115310509F499C052
:100DB00037FF05C09E3730F040E150E005C040E00D
:100DC00052E002C040E051E05695479537FF02C01F
:100DD0002F5F3F4F3595279521153105A9F7461708
:100DE000570708F07EC0891710F48FEF03C09817DB
:100DF00010F481E0890F7FEF780F272F30E0A901F1
:100E00004F535F4FFA016491791738F499B59111F6
:100E100004C06F3F11F469BD0CC099B5961718F462
:100E200099B59F5F05C099B5691718F499B59150A8
:100E300099BD255D3F4FF901949168B5691718F484
:100E400098B59F5F05C068B5961718F498B591508E
:100E500098BD99B5FA01449194130AC098B5F90167
:100E60002491921305C0C091DE0089DBC093DE009F
:100E700010929D0010929C0034C01530D9F48091DE
:100E8000DF00863931F48DE78093DE008093C20065
:100E900028C0873430F190E08C1B9D0B863491057F
:100EA00034F08739910560F186E990E029C086E445
:100EB00090E026C01630B9F49091DF008091C20016
:100EC000981778F4C90FD11D90E08C179D0734F066
:100ED000C634D10524F4C6E4D0E001C0EC01C093CF
:100EE000DE0000E05AC0173071F49091DE0080916E
:100EF000DF00891710F48F5F03C0981790F78150B7
:100F00008093DE00EECF011147C0133C99F481E0DD
:100F1000A11080E08093BD00A5DA72DB8091DF0034
:100F200090E008DA80937A005ADB8091DF008093AA
:100F30009E0033C0133B41F4CD2B99F6CC2011F029
:100F400086E9E82E8E2D04C0133E21F480917A00AC
:100F500046DB23C0153C41F480E011DB60E070E02B
:100F600084E89CE06FDC19C0173B29F460E070E076
:100F70008CE198E00FC01A3C39F48091DF00809337
:100F8000C10070DA2FDB09C01A3B31F460E070E079
:100F900084E298E03FDC01C001E0802FDF91CF9137
:100FA0001F910F91FF90EF90DF90CF90BF90AF9087
:100FB0009F900895883061F410929B0080E0DFDA02
:100FC0008091E100811136C081E080939B0022C0B6
:100FD000982F907F903BB1F420919B00421778F0BE
:100FE000CB016DE570E095D7029739F42F5F209320
:100FF0009B004217F8F088E303C082E101C080E063
:10100000BEDA18C0903E61F480919B00882389F07D
:10101000481778F060E070E08AEC93E0FBDB0AC0F0
:101020008A3041F46091B30080919B00F9010995E9
:1010300019DA87DB80E008952AE531E043E0BACF92
:101040002AE531E044E0B6CF2AE033E044E0B2CF15
:101050002DE032E041E0AECF21E132E042E0AACF24
:101060002CE232E041E0A6CF0F931F93CF93DF93A2
:10107000D82F8B0180798039B1F420917400909140
:1010800075008D2F8F70823041F48091C1008111E5
:1010900008C0822F291728F403C0822F921708F462
:1010A000892F6DDA1BC0803819F480E068DA08C037
:1010B000D83031F480917B008695869554DA41C012
:1010C000D13061F40931110508F45AC0D093E00021
:1010D00080917B008695869546DA52C0D33049F4DC
:1010E00080917B008C708C3009F04AC0802FA6DA8A
:1010F00047C0D33C31F476DA60E070E08DEE94E0E6
:101100000AC0D43C89F4C091C100CC2331F06C2FCB
:1011100070E08BEC95E096DB33C060917A0070E074
:101120008BEC95E08FDB2FC0D43B31F469DA109261
:101130003D0161E070E0EDCFD53C19F466E970E067
:10114000E8CFC091BF00C1111DC0DA3B31F460E0AF
:1011500070E080E398E05EDB16C0D73C99F4909194
:101160007B00892F869586958F5F8370282F220FAD
:10117000220F9370920F90937B00F5D973D903C01F
:10118000C0E001C0C1E08C2FDF91CF911F910F9182
:10119000089581EA87B9109208011092090186B179
:1011A000886486B90895F5DFA29A87EE86B9089516
:1011B00010920A0124B195B13091DD002295269557
:1011C00026952370892F90E0880F991F880F991F0B
:1011D000820F911D830F8093DD008091FF00882393
:1011E00009F404C11092FF00809108019091E00081
:1011F000992319F037981092080181113CC0809111
:101200007E00882349F0809104019091050190931C
:1012100001018093000104C08091000190910101BF
:101220004096807E9695879568EA72E072D68091A6
:101230007D008750680F6093FE008091B200882384
:1012400011F0815007C06D3138F460E070E084E047
:101250009FD785E08093B2008091E0008111BDC0EE
:101260008FEA87B981E0809308011092090186B165
:10127000886486B9B2C0813009F0AFC080917E0029
:10128000811143C0809102019091030140969C011D
:1012900045E0369527954A95E1F7A091FB00A90115
:1012A000569547950A2E000CBB0BCD0183519140FA
:1012B000840F951F9093FD008093FC008091A10006
:1012C000E82FF0E0EE0FFF1FEE55FF4F40815181F8
:1012D000B901641B750B318320838F5F8770809306
:1012E000A100CB01880F991F880F991F40917C00A6
:1012F00050E04D5E5E4F4A1B5B0B440F551F841B35
:10130000950B820F931F23E01CC0809106019091E2
:1013100007019093030180930201409635E0969572
:1013200087953A95E1F7E2EAF0E08193919320E026
:10133000E23BF207D1F7A6CF009709F001962150C2
:1013400029F018161906C4F70197F9CF18161906CF
:10135000E4F477FD39C02091A00012160CF1880F3B
:10136000991FBC016350710977FF02C06F5F7F4F07
:10137000759567951616170614F061E070E088E120
:10138000861B8093A00085E026C08C3F2FEF92073C
:10139000DCF477FF19C02091A00027FF05C024507E
:1013A000281B2093A00018C024EE281B2093A00027
:1013B0002091FE002F3180F06CEF7FEF681B790BDE
:1013C0007595679586E007C08091FE008E3120F00C
:1013D00060E070E087E0DCD6DCDE80917E00882370
:1013E00029F080917E00815080937E0008950F93B4
:1013F0001F93CF931092E30080913B0190913C01A9
:101400009C012F5F3F4F88279078822B932B9093DE
:101410003C0180933B01C091E1002ED7C81729F110
:101420001092E0008093E10090913D01882359F0F3
:10143000892F80699F709F3009F08F5F80933D01F5
:1014400080E090E00DC0892F8F7E95FD02C08068FE
:1014500001C0806C80933D0180913B0190913C01E3
:10146000E7D610923C0110923B0100913B01109194
:101470003C018091E000882369F0B80183E088D6C0
:10148000A0D60F731127012B09F042C010929F00C4
:101490008ADE2EC0C0913D018C2F807F803B19F4E5
:1014A00060E070E001C0B80181E072D6C4FF12C0F4
:1014B000C5FF02C0C8010CC008311105C8F0109268
:1014C0003C0110923B01C062C0933D0180E090E07E
:1014D000AFD60EC0CC2361F0C5FD09C002311105A5
:1014E00038F0C064C0933D0180E090E0A1D6A4D65E
:1014F00080919F00811106C086B1886486B981E021
:101500008093FF0080919F008F5F8F7180939F0079
:10151000CF911F910F91089580910A01811148DEAA
:101520008091E300811163CF0895CF92DF92EF9213
:10153000FF920F931F93CF93DF93EC0110E800E02D
:1015400088E0E82E87E0F82E92ECC92EDD24D394B3
:10155000209709F18091C30081111FC08091DF00A5
:10156000863040F482E00FB6F89416BD86BD0FBEFB
:10157000C60106C00FB6F89416BD06BD0FBEC70162
:101580000197F1F70FB6F89416BD06BD0FBEC4DF84
:1015900018D62197DDCF81E001C080E0DF91CF91A7
:1015A0001F910F91FF90EF90DF90CF900895CF9310
:1015B000C82F882381F089E1E2D787EB90E0B5DF7F
:1015C00080E0DDD783E191E0B0DFC150A1F78DED80
:1015D00092E0CF91AACF89E1D2D786E490E0A5DF4F
:1015E00080E0CDD783E191E0A0DFF1CFCF93DF930F
:1015F00064E683D4282F892F6AE07FD4EC0122236C
:1016000041F0822FD4DF8C2FD2DF8D2FDF91CF914D
:10161000CECFC111F8CFF9CFCF93DF93D82FC3E04E
:1016200080917A00ACD788EC90E07FDFDD2319F061
:1016300080E991E07ADF80E0A2D788EC90E075DF66
:10164000C15071F7DF91CF910895DF92EF92FF9231
:101650000F931F93CF93DF93D82F8B01C0916A0014
:1016600081E08093B600C33009F0D3C0F090BA0097
:101670008D2FF1D7FF2051F08091BA00811106C063
:1016800060E070E08DEE94E0DDD8C3C0D83021F486
:1016900081E080936300BFC0D23C19F41092BA007D
:1016A000C8C0D13BC1F490916200012B49F49E3631
:1016B00010F08FEF03C0923018F481E08093630044
:1016C00080916300890F11F481E013C18F3608F413
:1016D00010C18EE60EC1D13E31F480916300819538
:1016E00080936300CFC0D23B61F481E080936300BC
:1016F00080916200823008F4CDC0815080936200F6
:10170000C9C0D13009F099C00932110511F4D09344
:101710006300D09099008D2D880FD7FC809590E0C4
:1017200067E070E0D9D3292FE09098008E2D880FC4
:10173000E7FC8095D09161006D2F70E090E0CCD3F4
:10174000290FF09097008F2D880FF7FC8095C0919E
:1017500060006C2F70E090E0BFD3920F6091620048
:1017600070E0690F711D8091BA00813091F4809111
:10177000B7009091B80025E0969587952A95E1F7F6
:1017800024E730E0A901481B590BCA01A5D3B901D0
:10179000C0D3862FF4D600FD05C077D58170D80E52
:1017A000D092990080919600E80EE09298006DD555
:1017B00065E2A3D3F90EF092970067D58F7329F4F1
:1017C00064D56DE09AD390939600DD2331F05DD51A
:1017D0008F7319F4D150D093610057D5811107C090
:1017E00054D56BE08AD39093610010929800C33077
:1017F00030F04BD58F7119F4C150C093600045D5BE
:101800008F7709F06AC041D566E077D39093600086
:1018100064C0D83021F481E0809364006CC0D13C76
:1018200031F460E070E08DEE94E00CD864C0D23CFE
:1018300031F4EC2FF0E0319607C0D13C91F3D33C6A
:1018400041F4EC2FF0E03396E370FF27E0936A0059
:1018500034C0D13BA9F4C23008F04DC000FD4BC0EC
:10186000EC2FF0E0E859FF4F808190916400891BD4
:10187000883020F08F3FE9F48EEF1BC088E019C05C
:10188000D13E31F48091640081958093640015C04D
:10189000D23B89F481E080936400C23060F500FDA2
:1018A0002AC0EC2FF0E0E859FF4F80818F3F19F1FB
:1018B0008F5F808320C0D23E11F4D4D51CC0D53CAC
:1018C00041F460E070E084E89CE0BCD780E057D64B
:1018D00012C0D13011F081E00FC00932110519F4A6
:1018E00081E0809364008091DD00080F0093DD00AB
:1018F00002C08093620080E0DF91CF911F910F9131
:10190000FF90EF90DF9008950F931F93CF93DF9395
:10191000D82F8B01883031F48091B600813011F4DA
:1019200088E093DE8D2F8079803959F481E08093AF
:10193000B500C091B600C1110AC080917A001FD6CF
:1019400021C0803831F41092B50080E018D6C0E094
:1019500019C0D130B1F4C091B500CC2351F08091C1
:10196000B6008130A1F7B801DF91CF911F910F919F
:101970006CCE0733114058F3D093E00080E0F3D5EC
:1019800001C0C1E08C2FDF91CF911F910F9108957D
:101990001F920F920FB60F9211242F933F938F93A4
:1019A0009F93AF93BF93EF93FF9380910901882397
:1019B000E9F0E091080124B135B1F0E0EE0FFF1F2E
:1019C000DF01AC5FBE4F2D933C93E050FF4F808111
:1019D00091818217930708F401962817390708F4B4
:1019E00001979183808381E080930A0181E0809355
:1019F0000901FF91EF91BF91AF919F918F913F911D
:101A00002F910F900FBE0F901F9018951F920F925D
:101A10000FB60F9211248F9381E08093E3008F9192
:101A20000F900FBE0F901F9018951F920F920FB638
:101A30000F9211248F9381E08093E2008F910F9099
:101A40000FBE0F901F901895F89484B7877F84BFBE
:101A50000FB6F894A89581B5886181BD11BC0FBE01
:101A6000B89A81E083BF81EA8ABDB99A88E088BBD1
:101A700085BB8BB780628BBFA89581B5886181BD1E
:101A800080E481BD90DB789481E0E0D360E070E099
:101A900081E594E0BFD61092C300A4D5EDD38111A7
:101AA00008C0F89480E091E05BD2853A51F17894D7
:101AB0009EC0C0E08C2F63D583E190E036DD8C2F93
:101AC00086955DD583E190E030DDD6D3882381F023
:101AD000CF5FC03479F765E181E0A3D4C3D4C6E910
:101AE0008C2F4DD584E090E020DDC150C9F7D9CFCF
:101AF000CC23B9F28C2F43D58DE090E016DDC15098
:101B0000F7CF04EC10E0C1E0D1E0CE0129D2F8011A
:101B100081938F012196CA31F1E0DF07B1F7789404
:101B20008091C4008093BD008091C50080937400B3
:101B30008091C600809371008091C70080936E00F1
:101B40008091C800809375008091C90080937200D5
:101B50008091CA0080936F008091CB0080937600C3
:101B60008091CC00809373008091CD0080937000B1
:101B70008091CE008093BF008091CF008093BE0003
:101B80008091D0008093BC008091D1008093790037
:101B90008091D2008093C1008091D3008093C000D7
:101BA0008091D40080936A008091D5008093680072
:101BB0008091D600809369008091D70080936D005A
:101BC0008091D80080937C008091D9008093FB00A5
:101BD0008091DA0080937D008091DB0080937B0010
:101BE0008091DC0090E090936C0080936B0080917A
:101BF000C100811180937A0061E070E08DEE94E085
:101C000009D643E4242E52E0352E60E4462E992472
:101C100093947CEFA72E73E0B72EE7E08E2EF5E0CD
:101C20005F2EADEECA2EA4E0DA2ECBD28091E60074
:101C30009091E700009749F06091E4007091E50011
:101C400001D61092E7001092E6008091E000882310
:101C500009F443C080E093D4A89581B5886181BD23
:101C600021BC379809D38111FDCFE6D28BB78062B2
:101C70008BBF10920A011092E3001092E200809153
:101C8000E0008823F9F085B7877E806185BF85B73E
:101C9000806285BF889585B78F7D85BF8091E20082
:101CA00081111092E00080910A01882329F090921E
:101CB0007E009092FF007CDA8091E3008823F9F2A5
:101CC00096DBDDCF30927E008BB78F7D8BBF6BDADA
:101CD000A89581B5886181BD41BC1EDC1092C3000E
:101CE0008091F9009091FA0022E08B30920779F40C
:101CF000CEE1D0E0FE018491805359DC8CE291E08A
:101D000014DC2196F0E0CA32DF07A1F79EC02BE079
:101D10008532920779F0ECE084389E0709F08AC09A
:101D20008091B600813009F0CCC08091B500882345
:101D300009F4C7C0C0916A00C23018F0C230E1F0A7
:101D400074CFEC2FF0E0E859FF4FD08186E917D42B
:101D5000C11109C0DA3220F4C5010197F1F707C0BB
:101D600081E090E003C08D2F869590E0DEDB80E07F
:101D700006D48D2F90E0A3C088D28F73E82EF12C6B
:101D800084D2682DBAD001E010E0380102C0660CA0
:101D9000771C9A95E2F779D2652DAFD0E80102C0A1
:101DA000CC0FDD1F9A95E2F76C0E7D1E6ED290E08F
:101DB000B301C3D0E301C80FD91FC739D10514F04F
:101DC000C6E9D0E08C2FDBD3C701AFDB8E0133E057
:101DD000159507953A95E1F7011101C001E010E072
:101DE000C701A3DBC01BD10BD7FF02C0C0E0D0E00E
:101DF0008C2FC5D34AD2837031F4C70196DBCE0154
:101E000095958795BCD3C230D10554F73ED26DE08D
:101E100074D0C1E0D0E002C0CC0FDD1F9A95E2F78C
:101E200034D290E0BE0175D0C80FD91F80E0A7D38F
:101E3000CE0145C0F4E0853A9F0781F48091FE0011
:101E4000D5DB8091BF00882381F0D092E700C0925B
:101E5000E6001092E5001092E400E7CE24E08C3C0E
:101E6000920731F48091FC00C1DB88EE93E027C03B
:101E7000E4E087379E07A9F48091E1008111D5CE77
:101E800080917A007CD384E690E04FDB80E077D3CA
:101E900080916D0090E068EE73E01ED08456910949
:101EA0000EC08053944069F48091B400811105C044
:101EB000B3DB81E0B1DB80E0AFDB80ED97E035DBC9
:101EC000B4CE85B7877E85BF85B7806285BF88958C
:101ED00085B78F7D85BFA9CE0024552704C0080E85
:101EE000591F880F991F009729F076956795B8F3C9
:101EF0007105B9F7802D952F0895991B79E004C0DD
:101F0000991F961708F0961B881F7A95C9F7809538
:101F10000895AA1BBB1B51E107C0AA1FBB1FA61730
:101F2000B70710F0A61BB70B881F991F5A95A9F782
:101F300080959095BC01CD01089597FB072E16F46E
:101F4000009406D077FD08D0E4DF07FC05D03EF40E
:101F5000909581959F4F0895709561957F4F089555
:101F6000E199FECF9FBB8EBBE09A99278DB3089570
:101F7000262FE199FECF9FBB8EBBE09A01970DB251
:101F8000021639F01CBA2DBB0FB6F894E29AE19A0A
:081F90000FBE0895F894FFCF85
:101F9800060B180101010004294303D002020107BE
:101FA80006787869011412780102460D3207027426
:101FB8000071006E00000102010000000000000135
:061FC80000000000000013
:00000001FF
