:10000000ABC0C5C097CCC3C0C2C0C1C0C0C0BFC018
:1000100044CCBDC0BCC0BBC07ECCB9C0B8C03230BF
:1000200032323130303230333133000000000000E2
:1000300000000000000000000000000000000000C0
:1000400000000000000000000000000000000000B0
:1000500000000000000000000000000000000000A0
:100060000000000000000000000000000001030488
:10007000050708090B0C0E0F1113141618191B1D78
:100080001F21232527292B2D30323437393B3E4081
:100090004346484B4E5154575A5D606366696D70D4
:1000A00073777A7E8185898D9094989CA0A5A9AD5F
:1000B000B1B6BABFC3C8CDD1D6DBE0E5EAEFF4FAFA
:1000C000FF010102020303040405060708090A0CE4
:1000D0000D0E0F11131416181A1D1F2224272A2D76
:1000E0003033373B3E42464B4F54595D63686E7325
:1000F000797F868C939AA1A8B0B8C0C8D1D9E2EC18
:10010000F5FFFFFFFFFFFFFFFFFFFFFFFFFFFFFF09
:10011000FFFFFFFFFFFFFFFFFFFFFFFFFFFFFFFFEF
:10012000FFFFFFFFFFFFFFFFFFFFFFFFFFFFFFFFDF
:10013000FFFFFFFFFFFFFFFFFFFFFFFFFFFFFFFFCF
:10014000FFFFFFFFFFFFFFFFFFFFFFFFFFFFFFFFBF
:10015000FFFFFFFFFFFFFF0011241FBECFE5D2E02E
:10016000DEBFCDBF10E0A0E6B0E0E0EAFEE102C0F5
:1001700005900D92A438B107D9F721E0A4E8B0E0CA
:1001800001C01D92AB32B207E1F7E3DB87CE38CF77
:10019000482F9B01E8EFF0E080E090E0508155238C
:1001A00031F00196339680319105C1F709C063E0C3
:1001B00070E016DEFC01E850FF4F4083328321835C
:1001C00008950F931F93CF93DF93D091F800DD2311
:1001D00051F10091F9001091FA00C091D500C15081
:1001E000C7FD0DC0EC2FEE0FFF0BEA52FF4F019041
:1001F000F081E02DB8018D2F09958111F0CFE8EF46
:10020000F0E083818083848195819283818333961A
:1002100081E0E532F807A9F7109225011092270135
:1002200010922601D2CFDF91CF911F910F910895A7
:10023000BC0180912A01ACCF10922A0110922901B1
:100240001092280181E08093B100089590E822E0A7
:1002500048EA57E030E0815070F00FB6F89496BD50
:1002600026BD0FBEFA013197F1F70FB6F89496BD8F
:1002700036BD0FBEF0CF089586B383FB882780F983
:1002800091E089278093CE000895E0916600F09177
:1002900067003196FB70F460F0936700E0936600AE
:1002A0008091CA008B5A8093CA00E4918091CA0061
:1002B0008E0F08958093CC008093CB00811103C0F2
:1002C00019BC18BC0CC0815090E0FC01EF53FF4FEB
:1002D000E491E9BDFC01E55DFF4F849188BD80910B
:1002E000CC00863010F492E005C08E3010F491E01E
:1002F00001C090E080E80FB6F89486BD96BD0FBEB1
:100300000895CF93DF9300D000D000D0CDB7DEB7F3
:100310009091AB002091E6003091E70027543840DF
:1003200009F492E0843019F46093AC0021C0662394
:10033000F9F0823019F427E9261B622F26E0EEE758
:10034000F0E0DE01119601900D922A95E1F7E82F79
:10035000F0E03197EE0FFF1F21E030E02C0F3D1F42
:10036000E20FF31F0190F081E02DE90FF11D608392
:1003700026960FB6F894DEBF0FBECDBFDF91CF91AA
:100380000895BF92CF92DF92EF92FF920F931F9347
:10039000CF93DF93EC014091AB00E091AD00EE23F1
:1003A00011F082E001C0842F90E0DC01AC58BF4F17
:1003B0002C9120937800DC01AF58BF4F8C91809333
:1003C0007700F0E0E259FF4F3181622F70E0442363
:1003D00049F0313039F49B01280F311DC901959541
:1003E000879536C0C617D70794F1682F70E06C1751
:1003F0007D0774F1411102C08C2F2AC0821B032F8C
:1004000010E001501109E82EF12CC701B80119DDE7
:100410006093A9006695E62FF0E0822FC12CD12CC5
:10042000B12CB316A9F0C601B801F7DC822F860FF4
:10043000CE0CDF1CAE01481B510957FF03C051957C
:1004400041955109E417F5071CF4B394EACF822FC4
:10045000DF91CF911F910F91FF90EF90DF90CF90A0
:10046000BF9008958093B00025CFCF93C091CC006A
:1004700089E18C0F873908F080E01CDF82E0E6DE3E
:100480008C2FCF9117CFCF93C091CC0080E012DF9B
:1004900083E0DCDE8C2FCF910DCF81E008956111D8
:1004A00060937C000895662389F0813061F4809127
:1004B000E9009091E800891B681B6093E80082E0E6
:1004C00080937D0003C0635E60937B0080917B001E
:1004D000873418F086E480937B00089570E0709371
:1004E0006C0060936B0008950F931F93CF93DF937D
:1004F0008091AB008093B200809174008093B30030
:10050000809171008093B40080916E008093B5005B
:10051000809175008093B600809172008093B7003F
:1005200080916F008093B800809176008093B9002D
:10053000809173008093BA00809170008093BB001B
:100540008091AD008093BC008091AC008093BD0091
:100550008091AA008093BE00809179008093BF00B3
:100560008091AF008093C0008091AE008093C10065
:1005700080916A008093C200809168008093C300DC
:10058000809169008093C40080916D008093C500C4
:1005900080917B008093C6008091E8008093C70023
:1005A00080917C008093C80080916B008093C9008B
:1005B000F89402EB10E0C1E0D1E0F80161918F0105
:1005C000CE015ADC2196C931F1E0DF07B1F765EAC7
:1005D00080E091E051DC7894DF91CF911F910F91F1
:1005E0000895813019F41092AF000895823019F403
:1005F0006093AE000895833019F46093AA000895C3
:10060000843011F4609379000895883039F41092A1
:10061000A8001092A6001092A5003FC0813B59F49B
:100620008091A80081508330D0F583E08093A800AA
:100630008093A70034C0853BA9F4CB016EE370E042
:10064000ECDB892B51F58091A800853F30F5865F62
:100650008093A8008093A7001092A6001092A50096
:1006600004DF1BC08130D9F48091A5009091A600D1
:10067000019688382EE0920728F49093A600809384
:10068000A5000BC01092A6001092A5008091A800B2
:10069000882319F081508093A80080E0089581E0BC
:1006A0000895FF920F931F93CF93DF938C01EB017B
:1006B000F42E8091E6009091E700892B31F0E091D3
:1006C000E600F091E70089E009951093E7000093B8
:1006D000E600012B39F0E091E600F091E700BE0161
:1006E0008F2D099581E08093B100DF91CF911F910B
:1006F0000F91FF900895CF93DF93E091D500EE2303
:1007000059F0E150E093D500F0E0EE0FFF1FEA5200
:10071000FF4FC081D18102C0C0E0D0E0E091D500A0
:10072000EE2341F0F0E0EE0FFF1FEC52FF4F80810F
:10073000918102C080E090E04AE060E070E0B1DFCB
:10074000CE01DF91CF910895883029F41092A10055
:100750001092880016C0813001F5909188009111A7
:1007600007C06032710570F18093880065DD2AC092
:10077000913089F4673381E0780728F082E0809334
:10078000880080E01EC061157105E1F06270862F5F
:10079000880F8E5E16C0AFDF15C0813811F0813E24
:1007A00089F491E090938800813E21F48091A1002A
:1007B000865F03C08091A1008F5F8093A1003CDD24
:1007C0008BE478DD80E008959C019091D50098300D
:1007D00088F4E92FF0E0EE0FFF1FEA52FF4F31835C
:1007E00020839F5F9093D50048E0C9015ADF809134
:1007F000D50008958FEF08950F931F93CF93DF9344
:10080000EC018B0178DFB801CE01DF91CF911F9110
:100810000F91DACF813C39F41092A20060E070E0D1
:100820008AE295E00DC0823C29F460E070E08FE739
:1008300094E006C0833C31F460E070E081E594E030
:10084000DBDF05C08A3C29F481E08093A20080E0D0
:10085000089581E00895843011F58091E60090912B
:10086000E7002AE08C3A920729F469E170E081EF11
:1008700095E013C0815F954061F49091CC00923077
:1008800040F0892F869596959695890FEBDD80E04F
:10089000089560E070E08AE295E0AEDFF8CF81E095
:1008A0000895813C29F460E070E08AE295E00DC093
:1008B000823C29F460E070E08AE094E006C0833C6A
:1008C00031F460E070E086EA94E096DF14C0813B8A
:1008D00041F4CB016EE370E0A0DA892B61F4C5DD51
:1008E0000AC0813E51F4CB016EE370E096DA6F5F8F
:1008F00060936D00F9DD80E0089581E00895CF9365
:10090000C091AD00C1111EC0813C29F460E070E0CF
:100910008AE295E006C0823C31F460E070E086EA4D
:1009200094E06ADF10C0833C29F460E070E08AE064
:1009300094E0F7CF873B31F460E070E08FE498E01B
:1009400043DF01C0C1E08C2FCF910895813C29F491
:1009500060E070E08AE295E00DC0823C29F460E03E
:1009600070E081E594E006C0833C31F460E070E023
:100970008FE794E041DF07C0873B39F460E070E027
:1009800083E598E021DF80E0089581E00895CF932A
:10099000DF93D82F80798039A9F420917400909149
:1009A00075008D2F8F70823041F48091AF008111DE
:1009B0000CC0822F291748F403C0822F921728F405
:1009C000892F03C0803819F480E074DC08C0D1306E
:1009D00031F469317105B8F1D093CD0034C0D33C06
:1009E00031F443DD60E070E08AE295E01EC0D43C63
:1009F00071F4C091AF00CC2319F06C2F70E013C0DC
:100A000060917A0070E081EF95E0F6DE1FC0D43B84
:100A100031F439DD10922A0161E070E004C0D53C68
:100A200031F466E970E081EF95E0E6DE0CC0C0913C
:100A3000AD00C1110AC0DA3B41F460E070E087E527
:100A400098E0C2DE03C0C0E001C0C1E08C2FDF919E
:100A5000CF9108950F931F93CF938B01883059F452
:100A600080E028DC1092A800012B19F481E080932B
:100A7000CD00C0E0B1C0813021F469317105C8F307
:100A8000F6CF8330E1F42091AF00222359F080911A
:100A9000AE0090E062EC71E0A3D90817190710F0DE
:100AA00020937A0080916B0090916C00009709F37D
:100AB00062EC71E095D980179107D8F64CC0813B64
:100AC00091F481E090E05DDCF5DB8091AA0081117A
:100AD000D0CF8091AB00811103C00831110548F2DD
:100AE00061E070E028C0813ED9F3813821F4809123
:100AF0007A0090E013C0813C21F46091CC0070E05A
:100B00001AC0823B79F4809179009091AD009111E7
:100B10008091AC00811104C086E990E032DC05C010
:100B200086E903C0823E19F480E0C4DBA2CF823C98
:100B300029F466E970E081EF95E008C08339A1F3FC
:100B4000833C31F460E070E08FE794E055DE91CFB4
:100B5000843C31F48ADC60E070E087EC94E0F6CF0E
:100B60008F3C29F460E070E08DE492E0EFCFC0911B
:100B7000AD008A3B79F4672B69F4CC2329F075DC4E
:100B80001092AD00B1DC75CF60E070E087E498E0D2
:100B90001BDE22C0C1111FC08A3C31F466DC81E03B
:100BA0008093AD00A1DC18C08D3B31F4F89488ED42
:100BB00081BD7894A895FFCF833B29F460E070E075
:100BC0008CEA9AE006C0853B31F460E070E08BE08F
:100BD0009CE012DE01C0C1E08C2FCF911F910F91DC
:100BE00008959F92AF92BF92CF92DF92EF92FF92C1
:100BF0000F931F93CF93DF93182FEB01D0907800C2
:100C0000F0907700A090AB00AA2019F0B090A90056
:100C100002C0BB24B394C09079000091AD000111D3
:100C2000C090AC00CC2051F081E0C81621F080913A
:100C30007A008F1518F0A6E9EA2E01C0EF2C9090EB
:100C4000A800BE01812FE1DC6091A800662339F085
:100C500091100CC08091CC0080938C0007C099202B
:100C600029F060E070E08AE295E039C0812F8D7F45
:100C70008830D9F41092A4001A3019F4C0917A0087
:100C8000D0E08D2D90E08C179D0738F48F2D90E0EB
:100C9000C817D90710F4C0937A00CE0172DBE2DBEB
:100CA00081E08093650000E09FC1113CD1F2123CCD
:100CB00071F48091CC008E1510F48E2D02C08091BD
:100CC0007A00D0DB8091CC0080938C00ECCF143C78
:100CD00041F480E0EFDA60E070E087EC94E08CDDD6
:100CE000E2CF8FE4810F823008F054C0AA2039F09F
:100CF000CE0168E170E091D8892B31F0D4CF6091BA
:100D00006E0070E0CE01F7CF2091CC00209761F407
:100D1000123B11F48FEF05C02F15E0F7D216F8F053
:100D200081E0809365001BC0E0916E00F0E0CF0190
:100D300066E371E055D88C179D0710F42F1550F716
:100D4000CF016CE672E04CD88C179D0740F4D216A8
:100D500030F08BDB60E070E087EC94E04DDDD0910B
:100D6000CC00809165006B2D70E0082E000C990B73
:100D700037D88D0F911D05DBC82F80937A00D817C7
:100D800039F0813421F0F81611F0D81201C07BDB64
:100D90008C2F97CF8FE1810F823020F480916500F6
:100DA00081957FCF113009F093C0A99711F410936A
:100DB0006500662391F080918C0070E061507109AC
:100DC00090E00ED86091A70070E03BD8611101C09F
:100DD00061E06093CB006093B0008091CB00909174
:100DE000CC00282F30E0291B310960918A007091D6
:100DF0008B006F5F7F4F70938B0060938A0021158B
:100E0000310509F450CF37FF05C0933830F040E486
:100E100050E005C040E052E002C040E051E056958D
:100E2000479537FF02C02F5F3F4F35952795211516
:100E30003105A9F74617570708F035CF891710F481
:100E40008FEF03C0981710F481E0890F7FEF780FC0
:100E5000272F30E0A9014F535F4FFA0164917917B2
:100E600038F499B5911104C06F3F11F469BD0CC0FD
:100E700099B5961718F499B59F5F05C099B569178C
:100E800018F499B5915099BD255D3F4FF9019491A2
:100E900068B5691718F498B59F5F05C068B59617CF
:100EA00018F498B5915098BD99B5FA0144919413EE
:100EB0000AC098B5F9012491921305C0C091CB00E6
:100EC000F9D9C093CB0010928B0010928A00EBCE20
:100ED0001530A9F48091CC00823408F4E4CE90E07F
:100EE0008C1B9D0B282F813491052CF0873991059F
:100EF00018F026E901C021E42093CB00D4CE1630AF
:100F0000B9F49091CC008091B000981708F0CBCE46
:100F1000C90FD11D90E08C179D0734F0C134D10565
:100F200024F4C1E4D0E001C0EC01C093CB00BBCEFF
:100F3000173079F49091CB008091CC00891710F490
:100F40008F5F04C0981708F0AECE81508093CB001D
:100F5000AACE011148C0133C99F481E0A11080E0B1
:100F60008093AB00C1DA8FDA8091CC0090E009DA8F
:100F700080937A0077DA8091CC0080938C0034C023
:100F8000133B49F4CD2B09F08ECECC2011F086E92D
:100F9000E82E8E2D04C0133E21F480917A0062DA8F
:100FA00023C0153C41F480E085D960E070E08BE01F
:100FB0009CE022DC19C0173B29F460E070E083E478
:100FC00098E00FC01A3C39F48091CC008093AF00B8
:100FD0008BDA4BDA09C01A3B31F460E070E08BE445
:100FE00098E0F2DB01C001E0802FDF91CF911F91EB
:100FF0000F91FF90EF90DF90CF90BF90AF909F90B8
:101000000895883061F41092890080E053D980916E
:10101000CE00811136C081E08093890022C0982FD4
:10102000907F903BB1F420918900421778F0CB017A
:101030006DE570E0F2D6029739F42F5F20938900B6
:101040004217F8F088E303C082E101C080E032D9A2
:1010500018C0903E61F480918900882389F0481778
:1010600078F060E070E084EA93E0AEDB0AC08A309A
:1010700041F46091A10080918900F901099534DA69
:101080003ADB80E0089521E831E043E0BACF21E87F
:1010900031E044E0B6CF21EF32E044E0B2CF2FE4BC
:1010A00032E041E0AECF23E532E042E0AACF2EE6C7
:1010B00032E041E0A6CF8CE287B91092F5001092A1
:1010C000F60086B1886486B908951092F70024B1BD
:1010D00095B13091CA002295269526952370892FC7
:1010E00090E0880F991F880F991F820F911D830F21
:1010F0008093CA008091EC00882309F404C1109207
:10110000EC008091F500811143C080917D0088231F
:1011100049F06091F1007091F2007093EE006093DD
:10112000ED0004C06091ED007091EE00605F7F4FB4
:10113000A6E076956795AA95E1F780E098E56DD6EB
:1011400080917C0090E00297680F791F76956795F3
:101150006093EB008091A000882311F0815007C0BC
:101160006D3138F460E070E084E012D885E080935F
:10117000A0008091CD008111BDC08FEA87B981E0C8
:101180008093F5001092F60086B1886486B9B2C0EB
:10119000813009F0AFC080917D00811143C0809102
:1011A000EF009091F00040969C0145E03695279520
:1011B0004A95E1F7A091E800A901569547950A2EB6
:1011C000000CBB0BCD0183519140840F951F909370
:1011D000EA008093E90080918F00E82FF0E0EE0FA5
:1011E000FF1FE057FF4F40815181B901641B750B10
:1011F000318320838F5F877080938F00CB01880FAE
:10120000991F880F991F40917B0050E04D5E5E4F03
:101210004A1B5B0B440F551F841B950B820F931FBA
:1012200023E01CC08091F3009091F4009093F000B3
:101230008093EF00409635E0969587953A95E1F7D3
:10124000E0E9F0E08193919320E0E03AF207D1F7F2
:10125000A6CF009709F00196215029F0181619061B
:10126000C4F70197F9CF18161906E4F477FD39C0D1
:1012700020918E0012160CF1880F991FBC0163504B
:10128000710977FF02C06F5F7F4F759567951616DE
:10129000170614F061E070E088E1861B80938E00F1
:1012A00085E026C08C3F2FEF9207DCF477FF19C052
:1012B00020918E0027FF05C02450281B20938E000C
:1012C00018C024EE281B20938E002091EB002F31B4
:1012D00080F06CEF7FEF681B790B7595679586E062
:1012E00007C08091EB008E3120F060E070E087E075
:1012F0004FD7E1DE80917D00882329F080917D0029
:10130000815080937D0008950F931F93CF93109287
:10131000D00080912801909129019C012F5F3F4FBF
:1013200088279078822B932B909329018093280112
:10133000C091CE00A1D7C81729F11092CD0080939B
:10134000CE0090912A01882359F0892F80699F70DF
:101350009F3009F08F5F80932A0180E090E00DC0FC
:10136000892F8F7E95FD02C0806801C0806C8093BC
:101370002A0180912801909129015AD710922901C0
:101380001092280100912801109129018091CD002F
:10139000882339F0B80183E0FBD6CF911F910F91DC
:1013A00010C7C0912A018C2F807F803B19F460E028
:1013B00070E001C0B80181E0EBD6C4FF12C0C5FFE8
:1013C00002C0C8010CC008311105C8F010922901F3
:1013D00010922801C062C0932A0180E090E028D7D3
:1013E0000EC0CC2361F0C5FD09C00231110538F0F3
:1013F000C064C0932A0180E090E01AD71DD7809185
:101400008D00811106C086B1886486B981E0809321
:10141000EC0080918D008F5F8F7180938D00CF9154
:101420001F910F9108958091F70081114EDE8091F8
:10143000D000811169CF0895CF92DF92EF92FF9291
:101440000F931F93CF93DF93EC0110E800E088E047
:10145000E82E87E0F82E92ECC92EDD24D394209755
:1014600009F18091B10081111FC08091CC008630BC
:1014700040F482E00FB6F89416BD86BD0FBEC601DB
:1014800006C00FB6F89416BD06BD0FBEC701019782
:10149000F1F70FB6F89416BD06BD0FBEC4DF91D6A6
:1014A0002197DDCF81E001C080E0DF91CF911F91D6
:1014B0000F91FF90EF90DF90CF900895CF93C82FBA
:1014C000882381F089E1F6D687EB90E0B5DF80E0F4
:1014D000F1D683E191E0B0DFC150A1F78DED92E04C
:1014E000CF91AACF89E1E6D686E490E0A5DF80E03F
:1014F000E1D683E191E0A0DFF1CFCF93DF9364E603
:1015000080D4282F892F6AE07CD4EC01222341F07B
:10151000822FD4DF8C2FD2DF8D2FDF91CF91CECFD2
:10152000C111F8CFF9CFCF93DF93D82FC3E08091CB
:101530007A00C0D688EC90E07FDFDD2319F080E9E7
:1015400091E07ADF80E0B6D688EC90E075DFC1509C
:1015500071F7DF91CF910895DF92EF92FF920F9391
:101560001F93CF93DF93D82F8B01C0916A0081E046
:101570008093A400C33009F0D3C0F090A8008D2F51
:1015800044D8FF2051F08091A800811106C060E08E
:1015900070E08AE295E030D9C3C0D83021F481E010
:1015A00080936300BFC0D23C19F41092A800C8C059
:1015B000D13BC1F490916200012B49F49E3610F0AA
:1015C0008FEF03C0923018F481E080936300809124
:1015D0006300890F11F481E013C18F3608F410C144
:1015E0008EE60EC1D13E31F48091630081958093E7
:1015F0006300CFC0D23B61F481E0809363008091AF
:101600006200823008F4CDC0815080936200C9C06E
:10161000D13009F099C00932110511F4D09363005B
:10162000D09087008D2D880FD7FC809590E067E0E3
:1016300070E0D6D3292FE09086008E2D880FE7FC2E
:101640008095D09161006D2F70E090E0C9D3290F93
:10165000F09085008F2D880FF7FC8095C091600079
:101660006C2F70E090E0BCD3920F6091620070E04C
:10167000690F711D8091A800813091F48091A500BF
:101680009091A60025E0969587952A95E1F724E7A5
:1016900030E0A901481B590BCA01A2D3B901BDD33F
:1016A000862F08D600FD05C0F0D58170D80ED092E7
:1016B000870080918400E80EE0928600E6D565E21E
:1016C000A0D3F90EF0928500E0D58F7329F4DDD513
:1016D0006DE097D390938400DD2331F0D6D58F73DE
:1016E00019F4D150D0936100D0D5811107C0CDD568
:1016F0006BE087D39093610010928600C33030F086
:10170000C4D58F7119F4C150C0936000BED58F77D6
:1017100009F06AC0BAD566E074D39093600064C0E3
:10172000D83021F481E0809364006CC0D13C31F466
:1017300060E070E08AE295E05FD864C0D23C31F4AA
:10174000EC2FF0E0319607C0D13C91F3D33C41F44B
:10175000EC2FF0E03396E370FF27E0936A0034C08B
:10176000D13BA9F4C23008F04DC000FD4BC0EC2FB6
:10177000F0E0E859FF4F808190916400891B883028
:1017800020F08F3FE9F48EEF1BC088E019C0D13EF6
:1017900031F48091640081958093640015C0D23B40
:1017A00089F481E080936400C23060F500FD2AC0B6
:1017B000EC2FF0E0E859FF4F80818F3F19F18F5FE8
:1017C000808320C0D23E11F48FD61CC0D53C41F49A
:1017D00060E070E08BE09CE00FD880E06BD512C039
:1017E000D13011F081E00FC00932110519F481E008
:1017F000809364008091CA00080F0093CA0002C061
:101800008093620080E0DF91CF911F910F91FF9054
:10181000EF90DF9008950F931F93CF93DF93D82F0E
:101820008B01883031F48091A400813011F488E07C
:1018300093DE8D2F8079803959F481E08093A30065
:10184000C091A400C1110AC080917A0033D51FC095
:10185000803831F41092A30080E02CD5C0E017C08E
:10186000D130A1F4C091A300CC2351F08091A40009
:101870008130A1F7B801DF91CF911F910F916CCE0C
:101880000733114058F3D093CD0001C0C1E08C2F35
:10189000DF91CF911F910F9108951F920F920FB674
:1018A0000F9211242F933F938F939F93AF93BF93E6
:1018B000EF93FF938091F6008823E9F0E091F50023
:1018C00024B135B1F0E0EE0FFF1FDF01AF50BF4F85
:1018D0002D933C93E351FF4F8081918182179307B1
:1018E00008F401962817390708F40197918380833B
:1018F00081E08093F70081E08093F600FF91EF9103
:10190000BF91AF919F918F913F912F910F900FBEFB
:101910000F901F9018951F920F920FB60F921124DF
:101920008F9381E08093D0008F910F900FBE0F9026
:101930001F9018951F920F920FB60F9211248F933C
:1019400081E08093CF008F910F900FBE0F901F907A
:101950001895F89484B7877F84BF0FB6F894A8953C
:1019600081B5886181BD11BC0FBEB89A81E083BF8B
:1019700081EA8ABDB99A88E088BB85BB8BB7806253
:101980008BBFA89581B5886181BD80E481BD93DB63
:1019900087EE86B9789481E059D460E070E08BE2FC
:1019A00094E012D71092B10060D566D4811108C0BE
:1019B000F89480E091E058D2853A51F178949AC039
:1019C000C0E08C2F77D483E190E036DD8C2F8695B4
:1019D00071D483E190E030DD4FD4882381F0CF5F74
:1019E000C03479F765E181E05ED57ED5C6E98C2FFC
:1019F00061D484E090E020DDC150C9F7D9CFCC2379
:101A0000B9F28C2F57D48DE090E016DDC150F7CF9E
:101A100002EB10E0C1E0D1E0CE0126D2F8018193C3
:101A20008F012196C931F1E0DF07B1F778948091F9
:101A3000B2008093AB008091B300809374008091DA
:101A4000B400809371008091B50080936E00809106
:101A5000B600809375008091B700809372008091EA
:101A6000B80080936F008091B900809376008091D8
:101A7000BA00809373008091BB00809370008091C6
:101A8000BC008093AD008091BD008093AC0080913C
:101A9000BE008093AA008091BF008093790080915E
:101AA000C0008093AF008091C1008093AE00809110
:101AB000C20080936A008091C30080936800809187
:101AC000C400809369008091C50080936D0080916F
:101AD000C60080937B008091C7008093E8008091CE
:101AE000C80080937C008091C90090E090936C00C6
:101AF00080936B008091AF00811180937A0061E048
:101B000070E08AE295E060D643E4242E52E0352E60
:101B100067EE462E70E4872E99249394ECEFAE2E58
:101B2000E3E0BE2EF7E05F2EAAE2CA2EA5E0DA2E91
:101B300048D38091D3009091D400009749F06091F0
:101B4000D1007091D20058D61092D4001092D300D8
:101B50008091CD00882309F444C080E0ABD3A895E0
:101B600081B5886181BD21BC379886D38111FDCFB5
:101B700063D38BB780628BBF1092F7001092D000B6
:101B80001092CF008091CD008823F9F085B7877E31
:101B9000806185BF85B7806285BF889585B78F7D59
:101BA00085BF8091CF0081111092CD008091F70008
:101BB000882329F090927D009092EC0086DA809143
:101BC000D0008823F9F2A0DBDDCF30927D008BB707
:101BD0008F7D8BBF70DA46B8A89581B5886181BDCD
:101BE00081BC21DC1092B1008091E6009091E70069
:101BF00022E08D34920779F4CEE1D0E0FE018491A9
:101C000080535CDC8CE291E017DC2196F0E0CA3274
:101C1000DF07A1F79EC02AE08C3A920779F0ECE04A
:101C20008B309E0709F08AC08091A400813009F0B2
:101C3000CCC08091A300882309F4C7C0C0916A007A
:101C4000C23018F0C230E1F073CFEC2FF0E0E85969
:101C5000FF4FD08182E82ED3C11109C0DA3220F4BF
:101C6000C5010197F1F707C081E090E003C08D2F17
:101C7000869590E0E1DB80E01DD38D2F90E0A3C03E
:101C800004D38F73E82EF12C00D3652DBAD001E078
:101C900010E0380102C0660C771C9A95E2F7F5D285
:101CA00065E0AFD0E80102C0CC0FDD1F9A95E2F7E6
:101CB0006C0E7D1EEAD290E0B301C3D0E301C80FE1
:101CC000D91FC739D10514F0C6E9D0E08C2FF2D264
:101CD000C701B2DB8E0133E0159507953A95E1F720
:101CE000011101C001E010E0C701A6DBC01BD10B50
:101CF000D7FF02C0C0E0D0E08C2FDCD2C6D2837008
:101D000031F4C70199DBCE0195958795D3D2C230C6
:101D1000D10554F7BAD26DE074D0C1E0D0E002C072
:101D2000CC0FDD1F9A95E2F7B0D290E0BE0175D0DE
:101D3000C80FD91F80E0BED2CE0145C0F4E08F3776
:101D40009F0781F48091EB00D8DB8091AD00882360
:101D500081F0D092D400C092D3001092D2001092A1
:101D6000D100E6CE24E0863A920731F48091E90072
:101D7000C4DB88EE93E027C0E4E081359E07A9F438
:101D80008091CE008111D4CE80917A0093D284E6E6
:101D900090E052DB80E08ED280916D0090E068EEA2
:101DA00073E01ED0845691090EC08A50944069F4A5
:101DB0008091A200811105C0B6DB81E0B4DB80E038
:101DC000B2DB80ED97E038DBB3CE85B7877E85BF89
:101DD00085B7806285BF889585B78F7D85BFA8CE82
:101DE0000024552704C0080E591F880F991F00971B
:101DF00029F076956795B8F37105B9F7802D952F81
:101E00000895991B79E004C0991F961708F0961B56
:101E1000881F7A95C9F780950895AA1BBB1B51E1CD
:101E200007C0AA1FBB1FA617B70710F0A61BB70B4A
:101E3000881F991F5A95A9F780959095BC01CD01EF
:101E4000089597FB072E16F4009406D077FD08D06E
:101E5000E4DF07FC05D03EF4909581959F4F0895EF
:101E6000709561957F4F0895E199FECF9FBB8EBB22
:101E7000E09A99278DB30895262FE199FECF9FBB55
:101E80008EBBE09A01970DB2021639F01CBA2DBB39
:101E90000FB6F894E29AE19A0FBE0895F894FFCF36
:101EA000060B180101010004294303D002020107B7
:101EB00005969678010A0A960102413207027400DB
:041EC00071006E003F
:00000001FF
