:10000000D7C00000F2C000000C94400EEEC000000B
:10001000ECC000000C94310EE8C00000E6C0000007
:10002000E4C00000E2C00000E0C00000DEC000004C
:10003000DCC00000DAC000000C94F30DD6C0000054
:10004000D4C00000D2C00000D0C00000CEC000006C
:10005000CCC00000CAC00000C8C00000C6C000007C
:10006000C4C00000C2C00000C0C00000BEC000008C
:100070003230323231303032303235310001050425
:10008000141011150100010002000200030003001A
:10009000040004000500060006000700080009002F
:1000A0000A000B000C000D000E000F0010001100E4
:1000B000120014001500170018001A001B001D0084
:1000C0001F00200022002400260028002B002D0005
:1000D0002F0031003400360039003C003E00410062
:1000E000440047004A004D005100540057005B0097
:1000F0005F00620066006A006E00720076007A009F
:100100007F00830088008D00910096009B00A00076
:10011000A600AB00B000B600BC00C100C700CD0017
:10012000D300DA00E000E700ED00F400FB0002017C
:100130000901100118011F0127012F0136013F019C
:1001400047014F0158016001690172017B0184017F
:100150008D019701A001AA01B401BE01C901D3011B
:10016000DD01E801F301FE010902150220022C0263
:100170003802440250025C026902750282028F0258
:100180009C02AA02B702C502D302E102EF02FE02FC
:100190000D031B032A033A03490359036803780339
:1001A00088039903A903BA03CB03DC03ED03FF0320
:1001B00011241FBECFEFD4E0DEBFCDBF11E0A0E021
:1001C000B1E0E4E5F2E202C005900D92AC34B10773
:1001D000D9F721E0ACE4B1E001C01D92A83FB2071D
:1001E000E1F70E944F0E0C9428110ACF482F9B0173
:1001F000E5ECF1E080E090E05081552331F001968C
:10020000339680319105C1F70AC063E070E00E9427
:10021000CA10FC01EB53FE4F4083328321830895C3
:100220000F931F93CF93DF93D091C501DD2351F13D
:100230000091C6011091C701C091A201C150C7FD34
:100240000DC0EC2FEE0FFF0BED55FE4F0190F0812E
:10025000E02DB8018D2F09958111F0CFE5ECF1E08B
:10026000838180838481958192838183339681E029
:10027000E23FF807A9F71092F2011092F4011092F0
:10028000F301D2CFDF91CF911F910F910895BC015F
:100290008091F701ABCF1092F7011092F601109206
:1002A000F50181E080937C01089528E13FE18150D0
:1002B00020F0F9013197F1F7FACF0895E0910601A6
:1002C000F09107013196FB70F460F0930701E09321
:1002D0000601809197018B5A80939701E491809158
:1002E00097018E0F08950F931F93CF93DF9300D044
:1002F0001F92CDB7DEB720912001309121014091AE
:10030000220129833A834B83FE01319640E050E07D
:1003100090E061E070E0B1919A01220F331F8C01EF
:1003200002C0159507952A95E2F79801237061F0B0
:100330002130D1F4A0B39B0101C0220FBA95EAF796
:10034000322F30953A2318C0A0B39B0101C0220F71
:10035000BA95EAF720953A2F322330BB32B33223D5
:1003600032BB31B323230EC0A0B39B0101C0220FC7
:10037000BA95EAF73A2F322B30BB32B3322B32BB6D
:1003800031B3232B21BB4F5F5F4F4330510519F62B
:100390000F900F900F90DF91CF911F910F910895C3
:1003A000CF93DF9300D000D000D0CDB7DEB79091CF
:1003B00075012091B3013091B4012452394009F400
:1003C00092E0843019F46093760121C06623F9F03D
:1003D000823019F427E9261B622F26E0E3E2F1E0E0
:1003E000DE01119601900D922A95E1F7E82FF0E0D9
:1003F0003197EE0FFF1F21E030E02C0F3D1FE20F81
:10040000F31F0190F081E02DE90FF11D6083269626
:100410000FB6F894DEBF0FBECDBFDF91CF91089528
:10042000BF92CF92DF92EF92FF920F931F93CF93E1
:10043000DF93EC0140917501E0917701EE2311F01B
:1004400082E001C0842F90E0DC01AC5EBE4F2C91B5
:1004500020931801DC01AF5EBE4F8C918093170191
:10046000F0E0E25FFE4F3181622F70E0442349F0FB
:10047000313039F49B01280F311DC90195958795BD
:1004800038C0C617D707A4F1682F70E06C177D0736
:1004900084F1411102C08C2F2CC0821B032F10E06D
:1004A00001501109E82EF12CC701B8010E94FB1080
:1004B000609373016695E62FF0E0822FC12CD12C5A
:1004C000B12CB316B1F0C601B8010E94E710822F1B
:1004D000860FCE0CDF1CAE01481B510957FF03C02D
:1004E000519541955109E417F5071CF4B394E9CFF0
:1004F000822FDF91CF911F910F91FF90EF90DF90AE
:10050000CF90BF9008959091B80180E09D3180F028
:10051000E82FF0E0E45CFE4F2081921710F08E5F30
:10052000F7CF3197E081F0E0E358FF4F84910895D1
:1005300008950F931F93CF93E82F8091B8018150B6
:100540008C3110F480E066C0CE2FC295CF70EF7072
:1005500080919A01811103C0C33008F0C2E0E730F6
:1005600078F1862FE730A9F40091510110E00F5F78
:100570001F4FA4DE65E00E94DB109801290F311D9A
:10058000C90166E070E00E94FB1080935101FC01FC
:1005900026C090919A01E830A9F4992311F06FEFE9
:1005A00001C063E0862351F48091510190E00196EF
:1005B00066E070E00E94FB1080935101E0915101D0
:1005C000F0E00DC0992319F09EDFE82F0BC086954F
:1005D00063E00E94DB10E92FF0E0EE0FFF1FE3580D
:1005E000FF4FE491C33071F48091500190E0019687
:1005F00063E170E00E94E71080935001DC01A75D89
:10060000BE4FCC91CC2321F0C13019F0EE0F01C0C8
:10061000E0E08E2FCF911F910F9165CE81E008957C
:10062000611160931E010895662389F0813061F4A1
:100630008091B6019091B501891B681B6093B5014B
:1006400082E080931F0103C0635E60931D0180916F
:100650001D01873418F086E480931D01089570E031
:1006600070930C0160930B0108950F931F93CF9328
:10067000DF938091750180937D01809114018093B7
:100680007E018091110180937F0180910E01809302
:1006900080018091150180938101809112018093E6
:1006A000820180910F0180938301809116018093D4
:1006B00084018091130180938501809110018093C2
:1006C00086018091770180938701809176018093E4
:1006D0008801809174018093890180911901809330
:1006E0008A018091790180938B01809178018093B8
:1006F0008C0180910A0180938D0180910801809383
:100700008E018091090180938F0180910D0180936A
:10071000900180911D01809391018091B50180939A
:10072000920180911E018093930180911C0180931E
:10073000940180911B018093950180910B0180931E
:10074000960182E0B2DDF8940DE711E0C1E8D0E057
:10075000F80161918F01CE010E9416112196CB39CB
:10076000D105B1F765EA80E890E00E94161178940F
:10077000DF91CF911F910F910895809399018093FC
:10078000980190919A01811106C010926D0010920B
:100790006C0068980895689A8150E82FF0E0EE0F99
:1007A000FF1FEC57FF4F8591949190936D008093BC
:1007B0006C00089580937A01E0CFCF93C0919901A6
:1007C00089E18C0F873908F080E0D7DF82E06DDDAA
:1007D0008C2FCF91D2CFCF93C091990180E0CDDF04
:1007E00083E063DD8C2FCF91C8CF813019F4109254
:1007F00079010895823019F4609378010895833067
:1008000019F4609374010895843011F46093190110
:100810000895883039F4109272011092700110928C
:100820006F0140C0813B59F4809172018150833047
:10083000D8F583E0809372018093710135C0853BC8
:10084000B1F4CB016EE370E00E94E710892B51F503
:1008500080917201853F30F5865F809372018093AD
:1008600071011092700110926F01A7DF1BC08130DF
:10087000D9F480916F0190917001019688382EE033
:10088000920728F49093700180936F010BC010922F
:10089000700110926F0180917201882319F08150CC
:1008A0008093720180E0089581E00895FF920F9394
:1008B0001F93CF93DF938C01EB01F42E8091B30152
:1008C0009091B401892B31F0E091B301F091B40122
:1008D00089E009951093B4010093B301012B39F01D
:1008E000E091B301F091B401BE018F2D099581E033
:1008F00080937C01DF91CF911F910F91FF9008951C
:10090000CF93DF93E091A201EE2359F0E150E09301
:10091000A201F0E0EE0FFF1FED55FE4FC081D18127
:1009200002C0C0E0D0E0E091A201EE2341F0F0E08F
:10093000EE0FFF1FEF55FE4F8081918102C080E0D6
:1009400090E04AE060E070E0B1DFCE01DF91CF914E
:100950000895883029F410926B011092520116C04C
:10096000813001F590915201911107C060327105FB
:1009700070F1809352018FDC2AC0913089F4673383
:1009800081E0780728F082E08093520180E01EC069
:1009900061157105E1F06270862F880F8E5E16C0BA
:1009A000AFDF15C0813811F0813E89F491E090935A
:1009B0005201813E21F480916B01865F03C08091DA
:1009C0006B018F5F80936B0166DC8BE4D6DE80E089
:1009D00008959C019091A201983088F4E92FF0E0ED
:1009E000EE0FFF1FED55FE4F318320839F5F9093E5
:1009F000A20148E0C9015ADF8091A20108958FEF5A
:100A000008950F931F93CF93DF93EC018B0178DF51
:100A1000B801CE01DF91CF911F910F91DACF813CC8
:100A200039F410926C0160E070E08EEC95E00DC03E
:100A3000823C29F460E070E086E895E006C0833CE3
:100A400031F460E070E086E595E0DBDF05C08A3CCC
:100A500029F481E080936C0180E0089581E008959D
:100A6000843011F58091B3019091B4012CE08D3365
:100A7000920729F469E170E081ED96E013C0815D91
:100A8000964061F490919901923040F0892F8695BB
:100A900096959695890F8EDE80E0089560E070E06F
:100AA0008EEC95E0AEDFF8CF81E00895813C29F42B
:100AB00060E070E08EEC95E00DC0823C29F460E0CF
:100AC00070E08FE095E006C0833C31F460E070E0B8
:100AD0008DEA95E096DF16C0813B49F4CB016EE3C9
:100AE00070E00E94E710892B69F467DE0BC0813E3D
:100AF00059F4CB016EE370E00E94E7106F5F6093E2
:100B00000D01B3DD80E0089581E00895CF93C09199
:100B10007701C1111EC0813C29F460E070E08EECC9
:100B200095E006C0823C31F460E070E08DEA95E02B
:100B300068DF10C0833C29F460E070E08FE095E04E
:100B4000F7CF873B31F460E070E08CE299E041DF61
:100B500001C0C1E08C2FCF910895813C29F460E061
:100B600070E08EEC95E00DC0823C29F460E070E00E
:100B700086E595E006C0833C31F460E070E086E8ED
:100B800095E03FDF07C0873B39F460E070E080E329
:100B900099E01FDF80E0089581E008950F931F938F
:100BA000CF938B01883079F480E0E7DD60E08091BD
:100BB0001C01BFDC10927201012B19F481E08093BB
:100BC0009A01C0E0E9C0813049F469317105C8F388
:100BD00080939A0180911C01ACDCF3CF833031F516
:100BE00020917901222361F08091780190E062ECFC
:100BF00071E00E94CA100817190710F020931A011B
:100C0000602F80911C0195DC80910B0190910C016B
:100C10000097B9F262EC71E00E94CA108017910748
:100C200080F660E070E088E399E03FC0813B99F492
:100C300081E090E0F5DBA1DD809174018111C1CFED
:100C400080917501811104C00831110508F4B9CFF4
:100C500061E070E028C0813ED9F3813821F48091B1
:100C60001A0190E013C0813C21F46091990170E079
:100C70001AC0823B79F4809119019091770191110A
:100C800080917601811104C086E990E0C9DB05C03E
:100C900086E903C0823E19F480E06FDD92CF823C8A
:100CA00031F466E970E081ED96E0ABDE8ACF8339FE
:100CB00099F3833C29F460E070E086E895E0F5CF95
:100CC000843C09F4AECF8F3C29F460E070E08EE004
:100CD00093E0EBCFC09177018A3B79F4672B69F4FD
:100CE000CC2329F06ADD10927701BFDC6ACF60E087
:100CF00070E084E299E06DDE4FC0C1114CC08A3CC7
:100D000029F45BDD81E08093770143C0833B29F4C4
:100D100060E070E08DE39CE006C0853B31F460E06C
:100D200070E08BEA9DE06DDE37C0873C91F49091D6
:100D30001C01892F82958F708F5F83708295807FD1
:100D40009F70892B80931C0160E0F3DB8EDC35DD26
:100D500023C0873BD1F481E080937B01C8018F736E
:100D60009927892B69F490911C01892F8F708F5FCF
:100D7000292F207F6BE00E94DB10922B90931C01A7
:100D8000602F80911C01D5DB07C0873E21F41092B3
:100D90007B016BDC01C0C1E08C2FCF911F910F91C3
:100DA00008959F92AF92BF92CF92DF92EF92FF92FF
:100DB0000F931F93CF93DF93182FEB01D09018015F
:100DC000E0901701A0907501AA2019F0B09073016E
:100DD00002C0BB24B394C0901901009177010111A6
:100DE000C0907601CC2051F081E0C81621F08091AE
:100DF0001A018E1518F0A6E9FA2E01C0FE2C90906B
:100E00007201BE01812F05DD60917201662339F008
:100E100091100CC0809199018093560107C09920D0
:100E200029F060E070E08EEC95E038C0812F8D7F76
:100E30008830D1F410926E011A3019F4C0911A0161
:100E4000D0E08D2D90E08C179D0730F4F12CCE155D
:100E5000DF0510F4C0931A01CE01E2DAABDC81E0C9
:100E60008093050100E09DC1113CD9F2123C71F460
:100E7000809199018F1510F48F2D02C080911A0175
:100E800099DC8091990180935601ECCF143C41F498
:100E900080E073DC60E070E088E399E0B2DDE2CFEF
:100EA0008FE4810F823008F056C0AA2041F0CE01B5
:100EB00068E170E00E94E710892B31F0D3CF609198
:100EC0000E0170E0CE01F6CF20919901209761F4D8
:100ED000123B11F48FEF05C02E15E0F7D21608F182
:100EE00081E0809305011DC0E0910E01F0E0CF018B
:100EF00066E371E00E94CA108C179D0710F42E154E
:100F000048F7CF016CE672E00E94CA108C179D076B
:100F100040F4D21630F051DC60E070E088E399E0F4
:100F200070DDD0919901809105016B2D70E0082E44
:100F3000000C990B0E94CA108D0F911D71DAC82FF9
:100F400080931A01D81729F0E81611F0D81201C0C1
:100F500042DC8C2F95CF8FE1810F823020F480917D
:100F6000050181957DCF113009F090C0A99711F44A
:100F7000109305016623A1F08091560170E0615045
:100F8000710990E00E94CA106091710170E00E94A6
:100F9000FB10611101C061E06093980160937A01D8
:100FA000C0919801809199012C2F30E0281B3109C4
:100FB00060915401709155016F5F7F4F709355019F
:100FC000609354012115310509F44CCF37FF05C05A
:100FD000833830F040E450E005C040E052E002C009
:100FE00040E051E05695479537FF02C02F5F3F4FD5
:100FF0003595279521153105A9F74617570708F0AC
:1010000031CFC81710F4815005C08C1710F48F5FD2
:1010100001C08C2FEFEFE80FF0E0EE0FFF1F9F01F4
:101020002C573F4FF9014591549160916C0070919C
:101030006D006417750738F440916C0050916D0095
:101040004F5F5F4F0DC060916C0070916D0046174F
:10105000570750F440916C0050916D004150510978
:1010600050936D0040936C0040916C0050916D0066
:10107000F901259134914217530719F47EDBC0938F
:1010800098011092550110925401ECCE1530A9F43C
:1010900080919901833308F4E5CE90E08C1B9D0B81
:1010A000282F823391052CF08739910518F026E915
:1010B00001C022E320939801D5CE1630B1F490916F
:1010C000990180917A01981708F0CCCEC90FD11DF3
:1010D00090E08C179D0734F0C233D10524F4C2E3AD
:1010E000D0E001C0EC018C2F0EC0173079F4909144
:1010F000980180919901891710F48F5F04C09817A7
:1011000008F0B0CE815080939801ACCE011148C058
:10111000133C99F481E0A11080E080937501A5DA79
:101120005ADB8091990190E07BD980931A0142DBD0
:10113000809199018093560134C0133B49F4CD2B23
:1011400009F090CECC2011F086E9F82E8F2D04C046
:10115000133E21F480911A012DDB23C0153C41F48C
:1011600080E00BDB60E070E08BEA9DE04ADC19C0B8
:10117000173B29F460E070E080E299E00FC01A3C70
:1011800039F480919901809379016FDA16DB09C0F7
:101190001A3B31F460E070E088E299E01ADC01C0AB
:1011A00001E0802FDF91CF911F910F91FF90EF9081
:1011B000DF90CF90BF90AF909F900895883061F4FA
:1011C0001092530180E0D9DA80919B01811136C0E1
:1011D00081E08093530122C0982F907F903BB1F41F
:1011E00020915301421778F0CB016DE570E0EFD705
:1011F000029739F42F5F209353014217F8F088E3E8
:1012000003C082E101C080E0B8DA18C0903E61F40A
:1012100080915301882389F0481778F060E070E0EE
:1012200089EA94E0D6DB0AC08A3041F460916B0110
:1012300080915301F901099518DA62DB80E0089585
:1012400020ED31E043E0BACF20ED31E044E0B6CF0D
:1012500025EF33E044E0B2CF20E133E041E0AECF10
:1012600024E133E042E0AACF2FE233E041E0A6CF11
:101270000F931F93CF93DF93D82F8B01873B19F4E4
:1012800080E07BDA5BC080798039B1F42091140171
:10129000909115018D2F8F70823041F480917901EA
:1012A000811108C0822F291728F403C0822F9217BA
:1012B00008F4892F62DA0BC0803811F480E05DDA1F
:1012C000D83029F460E080911B0133D937C0D13088
:1012D00039F40931110508F472C0D0939A0102C0A3
:1012E000D33029F4602F80911B0123D968C0D33CEF
:1012F00029F460E070E08EEC95E01EC0D43C71F4FF
:10130000C0917901CC2319F06C2F70E013C060916B
:101310001A0170E081ED96E074DB54C0D43B31F4E7
:101320005ADA1092F70161E070E004C0D53C31F464
:1013300066E970E081ED96E064DB41C0C091770121
:10134000C1113FC0DA3B31F460E070E084E399E022
:1013500040DB38C0D73C91F490911B01892F8295D6
:101360008F708F5F83708295807F9F70892B8093B1
:101370001B0160E0DED879D920DA24C0D73BC9F45C
:1013800081E080937B01C8018F739927892B61F4D9
:1013900090911B01892F8F708F5F292F207F6BE029
:1013A0000AD7922B90931B01602F80911B01C1D80B
:1013B00009C0D73E31F410927B0157D903C0C0E079
:1013C00001C0C1E08C2FDF91CF911F910F91089543
:1013D00086E884B91092C2011092C30183B1886477
:1013E00083B90895F5DFE1E6F0E0808182608083D3
:1013F000139A87EE83B908951092C40120B191B178
:10140000309197012295269526952370892F90E09B
:10141000880F991F880F991F820F911D830F80934A
:1014200097018091B901882309F406C11092B9018E
:101430008091C20190919A01992319F01F981092FE
:10144000C20181113DC080911F01882349F0809124
:10145000BE019091BF019093BB018093BA0104C07B
:101460008091BA019091BB014096807E96958795B8
:1014700061EC72E0ACD680911E018750680F6093DA
:10148000B80180916A01882311F0815008C06D3144
:1014900040F460E070E084E00E94F60085E0809314
:1014A0006A0180919A018111BEC08EE884B981E001
:1014B0008093C2011092C30183B1886483B9B3C021
:1014C000813009F0B0C080911F01811143C080912B
:1014D000BC019091BD01409645E0969587954A954F
:1014E000E1F76091B501AC0156954795062E000CC9
:1014F000770B9B012E503140240F351F3093B701DD
:101500002093B60120915901E22FF0E0EE0FFF1F6A
:10151000E65AFE4F40815181DC01A41BB50BAD01A1
:10152000918380832F5F2770209359019D01220FA3
:10153000331F220F331F820F931F20911D0130E0B4
:10154000261B370B225F3E4F220F331F821B930B4C
:1015500023E01CC08091C0019091C1019093BD0116
:101560008093BC01409635E0969587953A95E1F7D2
:10157000EAE5F1E081939193B1E0EA36FB07D1F718
:10158000A6CF009709F00196215029F018161906E8
:10159000C4F70197F9CF18161906E4F457FD39C0BE
:1015A0002091580112160CF1880F991FBC0163504D
:1015B000710977FDBC017595679575956795161648
:1015C000170614F061E070E080E2861B80935801FA
:1015D00085E026C08C3F2FEF9207DCF457FF19C03F
:1015E0002091580127FF05C02450281B2093580143
:1015F00019C02CED281B209358012091B8012F31E0
:1016000088F06CEF7FEF681B790B7595679586E026
:1016100007C08091B8018E3128F060E070E087E06B
:101620000E94F600D5DE80911F01882329F0809169
:101630001F01815080931F0108950F931F93CF9333
:1016400010929D018091F5019091F6019C012F5F10
:101650003F4F88279078822B932B9093F6018093AD
:10166000F50190919B012FB1822F8095881F8827CB
:10167000881F80939B01981729F110929A018093FB
:101680009B019091F701892F27FD0AC080699F7007
:101690009F3009F08F5F8093F70180E090E00CC0ED
:1016A0008F7E95FD02C0806801C0806C8093F70139
:1016B0008091F5019091F6010E9447011092F60188
:1016C0001092F5010091F5011091F60180919A01B7
:1016D000882379F0B80183E00E94F6000E9410018F
:1016E0000F731127012B09F046C0109257017ADEC3
:1016F00032C0C091F7018C2F807F803B19F460E0ED
:1017000070E001C0B80181E00E94F600C4FF13C080
:10171000C5FF02C0C8010CC008311105E0F01092ED
:10172000F6011092F501C062C093F70180E090E0ED
:101730000E94470110C0CC2371F0C5FD0AC00231E0
:10174000110548F0C064C093F70180E090E00E946A
:1017500047010E944B0180915701811106C083B15E
:10176000886483B981E08093B901809157018F5FCC
:101770008F7180935701CF911F910F9108958091A0
:10178000C401811139DE80919D01811156CF0895E8
:101790000F931F93CF93DF93EC0108E017E020979E
:1017A00061F080917C012197811109C0C8010197E6
:1017B000F1F7E5DF0E941001F2CF81E001C080E087
:1017C000DF91CF911F910F910895CF93C82F882358
:1017D000A1F060E081E00E94990287EB90E0D8DF01
:1017E00060E082E00E94990283E191E0D1DFC15084
:1017F00081F78DED92E0CF91CBCF60E081E00E9448
:10180000990286E490E0C4DF60E082E00E949902E1
:1018100083E191E0BDDFEDCFCF93DF9364E6CBD4DE
:10182000282F892F6AE0C7D4EC01222341F0822FB0
:10183000CCDF8C2FCADF8D2FDF91CF91C6CFC111A6
:10184000F8CFF9CFCF93DF93D82FC3E080911A015F
:101850000E94BD0388EC90E09BDFDD2319F080E956
:1018600091E096DF80E00E94BD0388EC90E090DF7D
:10187000C15061F7DF91CF910895DF92EF92FF920F
:101880000F931F93CF93DF93D82F8B01C0910A0141
:1018900081E080936E01C33009F0DEC0F0907201E8
:1018A0008D2F0E940904FF2051F080917201811157
:1018B00006C060E070E08EEC95E0A3D8CDC0D830D3
:1018C00021F481E080930301C9C0D23C19F4109245
:1018D0007201D3C0D13BC1F490910201012B49F4B4
:1018E000973610F08FEF03C0923018F481E08093A8
:1018F000030180910301890F11F481E021C1883631
:1019000008F41EC187E61CC1D13E31F48091030169
:10191000819580930301DAC0D23B61F481E080932A
:10192000030180910201823008F4D8C08150809375
:101930000201D4C0D13009F0A4C00932110511F45C
:10194000D0930301D0904F018D2D880FD7FC809547
:1019500090E069E070E01ED4292FE0904E018E2DBA
:10196000880FE7FC8095D09101016D2F70E090E029
:1019700011D4290FF0904D018F2D880FF7FC809521
:10198000C09100016C2F70E090E004D4920F609140
:10199000020170E0690F711D80917201813091F434
:1019A00080916F019091700125E0969587952A9519
:1019B000E1F724E730E0A901481B590BCA01EAD33B
:1019C000B90105D4862F0E94BD0300FD06C00E9408
:1019D0005E018170D80ED0924F0180914C01E80ECB
:1019E000E0924E010E945E0165E2E5D3F90EF092AD
:1019F0004D010E945E018F7331F40E945E016DE023
:101A0000DAD390934C01DD2339F00E945E018F738D
:101A100019F4D150D09301010E945E01811108C0D8
:101A20000E945E016EE0C7D39093010110924E01B7
:101A3000C33038F00E945E018F7119F4C150C09319
:101A400000010E945E018F7709F06EC00E945E0166
:101A500087708093000168C0D83021F481E08093C2
:101A6000040170C0D13C39F460E070E08EEC95E088
:101A70000E94010567C0D23C31F4EC2FF0E03196B2
:101A800007C0D13C89F3D33C41F4EC2FF0E033960E
:101A9000E370FF27E0930A0134C0D13BA9F4C230C0
:101AA00008F050C000FD4EC0EC2FF0E0E85FFE4FA4
:101AB000808190910401891B883020F08F3FE9F4E8
:101AC0008EEF1BC088E019C0D13E31F48091040133
:101AD00081958093040115C0D23B89F481E0809305
:101AE0000401C23078F500FD2DC0EC2FF0E0E85F76
:101AF000FE4F80818F3F31F18F5F808323C0D23EC4
:101B000019F40E9435031EC0D53C51F460E070E02A
:101B10008BEA9DE00E94010580E00E94BD0312C097
:101B2000D13011F081E00FC00932110519F481E0C4
:101B30008093040180919701080F0093970102C0E0
:101B40008093020180E0DF91CF911F910F91FF9070
:101B5000EF90DF9008950F931F93CF93DF93D82FCB
:101B60008B01883031F480916E01813011F488E06E
:101B700084DE8D2F8079803961F481E080936D015E
:101B8000C0916E01C1110CC080911A010E94BD0369
:101B900024C0803839F410926D0180E00E94BD03AA
:101BA000C0E01BC0D130C1F4C0916D01CC2351F015
:101BB00080916E018130A1F7B801DF91CF911F9123
:101BC0000F915BCE0733114058F3D0939A0160E038
:101BD00080E00E94990201C0C1E08C2FDF91CF917B
:101BE0001F910F9108951F920F920FB60F9211241B
:101BF0002F933F938F939F93AF93BF93EF93FF9355
:101C00008091C3018823E9F0E091C20120B131B194
:101C1000F0E0EE0FFF1FDF01A254BE4F2D933C9367
:101C2000E654FE4F808191818217930708F4019654
:101C30002817390708F401979183808381E0809306
:101C4000C40181E08093C301FF91EF91BF91AF91F7
:101C50009F918F913F912F910F900FBE0F901F90EA
:101C600018951F920F920FB60F9211248F9381E057
:101C700080939D018F910F900FBE0F901F9018952C
:101C80001F920F920FB60F9211248F9381E08093D1
:101C90009C018F910F900FBE0F901F901895F89494
:101CA00085B7877F85BF88ED90E00FB6F894A8953B
:101CB0008FBD90B7977F90BF0FBE89E08CB988E346
:101CC00080BB83E88093720081E08093710080E89C
:101CD00082BB87BD8CB788608CBFA89580E480BF2D
:101CE00081DB789481E00E94550160E070E080E340
:101CF00095E00E94E90410927C010E94DD039FB1EF
:101D0000892F8095881F8827881F80939B0197FFC4
:101D10000BC082E00E945501F89480E890E07ED2EA
:101D2000853AB9F17894AEC0C0E08C2F0E94BD0313
:101D300083E190E02DDD8C2F86950E94BD0383E129
:101D400090E026DD9FB1892F8095881F8827881F06
:101D500080939B0197FD13C0CF5FC03431F765E1DD
:101D600081E00E9414030E943503C6E98C2F0E9473
:101D7000BD0384E090E00CDDC150C1F7CACFCC2395
:101D800041F28C2F0E94BD038DE090E001DDC15037
:101D9000F6CF0DE711E0C1E8D0E0CE013FD2F80167
:101DA00081938F012196CB39D105B9F77894809131
:101DB0007D018093750180917E0180931401809153
:101DC0007F01809311018091800180930E018091A9
:101DD000810180931501809182018093120180918D
:101DE000830180930F01809184018093160180917B
:101DF0008501809313018091860180931001809169
:101E0000870180937701809188018093760180918A
:101E100089018093740180918A01809319018091D6
:101E20008B018093790180918C018093780180915E
:101E30008D0180930A0180918E0180930801809129
:101E40008F01809309018091900180930D01809111
:101E5000910180931D01809192018093B501809141
:101E6000930180931E018091940180931C018091C5
:101E7000950180931B018091960190E090930C0155
:101E800080930B0180917901811180931A0161E0A7
:101E900070E08EEC95E00E94E90443E4442E52E0A9
:101EA000552E60E4862E9924939477E0772ECC24E7
:101EB000C394D12CF5E06F2EAEECAA2EA5E0BA2E7D
:101EC0000E9410018091A0019091A101009751F012
:101ED00060919E0170919F010E9401051092A101E5
:101EE0001092A00180919A01882309F446C080E0F5
:101EF0000E94BD03A89540BE1F989FB1892F809571
:101F0000881F8827881F80939B0197FFF6CF0E9428
:101F10004B018CB788608CBF1092C40110929D0158
:101F200010929C0180919A018823F9F086B78F79ED
:101F3000806486BF86B7806186BF889586B78F7EAE
:101F400086BF80919C01811110929A018091C401F9
:101F5000882329F090921F019092B9014DDA809167
:101F60009D018823F9F269DBDDCF50921F018CB708
:101F7000877F8CBF37DAA89580BE01DC10927C0188
:101F8000C091B301D091B40180917B01811105C052
:101F90000E948302880F0E947301F3E0CE30DF07B6
:101FA00079F4C0E7D0E0FE01849180530EDC8CE22E
:101FB00091E0EEDB2196F0E0CC37DF07A1F7A1C07E
:101FC0002CE0CD33D20779F03DE0CB3AD30709F0CE
:101FD0008DC080916E01813009F0D1C080916D017A
:101FE000882309F4CCC0C0910A01C23018F0C23075
:101FF000C1F066CFEC2FF0E0E85FFE4FD08186E9BC
:102000000E94BD03C11103C082E090E003C08D2F88
:10201000869590E0BDDB80E00E94BD038D2F90E0AF
:10202000ACC00E945E018F73E82EF12C0E945E010D
:10203000672DC1D0E60102C0CC0FDD1F9A95E2F7F3
:102040000E945E01662DB7D0F60102C0EE0FFF1FA1
:102050009A95E2F7CE0FDF1F0E945E0190E0BE016D
:10206000CAD0C80FD91FC739D10514F0C6E9D0E0CE
:102070008C2F0E94BD03C7018BDB8E0133E01595C9
:1020800007953A95E1F7011101C001E010E0C701A1
:102090007FDBC01BD10BD7FF02C0C0E0D0E08C2F8C
:1020A0000E94BD030E945E01837039F4C70170DB9A
:1020B000CE01959587950E94BD03C230D1053CF7AE
:1020C0000E945E016DE077D0E60102C0CC0FDD1FFB
:1020D0009A95E2F70E945E0190E0BE0178D0C80FA9
:1020E000D91F80E00E94BD03CE0147C0F5E0C6388D
:1020F000DF0781F48091B8018FDB8091770188231D
:1021000081F0B092A101A092A00110929F011092C3
:102110009E01D6CE25E0CD3AD20731F48091B601AA
:102120007BDB88EE93E029C035E0C635D307B9F4F0
:1021300080919B018111C4CE80911A010E94BD0340
:1021400084E690E025DB80E00E94BD0380910D01D4
:1021500090E068EE73E01ED0845691090EC0CF5017
:10216000D54069F480916C01811105C06BDB81E081
:1021700069DB80E067DB80ED97E00ADBA1CE86B704
:102180008F7986BF86B7806186BF889586B78F7E38
:1021900086BF96CE0024552704C0080E591F880F0D
:1021A000991F009729F076956795B8F37105B9F7EF
:1021B000802D952F0895991B79E004C0991F9617DB
:1021C00008F0961B881F7A95C9F780950895AA1B79
:1021D000BB1B51E107C0AA1FBB1FA617B70710F012
:1021E000A61BB70B881F991F5A95A9F78095909544
:1021F000BC01CD01089597FB072E16F4009406D07C
:1022000077FD08D0E4DF07FC05D03EF4909581957A
:102210009F4F0895709561957F4F0895E199FECF86
:102220001FBA8EBBE09A99278DB30895262FE199A6
:10223000FECF1FBA8EBBE09A81500DB2021639F064
:102240001CBA2DBB0FB6F894E29AE19A0FBE08951E
:04225000F894FFCF30
:10225400080E180101010004294303D002020107FA
:1022640005828282010A0A82010132172737070296
:10227400050403140111010E010201000000000015
:102284000000010000000000000000010000210126
:0C22940023022503270429052C06FF0661
:00000001FF
