:100000006DC1000088C100000C94C90F84C10000BC
:1000100082C100000C94BA0F7EC100007CC10000B8
:100020007AC1000078C1000076C1000074C10000F0
:1000300072C1000070C100000C947C0F6CC1000004
:100040006AC1000068C1000066C1000064C1000010
:1000500062C1000060C100005EC100005CC1000020
:100060005AC1000058C1000056C1000054C1000030
:100070003230323231303032303237330001050421
:1000800014101115FF3FFF3F7430CC1FC62C6C3984
:10009000212B9332E3351F372C377A364935C0335D
:1000A000F7316A340832013361308C304630B12F79
:1000B000E02EE22DC32C8B2B962B292AD4295029F4
:1000C000BD270E274826712537253E243F23C5220C
:1000D000BA2126211820751FC91EBF1D101D5D1CC9
:1000E000611BB01A001A161934188F17BB16EF15BA
:1000F0002B1546146D13C312DB1122115310730F0D
:10010000A10EDD0D0C0D490C7C0BA90AD1090809C3
:100110003D086F07A106D30506052E046703960266
:10012000CB01FF00FF00FF00FF00FF00FF00FF000A
:10013000FF00FF00FF00FF00FF00FF00FF00FF00C7
:10014000FF00FF00FF00FF00FF00FF00FF00FF00B7
:10015000FF00FF00FF00FF00FF00FF00FF00FF00A7
:10016000FF00FF00FF00FF00FF00FF00FF00FF0097
:10017000FF00FF00FF00FF00FF00FF00FF00FF0087
:10018000FF00FF00FF00FF00FF00FF00FF00FF0077
:10019000FF00FF00FF00FF00FF00FF00FF00FF0067
:1001A000FF00FF00FF00FF00FF00FF00FF00FF0057
:1001B0000000010001000100020003000300040030
:1001C000050006000700080009000A000B000D00EA
:1001D0000E001000110013001500170019001B007D
:1001E0001D001F002200240027002A002C002F00E1
:1001F0003200350039003C003F00430046004A0011
:100200004D005100550058005C006000630067001D
:100210006B006E007100750078007B007E0080002E
:100220008200850086008800890089008900890095
:1002300088008700850082007E007A0075006F00CC
:100240006800600057004C00410034002600160092
:10025000170019001A001B001C001D001E002000C2
:100260002100220024002500270028002A002B005E
:100270002D002F00310033003500370039003B00DE
:100280003D003F0042004400460049004C004E0043
:100290005100540057005A005D0060006300670081
:1002A0006A006E007100750079007D008100850094
:1002B00089008E00920097009B00A000A500AA0074
:1002C000AF00B500BA00C000C500CB00D100D70018
:1002D000DE00E400EA00F100F800FF0011241FBE78
:1002E000CFEFD4E0DEBFCDBF11E0A0E0B1E0ECE79E
:1002F000F5E202C005900D92A035B107D9F721E0D3
:10030000A0E5B1E001C01D92AF3FB207E1F70E9446
:10031000D80F0C94BC1274CEF89498ED9FBD83BF97
:1003200078940895482F9B01ECECF1E080E090E098
:100330005081552331F00196339680319105C1F7F4
:100340000AC063E070E00E945E12FC01E453FE4FBD
:1003500040833283218308950F931F93CF93DF93BC
:10036000D091CC01DD2351F10091CD011091CE014E
:10037000C091A901C150C7FD0DC0EC2FEE0FFF0BBE
:10038000E655FE4F0190F081E02DB8018D2F0995C3
:100390008111F0CFECECF1E0838180838481958141
:1003A00092838183339681E0E93FF807A9F71092A1
:1003B000F9011092FB011092FA01D2CFDF91CF9197
:1003C0001F910F910895BC018091FE01ABCF109257
:1003D000FE011092FD011092FC0181E080938001EA
:1003E00008950F931F93CF93C82F08EA17E0CC23EB
:1003F00049F082E091DFC8010197F1F780E08CDFDE
:10040000C150F5CFCF911F910F910895E091060152
:10041000F09107013196FB70F460F0930701E093CF
:10042000060180919E018B5A80939E01E4918091F8
:100430009E018E0F08950F931F93CF93DF9300D0EB
:100440001F92CDB7DEB72091240130912501409154
:10045000260129833A834B83FE01319640E050E028
:1004600090E061E070E0B1919A01220F331F8C019E
:1004700002C0159507952A95E2F79801237061F05F
:100480002130D1F4A0B39B0101C0220FBA95EAF745
:10049000322F30953A2318C0A0B39B0101C0220F20
:1004A000BA95EAF720953A2F322330BB32B3322384
:1004B00032BB31B323230EC0A0B39B0101C0220F76
:1004C000BA95EAF73A2F322B30BB32B3322B32BB1C
:1004D00031B3232B21BB4F5F5F4F4330510519F6DA
:1004E0000F900F900F90DF91CF911F910F91089572
:1004F000CF93DF9300D000D000D0CDB7DEB790917E
:100500007A012091BA013091BB0127573A4009F492
:1005100092E0843019F460937B0121C06623F9F0E6
:10052000823019F427E9261B622F26E0E7E2F1E08A
:10053000DE01119601900D922A95E1F7E82FF0E087
:100540003197EE0FFF1F21E030E02C0F3D1FE20F2F
:10055000F31F0190F081E02DE90FF11D60832696D5
:100560000FB6F894DEBF0FBECDBFDF91CF910895D7
:10057000813011F4609320010895BF92CF92DF92F1
:10058000EF92FF920F931F93CF93DF93EC01409173
:100590007A01E0917C01EE2311F082E001C0842F0A
:1005A00090E0DC01AC5EBE4F2C9120931801DC0181
:1005B000AF5EBE4F8C9180931701F0E0E25FFE4F7B
:1005C0003181622F70E0442349F0313039F49B01CE
:1005D000280F311DC9019595879538C0C617D707D3
:1005E000A4F1682F70E06C177D0784F1411102C0FF
:1005F0008C2F2CC0821B032F10E001501109E82E14
:10060000F12CC701B8010E948F12609378016695A2
:10061000E62FF0E0822FC12CD12CB12CB316B1F013
:10062000C601B8010E947B12822F860FCE0CDF1C00
:10063000AE01481B510957FF03C05195419551091F
:10064000E417F5071CF4B394E9CF822FDF91CF9123
:100650001F910F91FF90EF90DF90CF90BF90089582
:1006600081E008956111609322010895662389F065
:10067000813061F48091BD019091BC01891B681BA0
:100680006093BC0182E08093230103C0635E6093AA
:10069000210180912101873418F086E480932101A3
:1006A000089570E070930C0160930B0108950F930F
:1006B0001F93CF93DF9380917A0180938101809182
:1006C00014018093820180911101809383018091B4
:1006D0000E018093840180911501809385018091A2
:1006E00012018093860180910F0180938701809190
:1006F0001601809388018091130180938901809174
:10070000100180938A0180917C0180938B018091FC
:100710007B0180938C018091790180938D01809180
:10072000190180938E0180917E0180938F018091C9
:100730007D018093900180912001809391018091AF
:100740000A01809392018091080180939301809126
:1007500009018093940180910D018093950180910E
:100760002101809396018091BC0180939701809133
:1007700022018093980180911D01809399018091BD
:100780001C0180939A0180911F0180939B018091AD
:100790001E0180939C0180910B0180939D0182E05A
:1007A00020DEF89401E811E0C1E8D0E0F8016191A1
:1007B0008F01CE010E94AA122196CE39D105B1F740
:1007C00065EA80E890E00E94AA127894DF91CF91C8
:1007D0001F910F910895829A929A8A9A0895882378
:1007E00031F0813041F48298929A8A9A08958298E1
:1007F00092988A980895EFCFCF93C82F8091A00147
:10080000811109C0CC2339F080912001C81718F458
:10081000F3DF82E0E6DDC093A001C0939F018091E9
:10082000A10181110AC007DE2C2F30E081E02A31BE
:1008300031050CF480E08F5FD2DFC1110BC0109244
:100840006D0010926C0010926F0010926E0068980C
:1008500048982DC0689A489A8FEF8C0F90E0880FC7
:10086000991FFC01E055FE4F2591349130936D00A6
:1008700020936C00FC01EC57FF4F2591349180913F
:100880005B01A90140525109882339F060916E0043
:1008900070916F0046175707B8F3309369002093A3
:1008A0006800811104C010926F0010926E00C09316
:1008B0005B018091A001843010F482E005C08C308F
:1008C00010F481E001C080E0CF9126CD80937F01BC
:1008D00093CFCF93C091A00182E38C0F873908F0AA
:1008E00080E08ADF83E07DDD8C2FCF9185CFCF93B1
:1008F000C091A00180E080DF83E073DD8C2FCF9179
:100900007BCF0F931F93CF93DF93E82F8091BF018D
:100910009FEF980F9C3120F480E08DDD80E08FC048
:10092000CE2FC295CF70DE2FDF709091A101911173
:1009300003C0C33008F0C2E0D730A8F400915501DD
:1009400010E00F5F1F4F62DD65E00E946F1298019B
:10095000290F311DC90166E070E00E948F1280935B
:100960005501ED2F41C0D730A9F40091550110E099
:100970000F5F1F4F4BDD65E00E946F129801290F3A
:10098000311DC90166E070E00E948F12809355010D
:10099000FC0135C0D830B1F48091A101882311F059
:1009A0008FEF01C083E0682351F48091550190E0FE
:1009B000019666E070E00E948F1280935501E091ED
:1009C000550112C09091A101992381F08D31D8F089
:1009D00090E0E92FF0E0E05CFE4F2081821710F0FC
:1009E0009E5FF7CF3197E081F0E009C0862F8695B2
:1009F00063E00E946F12E92FF0E0EE0FFF1FE35853
:100A0000FF4FE49101C0E0E0C33071F480915401E4
:100A100090E0019663E170E00E947B1280935401A4
:100A2000DC01A35DBE4FCC91CC2321F0C13019F085
:100A3000EE0F01C0E0E08E2FFEDC80911B01DF9104
:100A4000CF911F910F91CBCE813019F410927E017E
:100A50000895823019F460937D010895833019F46C
:100A6000609379010895843011F460931901089519
:100A7000883039F410927701109275011092740148
:100A800040C0813B59F48091770181508330D8F583
:100A900083E0809377018093760135C0853BB1F484
:100AA000CB016EE370E00E947B12892B51F580919F
:100AB0007701853F30F5865F8093770180937601DB
:100AC000109275011092740104DF1BC08130D9F4BB
:100AD0008091740190917501019688382EE09207FB
:100AE00028F490937501809374010BC010927501E6
:100AF0001092740180917701882319F081508093BE
:100B0000770180E0089581E00895FF920F931F938D
:100B1000CF93DF938C01EB01F42E8091BA01909179
:100B2000BB01892B31F0E091BA01F091BB0189E062
:100B300009951093BB010093BA01012B39F0E091A4
:100B4000BA01F091BB01BE018F2D099581E0809320
:100B50008001DF91CF911F910F91FF900895CF9366
:100B6000DF93E091A901EE2359F0E150E093A90150
:100B7000F0E0EE0FFF1FE655FE4FC081D18102C0AD
:100B8000C0E0D0E0E091A901EE2341F0F0E0EE0FEB
:100B9000FF1FE855FE4F8081918102C080E090E008
:100BA0004AE060E070E0B1DFCE01DF91CF910895BF
:100BB000883029F4109270011092560116C08130CD
:100BC00001F590915601911107C06032710570F1E5
:100BD00080935601FCDB2AC0913089F4673381E0B1
:100BE000780728F082E08093560180E01EC06115EE
:100BF0007105E1F06270862F880F8E5E16C0AFDF40
:100C000015C0813811F0813E89F491E0909356012E
:100C1000813E21F480917001865F03C08091700154
:100C20008F5F80937001D3DB8BE4E6DD80E0089575
:100C30009C019091A901983088F4E92FF0E0EE0F23
:100C4000FF1FE655FE4F318320839F5F9093A901DC
:100C500048E0C9015ADF8091A90108958FEF0895F6
:100C60000F931F93CF93DF93EC018B0178DFB801D3
:100C7000CE01DF91CF911F910F91DACF813C39F4F2
:100C80001092710160E070E08DEF96E00DC0823C43
:100C900029F460E070E085EB96E006C0833C31F417
:100CA00060E070E085E896E0DBDF05C08A3C29F46F
:100CB00081E08093710180E0089581E0089584309F
:100CC00011F58091BA019091BB012DE0843C92070F
:100CD00029F469E170E083E298E013C08352984000
:100CE00061F49091A001923040F0892F86959695FD
:100CF0009695890FEBDD80E0089560E070E08DEF60
:100D000096E0AEDFF8CF81E00895813C29F460E001
:100D100070E08DEF96E00DC0823C29F460E070E059
:100D20008EE396E006C0833C31F460E070E08CED29
:100D300096E096DF16C0813B49F4CB016EE370E08C
:100D40000E947B12892B69F4C4DD0BC0813E59F4EB
:100D5000CB016EE370E00E947B126F5F60930D0128
:100D6000A6DC80E0089581E00895CF93C0917C01D6
:100D7000C1111EC0813C29F460E070E08DEF96E067
:100D800006C0823C31F460E070E08CED96E068DFF4
:100D900010C0833C29F460E070E08EE396E0F7CF6A
:100DA000873B31F460E070E083E89AE041DF01C006
:100DB000C1E08C2FCF910895813C29F460E070E070
:100DC0008DEF96E00DC0823C29F460E070E085E88C
:100DD00096E006C0833C31F460E070E085EB96E07D
:100DE0003FDF07C0873B39F460E070E087E89AE0B6
:100DF0001FDF80E0089581E008950F931F93CF9344
:100E00008B018830A1F480E0F7DC60E080911F0165
:100E100078DD80911D0180931B01E1DC1092770148
:100E2000012B19F481E08093A101C0E007C181305A
:100E300049F469317105C8F38093A10180911F01C4
:100E400060DDF3CF833031F520917E01222361F004
:100E500080917D0190E062EC71E00E945E120817C3
:100E6000190710F020931A01602F80911F0149DDAE
:100E700080910B0190910C010097B9F262EC71E046
:100E80000E945E128017910780F660E070E08FE8A4
:100E90009AE048C0813B99F481E090E06EDBACDCE5
:100EA000809179018111C1CF80917A01811104C0B3
:100EB0000831110508F4B9CF61E070E028C0813E27
:100EC000D9F3813821F480911A0190E013C0813C5C
:100ED00021F46091A00170E01AC0823B79F4809106
:100EE000190190917C01911180917B01811104C0C5
:100EF00086E990E042DB05C086E903C0823E19F432
:100F000080E07ADC92CF823C29F466E970E083E2EB
:100F100098E008C08339A1F3833C31F460E070E0CD
:100F200085EB96E09DDE81CF843C09F4AECF8F3C0B
:100F300029F460E070E080E393E0F4CFC0917C019D
:100F40008A3B71F4672B61F4CC2329F0C2DC109248
:100F50007C01ADDB6ACF60E070E087E79AE06BC0B0
:100F6000C1116BC08A3C29F4B4DC81E080937C0120
:100F700058C08D3B41F4F89488ED8FBD88E880BF60
:100F80007894A895FFCF833B29F460E070E084EC6F
:100F90009DE006C0853B31F460E070E082E39FE0B5
:100FA0005FDE4CC0863C71F480911D0190E001969B
:100FB00063E070E00E948F1280931D0180931B01FB
:100FC0000EDC2FC0873C91F490911F01892F8295F0
:100FD0008F708F5F83708295807F9F70892B809345
:100FE0001F0160E08EDC63DB74DC28C0873BB9F452
:100FF000C8018F739927892B69F490911F01892F5C
:101000008F708F5F292F207F6BE00E946F12922BD1
:1010100090931F01602F80911F0173DC0FC0873EEA
:1010200011F445DB0BC0893B41F4012B31F460E046
:1010300070E08FE79AE0FCDD01C0C1E08C2FCF911A
:101040001F910F9108959F92AF92BF92CF92DF921E
:10105000EF92FF920F931F93CF93DF93182FEB0123
:10106000D0901801E0901701A0907A01AA2019F001
:10107000B090780102C0BB24B394C09019010091D4
:101080007C010111C0907B01CC2051F081E0C81699
:1010900021F080911A018E1518F0A6E9FA2E01C0F0
:1010A000FE2C90907701BE01812FE2DC60917701E8
:1010B000662339F091100CC08091A00180935A01F1
:1010C00007C0992029F060E070E08DEF96E038C00D
:1010D000812F8D7F8830D1F4109273011A3019F46A
:1010E000C0911A01D0E08D2D90E08C179D0730F44F
:1010F000F12CCE15DF0510F4C0931A01CE013DDAB4
:10110000E5DB81E08093050100E09DC1113CD9F24F
:10111000123C71F48091A0018F1510F48F2D02C044
:1011200080911A01D3DB8091A00180935A01ECCF0A
:10113000143C41F480E060DB60E070E08FE89AE00E
:101140008FDDE2CF8FE4810F823008F056C0AA20F5
:1011500041F0CE0168E170E00E947B12892B31F0F2
:10116000D3CF60910E0170E0CE01F6CF2091A001A7
:10117000209761F4123B11F48FEF05C02E15E0F7B4
:10118000D21608F181E0809305011DC0E0910E01A7
:10119000F0E0CF0166E371E00E945E128C179D07BC
:1011A00010F42E1548F7CF016CE672E00E945E1233
:1011B0008C179D0740F4D21630F08BDB60E070E0B6
:1011C0008FE89AE04DDDD091A001809105016B2D53
:1011D00070E0082E000C990B0E945E128D0F911D7D
:1011E000CCD9C82F80931A01D81729F0E81611F02E
:1011F000D81201C07CDB8C2F95CF8FE1810F82301C
:1012000020F48091050181957DCF113009F090C0C7
:10121000A99711F4109305016623A1F080915A015A
:1012200070E06150710990E00E945E126091760159
:1012300070E00E948F12611101C061E060939F0114
:1012400060937F01C0919F018091A0012C2F30E01D
:10125000281B310960915801709159016F5F7F4FD0
:1012600070935901609358012115310509F44CCF51
:1012700037FF05C0833830F040E450E005C040E05F
:1012800052E002C040E051E05695479537FF02C05A
:101290002F5F3F4F3595279521153105A9F7461743
:1012A000570708F031CFC81710F4815005C08C17CC
:1012B00010F48F5F01C08C2FEFEFE80FF0E0EE0F1E
:1012C000FF1F9F0120553E4FF901459154916091B8
:1012D0006C0070916D006417750738F440916C00D4
:1012E00050916D004F5F5F4F0DC060916C00709129
:1012F0006D004617570750F440916C0050916D00F7
:101300004150510950936D0040936C0040916C0026
:1013100050916D00F901259134914217530719F44A
:101320006BDAC0939F011092590110925801ECCED4
:101330001530A9F48091A001813508F4E5CE90E044
:101340008C1B9D0B282F803591052CF0873991053A
:1013500018F026E901C020E520939F01D5CE163074
:10136000B1F49091A00180917F01981708F0CCCE44
:10137000C90FD11D90E08C179D0734F0C035D10501
:1013800024F4C0E5D0E001C0EC018C2F0EC0173072
:1013900079F490919F018091A001891710F48F5FDB
:1013A00004C0981708F0B0CE815080939F01ACCE56
:1013B000011148C0133C99F481E0A11080E08093B2
:1013C0007A0175D994DA8091A00190E0D6D8809303
:1013D0001A017CDA8091A00180935A0134C0133B3A
:1013E00049F4CD2B09F090CECC2011F086E9F82EEF
:1013F0008F2D04C0133E21F480911A0167DA23C0B7
:10140000153C41F480E0F8D960E070E082E39FE0B1
:1014100027DC19C0173B29F460E070E083E79AE00D
:101420000FC01A3C39F48091A00180937E013FD90E
:1014300050DA09C01A3B31F460E070E08BE79AE0C3
:10144000F7DB01C001E0802FDF91CF911F910F9159
:10145000FF90EF90DF90CF90BF90AF909F90089556
:10146000883061F41092570180E0C6D98091A201C2
:10147000811137C081E08093570123C0982F907F5E
:10148000903BB9F420915701421780F0CB016DE5F4
:1014900070E00E947B12029739F42F5F209357016E
:1014A0004217F8F088E303C082E101C080E0A4D9CC
:1014B00018C0903E61F480915701882389F0481745
:1014C00078F060E070E088ED95E0B2DB0AC08A3029
:1014D00041F46091700180915701F9010995E7D8B5
:1014E0003EDB80E0089528E732E043E0B9CF28E70B
:1014F00032E044E0B5CF24E235E044E0B1CF28EB60
:1015000032E041E0ADCF22E333E041E0A9CF26E372
:1015100033E042E0A5CF21E533E041E0A1CF0F93D6
:101520001F93CF93DF93D82F8B01873B19F480E073
:1015300063D960C080798039B1F420911401909111
:1015400015018D2F8F70823041F480917E018111C1
:1015500008C0822F291728F403C0822F921708F49D
:10156000892F4AD910C0803811F480E045D9D8308D
:1015700051F460E080911E01C4D980911C018093D8
:101580001B012DD937C0D13039F40931110508F4C8
:101590007CC0D093A10102C0D33029F4602F809188
:1015A0001E01AFD972C0D33C29F460E070E08DEF2A
:1015B00096E01EC0D43C71F4C0917E01CC2319F09A
:1015C0006C2F70E013C060911A0170E083E298E024
:1015D00047DB5EC0D43B31F48AD91092FE0161E052
:1015E00070E004C0D53C31F466E970E083E298E035
:1015F00037DB4BC0C0917C01C11149C0DA3B31F4EB
:1016000060E070E08BE89AE013DB42C0D63C69F4FE
:1016100080911C0190E0019663E070E080D7809398
:101620001C0180931B01DBD82EC0D73C91F4909114
:101630001E01892F82958F708F5F83708295807FC6
:101640009F70892B80931E0160E05BD930D841D90F
:101650001FC0D73BB1F4C8018F739927892B61F460
:1016600090911E01892F8F708F5F292F207F6BE053
:1016700036D7922B90931E01602F80911E0141D985
:1016800007C0D73E21F413D803C0C0E001C0C1E0B9
:101690008C2FDF91CF911F910F91089586E884B927
:1016A0001092C9011092CA0183B1886483B9089568
:1016B000F5DFE1E6F0E0808182608083139A87EEB7
:1016C00083B908951092CB0120B191B130919E0160
:1016D0002295269526952370892F90E0880F991FD3
:1016E000880F991F820F911D830F80939E01809117
:1016F000C001882309F406C11092C0018091C9017C
:101700009091A101992319F01F981092C90181119C
:101710003DC080912301882349F08091C5019091BB
:10172000C6019093C2018093C10104C08091C101A0
:101730009091C2014096807E9695879561EC72E00B
:10174000DAD6809122018750680F6093BF018091A3
:101750006F01882311F0815008C06D3140F460E0C2
:1017600070E084E00E94920185E080936F01809197
:10177000A1018111BEC08EE884B981E08093C901C6
:101780001092CA0183B1886483B9B3C0813009F073
:10179000B0C080912301811143C08091C301909119
:1017A000C401409645E0969587954A95E1F760918A
:1017B000BC01AC0156954795062E000C770B9B019A
:1017C0002E503140240F351F3093BE012093BD01B0
:1017D00020915E01E22FF0E0EE0FFF1FE15AFE4F75
:1017E00040815181DC01A41BB50BAD019183808345
:1017F0002F5F277020935E019D01220F331F220F60
:10180000331F820F931F2091210130E0261B370BDD
:10181000225F3E4F220F331F821B930B23E01CC01D
:101820008091C7019091C8019093C4018093C30136
:10183000409635E0969587953A95E1F7EFE5F1E02A
:1018400081939193B1E0EF36FB07D1F7A6CF0097D4
:1018500009F00196215029F018161906C4F70197CE
:10186000F9CF18161906E4F457FD39C020915D012F
:1018700012160CF1880F991FBC016350710977FF94
:1018800002C06F5F7F4F759567951616170614F0A7
:1018900061E070E088E1861B80935D0185E026C0F1
:1018A0008C3F2FEF9207DCF457FF19C020915D01A8
:1018B00027FF05C02450281B20935D0119C024EE8A
:1018C000281B20935D012091BF012F3188F06CEF20
:1018D0007FEF681B790B7595679586E007C080914F
:1018E000BF018E3128F060E070E087E00E94920135
:1018F000D5DE80912301882329F080912301815036
:101900008093230108950F931F93CF931092A40106
:101910008091FC019091FD019C012F5F3F4F882732
:101920009078822B932B9093FD018093FC019091F2
:10193000A2012FB1822F8095881F8827881F80934E
:10194000A201981729F11092A1018093A201909110
:10195000FE01892F27FD0AC080699F709F3009F022
:101960008F5F8093FE0180E090E00CC08F7E95FD3C
:1019700002C0806801C0806C8093FE018091FC01F0
:101980009091FD010E94E3011092FD011092FC0173
:101990000091FC011091FD018091A101882379F053
:1019A000B80183E00E9492010E94AC010F731127DD
:1019B000012B09F046C010925C017ADE32C0C09162
:1019C000FE018C2F807F803B19F460E070E001C045
:1019D000B80181E00E949201C4FF13C0C5FF02C09C
:1019E000C8010CC008311105E0F01092FD01109201
:1019F000FC01C062C093FE0180E090E00E94E30120
:101A000010C0CC2371F0C5FD0AC00231110548F0A9
:101A1000C064C093FE0180E090E00E94E3010E9458
:101A2000E70180915C01811106C083B1886483B9AC
:101A300081E08093C00180915C018F5F8F71809302
:101A40005C01CF911F910F9108958091CB0181117D
:101A500039DE8091A401811156CF0895EF92FF9253
:101A60000F931F93CF93DF93EC0108E017E082EC14
:101A7000E82EFF24F3942097D9F080918001811102
:101A800019C08091A001843028F482E00E948C016A
:101A9000C70104C080E00E948C01C8010197F1F7E2
:101AA00080E00E948C01D1DF0E94AC012197E3CF3E
:101AB00081E001C080E0DF91CF911F910F91FF90F5
:101AC000EF900895FF920F931F93CF93DF93C82F4A
:101AD000882311F007EB02C006E4C1E082E0F82E93
:101AE00010E0D1E0F0921B0160E080911F010E94A4
:101AF0008104C801B3DFD0931B0160E080911F0116
:101B00000E94810483E191E0A9DF80911D0180930F
:101B10001B01C15039F78DED92E0DF91CF911F91FC
:101B20000F91FF909BCFCF93DF9364E6D8D4282FFB
:101B3000892F6AE0D4D4EC01222341F0822FC2DF46
:101B40008C2FC0DF8D2FDF91CF91BCCFC111F8CF8B
:101B5000F9CFCF93DF93D82FC3E080911A010E9471
:101B6000FC0388EC90E07ADFDD2319F080E991E056
:101B700075DF80E00E94FC0388EC90E06FDFC150CD
:101B800061F7DF91CF910895DF92EF92FF920F936B
:101B90001F93CF93DF93D82F8B01C0910A0181E06F
:101BA00080937301C33009F0DEC0F09077018D2F70
:101BB0000E943805FF2051F080917701811106C005
:101BC00060E070E08DEF96E04BD8CDC0D83021F4C6
:101BD00081E080930301C9C0D23C19F410927701CF
:101BE000D3C0D13BC1F490910201012B49F4963648
:101BF00010F08FEF03C0923018F481E0809303015E
:101C000080910301890F11F481E021C1873608F426
:101C10001EC186E61CC1D13E31F48091030181953D
:101C200080930301DAC0D23B61F481E08093030129
:101C300080910201823008F4D8C081508093020163
:101C4000D4C0D13009F0A4C00932110511F4D093E9
:101C50000301D09053018D2D880FD7FC809590E023
:101C600069E070E02BD4292FE09052018E2D880F6F
:101C7000E7FC8095D09101016D2F70E090E01ED4BB
:101C8000290FF09051018F2D880FF7FC8095C0919E
:101C900000016C2F70E090E011D4920F609102016E
:101CA00070E0690F711D80917701813091F480910E
:101CB00074019091750125E0969587952A95E1F735
:101CC00024E730E0A901481B590BCA01F7D3B90139
:101CD00012D4862F0E94FC0300FD06C00E9406025B
:101CE0008170D80ED092530180915001E80EE0929D
:101CF00052010E94060265E2F2D3F90EF092510100
:101D00000E9406028F7331F40E9406026DE0E7D351
:101D100090935001DD2339F00E9406028F7319F46D
:101D2000D150D09301010E940602811108C00E9487
:101D300006026EE0D4D39093010110925201C33099
:101D400038F00E9406028F7119F4C150C09300014F
:101D50000E9406028F7709F06EC00E94060287700B
:101D60008093000168C0D83021F481E080930401A1
:101D700070C0D13C39F460E070E08DEF96E00E94D5
:101D8000300667C0D23C31F4EC2FF0E0319607C04A
:101D9000D13C89F3D33C41F4EC2FF0E03396E3706F
:101DA000FF27E0930A0134C0D13BA9F4C23008F008
:101DB00050C000FD4EC0EC2FF0E0E85FFE4F808188
:101DC00090910401891B883020F08F3FE9F48EEF59
:101DD0001BC088E019C0D13E31F480910401819587
:101DE0008093040115C0D23B89F481E08093040103
:101DF000C23078F500FD2DC0EC2FF0E0E85FFE4F1B
:101E000080818F3F31F18F5F808323C0D23E19F4F0
:101E10000E9457031EC0D53C51F460E070E082E39D
:101E20009FE00E94300680E00E94FC0312C0D13087
:101E300011F081E00FC00932110519F481E080939F
:101E4000040180919E01080F00939E0102C08093BF
:101E5000020180E0DF91CF911F910F91FF90EF90F1
:101E6000DF9008950F931F93CF93DF93D82F8B01AB
:101E7000883031F480917301813011F488E084DE80
:101E80008D2F8079803961F481E080937201C09157
:101E90007301C1110EC080911A010E94FC0326C07B
:101EA000803849F41092720180E00E94FC030E9485
:101EB000EB03C0E01BC0D130C1F4C0917201CC2350
:101EC00051F0809173018130A1F7B801DF91CF917A
:101ED0001F910F9159CE0733114058F3D093A101B0
:101EE00060E080E00E94810401C0C1E08C2FDF919E
:101EF000CF911F910F9108951F920F920FB60F92DD
:101F000011242F933F938F939F93AF93BF93EF939E
:101F1000FF938091CA018823E9F0E091C90120B1C3
:101F200031B1F0E0EE0FFF1FDF01AB53BE4F2D9339
:101F30003C93EF53FE4F808191818217930708F401
:101F400001962817390708F401979183808381E06F
:101F50008093CB0181E08093CA01FF91EF91BF9103
:101F6000AF919F918F913F912F910F900FBE0F9046
:101F70001F9018951F920F920FB60F9211248F93F6
:101F800081E08093A4018F910F900FBE0F901F905E
:101F900018951F920F920FB60F9211248F9381E024
:101FA0008093A3018F910F900FBE0F901F901895F3
:101FB000F89485B7877F85BF88ED90E00FB6F894D9
:101FC000A8958FBD90B7977F90BF0FBE81E088B96D
:101FD00089E08CB98CE380BB82E88093720081E158
:101FE000809371008FEF90E0909369008093680078
:101FF00080E882BB87BD8CB788608CBFA89580E4E1
:1020000080BF56DB789481E00E94F10160E070E0CF
:102010008FE596E00E941806109280010E946904E4
:102020009FB1892F8095881F8827881F8093A201E0
:1020300097FF0BC082E00E94F101F89480E890E0E5
:1020400081D2853AB9F17894BAC0C0E08C2F0E9451
:10205000FC0383E190E002DD8C2F86950E94FC0357
:1020600083E190E0FBDC9FB1892F8095881F882752
:10207000881F8093A20197FD13C0CF5FC03431F752
:1020800065E181E00E9436030E945703C6E98C2F68
:102090000E94FC0384E090E0E1DCC150C1F7CACFAC
:1020A000CC2341F28C2F0E94FC038DE090E0D6DC23
:1020B000C150F6CF01E811E0C1E8D0E0CE0142D234
:1020C000F80181938F012196CE39D105B9F7789423
:1020D0008091810180937A01809182018093140123
:1020E00080918301809311018091840180930E017E
:1020F0008091850180931501809186018093120162
:102100008091870180930F0180918801809316014F
:10211000809189018093130180918A01809310013D
:1021200080918B0180937C0180918C0180937B0155
:1021300080918D018093790180918E0180931901A6
:1021400080918F0180937E018091900180937D0129
:1021500080919101809320018091920180930A01E6
:1021600080919301809308018091940180930901EB
:102170008091950180930D018091960180932101BA
:10218000809197018093BC018091980180932201F6
:102190008091990180931D0180919A0180931C0187
:1021A00080919B0180931F0180919C0180931E016F
:1021B00080919D0190E090930C0180930B018091A0
:1021C0007E01811180931A0161E070E08DEF96E04D
:1021D0000E94180643E4442E52E0552E60E4862EF9
:1021E0009924939477E0772ECC24C394D12CF5E0F6
:1021F0006F2EADEFAA2EA6E0BA2E0E94AC01809100
:10220000A7019091A801009751F06091A5017091EC
:10221000A6010E9430061092A8011092A701809199
:10222000A101882309F446C080E00E94FC03A89520
:1022300040BE1F989FB1892F8095881F8827881FCF
:102240008093A20197FFF6CF0E94E7018CB78860C8
:102250008CBF1092CB011092A4011092A301809127
:10226000A1018823F9F086B78F79806486BF86B78D
:10227000806186BF889586B78F7E86BF8091A301D7
:1022800081111092A1018091CB01882329F09092B5
:1022900023019092C00116DA8091A4018823F9F2FB
:1022A00032DBDDCF509223018CB7877F8CBF00DA01
:1022B000A89580BECADB109280018091BA019091EE
:1022C000BB01F3E080339F0779F4C0E7D0E0FE0163
:1022D00084918053F7DB8CE291E0C0DB2196F0E043
:1022E000CC37DF07A1F7A1C02DE0843C920779F03D
:1022F0003FE08233930709F08DC0809173018130F4
:1023000009F0D1C080917201882309F4CCC0C0913A
:102310000A01C23018F0C230C1F06FCFEC2FF0E0EC
:10232000E85FFE4FD08186E90E94FC03C11103C023
:1023300083E090E003C08D2F869590E08FDB80E0F6
:102340000E94FC038D2F90E0ACC00E9406028F73A8
:10235000E82EF12C0E940602672DC1D0E60102C0D2
:10236000CC0FDD1F9A95E2F70E940602662DB7D0CA
:10237000F60102C0EE0FFF1F9A95E2F7CE0FDF1FA6
:102380000E94060290E0BE01CAD0C80FD91FC7390B
:10239000D10514F0C6E9D0E08C2F0E94FC03C701E0
:1023A0005DDB8E0133E0159507953A95E1F7011154
:1023B00001C001E010E0C70151DBC01BD10BD7FF0A
:1023C00002C0C0E0D0E08C2F0E94FC030E940602F5
:1023D000837039F4C70142DBCE01959587950E9441
:1023E000FC03C230D1053CF70E9406026DE077D0B5
:1023F000E60102C0CC0FDD1F9A95E2F70E940602AB
:1024000090E0BE0178D0C80FD91F80E00E94FC0385
:10241000CE0147C0F6E0853B9F0781F48091BF0164
:1024200082DB80917C01882381F0B092A801A09288
:10243000A7011092A6011092A501DFCE26E08C3DE7
:10244000920731F48091BD016EDB88EE93E029C0E4
:1024500036E085389307B9F48091A2018111CDCE81
:1024600080911A010E94FC0384E690E0F7DA80E094
:102470000E94FC0380910D0190E068EE73E01ED095
:10248000845691090EC08E53964069F48091710173
:10249000811105C05EDB81E05CDB80E05ADB80ED12
:1024A00097E0DCDAAACE86B78F7986BF86B78061DF
:1024B00086BF889586B78F7E86BF9FCE002455271E
:1024C00004C0080E591F880F991F009729F07695B0
:1024D0006795B8F37105B9F7802D952F0895991B6D
:1024E00079E004C0991F961708F0961B881F7A950B
:1024F000C9F780950895AA1BBB1B51E107C0AA1F0D
:10250000BB1FA617B70710F0A61BB70B881F991F94
:102510005A95A9F780959095BC01CD01089597FB38
:10252000072E16F4009406D077FD08D0E4DF07FCF0
:1025300005D03EF4909581959F4F089570956195D3
:102540007F4F0895E199FECF1FBA8EBBE09A99277D
:102550008DB30895262FE199FECF1FBA8EBBE09A66
:1025600081500DB2021639F01CBA2DBB0FB6F8948B
:0C257000E29AE19A0FBE0895F894FFCFA4
:10257C00080E180101010004294303D002020107CF
:10258C00058282820A0A0A820A0146020102172780
:10259C0001320702050403140111010E01020100AE
:1025AC00000000000000010000000000000000011D
:1025BC000000210123022503270429052C06FF0610
:00000001FF
