:10000000F6C010C10FCD0EC10DC10CC10BC10AC18C
:10001000BCCC08C107C106C1F6CC04C103C1323053
:1000200032323130303230343131000000000000E3
:1000300000000000000000000000000000000000C0
:1000400000000000000000000000000000000000B0
:1000500000000000000000000000000000000000A0
:100060000000000000000000000000000000000090
:100070000000000000000000000000000000000080
:100080000000000000000000000000000000000070
:100090000000000000000000000000000000000060
:1000A0000000000000000000070D151C232B333C4E
:1000B000444D57606A757F8A96A1ADBAC7D4E2F005
:1000C000FF00000000000000000000000000000031
:1000D0000000000000000000000000000000000020
:1000E0000000000000000000000000000000000010
:1000F0000000000000000000000000000000000000
:1001000000001011121314151617191A1B1D1E20AA
:1001100022232527292B2E303235373A3D404346BE
:10012000494D5154585C61656A6E73787E83898F3E
:10013000959CA2A9B1B8C0C8D0D9E2EBF5FFFFFFEA
:10014000FFFFFFFFFFFFFFFFFFFFFFFFFFFFFFFFBF
:10015000FFFFFFFFFFFF000101020203030404058C
:10016000060708090A0C0D0E0F11131416181A1D94
:100170001F2224272A2D3033373B3E42464B4F5413
:10018000595D63686E73797F868C939AA1A8B0B825
:10019000C0C8D1D9E2ECF5FFFFFFFFFFFFFFFFFF73
:1001A000FFFFFFFFFFFFFFFFFFFFFFFFFFFFFFFF5F
:1001B000FFFFFFFFFFFFFFFFFFFFFFFFFFFFFFFF4F
:1001C000FFFFFFFFFFFFFFFFFFFFFFFFFFFFFFFF3F
:1001D000FFFFFFFFFFFFFFFFFFFFFFFFFFFFFFFF2F
:1001E000FFFFFFFFFFFFFFFFFFFFFFFF00001124E6
:1001F0001FBECFE5D2E0DEBFCDBF10E0A0E6B0E08D
:10020000ECE6FFE102C005900D92A439B107D9F7E1
:1002100021E0A4E9B0E001C01D92A733B207E1F7E5
:1002200010DCA2CEEDCE482F9B01E4E0F1E080E0AF
:1002300090E05081552331F001963396803191053D
:10024000C1F709C063E070E031DEFC01EC5FFE4FF6
:1002500040833283218308950F931F93CF93DF93BD
:10026000D0910401DD2351F10091050110910601A7
:10027000C091E100C150C7FD0DC0EC2FEE0FFF0B88
:10028000EE51FF4F0190F081E02DB8018D2F0995BF
:100290008111F0CFE4E0F1E0838180838481958156
:1002A00092838183339681E0E133F807A9F71092B6
:1002B00031011092330110923201D2CFDF91CF91F0
:1002C0001F910F910895BC0180913601ACCF10921F
:1002D0003601109235011092340181E08093BF0005
:1002E000089590E822E048EA57E030E0815070F04D
:1002F0000FB6F89496BD26BD0FBEFA013197F1F7FF
:100300000FB6F89496BD36BD0FBEF0CF089586B3F4
:1003100083FB882780F991E089278093DA0008958C
:10032000E0916600F09167003196FB70F460F09305
:100330006700E09366008091D6008B5A8093D600C8
:10034000E4918091D6008E0F0895CF93DF9300D073
:1003500000D000D0CDB7DEB79091B9002091F20067
:100360003091F3002C50384009F492E0843019F4B5
:100370006093BA0021C06623F9F0823019F427E9AE
:10038000261B622F26E0EEE7F0E0DE0111960190D9
:100390000D922A95E1F7E82FF0E03197EE0FFF1F5D
:1003A00021E030E02C0F3D1FE20FF31F0190F081A0
:1003B000E02DE90FF11D608326960FB6F894DEBF9D
:1003C0000FBECDBFDF91CF910895813019F4109207
:1003D000BD000895823019F46093BC000895843004
:1003E00011F4609379000895BF92CF92DF92EF925B
:1003F000FF920F931F93CF93DF93EC014091B900CD
:10040000E091BB00EE2311F082E001C0842F90E068
:10041000DC01AC58BF4F2C9120937800DC01AF5821
:10042000BF4F8C9180937700F0E0E259FF4F31810C
:10043000622F70E0442349F0313039F49B01280FDA
:10044000311DC9019595879536C0C617D70794F118
:10045000682F70E06C177D0774F1411102C08C2F7A
:100460002AC0821B032F10E001501109E82EF12C45
:10047000C701B8014CDD6093B8006695E62FF0E047
:10048000822FC12CD12CB12CB316A9F0C601B80112
:100490002ADD822F860FCE0CDF1CAE01481B5109CE
:1004A00057FF03C0519541955109E417F5071CF416
:1004B000B394EACF822FDF91CF911F910F91FF90DC
:1004C000EF90DF90CF90BF90089581E0089566236C
:1004D00089F0813061F48091F5009091F400891BDE
:1004E000681B6093F40082E080937D0003C0635E2C
:1004F00060937C0080917C00873418F086E48093C0
:100500007C00089570E070936C0060936B00089518
:100510000F931F93CF93DF938091B9008093C00016
:10052000809174008093C100809171008093C2001B
:10053000809175008093C300809172008093C40005
:1005400080916F008093C500809176008093C600F3
:10055000809173008093C700809170008093C800E1
:100560008091BB008093C9008091BA008093CA003B
:10057000809179008093CB008091BD008093CC0066
:100580008091BC008093CD0080916A008093CE0062
:10059000809168008093CF00809169008093D000A3
:1005A00080916D008093D10080917C008093D20077
:1005B0008091F4008093D30080917B008093D400DD
:1005C00080916B008093D500F89400EC10E0C1E0BE
:1005D000D1E0F80161918F01CE01B4DC2196C731E1
:1005E000F1E0DF07B1F765EA80E091E0ABDC7894F9
:1005F000DF91CF911F910F910895882321F08130D1
:1006000029F4BA9804C0BA98C2980895BA9AC29ABE
:100610000895CF93C82F8093D8008093D7008091FE
:10062000D900811109C02C2F30E081E02331310540
:100630000CF480E08F5FE1DFC11104C019BC18BC6D
:100640001BBC12C0C1508C2F90E0FC01E95AFE4F38
:10065000E491E9BDFC01EF53FF4FE491E8BDFC01DB
:10066000E55DFF4FE491EBBD8091D800883010F438
:1006700092E005C08E3010F491E001C090E080E877
:100680000FB6F89486BD96BD0FBECF9108958093A6
:10069000BE00BFCFCF93C091D80089E18C0F8739BE
:1006A00008F080E0B6DF82E01CDE8C2FCF91B1CF66
:1006B000CF93C091D80080E0ACDF83E012DE8C2FB6
:1006C000CF91A7CF9091F7009D3110F480E006C044
:1006D0008F70E82FF0E0EC57FF4F80818ECF88308D
:1006E00039F41092B7001092B5001092B4003FC0D8
:1006F000813B59F48091B70081508330D0F583E07D
:100700008093B7008093B60034C0853BA9F4CB0139
:100710006EE370E0E8DB892B51F58091B700853FEF
:1007200030F5865F8093B7008093B6001092B500D5
:100730001092B400AFDF1BC08130D9F48091B400B7
:100740009091B500019688382EE0920728F4909396
:10075000B5008093B4000BC01092B5001092B400A5
:100760008091B700882319F081508093B70080E012
:10077000089581E00895FF920F931F93CF93DF9325
:100780008C01EB01F42E8091F2009091F300892B03
:1007900031F0E091F200F091F30089E009951093B7
:1007A000F3000093F200012B39F0E091F200F09198
:1007B000F300BE018F2D099581E08093BF00DF918A
:1007C000CF911F910F91FF900895CF93DF93E09108
:1007D000E100EE2359F0E150E093E100F0E0EE0F8C
:1007E000FF1FEE51FF4FC081D18102C0C0E0D0E0B9
:1007F000E091E100EE2341F0F0E0EE0FFF1FE05248
:10080000FF4F8081918102C080E090E04AE060E08B
:1008100070E0B1DFCE01DF91CF910895883029F4E7
:100820001092B1001092980016C0813001F590919D
:100830009800911107C06032710570F180939800A3
:1008400046DD2AC0913089F4673381E0780728F0CB
:1008500082E08093980080E01EC061157105E1F090
:100860006270862F880F8E5E16C0AFDF15C081388C
:1008700011F0813E89F491E090939800813E21F43B
:100880008091B100865F03C08091B1008F5F80933B
:10089000B1001DDD8BE4BDDE80E008959C019091E8
:1008A000E100983088F4E92FF0E0EE0FFF1FEE51E1
:1008B000FF4F318320839F5F9093E10048E0C9019F
:1008C0005ADF8091E10008958FEF08950F931F93F1
:1008D000CF93DF93EC018B0178DFB801CE01DF917C
:1008E000CF911F910F91DACF843011F58091F200F2
:1008F0009091F3002BE08232920729F469E170E0D5
:1009000084EB95E013C0845B954061F49091D8002E
:10091000923040F0892F869596959695890FB7DE8F
:1009200080E0089560E070E08AED94E0CFDFF8CFDA
:1009300081E00895CF93C091BB00C11116C0813CE6
:1009400029F460E070E08AED94E00DC0823C29F467
:1009500060E070E089EB94E006C0833C31F460E035
:1009600070E084EF9AE0B2DF01C0C1E08C2FCF913C
:100970000895813C29F460E070E08AED94E00DC0B8
:10098000823C29F460E070E084EF9AE006C0833C8A
:1009900031F460E070E08AE994E098DF07C0873BBB
:1009A00039F460E070E084E198E078DF80E0089559
:1009B00081E008950F931F93CF938B01883079F4D2
:1009C00080E027DE80917B00837017DE1092B700F5
:1009D000012B19F481E08093D900C0E0C0C08130C0
:1009E00051F469317105C8F38093D90080917B007F
:1009F000837003DEF2CF833019F52091BD002223EE
:100A000059F08091BC0090E062EC71E04FDA081779
:100A1000190710F020937A0080917B008370833057
:100A200011F4802F4FDE80916B0090916C00009745
:100A3000A1F262EC71E03ADA8017910770F649C0D2
:100A4000813B79F481E090E0CFDCE3DD8091B90077
:100A5000811104C00831110508F4BFCF61E070E0D6
:100A600028C0813ED9F3813821F480917A0090E04A
:100A700013C0813C21F46091D80070E01AC0823B21
:100A800079F4809179009091BB0091118091BA0026
:100A9000811104C086E990E0A7DC05C086E903C0A7
:100AA000823E19F480E0B5DD98CF823C31F466E9EE
:100AB00070E084EB95E00ADF90CF833999F3833CB3
:100AC00029F460E070E08AE994E0F5CF843C31F4E9
:100AD000E1DD60E070E08CE198E0EDCF8F3C29F43F
:100AE00060E070E085E692E0E6CFC091BB008A3B13
:100AF00079F4672B69F4CC2329F0CCDD1092BB008C
:100B000007DD6BCF60E070E08CE098E0C7DE27C0C7
:100B1000C11124C08A3C29F4BDDD81E08093BB0073
:100B20001BC0833B29F460E070E082E29BE006C0DA
:100B3000853B31F460E070E081E89CE0C7DE0FC0E7
:100B4000873C61F490917B0081E0890F83709C7FEA
:100B5000982B90937B0051DDDBDC01C0C1E08C2F32
:100B6000CF911F910F9108959F92AF92BF92CF9214
:100B7000DF92EF92FF920F931F93CF93DF93182F83
:100B8000EB0190907800B0907700D090B900DD2014
:100B900019F0A090B80002C0AA24A394E0907900B4
:100BA0000091BB000111E090BA00EE2051F081E00D
:100BB000E81621F080917A008B1518F0A6E9FA2E3C
:100BC00001C0FB2CC090B700BE01812F88DD609171
:100BD000B700662339F0C1100CC08091D800809313
:100BE0009C0007C0CC2029F060E070E08AED94E022
:100BF00036C0812F8D7F8830C1F41092B3001A3037
:100C000019F4C0917A00D0E0892D90E08C179D07EF
:100C100038F48B2D90E0C817D90710F4C0937A00F0
:100C2000CE01E2DB34DD81E061C0113CE9F2123C2F
:100C300071F48091D8008F1510F48F2D02C080912F
:100C40007A0025DD8091D80080939C0034C1143C4B
:100C500041F480E0DEDC60E070E08CE198E036DEBC
:100C60002AC18FE4810F8230D0F5DD2039F0CE012A
:100C700068E170E038D9892B09F01DC18091D80056
:100C8000209761F4123B11F48FEF05C08B15E0F74C
:100C90009816A8F081E08093650011C0C733E1E0A9
:100CA000DE0768F08B1580F7CD36D24040F09816FD
:100CB00030F0F0DC60E070E08CE198E007DE8091DD
:100CC00065006A2D70E0082E000C990BEFD820917A
:100CD000D800820F911D88DB80937A00B2CF8FE11C
:100CE000810F823030F4809165008195809365009A
:100CF000E2C0113009F0B2C0A99711F41093650059
:100D0000662391F080919C0070E06150710990E041
:100D1000CDD86091B60070E0FAD8611101C061E0F1
:100D20006093D7006093BE008091D7009091D80067
:100D3000282F30E0291B310960919A0070919B00A7
:100D40006F5F7F4F70939B0060939A002115310570
:100D500009F4B1C037FF05C0933830F040E450E0EB
:100D600005C040E052E002C040E051E05695479592
:100D700037FF02C02F5F3F4F35952795211531056D
:100D8000A9F74617570708F096C0891710F48FEF98
:100D900003C0981710F481E0890FAFEFA80F2A2F36
:100DA00030E0B901695A7E4FFB014491A91738F42C
:100DB00099B5911104C04F3F11F449BD0CC099B5CC
:100DC000941718F499B59F5F05C099B5491718F4A1
:100DD00099B5915099BDA9014F535F4FFA01949174
:100DE000E091D800AE1728F4E8B5E11102C09F3FAA
:100DF00059F0E8B5E91718F498B59F5F05C0E8B554
:100E00009E1718F498B5915098BD255D3F4FF90194
:100E10009491EBB5E91718F49BB59F5F05C0EBB54E
:100E20009E1718F49BB591509BBD99B5FB01649139
:100E300096130FC098B5FA01449194130AC09BB55C
:100E4000F9012491921305C0C091D700E2DBC09351
:100E5000D70010929B0010929A002DC01530A1F47B
:100E60008091D800823438F190E08C1B9D0B282FA4
:100E7000813491052CF08739910518F026E901C0DD
:100E800021E42093D70017C01630B9F49091D80010
:100E90008091BE00981778F4C90FD11D90E08C178F
:100EA0009D0734F0C134D10524F4C1E4D0E001C081
:100EB000EC01C093D70000E05AC0173071F4909154
:100EC000D7008091D800891710F48F5F03C098175E
:100ED00090F781508093D700EECF011147C0133CAB
:100EE00099F481E0D11080E08093B90011DBE0DB60
:100EF0008091D80090E078DA80937A00C8DB809106
:100F0000D80080939C0033C0133B41F4CD2B99F65D
:100F1000EE2011F086E9F82E8F2D04C0133E21F447
:100F200080917A00B4DB23C0153C41F480E071DB92
:100F300060E070E081E89CE0C9DC19C0173B29F44F
:100F400060E070E086E098E00FC01A3C39F48091D0
:100F5000D8008093BD00DCDA9DDB09C01A3B31F478
:100F600060E070E080E198E099DC01C001E0802F52
:100F7000DF91CF911F910F91FF90EF90DF90CF9075
:100F8000BF90AF909F900895883061F410929900BF
:100F900080E03FDB8091DA00811136C081E08093F0
:100FA000990022C0982F907F903BB1F42091990036
:100FB000421778F0CB016DE570E095D7029739F4D0
:100FC0002F5F209399004217F8F088E303C082E175
:100FD00001C080E01EDB18C0903E61F48091990052
:100FE000882389F0481778F060E070E08EE094E0A4
:100FF00055DC0AC08A3041F46091B10080919900BB
:10100000F901099585DAE1DB80E008954091B900A6
:101010004E5F25EA31E0B8CF25EA31E044E0B4CFB5
:1010200025EE31E044E0B0CF27E632E042E0ACCF3D
:1010300022E832E041E0A8CF0F931F93CF93DF93D4
:10104000D82F8B0180798039B1F420917400909170
:1010500075008D2F8F70823041F48091BD00811119
:1010600008C0822F291728F403C0822F921708F492
:10107000892FCFDA1BC0803819F480E0CADA08C0A3
:10108000D83031F480917B0086958695B6DA41C0E0
:10109000D13061F40931110508F45AC0D093D90058
:1010A00080917B0086958695A8DA52C0D33049F4AA
:1010B00080917B008C708C3009F04AC0802F02DB5D
:1010C00047C0D33C31F4E6DA60E070E08AED94E0AA
:1010D0000AC0D43C89F4C091BD00CC2331F06C2F00
:1010E00070E084EB95E0F2DB33C060917A0070E051
:1010F00084EB95E0EBDB2FC0D43B31F4D9DA1092CE
:10110000360161E070E0EDCFD53C19F466E970E09E
:10111000E8CFC091BB00C1111DC0DA3B31F460E0E3
:1011200070E088E198E0BADB16C0D73C99F4909162
:101130007B00892F869586958F5F8370282F220FDD
:10114000220F9370920F90937B0057DAE1D903C07E
:10115000C0E001C0C1E08C2FDF91CF911F910F91B2
:1011600008958CE287B9109201011092020186B1B4
:10117000886486B908951092030124B195B1309125
:10118000D6002295269526952370892F90E0880F0A
:10119000991F880F991F820F911D830F8093D6008E
:1011A0008091F800882309F407C11092F80080911B
:1011B00001019091D900992319F0379810920101FB
:1011C00081113FC080917D00882349F06091FD002E
:1011D0007091FE007093FA006093F90004C0609172
:1011E000F9007091FA00605F7F4FA6E076956795F1
:1011F000AA95E1F780E098E576D6695F7F4F76950E
:1012000067956093F7008091B000882311F08150BA
:1012100007C06D3138F460E070E084E004D885E008
:101220008093B0008091D9008111BDC08FEA87B949
:1012300081E0809301011092020186B1886486B931
:10124000B2C0813009F0AFC080917D00811143C0F0
:101250008091FB009091FC0040969C0145E0369502
:1012600027954A95E1F7A091F400A9015695479575
:101270000A2E000CBB0BCD0183519140840F951FAA
:101280009093F6008093F50080919F00E82FF0E0A6
:10129000EE0FFF1FE056FF4F40815181B901641BE3
:1012A000750B318320838F5F877080939F00CB0104
:1012B000880F991F880F991F40917C0050E04D5E68
:1012C0005E4F4A1B5B0B440F551F841B950B820F0F
:1012D000931F23E01CC08091FF0090910001909328
:1012E000FC008093FB00409635E0969587953A95F3
:1012F000E1F7E0EAF0E08193919320E0E03BF20730
:10130000D1F7A6CF009709F00196215029F01816C1
:101310001906C4F70197F9CF18161906E4F477FDFA
:1013200039C020919E0012160CF1880F991FBC0144
:101330006350710977FF02C06F5F7F4F75956795A6
:101340001616170614F061E070E088E1861B8093A2
:101350009E0085E026C08C3F2FEF9207DCF477FFDC
:1013600019C020919E0027FF05C02450281B209300
:101370009E0018C024EE281B20939E002091F700A9
:101380002F3180F06CEF7FEF681B790B75956795B7
:1013900086E007C08091F7008E3120F060E070E0B9
:1013A00087E041D7DEDE80917D00882329F080919F
:1013B0007D00815080937D0008950F931F93CF93FC
:1013C0001092DC0080913401909135019C012F5FD7
:1013D0003F4F88279078822B932B909335018093F1
:1013E0003401C091DA0093D7C81729F11092D900BF
:1013F0008093DA0090913601882359F0892F806913
:101400009F709F3009F08F5F8093360180E090E0FD
:101410000DC0892F8F7E95FD02C0806801C0806C51
:101420008093360180913401909135014CD7109210
:1014300035011092340100913401109135018091F1
:10144000D900882379F0B80183E0EDD605D70F7372
:101450001127012B09F044C010929D0082DE87EE17
:1014600086B92EC0C09136018C2F807F803B19F445
:1014700060E070E001C0B80181E0D5D6C4FF12C0C1
:10148000C5FF02C0C8010CC008311105C8F0109298
:10149000350110923401C062C093360180E090E0C3
:1014A00012D70EC0CC2361F0C5FD09C00231110571
:1014B00038F0C064C093360180E090E004D707D7CD
:1014C00080919D00811106C086B1886486B981E053
:1014D0008093F80080919D008F5F8F7180939D00B5
:1014E000CF911F910F91089580910301811143DEE7
:1014F0008091DC00811161CF0895CF92DF92EF924D
:10150000FF920F931F93CF93DF93EC0110E800E05D
:1015100088E0E82E87E0F82E92ECC92EDD24D394E3
:10152000209709F18091BF0081111FC08091D800E0
:10153000883040F482E00FB6F89416BD86BD0FBE29
:10154000C60106C00FB6F89416BD06BD0FBEC70192
:101550000197F1F70FB6F89416BD06BD0FBEC4DFB4
:101560007BD62197DDCF81E001C080E0DF91CF9174
:101570001F910F91FF90EF90DF90CF900895CF9340
:10158000C82F882381F089E144D887EB90E0B5DF4C
:1015900080E03FD883E191E0B0DFC150A1F78DED4D
:1015A00092E0CF91AACF89E134D886E490E0A5DF1C
:1015B00080E02FD883E191E0A0DFF1CFCF93DF93DC
:1015C00064E685D4282F892F6AE081D4EC01222398
:1015D00041F0822FD4DF8C2FD2DF8D2FDF91CF917E
:1015E000CECFC111F8CFF9CF813C29F460E070E093
:1015F0008AED94E00DC0823C29F460E070E08AE955
:1016000094E006C0833C31F460E070E089EB94E044
:101610005DD914C0813B41F4CB016EE370E063D42B
:10162000892B61F437D80AC0813E51F4CB016EE3B7
:1016300070E059D46F5F60936D006AD780E00895C1
:1016400081E00895DF92EF92FF920F931F93CF9363
:10165000DF93D82F8B01C0916A0081E08093B300A3
:10166000C33009F0D3C0F090B7008D2F38D8FF20D9
:1016700051F08091B700811106C060E070E08AED02
:1016800094E024D9C3C0D83021F481E08093630072
:10169000BFC0D23C19F41092B700C8C0D13BC1F40E
:1016A00090916200012B49F49E3610F08FEF03C039
:1016B000923018F481E08093630080916300890F79
:1016C00011F481E013C18F3608F410C18EE60EC10B
:1016D000D13E31F480916300819580936300CFC047
:1016E000D23B61F481E0809363008091620082309C
:1016F00008F4CDC0815080936200C9C0D13009F098
:1017000099C00932110511F4D0936300D09097006D
:101710008D2D880FD7FC809590E067E070E0C6D3F0
:10172000292FE09096008E2D880FE7FC8095D091B0
:1017300061006D2F70E090E0B9D3290FF090950013
:101740008F2D880FF7FC8095C09160006C2F70E0A2
:1017500090E0ACD3920F6091620070E0690F711D50
:101760008091B700813091F48091B4009091B500E0
:1017700025E0969587952A95E1F724E730E0A901C1
:10178000481B590BCA0192D3B901ADD3862F41D75B
:1017900000FD05C0C5D58170D80ED092970080910C
:1017A0009400E80EE0929600BBD565E290D3F90E66
:1017B000F0929500B5D58F7329F4B2D56DE087D33B
:1017C00090939400DD2331F0ABD58F7319F4D15091
:1017D000D0936100A5D5811107C0A2D56BE077D366
:1017E0009093610010929600C33030F099D58F71BC
:1017F00019F4C150C093600093D58F7709F06AC087
:101800008FD566E064D39093600064C0D83021F433
:1018100081E0809364006CC0D13C31F460E070E002
:101820008AED94E053D864C0D23C31F4EC2FF0E060
:10183000319607C0D13C91F3D33C41F4EC2FF0E05A
:101840003396E370FF27E0936A0034C0D13BA9F4DC
:10185000C23008F04DC000FD4BC0EC2FF0E0E8595D
:10186000FF4F808190916400891B883020F08F3F6A
:10187000E9F48EEF1BC088E019C0D13E31F48091AD
:10188000640081958093640015C0D23B89F481E0A7
:1018900080936400C23060F500FD2AC0EC2FF0E0B8
:1018A000E859FF4F80818F3F19F18F5F808320C0FF
:1018B000D23E11F42DD61CC0D53C41F460E070E05E
:1018C00081E89CE003D880E0A4D612C0D13011F0AA
:1018D00081E00FC00932110519F481E080936400A2
:1018E0008091D600080F0093D60002C0809362005A
:1018F00080E0DF91CF911F910F91FF90EF90DF90EB
:1019000008950F931F93CF93DF93D82F8B018830C7
:1019100031F48091B300813011F488E093DE8D2F93
:101920008079803959F481E08093B200C091B3008E
:10193000C1110AC080917A006CD621C0803831F480
:101940001092B20080E065D6C0E019C0D130B1F489
:10195000C091B200CC2351F08091B3008130A1F747
:10196000B801DF91CF911F910F916CCE07331140D9
:1019700058F3D093D90080E040D601C0C1E08C2F4D
:10198000DF91CF911F910F9108951F920F920FB683
:101990000F9211242F933F938F939F93AF93BF93F5
:1019A000EF93FF93809102018823E9F0E091010118
:1019B00024B135B1F0E0EE0FFF1FDF01A350BF4FA0
:1019C0002D933C93E750FF4F8081918182179307BD
:1019D00008F401962817390708F40197918380834A
:1019E00081E08093030181E080930201FF91EF91F8
:1019F000BF91AF919F918F913F912F910F900FBE0B
:101A00000F901F9018951F920F920FB60F921124EE
:101A10008F9381E08093DC008F910F900FBE0F9029
:101A20001F9018951F920F920FB60F9211248F934B
:101A300081E08093DB008F910F900FBE0F901F907D
:101A40001895F89484B7877F84BF0FB6F894A8954B
:101A500081B5886181BD11BC0FBEB89A81E083BF9A
:101A600091EA9ABDB99ABC9A80BF80E68CBD8FEF8F
:101A70008DBD88E088BB85BB8BB780628BBFA89586
:101A800081B5886181BD80E481BD6BDB87EE86B95D
:101A9000789481E026D460E070E084E794E0FED69C
:101AA0001092BF00F7D533D4811108C0F89480E0BC
:101AB00091E040D2853A51F1789492C0C0E08C2FE9
:101AC000A8D583E190E019DD8C2F8695A2D583E11E
:101AD00090E013DD1CD4882381F0CF5FC03479F708
:101AE00065E181E0F4D414D5C6E98C2F92D584E069
:101AF00090E003DDC150C9F7D9CFCC23B9F28C2FC8
:101B000088D58DE090E0F9DCC150F7CF00EC10E013
:101B1000C1E0D1E0CE010ED2F80181938F01219670
:101B2000C731F1E0DF07B1F778948091C00080936E
:101B3000B9008091C100809374008091C2008093AD
:101B400071008091C300809375008091C4008093E0
:101B500072008091C50080936F008091C6008093D1
:101B600076008091C700809373008091C8008093B5
:101B700070008091C9008093BB008091CA0080935F
:101B8000BA008091CB00809379008091CC00809343
:101B9000BD008091CD008093BC008091CE008093E9
:101BA0006A008091CF00809368008091D00080937C
:101BB00069008091D10080936D008091D200809364
:101BC0007C008091D3008093F4008091D4008093B6
:101BD0007B008091D50090E090936C0080936B0027
:101BE0008091BD00811180937A0061E070E08AED00
:101BF00094E054D643E4242E52E0352E67EE462E70
:101C000070E4872E99249394ECEFAE2EE3E0BE2E81
:101C1000F7E05F2EAAEDCA2EA4E0DA2E1DD3809144
:101C2000DF009091E000009749F06091DD00709135
:101C3000DE004CD61092E0001092DF008091D900B7
:101C4000882309F444C080E0E4D4A89581B5886174
:101C500081BD21BC37985BD38111FDCF38D38BB7C1
:101C600080628BBF109203011092DC001092DB00A7
:101C70008091D9008823F9F085B7877E806185BF80
:101C800085B7806285BF889585B78F7D85BF809138
:101C9000DB0081111092D90080910301882329F083
:101CA00090927D009092F80066DA8091DC008823A3
:101CB000F9F283DBDDCF30927D008BB78F7D8BBF58
:101CC00050DA46B8A89581B5886181BD81BC0CDC2D
:101CD0001092BF008091F2009091F30022E08536CF
:101CE000920779F4CEE1D0E0FE018491805347DC85
:101CF0008CE291E002DC2196F0E0CA32DF07A1F726
:101D00009EC02BE08232920779F0ECE081389E078A
:101D100009F08AC08091B300813009F0BCC0809185
:101D2000B200882309F4B7C0C0916A00C23018F02D
:101D3000C230E1F073CFEC2FF0E0E859FF4FD081D3
:101D40008DE767D4C11109C0DA3220F4C5010197CB
:101D5000F1F707C081E090E003C08D2F869590E0F9
:101D6000CCDB80E056D48D2F90E093C0D9D28F7316
:101D7000E82EF12CD5D2652DAAD001E010E0380173
:101D800002C0660C771C9A95E2F7CAD265E09FD034
:101D9000E80102C0CC0FDD1F9A95E2F76C0E7D1EA4
:101DA000BFD290E0B301B3D0E301C80FD91FC73948
:101DB000D10514F0C6E9D0E08C2F2BD4C7019DDBF0
:101DC0008E0133E0159507953A95E1F7011101C0B1
:101DD00001E010E0C70191DBC01BD10BD7FF02C0AF
:101DE000C0E0D0E08C2F15D49BD2837031F4C701B2
:101DF00084DBCE01959587950CD4C230D10554F77C
:101E00008FD26DE064D0C1E0D0E002C0CC0FDD1F06
:101E10009A95E2F785D290E0BE0165D0C80FD91F30
:101E200080E0F7D3CE0135C0F4E08A399F0781F412
:101E30008091F700C3DB8091BB00882381F0D092B2
:101E4000E000C092DF001092DE001092DD00E6CECE
:101E500024E0893B920731F48091F500AFDB88EEF6
:101E600093E017C0845F9A40B1F48091DA00811149
:101E7000D5CE80917A00CDD384E690E03EDB80E041
:101E8000C8D380916D0090E068EE73E00FD0845667
:101E9000910933DBC3CE85B7877E85BF85B7806266
:101EA00085BF889585B78F7D85BFB8CE002455271F
:101EB00004C0080E591F880F991F009729F07695C6
:101EC0006795B8F37105B9F7802D952F0895991B83
:101ED00079E004C0991F961708F0961B881F7A9521
:101EE000C9F780950895AA1BBB1B51E107C0AA1F23
:101EF000BB1FA617B70710F0A61BB70B881F991FAB
:101F00005A95A9F780959095BC01CD01089597FB4E
:101F1000072E16F4009406D077FD08D0E4DF07FC06
:101F200005D03EF4909581959F4F089570956195E9
:101F30007F4F0895E199FECF9FBB8EBBE09A992712
:101F40008DB30895262FE199FECF9FBB8EBBE09AFB
:101F500001970DB2021639F01CBA2DBB0FB6F894DA
:0C1F6000E29AE19A0FBE0895F894FFCFBA
:101F6C00060B180101010004294303D002020107EA
:101F7C00057D7D7D0114147D0102410E3202740039
:101F8C0071006E0000010201000000000000010061
:041F9C000000000041
:00000001FF
