:10000000ABC0C5C07ACCC3C0C2C0C1C0C0C0BFC035
:1000100027CCBDC0BCC0BBC061CCB9C0B8C03230F9
:1000200032323130303230363231000100010002DC
:10003000000200030003000400050005000600069E
:100040000007000800080009000A000A000B000C65
:10005000000C000D000E000F001000110011001226
:100060000013001400150016001700180019001ADC
:10007000001B001C001D001F002000210022002387
:100080000025002600270028002A002B002D002E26
:10009000002F003100320034003600370039003ABA
:1000A000003C003E003F0041004300450046004840
:1000B000004A004C004E00500052005400560058B8
:1000C000005A005C005F0061006300650068006A20
:1000D000006C006F0071007300760079007B007E79
:1000E0000080008300860088008B008E00910094C1
:1000F00000960099009C009F00A200A600A900ACF9
:1001000000AF00B200B500B900BC00BF00C300C61C
:1001100000CA00CD00D100D500D800DC00E000E32B
:1001200000E700EB00EF00F300F700FB00FF000822
:100130000112011C01260131013C01470153015FFD
:10014000016B01780185019301A101AF01BE01CDD1
:1001500001DD01ED01FE010011241FBECFE5D2E05B
:10016000DEBFCDBF10E0A0E6B0E0E6E0FFE102C0F8
:1001700005900D92A839B107D9F721E0A8E9B0E0C0
:1001800001C01D92AE32B207E1F7C6DBBACE38CF5E
:10019000482F9B01E9EFF0E080E090E0508155238B
:1001A00031F00196339680319105C1F709C063E0C3
:1001B00070E00EDEFC01E750FF4F40833283218365
:1001C00008950F931F93CF93DF93D091F900DD2310
:1001D00051F10091FA001091FB00C091D900C1507B
:1001E000C7FD0DC0EC2FEE0FFF0BE652FF4F019045
:1001F000F081E02DB8018D2F09958111F0CFE9EF45
:10020000F0E083818083848195819283818333961A
:1002100081E0E632F807A9F7109226011092280132
:1002200010922701D2CFDF91CF911F910F910895A6
:10023000BC0180912B01ACCF10922B0110922A01AE
:100240001092290181E08093B400089590E822E0A3
:1002500048EA57E030E0815070F00FB6F89496BD50
:1002600026BD0FBEFA013197F1F70FB6F89496BD8F
:1002700036BD0FBEF0CF089586B383FB882780F983
:1002800091E089278093D2000895E0916700F09172
:1002900068003196FB70F460F0936800E0936700AB
:1002A0008091CF008B5A8093CF00E4918091CF0052
:1002B0008E0F0895CF93DF9300D000D000D0CDB73C
:1002C000DEB790917B002091EA003091EB0027553A
:1002D000384009F492E0843019F46093B00021C0F2
:1002E0006623F9F0823019F427E9261B622F26E0F5
:1002F000E1E8F0E0DE01119601900D922A95E1F718
:10030000E82FF0E03197EE0FFF1F21E030E02C0FD7
:100310003D1FE20FF31F0190F081E02DE90FF11D69
:10032000608326960FB6F894DEBF0FBECDBFDF9177
:10033000CF910895BF92CF92DF92EF92FF920F93E9
:100340001F93CF93DF93EC0140917B00E091B100CC
:10035000EE2311F082E001C0842F90E0DC01AB5865
:10036000BF4F2C9120937900DC01AE58BF4F8C9188
:1003700080937800F0E0E159FF4F3181622F70E007
:10038000442349F0313039F49B01280F311DC90154
:100390009595879536C0C617D70794F1682F70E0FA
:1003A0006C177D0774F1411102C08C2F2AC0821B8B
:1003B000032F10E001501109E82EF12CC701B801FC
:1003C00051DD6093AE006695E62FF0E0822FC12CE0
:1003D000D12CB12CB316A9F0C601B8012FDD822FA4
:1003E000860FCE0CDF1CAE01481B510957FF03C01E
:1003F000519541955109E417F5071CF4B394EACFE0
:10040000822FDF91CF911F910F91FF90EF90DF909E
:10041000CF90BF90089581E00895611160937F00AF
:10042000089570E070936D0060936C0008950F93D1
:100430001F93CF93DF9380917B008093B5008091D1
:1004400075008093B600809172008093B700809110
:100450006F008093B800809176008093B9008091FE
:1004600073008093BA00809170008093BB008091EC
:1004700077008093BC00809174008093BD008091D0
:1004800071008093BE008091B1008093BF00809185
:10049000B0008093C0008091AF008093C100809134
:1004A0007A008093C2008091B3008093C300809152
:1004B000B2008093C4008091A6008093C500809113
:1004C0007E008093C6008091A7008093C700809132
:1004D0006B008093C800809169008093C90080916F
:1004E0006A008093CA0080916E008093CB00809157
:1004F0007F008093CC0080917D008093CD0080911F
:100500006C008093CE00F89405EB10E0C1E0D1E0E0
:10051000F80161918F01CE01E2DC2196CB31F1E04F
:10052000DF07B1F765EA80E091E0D9DC7894DF91EC
:10053000CF911F910F9108951092F80024B195B1B9
:100540003091CF002295269526952370892F90E033
:10055000880F991F880F991F820F911D830F809319
:10056000CF008091ED00882309F444C01092ED0083
:100570008091D100882319F037981092F60080916D
:100580008000882349F06091F2007091F30070932D
:10059000EF006093EE0004C06091EE007091EF00F8
:1005A000605F7F4F86E0769567958A95E1F780E0FA
:1005B00098E544DC80917F00680F711D7695679502
:1005C0006093EC008091A300882311F0815007C054
:1005D0006D3138F460E070E084E0DADD8AE0809329
:1005E000A30080918000882329F0809180008150B1
:1005F000809380000895882321F0813029F4BC98ED
:1006000004C0BC98C4980895BC9AC49A08958130D7
:1006100019F41092B3000895823019F46093B20077
:100620000895833019F46093AF000895843011F475
:1006300060937A000895813061F4611101C080E017
:100640008093A700611102C08FE701C081E0809311
:100650007E0008959091EC009D3110F480E006C07A
:100660008F70E82FF0E0E957FF4F8081C4CFFF92F1
:100670000F931F93CF93DF938C01EB01F42E8091A6
:10068000EA009091EB00892B31F0E091EA00F091C3
:10069000EB0089E009951093EB000093EA00012B31
:1006A00039F0E091EA00F091EB00BE018F2D099541
:1006B00081E08093B400DF91CF911F910F91FF9063
:1006C0000895CF93DF93E091D900EE2359F0E150E4
:1006D000E093D900F0E0EE0FFF1FE652FF4FC0811C
:1006E000D18102C0C0E0D0E0E091D900EE2341F01A
:1006F000F0E0EE0FFF1FE852FF4F8081918102C0B2
:1007000080E090E04AE060E070E0B1DFCE01DF9190
:10071000CF9108959C019091D900983088F4E92FE9
:10072000F0E0EE0FFF1FE652FF4F318320839F5F03
:100730009093D90048E0C9019ADF8091D9000895CB
:100740008FEF08950F931F93CF93DF93EC018B01ED
:10075000B8DFB801CE01DF91CF911F910F91DACFB1
:10076000813C39F41092A50060E070E088EE95E0DD
:100770000DC0823C29F460E070E081ED93E006C09A
:10078000833C31F460E070E08AE895E0DBDF05C08F
:100790008A3C29F481E08093A50080E0089581E0FF
:1007A0000895CF93C091B100C1111EC0813C29F4BE
:1007B00060E070E088EE95E006C0823C31F460E0D5
:1007C00070E08AE895E0BEDF10C0833C29F460E069
:1007D00070E080EB93E0F7CF873B31F460E070E0AE
:1007E00083E698E097DF01C0C1E08C2FCF91089598
:1007F0008CE287B91092F6001092F70086B18864F7
:1008000086B90895CF92DF92EF92FF920F931F93D4
:10081000CF93F82E8093D0008091D100811109C030
:100820002F2D30E081E0283131050CF480E08F5F1E
:10083000E2DEF11007C010922D0110922C0119BCBC
:1008400018BC0DC0FA94EF2DF0E0EE0FFF1FE55D30
:10085000FF4F8591949190932D0180932C010091ED
:100860002C0110912D012091D000215080917E000B
:1008700081110AC0822F90E06FEF70E0A9DA66E97B
:1008800070E0DCDAC62F16C08F3F59F4822F90E05B
:100890006FEF70E09DDA66E970E0D0DAC62FC095A0
:1008A00009C090E064E670E093DA63E670E0DADABB
:1008B000CFEFC60F6801E12CF12C2F3010F12AE0A8
:1008C00030E040E050E0C701B60193DA9B01AC0193
:1008D00066E056954795379527956A95D1F78C2F01
:1008E000880FC7FD8095682F70E080E090E081DA86
:1008F0002FEF30E040E050E0C8DAC20ED31EE41E15
:10090000F51E0F3F1105E1F0D8F0C8016AE070E074
:100910005FDA865F9940BC0126E0769567952A9557
:10092000E1F78C2F880FC7FD809590E051DA6FEFCB
:1009300070E084DA660F771FC61AD70AE108F1085B
:100940008FEFC81681E0D806E104F10430F08EEF95
:10095000C82EDD24D394E12CF12C6C2F70E080E0C4
:1009600090E0A701960145DA61587F4F8F4F9F4F66
:100970002FEF30E040E050E088DAC9012F3F310529
:1009800039F030F096012F5F31098FEF90E00DC004
:10099000F601E21BF30B9F01EF3FF10531F028F068
:1009A000C6018F5F91092FEF30E029BD88BD80918E
:1009B000D000853010F492E005C08E3010F491E044
:1009C00001C090E080E80FB6F89486BD96BD0FBEDA
:1009D000CF911F910F91FF90EF90DF90CF900895EE
:1009E000883029F41092A40010929F0016C0813024
:1009F00001F590919F00911107C06032710570F16F
:100A000080939F0019DC2AC0913089F4673381E01C
:100A1000780728F082E080939F0080E01EC0611577
:100A20007105E1F06270862F880F8E5E16C049DE78
:100A300015C0813811F0813E89F491E090939F00B8
:100A4000813E21F48091A400865F03C08091A400C0
:100A50008F5F8093A400F0DB8BE4D4DE80E0089508
:100A6000CF93C091D00089E18C0F873908F080E0E6
:100A7000C9DE82E0EBDB8C2FCF91C4CE883039F415
:100A80001092AD001092AB001092AA003FC0813BC3
:100A900059F48091AD0081508330D0F583E080938C
:100AA000AD008093AC0034C0853BA9F4CB016EE36C
:100AB00070E0C4D9892B51F58091AD00853F30F5A8
:100AC000865F8093AD008093AC001092AB001092D3
:100AD000AA00C6DF1BC08130D9F48091AA00909192
:100AE000AB00019688382EE0920728F49093AB0073
:100AF0008093AA000BC01092AB001092AA008091C4
:100B0000AD00882319F081508093AD0080E00895F6
:100B100081E00895813C29F460E070E088EE95E082
:100B20000DC0823C29F460E070E080EB93E006C0E9
:100B3000833C31F460E070E081ED93E003DE14C0AB
:100B4000813B41F4CB016EE370E078D9892B61F4ED
:100B500087DF0AC0813E51F4CB016EE370E06ED9AD
:100B60006F5F60936E0063DC80E0089581E008951C
:100B7000CF93C091D00080E045DE83E067DB8C2F0F
:100B8000CF9140CE843011F58091EA009091EB0036
:100B90002AE08D38920729F469E170E083ED96E050
:100BA00013C0835D964061F49091D000923040F084
:100BB000892F869596959695890F24DE80E0089575
:100BC00060E070E088EE95E0BDDDF8CF81E008954B
:100BD0000F931F93CF938B01883079F480E012DE5E
:100BE00080917D00837007DD1092AD00012B19F418
:100BF00081E08093D100C0E0D1C0813051F46931EF
:100C00007105C8F38093D10080917D008370F3DC7F
:100C1000F2CF833039F52091B300222379F080910F
:100C2000B20090E062EC71E0D3D80817190730F0F9
:100C300020937C008091A60080937E0080917D00AF
:100C40008370833011F4802F05DD80916C009091CA
:100C50006D00009781F262EC71E0BAD880179107BD
:100C600050F64DC0813B99F481E090E063DBCADD32
:100C70008091AF008111BFCF80917B00811104C0B2
:100C80000831110508F4B7CF61E070E028C0813E5B
:100C9000D9F3813821F480917C0090E013C0813C2D
:100CA00021F46091D00070E01AC0823B79F4809109
:100CB0007A009091B10091118091B000811104C02F
:100CC00086E990E037DB05C086E903C0823E19F46F
:100CD00080E098DD90CF823C29F466E970E083EDF6
:100CE00096E008C08339A1F3833C31F460E070E002
:100CF00081ED93E027DD7FCF843C31F4B1DE60E00D
:100D000070E08BE698E0F6CF8F3C29F460E070E06D
:100D10008BE092E0EFCFC091B1008A3B71F4672B7A
:100D200061F4CC2329F09CDE1092B10080DB63CF0C
:100D300060E070E087E598E02EC0C1112EC08A3CCB
:100D400029F48EDE81E08093B1001BC0833B29F43F
:100D500060E070E08DE89AE006C0853B31F460E029
:100D600070E08CEE9BE0EEDC19C0873C61F4909162
:100D70007D0081E0890F83709C7F982B90937D008C
:100D80003ADC55DB0BC0893B41F4012B31F460E0C8
:100D900070E08FE598E0BEDC01C0C1E08C2FCF9100
:100DA0001F910F910895AF92BF92CF92DF92EF9271
:100DB000FF920F931F93CF93DF93C82F8B01E09087
:100DC0007900F0907800B0907B00BB2019F0C090C3
:100DD000AE0002C0CC24C39480917A00D091B100BF
:100DE000D1118091B000882349F0813021F08091A9
:100DF0007C008F1518F086E9D82E01C0DF2CA0905A
:100E0000AD00B8018C2F3ADE6091AD00662339F059
:100E1000A1100CC08091D0008093A10007C0AA202F
:100E200029F060E070E088EE95E039C08C2F8D7F6E
:100E30008830D9F41092A900CA3019F400917C00CE
:100E400010E08E2D90E08017910738F48F2D90E000
:100E50000817190710F400937C00C8016BDAD2DC84
:100E600081E080936600D0E0D0C0C13CD1F2C23CAA
:100E700071F48091D0008D1510F48D2D02C08091F9
:100E80007C00C0DC8091D0008093A100ECCFC43CFA
:100E900041F480E0B7DC60E070E08BE698E052DC83
:100EA000E2CF8FE48C0F823008F053C0BB2039F0C2
:100EB000C80168E170E0C2D7892B31F0D4CF6091CE
:100EC0006F0070E0C801F7CF2091D0000115110527
:100ED00061F4C23B11F48FEF05C02F15E0F7E21665
:100EE000F8F081E0809366001BC0E0916F00F0E0B5
:100EF000CF0166E371E06CD78017910710F42F15CE
:100F000050F7CF016CE672E063D78017910740F489
:100F1000E21630F0A5DD60E070E08BE698E012DCD0
:100F2000D091D000809166006C2D70E0082E000CEE
:100F3000990B4ED78D0F911DFDD9C82F80937C0042
:100F4000D81729F0823811F0F81201C011DE8C2F69
:100F500098CF8FE18C0F823020F4809166008195CC
:100F600080CFC130C9F40932110511F4C093660075
:100F7000662309F478CF8091A10070E06150710977
:100F800090E026D76091AC0070E06CD7862F61119D
:100F900001C081E037DC67CFC33C71F481E0B11060
:100FA00080E080937B0043DAE3DD8091D00090E025
:100FB000C1D980937C0065CFD11126C0C53C41F4D6
:100FC00080E020DC60E070E08CEE9BE0BBDB1DC0CD
:100FD000C73B29F460E070E083E598E013C0CA3CA9
:100FE00059F48091D0008093B30080917E0080936B
:100FF000A6001DDA35DD09C0CA3B31F460E070E0BF
:101000008BE598E087DB01C0D1E08D2FDF91CF9198
:101010001F910F91FF90EF90DF90CF90BF90AF9016
:101020000895883061F41092A00080E0EBDB80919D
:10103000D200811136C081E08093A00022C0982F99
:10104000907F903BB1F42091A000421778F0CB0143
:101050006DE570E0F3D6029739F42F5F2093A0007E
:101060004217F8F088E303C082E101C080E0CADBE8
:1010700018C0903E61F48091A000882389F0481741
:1010800078F060E070E080EF94E044DB0AC08A30E2
:1010900041F46091A4008091A000F9010995C7D99D
:1010A00010DB80E008952AE531E043E0BACF2AE57D
:1010B00031E044E0B6CF27E033E044E0B2CF2BE1AB
:1010C00033E041E0AECF2DE032E041E0AACF21E1B4
:1010D00032E041E0A6CF0F931F93CF93DF93D82F39
:1010E0008B0180798039B1F4209175009091760060
:1010F0008D2F8F70823041F48091B300811108C030
:10110000822F291728F403C0822F921708F4892F01
:1011100079DB1BC0803819F480E074DB08C0D8305C
:1011200031F480917D008695869565DA41C0D13095
:1011300061F40931110508F45AC0D093D1008091AF
:101140007D008695869557DA52C0D33049F4809158
:101150007D008C708C3009F04AC0802F7BDA47C04C
:10116000D33C31F47DDC60E070E088EE95E00AC0AD
:10117000D43C89F4C091B300CC2331F06C2F70E0E3
:1011800083ED96E0DFDA33C060917C0070E083EDA0
:1011900096E0D8DA2FC0D43B31F4EADC10922B0170
:1011A00061E070E0EDCFD53C19F466E970E0E8CF7E
:1011B000C091B100C1111DC0DA3B31F460E070E0B4
:1011C00087E698E0A7DA16C0D73C99F490917D00A5
:1011D000892F869586958F5F8370282F220F220F87
:1011E0009370920F90937D0006DA21D903C0C0E07E
:1011F00001C0C1E08C2FDF91CF911F910F91089515
:10120000CF93833B09F052C08091A700882381F0DF
:10121000672B09F065C080917E008E3F19F081E058
:1012200080937E0080917E00809580937E0053C0E5
:10123000672B29F481E080939E0010929D0080919D
:101240009E00882309F44DC09091650080917E0036
:10125000191624F48E3F48F48F5F05C0992329F0B6
:10126000823018F0815080937E00C0919D00909153
:101270007E00C03449F481E480939D0081E0892799
:1012800080937E0075DC0DC080919C00891309C09D
:10129000C11102C06DDC02C0CF3F19F0CF5FC09317
:1012A0009D0080917E0080939C0015C0833EC1F418
:1012B00010929E00809165008195809365008091D9
:1012C0007E00823010F481E003C08E3F18F08FEF73
:1012D00080936500ACD88091D00094DA80E001C0A2
:1012E00081E0CF9108950F931F93CF931092D40074
:1012F0008091290190912A019C012F5F3F4F8827FF
:101300009078822B932B90932A0180932901C0918E
:10131000D200B2D7C81729F11092D1008093D20021
:1013200090912B01882359F0892F80699F709F30FD
:1013300009F08F5F80932B0180E090E00DC0892F32
:101340008F7E95FD02C0806801C0806C80932B0168
:101350008091290190912A016BD710922A01109255
:1013600029010091290110912A018091D10088233F
:1013700079F0B80183E00CD724D70F731127012B24
:1013800009F044C01092A20033DA87EE86B92EC06D
:10139000C0912B018C2F807F803B19F460E070E0BE
:1013A00001C0B80181E0F4D6C4FF12C0C5FF02C07D
:1013B000C8010CC008311105C8F010922A01109222
:1013C0002901C062C0932B0180E090E031D70EC0AC
:1013D000CC2361F0C5FD09C00231110538F0C064AD
:1013E000C0932B0180E090E023D726D78091A20004
:1013F000811106C086B1886486B981E08093ED00D2
:101400008091A2008F5F8F718093A200CF911F9176
:101410000F9108958091F80081118ED88091D400A9
:10142000811161CF0895CF92DF92EF92FF920F93D7
:101430001F93CF93DF93EC0110E800E088E0E82EE3
:1014400087E0F82E92ECC92EDD24D394209709F181
:101450008091B40081111FC08091D000853040F48C
:1014600082E00FB6F89416BD86BD0FBEC60106C059
:101470000FB6F89416BD06BD0FBEC7010197F1F770
:101480000FB6F89416BD06BD0FBEC4DF9AD62197DD
:10149000DDCF81E001C080E0DF91CF911F910F91FE
:1014A000FF90EF90DF90CF900895CF93C82F8823BF
:1014B00081F089E1A7D987EB90E0B5DF80E0A2D980
:1014C00083E191E0B0DFC150A1F78DED92E0CF91C3
:1014D000AACF89E197D986E490E0A5DF80E092D990
:1014E00083E191E0A0DFF1CFCF93DF93D82FC3E06A
:1014F00080917C0087D988EC90E095DFDD2319F09E
:1015000080E991E090DF80E07DD988EC90E08BDF8E
:10151000C15071F7DF91CF910895DF92EF92FF9262
:101520000F931F93CF93DF93D82F8B01C0916B0044
:1015300081E08093A900C33009F0D3C0F090AD00E2
:101540008D2F9CDAFF2051F08091AD00811106C0F3
:1015500060E070E088EE95E0F5D8C3C0D83021F4A3
:1015600081E080936300BFC0D23C19F41092AD00BB
:10157000C8C0D13BC1F490916200012B49F49F3562
:1015800010F08FEF03C0923018F481E08093630075
:1015900080916300890F11F481E013C1803608F453
:1015A00010C18FE50EC1D13E31F480916300819569
:1015B00080936300CFC0D23B61F481E080936300ED
:1015C00080916200823008F4CDC081508093620027
:1015D000C9C0D13009F099C00932110511F4D09376
:1015E0006300D0909B008D2D880FD7FC809590E0F4
:1015F0006CE070E0EDD3292FE0909A008E2D880FDB
:10160000E7FC8095D09161006D2F70E090E0E0D311
:10161000290FF09099008F2D880FF7FC8095C091CD
:1016200060006C2F70E090E0D3D3920F6091620065
:1016300070E0690F711D8091AD00813091F480914F
:10164000AA009091AB0025E0969587952A95E1F741
:1016500024E730E0A901481B590BCA01B9D3B901ED
:10166000EDD3862FCFD800FD05C00FD68170D80EE0
:10167000D0929B0080919800E80EE0929A0005D6E7
:1016800065E2D0D3F90EF0929900FFD58F7329F45B
:10169000FCD56DE0C7D390939800DD2331F0F5D5EC
:1016A0008F7319F4D150D0936100EFD5811107C029
:1016B000ECD562E1B7D39093610010929A00C330E9
:1016C00030F0E3D58F7119F4C150C0936000DDD5BF
:1016D0008F7709F06AC0D9D56AE0A4D390936000EF
:1016E00064C0D83021F481E0809364006CC0D13CA8
:1016F00031F460E070E088EE95E024D864C0D23C1C
:1017000031F4EC2FF0E0319607C0D13C91F3D33C9B
:1017100041F4EC2FF0E03396E370FF27E0936B0089
:1017200034C0D13BA9F4C23008F04DC000FD4BC01D
:10173000EC2FF0E0E759FF4F808190916400891B06
:10174000883020F08F3FE9F48EEF1BC088E019C08D
:10175000D13E31F48091640081958093640015C07E
:10176000D23B89F481E080936400C23060F500FDD3
:101770002AC0EC2FF0E0E759FF4F80818F3F19F12D
:101780008F5F808320C0D23E11F451D61CC0D53C5F
:1017900041F460E070E08CEE9BE0D4D780E032D87A
:1017A00012C0D13011F081E00FC00932110519F4D7
:1017B00081E0809364008091CF00080F0093CF00F8
:1017C00002C08093620080E0DF91CF911F910F9162
:1017D000FF90EF90DF9008950F931F93CF93DF93C7
:1017E000D82F8B01883031F48091A900813011F419
:1017F00088E093DE8D2F8079803959F481E08093E1
:10180000A800C091A900C1110AC080917C00FAD73C
:1018100021C0803831F41092A80080E0F3D7C0E0F6
:1018200019C0D130B1F4C091A800CC2351F08091FF
:10183000A9008130A1F7B801DF91CF911F910F91DD
:101840006CCE0733114058F3D093D10080E0D3D64B
:1018500001C0C1E08C2FDF91CF911F910F910895AE
:101860001F920F920FB60F9211242F933F938F93D5
:101870009F93AF93BF93EF93FF938091F7008823DB
:10188000E9F0E091F60024B135B1F0E0EE0FFF1F72
:10189000DF01AE50BF4F2D933C93E251FF4F80814B
:1018A00091818217930708F401962817390708F4E5
:1018B00001979183808381E08093F80081E0809399
:1018C000F700FF91EF91BF91AF919F918F913F9161
:1018D0002F910F900FBE0F901F9018951F920F928F
:1018E0000FB60F9211248F9381E08093D4008F91D3
:1018F0000F900FBE0F901F9018951F920F920FB66A
:101900000F9211248F9381E08093D3008F910F90D9
:101910000FBE0F901F901895F89484B7877F84BFEF
:101920000FB6F894A89581B5886181BD11BC0FBE32
:10193000B89A81E083BF81EA8ABDB99A88E088BB02
:1019400085BB8BB780628BBFA89581B5886181BD4F
:1019500080E481BD4DD787EE86B9789481E076D456
:1019600060E070E082EC95E0D5D61092B40078D8B3
:1019700083D4811108C0F89480E091E0A8D2853A20
:1019800039F178949FC0C0E08C2F3CD783E190E080
:101990004ADD8C2F869536D783E190E044DD6CD408
:1019A000882369F0CF5FC03479F741D5C6E98C2F21
:1019B00029D784E090E037DDC150C9F7DCCFCC23D4
:1019C000D1F28C2F1FD78DE090E02DDDC150F7CFE5
:1019D00005EB10E0C1E0D1E0CE0179D2F8018193AE
:1019E0008F012196CB31F1E0DF07B1F77894809138
:1019F000B50080937B008091B60080937500809144
:101A0000B700809372008091B80080936F0080913E
:101A1000B900809376008091BA0080937300809122
:101A2000BB00809370008091BC0080937700809110
:101A3000BD00809374008091BE00809371008091FE
:101A4000BF008093B1008091C0008093B00080916E
:101A5000C1008093AF008091C20080937A00809192
:101A6000C3008093B3008091C4008093B200809142
:101A7000C5008093A6008091C60080937E0080916F
:101A8000C7008093A7008091C80080936B0080916D
:101A9000C900809369008091CA0080936A00809198
:101AA000CB0080936E008091CC0080937F0080916A
:101AB000CD0080937D008091CE0090E090936D00EA
:101AC00080936C008091B300811180937C0060E072
:101AD00070E080E099E01ED661E070E088EE95E06D
:101AE00019D643E4242E52E0352E67EE462E70E4DC
:101AF000872E99249394ECEFAE2EE3E0BE2EF7E010
:101B00005F2EA8EECA2EA5E0DA2E5BD38091D70017
:101B10009091D800009749F06091D5007091D6005F
:101B200011D61092D8001092D7008091D10088234E
:101B300009F444C080E066D6A89581B5886181BD6E
:101B400021BC379899D38111FDCF76D38BB78062B2
:101B50008BBF1092F8001092D4001092D3008091A5
:101B6000D1008823F9F085B7877E806185BF85B76E
:101B7000806285BF889585B78F7D85BF8091D300B2
:101B800081111092D1008091F800882329F0909261
:101B900080009092ED00D0D48091D4008823F9F297
:101BA000A2DBDDCF309280008BB78F7D8BBF20D63C
:101BB00046B8A89581B5886181BD81BC2BDC1092A7
:101BC000B4008091EA009091EB0022E08B30920704
:101BD00079F4CEE1D0E0FE018491805366DC8CE2A2
:101BE00091E021DC2196F0E0CA32DF07A1F7ADC019
:101BF0002AE08D38920779F0EBE08C3E9E0709F0E1
:101C00008AC08091A900813009F0D4C08091A800D9
:101C1000882309F4CFC0C0916B00C23018F0C230E5
:101C2000E1F073CFEC2FF0E0E759FF4FD08186E968
:101C3000E9D5C11109C0DA3220F4C5010197F1F7E5
:101C400007C081E090E003C08D2F869590E0EBDB2C
:101C500080E0D8D58D2F90E0ABC017D38F73E82EDE
:101C6000F12C13D3652DDED001E010E0380102C065
:101C7000660C771C9A95E2F708D365E0D3D0E801AB
:101C800002C0CC0FDD1F9A95E2F76C0E7D1EFDD2CF
:101C900090E0B301E7D0E301C80FD91FC739D105E0
:101CA00014F0C6E9D0E08C2FADD5C701BCDB8E01A6
:101CB00033E0159507953A95E1F7011101C001E070
:101CC00010E0C701B0DBC01BD10BD7FF02C0C0E0E2
:101CD000D0E08C2F97D5D9D2837031F4C701A3DB24
:101CE000CE01959587958ED5C230D10554F7CDD2CA
:101CF0006DE098D0C1E0D0E002C0CC0FDD1F9A9516
:101D0000E2F7C3D290E0BE0199D0C80FD91F80E09E
:101D100079D5CE014DC0F3E0813D9F0711F580914B
:101D2000EC0064E67FD0282F892F6AE07BD0EC019D
:101D3000222309F44AC0822FB8DB8C2FB6DB8D2F0B
:101D4000B4DB8091B100882349F0D092D800C092D2
:101D5000D7001092D6001092D500D7CE88EE93E02F
:101D600027C025E08A389207A9F48091D20081111A
:101D7000CCCE80917C0046D584E690E054DB80E0B8
:101D800041D580916E0090E068EE73E021D08456DA
:101D900091090EC0805B934069F48091A500811188
:101DA00005C0A2DB81E0A0DB80E09EDB80ED97E058
:101DB0003ADBABCE85B7877E85BF85B7806285BFAE
:101DC000889585B78F7D85BFA0CEC111B6CFB7CF1F
:101DD0000024552704C0080E591F880F991F00972B
:101DE00029F076956795B8F37105B9F7802D952F91
:101DF0000895EE27FF27AA27BB2708C0A20FB31F0D
:101E0000E41FF51F220F331F441F551F969587951A
:101E10007795679598F37040A9F7009799F7BD01FA
:101E2000CF010895991B79E004C0991F961708F017
:101E3000961B881F7A95C9F780950895AA1BBB1B2E
:101E400051E107C0AA1FBB1FA617B70710F0A61BBA
:101E5000B70B881F991F5A95A9F780959095BC01DB
:101E6000CD01089597FB072E16F4009406D077FD58
:101E700008D0E4DF07FC05D03EF4909581959F4F94
:101E80000895709561957F4F0895A1E21A2EAA1BBF
:101E9000BB1BFD010DC0AA1FBB1FEE1FFF1FA2171A
:101EA000B307E407F50720F0A21BB30BE40BF50B17
:101EB000661F771F881F991F1A9469F760957095A0
:101EC000809590959B01AC01BD01CF010895E199EA
:101ED000FECF9FBB8EBBE09A99278DB30895262F26
:101EE000E199FECF9FBB8EBBE09A01970DB202161F
:101EF00039F01CBA2DBB0FB6F894E29AE19A0FBEE6
:061F00000895F894FFCFE4
:101F06000A1218010101010004294303D00202014B
:101F16000505828282010A0A82010101460E8007B6
:101F260002750072006F000001020100000000004F
:081F36000001000000000000A2
:00000001FF
