:10000000D7C00000F2C000000C94160FEEC0000034
:10001000ECC000000C94070FE8C00000E6C0000030
:10002000E4C00000E2C00000E0C00000DEC000004C
:10003000DCC00000DAC000000C94C90ED6C000007D
:10004000D4C00000D2C00000D0C00000CEC000006C
:10005000CCC00000CAC00000C8C00000C6C000007C
:10006000C4C00000C2C00000C0C00000BEC000008C
:100070003230323231303032303131340001050427
:100080001410111500000000000000000000000026
:100090000000000000000000000000000000000060
:1000A0000000000000000000000000000000000050
:1000B0000000000000000000000000000000000040
:1000C0000000000000000102030405060708090AF9
:1000D0000B0C0D0D0F10111213151617191A1B1CEE
:1000E0001E202122242627292A2C2E2F3133353772
:1000F000393B3D3F41434547494B4E505254575A77
:100100005C5E616366686C6E717477797D7F8286F0
:10011000888C8F9295999C9FA3A6010102020303EC
:10012000040405060708090A0C0D0E0F1113141616
:10013000181A1D1F2224272A2D3033373B3E4246F2
:100140004B4F54595D63686E73797F868C939AA187
:10015000A8B0B8C0C8D1D9E2ECF5FFFFFFFFFFFFA0
:10016000FFFFFFFFFFFFFFFFFFFFFFFFFFFFFFFF9F
:10017000FFFFFFFFFFFFFFFFFFFFFFFFFFFFFFFF8F
:10018000FFFFFFFFFFFFFFFFFFFFFFFFFFFFFFFF7F
:10019000FFFFFFFFFFFFFFFFFFFFFFFFFFFFFFFF6F
:1001A000FFFFFFFFFFFFFFFFFFFFFFFFFFFFFFFF5F
:1001B00011241FBECFEFD4E0DEBFCDBF11E0A0E021
:1001C000B1E0EAEEF3E202C005900D92A035B1076E
:1001D000D9F721E0A0E5B1E001C01D92AD3FB20723
:1001E000E1F70E94250F0C94F3110ACFF89498EDD3
:1001F0009FBD83BF78940895482F9B01EAECF1E0FE
:1002000080E090E05081552331F0019633968031A3
:100210009105C1F70AC063E070E00E949511FC01EE
:10022000E653FE4F40833283218308950F931F933B
:10023000CF93DF93D091CA01DD2351F10091CB011F
:100240001091CC01C091A701C150C7FD0DC0EC2F8A
:10025000EE0FFF0BE855FE4F0190F081E02DB80145
:100260008D2F09958111F0CFEAECF1E08381808335
:100270008481958192838183339681E0E73FF807FB
:10028000A9F71092F7011092F9011092F801D2CF5C
:10029000DF91CF911F910F910895BC018091FC01D6
:1002A000ABCF1092FC011092FB011092FA0181E099
:1002B00080937F0108950F931F93CF93C82F08EA6F
:1002C00017E0CC2349F082E091DFC8010197F1F7F4
:1002D00080E08CDFC150F5CFCF911F910F91089531
:1002E0008FB182FB882780F991E089278093A00154
:1002F0000895E0910601F09107013196FB70F460DA
:10030000F0930701E093060180919C018B5A809342
:100310009C01E49180919C018E0F08950F931F938F
:10032000CF93DF9300D01F92CDB7DEB7209123018A
:10033000309124014091250129833A834B83FE01AA
:10034000319640E050E090E061E070E0B1919A01B8
:10035000220F331F8C0102C0159507952A95E2F7ED
:100360009801237061F02130D1F4A0B39B0101C04A
:10037000220FBA95EAF7322F30953A2318C0A0B36E
:100380009B0101C0220FBA95EAF720953A2F32233C
:1003900030BB32B3322332BB31B323230EC0A0B300
:1003A0009B0101C0220FBA95EAF73A2F322B30BBDE
:1003B00032B3322B32BB31B3232B21BB4F5F5F4FA4
:1003C0004330510519F60F900F900F90DF91CF91A8
:1003D0001F910F910895CF93DF9300D000D000D0EC
:1003E000CDB7DEB7909179012091B8013091B90174
:1003F0002A5C394009F492E0843019F460937A0160
:1004000021C06623F9F0823019F427E9261B622FF8
:1004100026E0E6E2F1E0DE01119601900D922A95C8
:10042000E1F7E82FF0E03197EE0FFF1F21E030E019
:100430002C0F3D1FE20FF31F0190F081E02DE90F1B
:10044000F11D608326960FB6F894DEBF0FBECDBFB8
:10045000DF91CF910895BF92CF92DF92EF92FF92FA
:100460000F931F93CF93DF93EC0140917901E091BB
:100470007B01EE2311F082E001C0842F90E0DC01CB
:10048000AC5EBE4F2C9120931801DC01AF5EBE4FD5
:100490008C9180931701F0E0E25FFE4F3181622F73
:1004A00070E0442349F0313039F49B01280F311DAD
:1004B000C9019595879538C0C617D707A4F1682F4D
:1004C00070E06C177D0784F1411102C08C2F2CC0A5
:1004D000821B032F10E001501109E82EF12CC701F7
:1004E000B8010E94C611609377016695E62FF0E08F
:1004F000822FC12CD12CB12CB316B1F0C601B8019A
:100500000E94B211822F860FCE0CDF1CAE01481B59
:10051000510957FF03C0519541955109E417F5075B
:100520001CF4B394E9CF822FDF91CF911F910F91EB
:10053000FF90EF90DF90CF90BF90089581E00895F5
:100540006111609321010895662389F0813061F47F
:100550008091BB019091BA01891B681B6093BA011D
:1005600082E08093220103C0635E6093200180914A
:100570002001873418F086E480932001089570E00C
:1005800070930C0160930B0108950F931F93CF9309
:10059000DF93809179018093800180911401809391
:1005A0008101809111018093820180910E018093DD
:1005B00083018091150180938401809112018093C1
:1005C000850180910F0180938601809116018093AF
:1005D000870180911301809388018091100180939D
:1005E000890180917B0180938A0180917A018093B7
:1005F0008B018091780180938C0180911901809307
:100600008D0180917D0180938E0180917C0180938A
:100610008F0180910A01809390018091080180935D
:100620009101809109018093920180910D01809345
:10063000930180912001809394018091BA0180936D
:100640009501809121018093960180911D018093F5
:10065000970180911C018093980180911F018093E4
:10066000990180911E0180939A0180910B018093E2
:100670009B01F89400E811E0C1E8D0E0F801619135
:100680008F01CE010E94E1112196CD39D105B1F73C
:1006900065EA80E890E00E94E1117894DF91CF91C3
:1006A0001F910F910895819A919A899A08958823AC
:1006B00031F0813041F48198919A899A0895819816
:1006C000919889980895EFCFCF93C82F80939E017A
:1006D00080939D0180919F0181110AC01FDE2C2F04
:1006E00030E081E0253131050CF480E08F5FDFDF01
:1006F000C11109C010926D0010926C0010926B0035
:1007000010926A0017C08FEF8C0F90E0FC01E65E3C
:10071000FE4FE491F0E0F0936D00E0936C00FC017B
:10072000EC57FF4FE491F0E0F0936B00E0936A0028
:10073000C63010F482E005C0CE3010F481E001C074
:1007400080E0CF9153CD80937E01BECFCF93C091F7
:100750009E0189E18C0F873908F080E0B5DF82E0E7
:10076000AADD8C2FCF91B0CFCF93C0919E0180E0B6
:10077000ABDF83E0A0DD8C2FCF91A6CF0F931F932B
:10078000CF93E82F8091BD019FEF980F9C3120F40B
:1007900080E0C4DD80E07AC0CE2FC295CF70EF70CC
:1007A00090919F01911103C0C33008F0C2E0E7307F
:1007B00008F441C0E730A9F40091550110E00F5F43
:1007C0001F4F97DD65E00E94A6119801290F311D8A
:1007D000C90166E070E00E94C61180935501FC01DA
:1007E00035C0E830B1F480919F01882311F08FEF7C
:1007F00001C083E0682351F48091550190E0019697
:1008000066E070E00E94C61180935501E0915501A9
:1008100012C090919F01992381F08D31D8F090E022
:10082000E92FF0E0E15CFE4F2081821710F09E5F1F
:10083000F7CF3197E081F0E009C0862F869563E01D
:100840000E94A611E92FF0E0EE0FFF1FE358FF4FC3
:10085000E49101C0E0E0C33071F48091540190E074
:10086000019663E170E00E94B21180935401DC01B3
:10087000A45DBE4FCC91CC2321F0C13019F0EE0F16
:1008800001C0E0E08E2F4ADD80911B01CF911F91C6
:100890000F910DCF813019F410927D0108958230AF
:1008A00019F460937C010895833019F46093780102
:1008B0000895843011F4609319010895883039F453
:1008C00010927601109274011092730140C0813B26
:1008D00059F48091760181508330D8F583E080937C
:1008E00076018093750135C0853BB1F4CB016EE391
:1008F00070E00E94B211892B51F580917601853FFD
:1009000030F5865F809376018093750110927401B3
:10091000109273011BDF1BC08130D9F480917301E9
:1009200090917401019688382EE0920728F49093F4
:100930007401809373010BC01092740110927301C3
:1009400080917601882319F081508093760180E0B0
:10095000089581E00895FF920F931F93CF93DF9343
:100960008C01EB01F42E8091B8019091B901892B93
:1009700031F0E091B801F091B90189E00995109347
:10098000B9010093B801012B39F0E091B801F09161
:10099000B901BE018F2D099581E080937F01DF9120
:1009A000CF911F910F91FF900895CF93DF93E09126
:1009B000A701EE2359F0E150E093A701F0E0EE0F1C
:1009C000FF1FE855FE4FC081D18102C0C0E0D0E0DA
:1009D000E091A701EE2341F0F0E0EE0FFF1FEA5592
:1009E000FE4F8081918102C080E090E04AE060E0AB
:1009F00070E0B1DFCE01DF91CF910895883029F406
:100A000010926F011092560116C0813001F590913D
:100A10005601911107C06032710570F18093560143
:100A200040DC2AC0913089F4673381E0780728F0F0
:100A300082E08093560180E01EC061157105E1F0EF
:100A40006270862F880F8E5E16C0AFDF15C08138AA
:100A500011F0813E89F491E090935601813E21F49A
:100A600080916F01865F03C080916F018F5F8093DB
:100A70006F0117DC8BE428DE80E008959C019091E3
:100A8000A701983088F4E92FF0E0EE0FFF1FE8553A
:100A9000FE4F318320839F5F9093A70148E0C901F7
:100AA0005ADF8091A70108958FEF08950F931F9348
:100AB000CF93DF93EC018B0178DFB801CE01DF919A
:100AC000CF911F910F91DACF813C39F410927001D0
:100AD00060E070E083E296E00DC0823C29F460E0C3
:100AE00070E08BED95E006C0833C31F460E070E08F
:100AF0008BEA95E0DBDF05C08A3C29F481E0809336
:100B0000700180E0089581E00895843011F58091AE
:100B1000B8019091B9012DE08031920729F469E183
:100B200070E086E397E013C08653974061F490919C
:100B30009E01923040F0892F869596959695890F63
:100B400002DE80E0089560E070E083E296E0AEDFD0
:100B5000F8CF81E00895813C29F460E070E083E201
:100B600096E00DC0823C29F460E070E084E695E0F8
:100B700006C0833C31F460E070E082E096E096DFEE
:100B800016C0813B49F4CB016EE370E00E94B211C4
:100B9000892B69F4DBDD0BC0813E59F4CB016EE398
:100BA00070E00E94B2116F5F60930D01EEDC80E097
:100BB000089581E00895CF93C0917B01C1111EC0BB
:100BC000813C29F460E070E083E296E006C0823C5C
:100BD00031F460E070E082E096E068DF10C0833CB2
:100BE00029F460E070E084E695E0F7CF873B31F4CC
:100BF00060E070E082ED99E041DF01C0C1E08C2F40
:100C0000CF910895813C29F460E070E083E296E0A2
:100C10000DC0823C29F460E070E08BEA95E006C0EC
:100C2000833C31F460E070E08BED95E03FDF07C07E
:100C3000873B39F460E070E086ED99E01FDF80E0EB
:100C4000089581E008950F931F93CF938B0188300F
:100C5000A1F480E039DD60E080911F018FDD80919B
:100C60001D0180931B0123DD10927601012B19F4E5
:100C700081E080939F01C0E0F4C0813049F4693184
:100C80007105C8F380939F0180911F0177DDF3CF39
:100C9000833031F520917D01222361F080917C0128
:100CA00090E062EC71E00E9495110817190710F0AE
:100CB00020931A01602F80911F0160DD80910B014C
:100CC00090910C010097B9F262EC71E00E949511CD
:100CD0008017910780F660E070E08EED99E03FC0EC
:100CE000813B99F481E090E0B6DBEEDC8091780105
:100CF0008111C1CF80917901811104C008311105A2
:100D000008F4B9CF61E070E028C0813ED9F38138A2
:100D100021F480911A0190E013C0813C21F460918C
:100D20009E0170E01AC0823B79F480911901909184
:100D30007B01911180917A01811104C086E990E0D4
:100D40008ADB05C086E903C0823E19F480E0BCDC82
:100D500092CF823C31F466E970E086E397E0A6DE4C
:100D60008ACF833999F3833C29F460E070E08BEDFE
:100D700095E0F5CF843C09F4AECF8F3C29F460E0D8
:100D800070E08EE992E0EBCFC0917B018A3B79F471
:100D9000672B69F4CC2329F0D9DC10927B01F5DBB9
:100DA0006ACF60E070E08AEC99E068DE5AC0C11159
:100DB00057C08A3C29F4CADC81E080937B014EC095
:100DC000833B29F460E070E080E19DE006C0853B54
:100DD00031F460E070E08FE79EE068DE42C0863C60
:100DE00071F480911D0190E0019663E070E00E9433
:100DF000C61180931D0180931B0159DC2FC0873CD5
:100E000091F490911F01892F82958F708F5F83706D
:100E10008295807F9F70892B80931F0160E0AEDCFC
:100E2000B4DB94DC1EC0873BB9F4C8018F739927EB
:100E3000892B69F490911F01892F8F708F5F292F63
:100E4000207F6BE00E94A611922B90931F01602FD0
:100E500080911F0193DC05C0873E11F496DB01C031
:100E6000C1E08C2FCF911F910F9108959F92AF9267
:100E7000BF92CF92DF92EF92FF920F931F93CF9387
:100E8000DF93182FEB01D0901801F0901701A0907C
:100E90007901AA2019F0B090770102C0BB24B39465
:100EA000C090190100917B010111C0907A01CC2002
:100EB00051F081E0C81621F080911A018F1518F0C9
:100EC000F6E9EF2E01C0EF2C90907601BE01812F44
:100ED000F5DC60917601662339F091100CC08091A9
:100EE0009E0180935A0107C0992029F060E070E0CC
:100EF00083E296E039C0812F8D7F8830D9F410923B
:100F000072011A3019F4C0911A01D0E08D2D90E0D1
:100F10008C179D0738F48F2D90E0C817D90710F46F
:100F2000C0931A01CE0197DA0EDC81E080930501AF
:100F300000E0DCC1113CD1F2123C71F480919E01C1
:100F40008E1510F48E2D02C080911A01FCDB809169
:100F50009E0180935A01ECCF143C41F480E0B4DB55
:100F600060E070E08EED99E0A1DDE2CF8FE4810FCB
:100F7000823008F058C0AA2041F0CE0168E170E04C
:100F80000E94B211892B31F0D3CF60910E0170E035
:100F9000CE01F6CF20919E01209761F4123B11F40F
:100FA0008FEF05C02F15E0F7D21608F181E080938E
:100FB00005011DC0E0910E01F0E0CF0166E371E094
:100FC0000E9495118C179D0710F42F1548F7CF013B
:100FD0006CE672E00E9495118C179D0740F4D216C2
:100FE00030F0B4DB60E070E08EED99E05FDDD09131
:100FF0009E01809105016B2D70E0082E000C990B6D
:101000000E9495118D0F911D26DAC82F80931A0129
:10101000D81739F0813421F0F81611F0D81201C038
:10102000A3DB8C2F93CF8FE1810F823020F480914E
:10103000050181957BCF113009F0CCC0A99711F43F
:10104000109305016623A1F080915A0170E0615070
:10105000710990E00E9495116091750170E00E9405
:10106000C611611101C061E060939D0160937E0132
:10107000C0919D0130919E018C2F90E0831B9109BE
:1010800060915801709159016F5F7F4F70935901C2
:1010900060935801009709F44BCF97FF05C03A368B
:1010A00030F040E450E005C040E052E002C040E0D3
:1010B00051E05695479597FD019695958795009730
:1010C000C1F74617570708F033CFC31710F48FEF57
:1010D00003C03C1718F481E0830F01C08C2F9FEFF1
:1010E000980FA92FB0E0AD01465E5E4FFA01649102
:1010F000931778F420916C0030916D00232B49F404
:101100006F3F39F42FEF30E030936D0020936C0087
:1011100020C020916C0030916D0070E026173707D9
:1011200038F460916C0070916D006F5F7F4F0DC05F
:1011300020916C0030916D006217730750F460913C
:101140006C0070916D006150710970936D00609337
:101150006C009D012C573F4FF9016491E0916A00AA
:10116000F0916B0070E0E617F70738F460916A00C1
:1011700070916B006F5F7F4F0DC0E0916A00F0913E
:101180006B006E177F0750F460916A0070916B00DE
:101190006150710970936B0060936A0060916C00FC
:1011A00070916D00FA01449150E06417750769F47D
:1011B00040916A0050916B00F901249130E0421790
:1011C000530719F481DAC0939D01109259011092CE
:1011D0005801AECE1530A9F480919E01823408F4F6
:1011E000A7CE90E08C1B9D0B282F813491052CF00D
:1011F0008739910518F026E901C021E420939D016B
:1012000097CE1630B9F490919E0180917E01981787
:1012100008F08ECEC90FD11D90E08C179D0734F0D9
:10122000C134D10524F4C1E4D0E001C0EC01C09385
:101230009D017ECE173079F490919D0180919E01A1
:10124000891710F48F5F04C0981708F071CE815091
:1012500080939D016DCE011148C0133C99F481E04B
:10126000A11080E08093790190D97EDA80919E016F
:1012700090E0F1D880931A0166DA80919E01809304
:101280005A0134C0133B49F4CD2B09F051CECC2088
:1012900011F086E9E82E8E2D04C0133E21F48091D2
:1012A0001A0151DA23C0153C41F480E00DDA60E008
:1012B00070E08FE79EE0FADB19C0173B29F460E08D
:1012C00070E086EC99E00FC01A3C39F480919E01E1
:1012D00080937D015AD93ADA09C01A3B31F460E0B3
:1012E00070E08EEC99E0CADB01C001E0802FDF9155
:1012F000CF911F910F91FF90EF90DF90CF90BF9013
:10130000AF909F900895883061F41092570180E06B
:10131000DBD98091A001811137C081E08093570112
:1013200023C0982F907F903BB9F42091570142172A
:1013300080F0CB016DE570E00E94B211029739F4A4
:101340002F5F209357014217F8F088E303C082E132
:1013500001C080E0B9D918C0903E61F48091570176
:10136000882389F0481778F060E070E08EEF94E011
:1013700085DB0AC08A3041F460916F01809157018A
:10138000F901099502D911DB80E008952BEE31E0D7
:1013900043E0B9CF2BEE31E044E0B5CF2AE434E0AE
:1013A00044E0B1CF20EA32E041E0ADCF24EA32E0C0
:1013B00042E0A9CF2FEB32E041E0A5CF0F931F937E
:1013C000CF93DF93D82F8B01873B19F480E07CD932
:1013D00060C080798039B1F4209114019091150199
:1013E0008D2F8F70823041F480917D01811108C072
:1013F000822F291728F403C0822F921708F4892F0F
:1014000063D910C0803811F480E05ED9D83051F42F
:1014100060E080911E01B2D980911C0180931B0174
:1014200046D937C0D13039F40931110508F47CC0F0
:10143000D0939F0102C0D33029F4602F80911E0108
:101440009DD972C0D33C29F460E070E083E296E05D
:101450001EC0D43C71F4C0917D01CC2319F06C2FD7
:1014600070E013C060911A0170E086E397E01EDB24
:101470005EC0D43B31F478D91092FC0161E070E099
:1014800004C0D53C31F466E970E086E397E00EDBFA
:101490004BC0C0917B01C11149C0DA3B31F460E01F
:1014A00070E08AED99E0EADA42C0D63C69F48091B6
:1014B0001C0190E0019663E070E068D780931C0106
:1014C00080931B01F4D82EC0D73C91F490911E015B
:1014D000892F82958F708F5F83708295807F9F7038
:1014E000892B80931E0160E049D94FD82FD91FC0A6
:1014F000D73BB1F4C8018F739927892B61F4909180
:101500001E01892F8F708F5F292F207F6BE01ED7E0
:10151000922B90931E01602F80911E012FD907C03E
:10152000D73E21F432D803C0C0E001C0C1E08C2F07
:10153000DF91CF911F910F9108958DE084B91092A2
:10154000C7011092C80183B1886483B90895F5DF9B
:10155000139A87EE83B908951092C90120B191B111
:1015600030919C012295269526952370892F90E035
:10157000880F991F880F991F820F911D830F8093E9
:101580009C018091BE01882309F40DC11092BE0117
:101590008091C70190919F01992319F01F98109293
:1015A000C701811144C080912201882349F06091D4
:1015B000C3017091C4017093C0016093BF0104C066
:1015C0006091BF017091C001605F7F4FE6E076954A
:1015D0006795EA95E1F780E098E5C4D6809121010E
:1015E00090E00397680F791F769567956093BD012A
:1015F00080916E01882311F0815008C06D3140F454
:1016000060E070E084E00E94FC0085E080936E0161
:1016100080919F018111BEC08EE884B981E08093E2
:10162000C7011092C80183B1886483B9B3C0813007
:1016300009F0B0C080912201811143C08091C101A5
:101640009091C201409645E0969587954A95E1F7BD
:101650006091BA01AC0156954795062E000C770BA8
:101660009B012E503140240F351F3093BC01209335
:10167000BB0120915D01E22FF0E0EE0FFF1FE25A67
:10168000FE4F40815181DC01A41BB50BAD0191835C
:1016900080832F5F277020935D019D01220F331FF0
:1016A000220F331F820F931F2091200130E0261B51
:1016B000370B225F3E4F220F331F821B930B23E019
:1016C0001CC08091C5019091C6019093C201809386
:1016D000C101409635E0969587953A95E1F7EEE59C
:1016E000F1E081939193B1E0EE36FB07D1F7A6CFFD
:1016F000009709F00196215029F018161906C4F731
:101700000197F9CF18161906E4F457FD39C0209156
:101710005C0112160CF1880F991FBC01635071090E
:1017200077FF02C06F5F7F4F759567951616170696
:1017300014F061E070E088E1861B80935C0185E035
:1017400026C08C3F2FEF9207DCF457FF19C0209181
:101750005C0127FF05C02450281B20935C0119C0A1
:1017600024EE281B20935C012091BD012F3188F0CD
:101770006CEF7FEF681B790B7595679586E007C066
:101780008091BD018E3128F060E070E087E00E941A
:10179000FC00D3DE80912201882329F08091220170
:1017A00081508093220108950F931F93CF9310923D
:1017B000A2018091FA019091FB019C012F5F3F4FA4
:1017C00088279078822B932B9093FB018093FA01CA
:1017D000C091A0010E947001C81731F110929F01C1
:1017E0008093A0019091FC01882359F0892F806992
:1017F0009F709F3009F08F5F8093FC0180E090E044
:101800000DC0892F8F7E95FD02C0806801C0806C5D
:101810008093FC018091FA019091FB010E944D019F
:101820001092FB011092FA010091FA011091FB0154
:1018300080919F01882379F0B80183E00E94FC0029
:101840000E9416010F731127012B09F046C0109258
:101850005B017DDE32C0C091FC018C2F807F803B1C
:1018600019F460E070E001C0B80181E00E94FC0062
:10187000C4FF13C0C5FF02C0C8010CC00831110568
:10188000E0F01092FB011092FA01C062C093FC01DB
:1018900080E090E00E944D0110C0CC2371F0C5FDA6
:1018A0000AC00231110548F0C064C093FC0180E019
:1018B00090E00E944D010E94510180915B018111D5
:1018C00006C083B1886483B981E08093BE018091B2
:1018D0005B018F5F8F7180935B01CF911F910F919F
:1018E00008958091C901811137DE8091A201811193
:1018F0005BCF0895EF92FF920F931F93CF93DF93E7
:10190000EC0108E017E082ECE82EFF24F394209726
:10191000D9F080917F01811119C080919E0186309C
:1019200028F482E00E94F600C70104C080E00E9413
:10193000F600C8010197F1F780E00E94F600D1DFC0
:101940000E9416012197E3CF81E001C080E0DF9182
:10195000CF911F910F91FF90EF900895FF920F93F9
:101960001F93CF93DF93C82F882311F007EB02C09A
:1019700006E4C1E082E0F82E10E0D1E0F0921B0115
:1019800060E080911F010E94BE03C801B3DFD093C5
:101990001B0160E080911F010E94BE0383E191E082
:1019A000A9DF80911D0180931B01C15039F78DED96
:1019B00092E0DF91CF911F910F91FF909BCFCF933A
:1019C000DF9364E6C3D4282F892F6AE0BFD4EC01EB
:1019D000222341F0822FC2DF8C2FC0DF8D2FDF91B9
:1019E000CF91BCCFC111F8CFF9CFCF93DF93D82FD0
:1019F000C3E080911A010E94640388EC90E07ADFD2
:101A0000DD2319F080E991E075DF80E00E94640336
:101A100088EC90E06FDFC15061F7DF91CF910895BE
:101A2000DF92EF92FF920F931F93CF93DF93D82F04
:101A30008B01C0910A0181E080937201C33009F0EB
:101A4000DFC0F09076018D2F0E945E04FF2051F0E0
:101A500080917601811106C060E070E083E296E03B
:101A600025D8CEC0D83021F481E080930301CAC0CC
:101A7000D23C19F410927601D4C0D13BC1F49091BC
:101A80000201012B49F49E3610F08FEF03C0923013
:101A900018F481E08093030180910301890F11F410
:101AA00081E022C18F3608F41FC18EE61DC1D13EF0
:101AB00031F480910301819580930301DBC0D23B17
:101AC00061F481E08093030180910201823008F487
:101AD000D9C0815080930201D5C0D13009F0A5C092
:101AE0000932110511F4D0930301D09053018D2DCB
:101AF000880FD7FC809590E067E070E016D4292F1E
:101B0000E09052018E2D880FE7FC8095D091010165
:101B10006D2F70E090E009D4290FF09051018F2DC6
:101B2000880FF7FC8095C09100016C2F70E090E069
:101B3000FCD3920F6091020170E0690F711D8091DA
:101B40007601813091F4809173019091740125E0C8
:101B5000969587952A95E1F724E730E0A901481B7F
:101B6000590BCA01E2D3B901FDD3862F0E94640349
:101B700000FD06C00E9479018170D80ED0925301F9
:101B800080915001E80EE09252010E94790165E2D5
:101B9000DDD3F90EF09251010E9479018F7331F477
:101BA0000E9479016DE0D2D390935001DD2339F08A
:101BB0000E9479018F7319F4D150D09301010E94D2
:101BC0007901811108C00E9479016BE0BFD3909325
:101BD000010110925201C33038F00E9479018F71D7
:101BE00019F4C150C09300010E9479018F7709F068
:101BF0006FC00E94790166E0A9D39093000168C08C
:101C0000D83021F481E08093040170C0D13C39F4D4
:101C100060E070E083E296E00E94560567C0D23C27
:101C200031F4EC2FF0E0319607C0D13C89F3D33C7E
:101C300041F4EC2FF0E03396E370FF27E0930A01C4
:101C400034C0D13BA9F4C23008F050C000FD4EC0F2
:101C5000EC2FF0E0E85FFE4F808190910401891B3A
:101C6000883020F08F3FE9F48EEF1BC088E019C068
:101C7000D13E31F48091040181958093040115C017
:101C8000D23B89F481E080930401C23078F500FDF5
:101C90002DC0EC2FF0E0E85FFE4F80818F3F31F1E7
:101CA0008F5F808323C0D23E19F40E94C5021EC0FC
:101CB000D53C51F460E070E08FE79EE00E9456054D
:101CC00080E00E94640312C0D13011F081E00FC0A7
:101CD0000932110519F481E08093040180919C017F
:101CE000080F00939C0102C08093020180E0DF9105
:101CF000CF911F910F91FF90EF90DF9008950F9378
:101D00001F93CF93DF93D82F8B01883031F48091CC
:101D10007201813011F488E083DE8D2F8079803963
:101D200061F481E080937101C0917201C1110EC014
:101D300080911A010E94640326C0803849F41092F1
:101D4000710180E00E9464030E945303C0E01BC045
:101D5000D130C1F4C0917101CC2351F08091720156
:101D60008130A1F7B801DF91CF911F910F9158CE2B
:101D70000733114058F3D0939F0160E080E00E9448
:101D8000BE0301C0C1E08C2FDF91CF911F910F9155
:101D900008951F920F920FB60F9211242F933F9325
:101DA0008F939F93AF93BF93EF93FF938091C8015D
:101DB0008823E9F0E091C70120B131B1F0E0EE0FE6
:101DC000FF1FDF01AD53BE4F2D933C93E154FE4FF7
:101DD000808191818217930708F4019628173907AB
:101DE00008F401979183808381E08093C90181E0A9
:101DF0008093C801FF91EF91BF91AF919F918F9117
:101E00003F912F910F900FBE0F901F9018951F922A
:101E10000F920FB60F9211248F9381E08093A2014D
:101E20008F910F900FBE0F901F9018951F920F92D9
:101E30000FB60F9211248F9381E08093A1018F91AF
:101E40000F900FBE0F901F901895F89485B7877F5D
:101E500085BF88ED90E00FB6F894A8958FBD90B738
:101E6000977F90BF0FBE88E08CB98AE780BB81EA7C
:101E70008093720081E08093710084E082BB87BD13
:101E80008CB788608CBFA89580E480BF60DB7894B5
:101E900081E00E945B0160E070E085E895E00E94CF
:101EA0003E0510927F010E94A6030E9470018111DD
:101EB00008C0F89480E890E07CD2853A89F1789463
:101EC000B0C0C0E08C2F0E94640383E190E012DD7B
:101ED0008C2F86950E94640383E190E00BDD0E94C5
:101EE0007001882399F0CF5FC03461F765E181E02C
:101EF0000E94A4020E94C502C6E98C2F0E946403BE
:101F000084E090E0F7DCC150C1F7D3CFCC2389F255
:101F10008C2F0E9464038DE090E0ECDCC150F6CF82
:101F200000E811E0C1E8D0E0CE0143D2F80181938E
:101F30008F012196CD39D105B9F778948091800130
:101F400080937901809181018093140180918201B5
:101F5000809311018091830180930E01809184010F
:101F600080931501809185018093120180918601F3
:101F700080930F01809187018093160180918801E1
:101F800080931301809189018093100180918A01CF
:101F900080937B0180918B0180937A0180918C01E9
:101FA0008093780180918D018093190180918E0139
:101FB00080937D0180918F0180937C0180919001BD
:101FC00080930A0180919101809308018091920190
:101FD000809309018091930180930D018091940178
:101FE00080932001809195018093BA0180919601A0
:101FF000809321018091970180931D018091980128
:1020000080931C018091990180931F0180919A0116
:1020100080931E0180919B0190E090930C0180932E
:102020000B0180917D01811180931A0161E070E0C4
:1020300083E296E00E943E0543E4242E52E0352ED2
:1020400060E4462E992493947CEFA72E73E0B72E7C
:10205000E7E08E2EF5E05F2EA3E2CA2EA6E0DA2E90
:102060000E9416018091A5019091A601009751F060
:102070006091A3017091A4010E9456051092A601DF
:102080001092A50180919F01882309F440C080E04F
:102090000E946403A89520BE1F980E9470018111C0
:1020A000FCCF0E9451018CB788608CBF1092C9018F
:1020B0001092A2011092A10180919F018823F9F052
:1020C00086B78F79806486BF86B7806186BF889522
:1020D00086B78F7E86BF8091A101811110929F01EA
:1020E0008091C901882329F0909222019092BE012B
:1020F00033DA8091A2018823F9F256DBDDCF3092EA
:1021000022018CB7877F8CBF22DAA89540BEE9DB1D
:1021100010927F018091B8019091B901F2E08E395F
:102120009F0779F4C0E7D0E0FE018491805316DC6C
:102130008CE291E0DFDB2196F0E0CC37DF07A1F7FE
:10214000ABC02DE08031920779F0EEE08F379E072B
:1021500009F097C080917201813009F0DBC0809155
:102160007101882309F4D6C0C0910A01C23018F069
:10217000C230F1F075CFEC2FF0E0E85FFE4FD08178
:1021800086E90E946403C11109C0DA3220F4C50156
:102190000197F1F707C081E090E003C08D2F86958D
:1021A00090E0A8DB80E00E9464038D2F90E0B0C037
:1021B0000E9479018F73E82EF12C0E947901682D1D
:1021C000C5D001E010E0380102C0660C771C9A957A
:1021D000E2F70E947901652DB9D0E80102C0CC0F69
:1021E000DD1F9A95E2F76C0E7D1E0E94790190E04A
:1021F000B301CCD0E301C80FD91FC739D10514F002
:10220000C6E9D0E08C2F0E946403C70173DB8E0106
:1022100033E0159507953A95E1F7011101C001E00A
:1022200010E0C70167DBC01BD10BD7FF02C0C0E0C5
:10223000D0E08C2F0E9464030E947901837039F4EE
:10224000C70158DBCE01959587950E946403C23083
:10225000D1053CF70E9479016DE078D0C1E0D0E073
:1022600002C0CC0FDD1F9A95E2F70E94790190E041
:10227000BE0178D0C80FD91F80E00E946403CE0150
:1022800047C0F5E08B3D9F0781F48091BD0197DB4E
:1022900080917B01882381F0D092A601C092A50194
:1022A0001092A4011092A301DBCE26E082309207A7
:1022B00031F48091BB0183DB88EE93E029C0E5E037
:1022C0008B3A9E07B9F48091A0018111C9CE80910B
:1022D0001A010E94640384E690E00CDB80E00E9417
:1022E000640380910D0190E068EE73E01ED0845687
:1022F00091090EC08456954069F480917001811156
:1023000005C073DB81E071DB80E06FDB80ED97E07F
:10231000F1DAA6CE86B78F7986BF86B7806186BF91
:10232000889586B78F7E86BF9BCE0024552704C034
:10233000080E591F880F991F009729F07695679509
:10234000B8F37105B9F7802D952F0895991B79E0A1
:1023500004C0991F961708F0961B881F7A95C9F735
:1023600080950895AA1BBB1B51E107C0AA1FBB1F84
:10237000A617B70710F0A61BB70B881F991F5A9511
:10238000A9F780959095BC01CD01089597FB072E84
:1023900016F4009406D077FD08D0E4DF07FC05D0E2
:1023A0003EF4909581959F4F0895709561957F4F6C
:1023B0000895E199FECF1FBA8EBBE09A99278DB39D
:1023C0000895262FE199FECF1FBA8EBBE09A815067
:1023D0000DB2021639F01CBA2DBB0FB6F894E29A72
:0A23E000E19A0FBE0895F894FFCFB4
:1023EA00060B180101010004294303D00202010768
:1023FA000578785F010A0A7801014102010217276C
:10240A00320702050403140111010E010201000042
:10241A0000000000000100000000000000000100B0
:10242A0000210123022503270429052C06FF0600A3
:00000001FF
