:1000000003C200001EC200000C949C111AC2000022
:1000100018C200000C948D1114C2000012C200001E
:1000200010C200000EC200000CC200000AC2000094
:1000300008C2000006C200000C944F1102C200006A
:1000400000C20000FEC10000FCC10000FAC10000B7
:10005000F8C10000F6C10000F4C10000F2C10000C8
:10006000F0C10000EEC10000ECC10000EAC10000D8
:100070003230323231303032303133360001050423
:1000800014101115FF3FB2333526023679257A3424
:10009000F526F52E643289335E336332DC30F72E79
:1000A0007A31CE2E952F9E2C812CEF2B0A2BEB290B
:1000B0004A2AC2287D28C72627265D257424742352
:1000C0006622F521CB20A01FF81ECA1D0F1DE71BBD
:1000D000241B091AF9183B183A17441659154314EA
:1000E0003E13491263116310750F740E870D8D0C4A
:1000F000A70B9E0AAC09B708C207CE06DD05DD04D2
:10010000E503F402FF01FF01FF01FF01FF01FF0111
:10011000FF01FF01FF01FF01FF01FF01FF01FF01DF
:10012000FF01FF01FF01FF01FF01FF01FF01FF01CF
:10013000FF01FF01FF01FF01FF01FF01FF01FF01BF
:10014000FF01FF01FF01FF01FF01FF01FF01FF01AF
:10015000FF01FF01FF01FF01FF01FF01FF01FF019F
:10016000FF01FF01FF01FF01FF01FF01FF01FF018F
:10017000FF01FF01FF01FF01FF01FF01FF01FF017F
:10018000FF01FF01FF01FF01FF01FF01FF01FF016F
:10019000FF01FF01FF01FF01FF01FF01FF01FF015F
:1001A000FF01FF01FF01FF01FF01FF01FF01FF014F
:1001B000000000000000000000000000000000003F
:1001C000000000000000000000000000000000002F
:1001D000000000000000000000000000000000001F
:1001E000000000000000000000000000000000000F
:1001F00000000000000000000000000000000000FF
:1002000000000000000000000000000000000000EE
:1002100000000000000000000000000000000000DE
:1002200000000000000000000000000000000000CE
:1002300000000000000000000000000000000000BE
:1002400000000000000000000000000000000000AE
:10025000000000000000000000000000000000009E
:10026000000000000000000000000000000000008E
:10027000000000000000000000000000000000007E
:10028000000000000000000000000000000000006E
:10029000000000000000000000000000000000005E
:1002A000000000000000000000000000000000004E
:1002B000000000000000000000000000000000003E
:1002C000000000000000000005000E001B002D00D3
:1002D000440060008100A600D000FF000200020080
:1002E00002000300030004000400050006000700EC
:1002F000080009000A000B000D000E00100011009C
:1003000013001500170019001C001E002100230017
:10031000260029002C002F003200360039003C0056
:100320004000430047004A004E005100540058006E
:100330005B005E00610063006500670069006A00A1
:100340006B006B006B006A006900660063005F0071
:100350005A0054004D0044003A002F0022002400AF
:10036000260028002A002C002F003100340036001F
:1003700039003C003F004200450049004C0050005D
:10038000530057005B006000640068006D0072005D
:1003900077007C00820087008D0093009900A00008
:1003A000A600AD00B400BB00C300CB00D300DB004F
:1003B000E400EC00F500FF00080112011D01270117
:1003C00032013D014901540161016D017A0187014A
:1003D0009501A301B101C001CF01DF01EF01FF01D0
:1003E000120226023A024F0264027A029102A80225
:1003F000C102DA02F3020E032903450361037F03FE
:100400009D03BD03DD03FE0311241FBECFEFD4E027
:10041000DEBFCDBF11E0A0E0B1E0ECEDF9E202C03B
:1004200005900D92A235B107D9F722E0A2E5B1E01F
:1004300001C01D92AB30B207E1F70E94AB110C94E2
:10044000EC14DECDF89498ED9FBD83BF78940895A9
:10045000482F9B01E6EDF1E080E090E050815523CC
:1004600031F00196339680319105C1F70AC063E0FF
:1004700070E00E945314FC01EA52FE4F4083328325
:10048000218308950F931F93CF93DF93D091D601CB
:10049000DD2351F10091D7011091D801C091B30132
:1004A000C150C7FD0DC0EC2FEE0FFF0BEC54FE4FFB
:1004B0000190F081E02DB8018D2F09958111F0CFC9
:1004C000E6EDF1E08381808384819581928381834D
:1004D000339682E0E330F807A9F7109203021092F6
:1004E000050210920402D2CFDF91CF911F910F919C
:1004F0000895BC0180910802ABCF109208021092BF
:1005000007021092060281E08093870108950F93FD
:100510001F93CF93C82F08EA17E0CC2349F082E05D
:1005200091DFC8010197F1F780E08CDFC150F5CF72
:10053000CF911F910F910895E0910701F09108016B
:100540003196FB70F460F0930801E093070180910D
:10055000A8018B5A8093A801E4918091A8018E0F85
:1005600008950F931F93CF93DF9300D01F92CDB7C1
:10057000DEB720912601309127014091280129837F
:100580003A834B83FE01319640E050E090E061E019
:1005900070E0B1919A01220F331F8C0102C01595B2
:1005A00007952A95E2F79801237061F02130D1F484
:1005B000A0B39B0101C0220FBA95EAF7322F309504
:1005C0003A2318C0A0B39B0101C0220FBA95EAF7E5
:1005D00020953A2F322330BB32B3322332BB31B3B2
:1005E00023230EC0A0B39B0101C0220FBA95EAF7E6
:1005F0003A2F322B30BB32B3322B32BB31B3232BE9
:1006000021BB4F5F5F4F4330510519F60F900F909C
:100610000F90DF91CF911F910F910895CF93DF93AA
:1006200000D000D000D0CDB7DEB7909181012091ED
:10063000C4013091C5012B5E394009F492E0843049
:1006400019F46093820121C06623F9F0823019F415
:1006500027E9261B622F26E0E9E2F1E0DE01119690
:1006600001900D922A95E1F7E82FF0E03197EE0F17
:10067000FF1F21E030E02C0F3D1FE20FF31F019020
:10068000F081E02DE90FF11D608326960FB6F894F6
:10069000DEBF0FBECDBFDF91CF910895BF92CF9245
:1006A000DF92EF92FF920F931F93CF93DF93EC01B2
:1006B00040918101E0918301EE2311F082E001C0BD
:1006C000842F90E0DC01AB5EBE4F2C91209319018A
:1006D000DC01AE5EBE4F8C9180931801F0E0E15FCB
:1006E000FE4F3181622F70E0442349F0313039F4FC
:1006F0009B01280F311DC9019595879538C0C617F4
:10070000D707A4F1682F70E06C177D0784F14111C1
:1007100002C08C2F2CC0821B032F10E00150110946
:10072000E82EF12CC701B8010E949D1460937F014F
:100730006695E62FF0E0822FC12CD12CB12CB31698
:10074000B1F0C601B8010E948914822F860FCE0C29
:10075000DF1CAE01481B510957FF03C0519541955D
:100760005109E417F5071CF4B394E9CF822FDF9108
:10077000CF911F910F91FF90EF90DF90CF90BF909E
:10078000089581E00895611160932401089566231E
:1007900089F0813061F48091C7019091C601891B75
:1007A000681B6093C60182E08093250103C0635EED
:1007B0006093230180912301873418F086E48093AD
:1007C0002301089570E070930D0160930C0108956A
:1007D0000F931F93CF93DF938091810180938801C2
:1007E00080911501809389018091120180938A0183
:1007F00080910F0180938B018091160180938C0171
:100800008091130180938D018091100180938E015E
:100810008091170180938F01809114018093900142
:1008200080911101809391018091830180939201C5
:100830008091820180939301809180018093940143
:1008400080911A0180939501809185018093960192
:100850008091840180939701809177018093980122
:1008600080912201809399018091780180939A016F
:100870008091210180939B0180910B0180939C01C9
:100880008091090180939D0180910A0180939E01CE
:1008900080910E0180939F01809123018093A0019C
:1008A0008091C6018093A101809124018093A201CF
:1008B00080911E018093A30180911D018093A4016A
:1008C000809120018093A50180911F018093A60152
:1008D00080910C018093A70182E019DEF89408E86A
:1008E00011E0C1E8D0E0F80161918F01CE010E94D2
:1008F000DA142196C13AD105B1F765EA80E890E0B3
:100900000E94DA147894DF91CF911F910F9108958E
:10091000829A929A8A9A0895882331F0813041F41C
:100920008298929A8A9A0895829892988A980895BD
:10093000EFCFEF92FF921F93CF93DF93182F809109
:10094000AA01811109C0112339F0809121011817E2
:1009500018F4EFDF82E0DBDD1093AA011093A90108
:100960008091AB0181110AC0FCDD212F30E081E0D4
:100970002A3131050CF480E08F5FCEDF111114C0F5
:1009800010920A021092090218BA10926D00109289
:100990006C0010926B0010926A0010926F0010921F
:1009A0006E008898899831C08FEF810F90E0880F92
:1009B000991FFC01E452FD4F2591349130930A02B6
:1009C00020930902FC01E055FE4F2591349128BB8C
:1009D000FC01EC57FF4F2591349180916001A901F2
:1009E00040525109882339F060916E0070916F0078
:1009F00046175707B8F330936900209368008111B8
:100A000004C010926F0010926E00C0910902D09144
:100A10000A02E0906800F09069008091AA0181507C
:100A20009091220191110BC090E06FEF70E00E9455
:100A3000531466E970E00E948914262F1AC09F3F64
:100A400061F490E06FEF70E00E94531466E970E08B
:100A50000E948914262F20950CC0892F90E064E60F
:100A600070E00E94531463E670E00E949D142FEF23
:100A7000260FBE0180E090E030E040E050E00E94B0
:100A8000641461587F4F8F4F9F4F2FEF30E040E04D
:100A900050E00E94B014C901C21BD30BE216F3064A
:100AA00030F42E193F09C20FD31FC70109C0EC163D
:100AB000FD0630F42E193F09CE01820F931FE70186
:100AC000D0936D00C0936C0090936B0080936A008C
:100AD000CD2B11F0889A01C08898892B11F0899A42
:100AE00001C08998109360018091AA01823010F4AE
:100AF00082E005C08A3010F481E001C080E0DF911F
:100B0000CF911F91FF90EF909DCCCF93C091AA0100
:100B100086E48C0F873908F080E00BDF83E0F7DC98
:100B20008C2FCF9106CFCF93C091AA0180E001DF37
:100B300083E0EDDC8C2FCF91FCCE0F931F93CF93EE
:100B4000DF93E82F8091C9019FEF980F9C3120F42B
:100B500080E007DD80E08FC0CE2FC295CF70DE2F02
:100B6000DF709091AB01911103C0C33008F0C2E077
:100B7000D730A8F400915A0110E00F5F1F4FDCDC62
:100B800065E00E947D149801290F311DC90166E0BE
:100B900070E00E949D1480935A01ED2F41C0D73020
:100BA000A9F400915A0110E00F5F1F4FC5DC65E00A
:100BB0000E947D149801290F311DC90166E070E083
:100BC0000E949D1480935A01FC0135C0D830B1F4C5
:100BD0008091AB01882311F08FEF01C083E068237F
:100BE00051F480915A0190E0019666E070E00E9415
:100BF0009D1480935A01E0915A0112C09091AB016B
:100C0000992381F08D31D8F090E0E92FF0E0EE5B90
:100C1000FE4F2081821710F09E5FF7CF3197E08161
:100C2000F0E009C0862F869563E00E947D14E92FCD
:100C3000F0E0EE0FFF1FE358FF4FE49101C0E0E04A
:100C4000C33071F48091590190E0019663E170E046
:100C50000E94891480935901DC01A15DBE4FCC91A3
:100C6000CC2321F0C13019F0EE0F01C0E0E08E2F4F
:100C700078DC80911C01DF91CF911F910F914CCEB8
:100C8000813019F4109285010895823019F460932F
:100C900084010895833019F46093800108958430AD
:100CA00011F460931A010895813069F4611101C053
:100CB00080E080937801611102C08FE701C081E07C
:100CC000809322010895823011F4609321010895E8
:100CD000883039F410927E0110927C0110927B01D1
:100CE00040C0813B59F480917E0181508330D8F51A
:100CF00083E080937E0180937D0135C0853BB1F414
:100D0000CB016EE370E00E948914892B51F580912C
:100D10007E01853F30F5865F80937E0180937D0163
:100D200010927C0110927B01F0DE1BC08130D9F45F
:100D300080917B0190917C01019688382EE092078A
:100D400028F490937C0180937B010BC010927C016E
:100D500010927B0180917E01882319F0815080934D
:100D60007E0180E0089581E00895CF93833B09F0F0
:100D700052C080917801882381F0672B09F065C00B
:100D8000809122018E3F19F081E0809322018091B1
:100D9000220180958093220153C0672B29F481E0C2
:100DA000809358011092570180915801882309F4CB
:100DB0004DC09091050180912201191624F48E3FB7
:100DC00048F48F5F05C0992329F0823018F08150D4
:100DD00080932201C091570190912201C03449F4BF
:100DE00081E48093570181E08927809322019BDE73
:100DF0000DC080915601891309C0C11102C093DE54
:100E000002C0CF3F19F0CF5FC093570180912201FC
:100E10008093560115C0833EC1F410925801809111
:100E2000050181958093050180912201823010F4A3
:100E300081E003C08E3F18F08FEF80930501C8DC7E
:100E40008091AA0176DD80E001C081E0CF91089514
:100E5000FF920F931F93CF93DF938C01EB01F42E3E
:100E60008091C4019091C501892B31F0E091C401BA
:100E7000F091C50189E009951093C5010093C40163
:100E8000012B39F0E091C401F091C501BE018F2D15
:100E9000099581E080938701DF91CF911F910F9198
:100EA000FF900895CF93DF93E091B301EE2359F0C3
:100EB000E150E093B301F0E0EE0FFF1FEC54FE4F62
:100EC000C081D18102C0C0E0D0E0E091B301EE2347
:100ED00041F0F0E0EE0FFF1FEE54FE4F8081918154
:100EE00002C080E090E04AE060E070E0B1DFCE0157
:100EF000DF91CF910895883029F4109275011092F6
:100F00005B0116C0813001F590915B01911107C022
:100F10006032710570F180935B01EFDA2AC0913085
:100F200089F4673381E0780728F082E080935B01E1
:100F300080E01EC061157105E1F06270862F880F98
:100F40008E5E16C0AFDF15C0813811F0813E89F486
:100F500091E090935B01813E21F480917501865F61
:100F600003C0809175018F5F80937501C6DA8BE4B1
:100F7000E0DC80E008959C019091B301983088F402
:100F8000E92FF0E0EE0FFF1FEC54FE4F318320837A
:100F90009F5F9093B30148E0C9015ADF8091B3018C
:100FA00008958FEF08950F931F93CF93DF93EC0174
:100FB0008B0178DFB801CE01DF91CF911F910F91A6
:100FC000DACF813C39F41092760160E070E08AE774
:100FD00098E00DC0823C29F460E070E082E398E084
:100FE00006C0833C31F460E070E082E098E0DBDF33
:100FF00005C08A3C29F481E08093760180E0089561
:1010000081E00895813C29F460E070E08AE798E08F
:101010000DC0823C29F460E070E081EE97E006C0EC
:10102000833C31F460E070E089E598E0BCDF16C0F5
:10103000813B49F4CB016EE370E00E948914892B57
:1010400069F463DD0BC0813E59F4CB016EE370E0BF
:101050000E9489146F5F60930E01BADB80E00895EF
:1010600081E00895CF93C0918301C1111EC0813CDE
:1010700029F460E070E08AE798E006C0823C31F431
:1010800060E070E089E598E08EDF10C0833C29F4D1
:1010900060E070E081EE97E0F7CF873B31F460E0ED
:1010A00070E087EF99E067DF01C0C1E08C2FCF913E
:1010B0000895813C29F460E070E08AE798E00DC073
:1010C000823C29F460E070E082E098E006C0833C56
:1010D00031F460E070E082E398E065DF07C0873BB1
:1010E00039F460E070E08BEF99E045DF80E008952F
:1010F00081E008950F931F93CF938B018830A1F463
:1011000080E017DC60E08091200117DD80911E01F6
:1011100080931C0101DC10927E01012B19F481E007
:101120008093AB01C0E00BC1813049F46931710596
:10113000C8F38093AB0180912001FFDCF3CF8330B3
:1011400051F520918501222381F08091840190E066
:1011500062EC71E00E9453140817190730F02093D5
:101160001B018091770180932201602F80912001E3
:10117000E4DC80910C0190910D01009799F262ECF2
:1011800071E00E9453148017910760F660E070E0F0
:1011900083E09AE048C0813B99F481E090E07EDAF8
:1011A000C8DB809180018111BDCF809181018111C7
:1011B00004C00831110508F4B5CF61E070E028C023
:1011C000813ED9F3813821F480911B0190E013C056
:1011D000813C21F46091AA0170E01AC0823B79F44D
:1011E00080911A0190918301911180918201811166
:1011F00004C086E990E052DA05C086E903C0823E69
:1012000019F480E096DB8ECF823C29F466E970E029
:1012100086E19FE008C08339A1F3833C31F460E0AC
:1012200070E082E398E0BFDE7DCF843C09F4AECF6E
:101230008F3C29F460E070E081EC93E0F4CFC09142
:1012400083018A3B71F4672B61F4CC2329F05DDCC8
:1012500010928301BDDA66CF60E070E08BEE99E01A
:101260006BC0C1116BC08A3C29F44FDC81E08093D4
:10127000830158C08D3B41F4F89488ED8FBD88E818
:1012800080BF7894A895FFCF833B29F460E070E09D
:1012900081E69DE006C0853B31F460E070E08CECB7
:1012A0009EE081DE4CC0863C71F480911E0190E08E
:1012B000019663E070E00E949D1480931E0180936C
:1012C0001C012ADB2FC0873C91F490912001892FCB
:1012D00082958F708F5F83708295807F9F70892B3E
:1012E0008093200160E029DC73DA0FDC28C0873BA3
:1012F000B9F4C8018F739927892B69F49091200163
:10130000892F8F708F5F292F207F6BE00E947D14C3
:10131000922B90932001602F809120010EDC0FC052
:10132000873E11F455DA0BC0893B41F4012B31F4AF
:1013300060E070E083EF99E01EDE01C0C1E08C2F19
:10134000CF911F910F910895883061F410925C0144
:1013500080E0EFDA8091AC01811137C081E08093A9
:101360005C0123C0982F907F903BB9F420915C01E1
:10137000421780F0CB016DE570E00E94891402975E
:1013800039F42F5F20935C014217F8F088E303C023
:1013900082E101C080E0CDDA18C0903E61F4809116
:1013A0005C01882389F0481778F060E070E08BE7F3
:1013B00097E0E1DD0AC08A3041F4609175018091C7
:1013C0005C01F901099504DA6DDD80E008952EE0F5
:1013D00033E043E0B9CF2EE033E044E0B5CF20E482
:1013E00036E044E0B1CF24E536E042E0ADCF23EC77
:1013F00033E041E0A9CF27EC33E042E0A5CF22EE75
:1014000033E041E0A1CF0F931F93CF93DF93D82F09
:101410008B01873B19F480E08CDA60C080798039D9
:10142000B1F420911501909116018D2F8F708230AB
:1014300041F480918501811108C0822F291728F479
:1014400003C0822F921708F4892F73DA10C08038F6
:1014500011F480E06EDAD83051F460E080911F0121
:101460006CDB80911D0180931C0156DA37C0D130AE
:1014700039F40931110508F47EC0D093AB0102C0E4
:10148000D33029F4602F80911F0157DB74C0D33C07
:1014900029F460E070E08AE798E01EC0D43C71F463
:1014A000C0918501CC2319F06C2F70E013C06091BE
:1014B0001B0170E086E19FE076DD60C0D43B31F433
:1014C00032DB1092080261E070E004C0D53C31F4D8
:1014D00066E970E086E19FE066DD4DC0C091830162
:1014E000C1114BC0DA3B31F460E070E08FEF99E05E
:1014F00042DD44C0D63C71F480911D0190E001961C
:1015000063E070E00E949D1480931D0180931C0194
:1015100003DA2FC0D73C91F490911F01892F829557
:101520008F708F5F83708295807F9F70892B8093EF
:101530001F0160E002DB4CD9E8DA20C0D73BB9F4E8
:10154000C8018F739927892B69F490911F01892F06
:101550008F708F5F292F207F6BE00E947D14922B6C
:1015600090931F01602F80911F01E7DA07C0D73EDB
:1015700021F42ED903C0C0E001C0C1E08C2FDF915F
:10158000CF911F910F91089586E884B91092D301ED
:101590001092D40183B1886483B90895F5DFE1E640
:1015A000F0E0808182608083139A87EE83B908958A
:1015B0001092D50120B191B13091A80122952695C4
:1015C00026952370892F90E0880F991F880F991F07
:1015D000820F911D830F8093A8018091CA018823F7
:1015E00009F407C11092CA018091D3019091AB0117
:1015F000992319F01F981092D30181113EC0809158
:101600002501882349F08091CF019091D0019093DA
:10161000CC018093CB0104C08091CB019091CC018F
:101620004096807E9695879561EC72E00E948914C1
:10163000809124018750680F6093C90180917401E3
:10164000882311F0815008C06D3140F460E070E0F3
:1016500084E00E94280285E0809374018091AB01B0
:101660008111BEC08EE884B981E08093D3011092CD
:10167000D40183B1886483B9B3C0813009F0B0C0AC
:1016800080912501811143C08091CD019091CE01BF
:10169000409645E0969587954A95E1F76091C60199
:1016A000AC0156954795062E000C770B9B012E50EA
:1016B0003140240F351F3093C8012093C70120917A
:1016C0006301E22FF0E0EE0FFF1FEC59FE4F408167
:1016D0005181DC01A41BB50BAD01918380832F5F89
:1016E0002770209363019D01220F331F220F331FA8
:1016F000820F931F2091230130E0261B370B225FBE
:101700003E4F220F331F821B930B23E01CC080919E
:10171000D1019091D2019093CE018093CD0140965A
:1017200035E0969587953A95E1F7E4E6F1E0819307
:101730009193B1E0E437FB07D1F7A6CF009709F00A
:101740000196215029F018161906C4F70197F9CF10
:1017500018161906E4F457FD39C0209162011216DB
:101760000CF1880F991FBC016350710977FF02C00B
:101770006F5F7F4F759567951616170614F061E039
:1017800070E088E1861B8093620185E026C08C3F73
:101790002FEF9207DCF457FF19C02091620127FF59
:1017A00005C02450281B2093620119C024EE281B79
:1017B000209362012091C9012F3188F06CEF7FEFF7
:1017C000681B790B7595679586E007C08091C90104
:1017D0008E3128F060E070E087E00E942802D4DEBD
:1017E00080912501882329F08091250181508093E3
:1017F00025010895843021F58091C4019091C5019F
:101800002DE08136920729F469E170E086E19FE0DE
:1018100015C086519F4071F49091AA01923050F00A
:10182000892F869596959695890F8093860181D804
:1018300080E0089560E070E08AE798E0B4DBF8CFDC
:1018400081E008950F931F93CF931092AE01809182
:101850000602909107029C012F5F3F4F88279078E6
:10186000822B932B90930702809306029091AC01F8
:101870002FB1822F8095881F8827881F8093AC0105
:10188000981729F11092AB018093AC019091080256
:10189000892F27FD0AC080699F709F3009F08F5FF4
:1018A0008093080280E090E00CC08F7E95FD02C01E
:1018B000806801C0806C809308028091060290913C
:1018C00007020E947902109207021092060200910C
:1018D0000602109107028091AB01882379F0B801CC
:1018E00083E00E9428020E9442020F731127012BFD
:1018F00009F046C01092610151DE32C0C091080269
:101900008C2F807F803B19F460E070E001C0B8014B
:1019100081E00E942802C4FF13C0C5FF02C0C801B5
:101920000CC008311105E0F0109207021092060277
:10193000C062C093080280E090E00E94790210C06B
:10194000CC2371F0C5FD0AC00231110548F0C06416
:10195000C093080280E090E00E9479020E947D021C
:1019600080916101811106C083B1886483B981E0EF
:101970008093CA01809161018F5F8F7180936101B3
:10198000CF911F910F9108958091D501811110DEA3
:101990008091AE01811156CF0895EF92FF920F937F
:1019A0001F93CF93DF93EC0108E017E082ECE82E61
:1019B000FF24F3942097D9F080918701811119C0F9
:1019C0008091AA01823028F482E00E942202C7019D
:1019D00004C080E00E942202C8010197F1F780E074
:1019E0000E942202D1DF0E9442022197E3CF81E0D0
:1019F00001C080E0DF91CF911F910F91FF90EF9098
:101A00000895FF920F931F93CF93DF93C82F8823DE
:101A100011F007EB02C006E4C1E082E0F82E10E00E
:101A2000D1E0F0921C0160E08091200186D8C801CD
:101A3000B4DFD0931C0160E0809120017ED883E167
:101A400091E0ABDF80911E0180931C01C15049F7EA
:101A50008DED92E0DF91CF911F910F91FF909DCF7F
:101A6000CF93DF9364E649D7282F892F6AE045D7C3
:101A7000EC01222341F0822FC4DF8C2FC2DF8D2F97
:101A8000DF91CF91BECFC111F8CFF9CFCF93DF93C4
:101A9000D82FC3E080911B010E94990488EC90E04C
:101AA0007CDFDD2319F080E991E077DF80E00E94A0
:101AB000990488EC90E071DFC15061F7DF91CF911C
:101AC0000895DF92EF92FF920F931F93CF93DF93CE
:101AD000D82F8B01C0910B0181E080937A01C33034
:101AE00009F0DDC0F0907E018D2FF2D8FF2051F07B
:101AF00080917E01811106C060E070E08AE798E085
:101B000052DACDC0D83021F481E080930301C9C0FE
:101B1000D23C19F410927E01D2C0D13BC1F4909115
:101B20000201012B49F4963610F08FEF03C092307A
:101B300018F481E08093030180910301890F11F46F
:101B400081E01FC1873608F41CC186E61AC1D13E68
:101B500031F480910301819580930301D9C0D23B78
:101B600061F481E08093030180910201823008F4E6
:101B7000D7C0815080930201D3C0D13009F0A3C0F7
:101B80000932110511F4D0930301D09055018D2D28
:101B9000880FD7FC809590E069E070E084D6292F0B
:101BA000E09054018E2D880FE7FC8095D0910101C3
:101BB0006D2F70E090E077D6290FF09053018F2DB4
:101BC000880FF7FC8095C09100016C2F70E090E0C9
:101BD0006AD6920F6091020170E0690F711D8091C9
:101BE0007E01813091F480917B0190917C0125E010
:101BF000969587952A95E1F724E730E0A901481BDF
:101C0000590BCA0150D6B90184D6862F0E94990477
:101C100000FD06C00E949C028170D80ED092550132
:101C200080915201E80EE09254010E949C0265E20C
:101C300064D6F90EF09253010E949C028F7331F426
:101C40000E949C026DE059D690935201DD2339F039
:101C50000E949C028F7319F4D150D09301010E940D
:101C60009C02811108C00E949C026EE046D69093AF
:101C7000010110925401C33038F00E949C028F7110
:101C800019F4C150C09300010E949C028F7709F0A3
:101C90006CC00E949C0287708093000166C0D8309F
:101CA00021F481E0809304016EC0D13C31F460E006
:101CB00070E08AE798E077D966C0D23C31F4EC2F27
:101CC000F0E0319607C0D13C91F3D33C41F4EC2FC6
:101CD000F0E03396E370FF27E0930B0134C0D13B73
:101CE000A9F4C23008F04FC000FD4DC0EC2FF0E069
:101CF000E75FFE4F808190910401891B883020F0BE
:101D00008F3FE9F48EEF1BC088E019C0D13E31F45B
:101D10008091040181958093040115C0D23B89F420
:101D200081E080930401C23070F500FD2CC0EC2FDF
:101D3000F0E0E75FFE4F80818F3F29F18F5F808366
:101D400022C0D23E19F40E94E8031DC0D53C49F4DC
:101D500060E070E08CEC9EE026D980E00E9499045F
:101D600012C0D13011F081E00FC00932110519F411
:101D700081E0809304018091A801080F0093A801DD
:101D800002C08093020180E0DF91CF911F910F91FB
:101D9000FF90EF90DF9008950F931F93CF93DF9301
:101DA000D82F8B01883031F480917A01813011F481
:101DB00088E087DE8D2F8079803961F481E080931F
:101DC0007901C0917A01C1110EC080911B010E945E
:101DD000990426C0803849F41092790180E00E946D
:101DE00099040E948804C0E01BC0D130C1F4C091A6
:101DF0007901CC2351F080917A018130A1F7B801AB
:101E0000DF91CF911F910F915CCE0733114058F3B2
:101E1000D093AB0160E080E00E949D0501C0C1E06D
:101E20008C2FDF91CF911F910F910895AF92BF92A8
:101E3000CF92DF92EF92FF920F931F93CF93DF9396
:101E4000182FEB01E0901901F0901801B09081017A
:101E5000BB2019F0C0907F0102C0CC24C3948091B4
:101E60001A0100918301011180918201882349F0B8
:101E7000813021F080911B018F1518F0A6E9DA2E30
:101E800001C0DF2CA0907E01BE01812F0E94680658
:101E900060917E01662339F0A1100CC08091AA01E7
:101EA00080935F0107C0AA2029F060E070E08AE714
:101EB00098E043C0812F8D7F8830F9F410927A0129
:101EC0001A3019F4C0911B01D0E08E2D90E08C17D0
:101ED0009D0738F48F2D90E0C817D90710F4C093F0
:101EE0001B01CE010E944E03809386010E9499043B
:101EF00081E08093060100E0C6C1113CB1F2123CC2
:101F000099F48091AA018D1520F4D09286018D2D2F
:101F100004C080911B01809386010E9499048091E6
:101F2000AA0180935F01E7CF143C49F480E00E944E
:101F3000990460E070E083E09AE035D8DCCF8FE46C
:101F4000810F823008F058C0BB2039F0CE0168E123
:101F500070E0DFD4892B31F0CECF60910F0170E0BB
:101F6000CE01F7CF2091AA01209761F4123B11F422
:101F70008FEF05C02F15E0F7E21608F181E080939E
:101F800006011DC0E0910F01F0E0CF0166E371E0B2
:101F90008AD48C179D0710F42F1550F7CF016CE6EB
:101FA00072E081D48C179D0750F4E21640F00E9435
:101FB000850560E070E083E09AE00E94D307D0914D
:101FC000AA01809106016C2D70E0082E000C990B7F
:101FD0006AD48D0F911D0E944E03C82F80931B0160
:101FE000D81731F0F81611F0E81202C00E949305DC
:101FF000C09386018C2F91CF8FE1810F823020F426
:1020000080910601819575CF113009F0B3C0A99771
:1020100011F410930601662391F080915F0170E046
:102020006150710990E03FD460917D0170E085D4EA
:10203000611101C061E06093A90160938601809104
:10204000A9019091AA01282F30E0291B3109609144
:102050005D0170915E016F5F7F4F70935E016093D1
:102060005D012115310509F446CF37FF05C09338CE
:1020700030F040E450E005C040E052E002C040E0F3
:1020800051E05695479537FF02C02F5F3F4F35957A
:10209000279521153105A9F74617570708F02BCFCB
:1020A000891710F48FEF03C0981710F481E0890F9F
:1020B000CFEFC80F2C2F30E0A901440F551FBA01F4
:1020C00064527D4FFB01A591B4912091090230919A
:1020D0000A02C91760F42115310549F4AF3F91E0B8
:1020E000B90729F4B0930A02A09309020FC02A1776
:1020F0003B0718F42F5F3F4F05C0A217B30730F41A
:102100002150310930930A02209309029A01205587
:102110003E4FF901A591B49148B350E04A175B07CF
:1021200018F498B39F5F07C048B350E0A417B507F1
:1021300018F498B3915098BBFB016591749140914C
:10214000090250910A026417750779F498B3F901EE
:1021500045915491292F30E02417350731F4C0916F
:10216000A9010E949904C093A90110925E011092E6
:102170005D01C1CE1530A9F48091AA01823408F422
:10218000BACE90E08C1B9D0B282F813491052CF04A
:102190008739910518F026E901C021E42093A901AF
:1021A000AACE1630B1F49091AA01809186019817B9
:1021B00008F0A1CEC90FD11D90E08C179D0734F017
:1021C000C134D10524F4C1E4D0E001C0EC018C2F6E
:1021D0000EC0173079F49091A9018091AA01891756
:1021E00010F48F5F04C0981708F085CE815080935B
:1021F000A90181CE011146C0133CC9F481E0B110A0
:1022000080E0809381010E94E8030E949305809101
:10221000AA0190E00E944E0380931B0180938601E7
:102220000E9499048091AA0180935F012CC0153C03
:1022300051F480E00E94990460E070E08CEC9EE034
:102240000E94D30720C0173B29F460E070E087EEBE
:1022500099E015C01A3C69F48091AA018093850128
:1022600080912201809377010E94E8030E948505F6
:102270000AC01A3B39F460E070E08FEE99E00E94EA
:10228000BB0701C001E0802FDF91CF911F910F911B
:10229000FF90EF90DF90CF90BF90AF9008951F9286
:1022A0000F920FB60F9211242F933F938F939F930A
:1022B000AF93BF93EF93FF938091D4018823E9F00C
:1022C000E091D30120B131B1F0E0EE0FFF1FDF014B
:1022D000A153BE4F2D933C93E553FE4F80819181D6
:1022E0008217930708F401962817390708F4019715
:1022F0009183808381E08093D50181E08093D40134
:10230000FF91EF91BF91AF919F918F913F912F914D
:102310000F900FBE0F901F9018951F920F920FB63F
:102320000F9211248F9381E08093AE018F910F90D3
:102330000FBE0F901F9018951F920F920FB60F921D
:1023400011248F9381E08093AD018F910F900FBE88
:102350000F901F901895F89485B7877F85BF88EDFB
:1023600090E00FB6F894A8958FBD90B7977F90BF77
:102370000FBE81E088B998E09CB99FE790BB92EAD4
:102380009093720091E19093710091E89BBB8ABB9E
:102390008FEF91E0909369008093680080E882BBA2
:1023A00087BD8CB788608CBFA89580E480BFF6D8C5
:1023B000789481E00E94870260E070E08AEF9BE001
:1023C0000E94BB07109287010E9485059FB1892F4B
:1023D0008095881F8827881F8093AC0197FF0BC0CA
:1023E00082E00E948702F89480E890E0DBD2853A90
:1023F000B9F17894C6C0C0E08C2F0E94990483E1A3
:1024000090E0CBDA8C2F86950E94990483E190E0CE
:10241000C4DA9FB1892F8095881F8827881F8093F1
:10242000AC0197FD13C0CF5FC03431F765E181E0A7
:102430000E94C7030E94E803C6E98C2F0E949904FA
:1024400084E090E0AADAC150C1F7CACFCC2341F2B0
:102450008C2F0E9499048DE090E09FDAC150F6CF56
:1024600008E811E0C1E8D0E0CE019CD2F8018193E8
:102470008F012196C13AD105B9F7789480918801EE
:1024800080938101809189018093150180918A0157
:102490008093120180918B0180930F0180918C01B8
:1024A0008093160180918D018093130180918E019C
:1024B0008093100180918F0180931701809190018A
:1024C0008093140180919101809311018091920178
:1024D0008093830180919301809382018091940184
:1024E000809380018091950180931A0180919601DB
:1024F0008093850180919701809384018091980158
:1025000080937701809199018093220180919A01B3
:102510008093780180919B018093210180919C019F
:1025200080930B0180919D018093090180919E0110
:1025300080930A0180919F0180930E018091A001F8
:10254000809323018091A1018093C6018091A20113
:10255000809324018091A30180931E018091A401A6
:1025600080931D018091A501809320018091A60197
:1025700080931F018091A70190E090930D018093BB
:102580000C0180918501811180931B0160E070E056
:1025900085EB96E00E94BB0761E070E08AE798E077
:1025A0000E94BB0743E4242E52E0352E60E4462E01
:1025B000992493947CEFA72E73E0B72EE7E08E2E3C
:1025C000F5E05F2EAAE7CA2EA8E0DA2E0E944202AA
:1025D0008091B1019091B201009751F06091AF01EB
:1025E0007091B0010E94D3071092B2011092B10114
:1025F0008091AB01882309F448C080E00E949904CF
:10260000A89520BE1F989FB1892F8095881F882785
:10261000881F8093AC0197FFF6CF0E947D028CB794
:1026200088608CBF1092D5011092AE011092AD015E
:102630008091AB01882301F186B78F79806486BFD2
:1026400086B7806186BF889586B78F7E86BF80916A
:10265000AD0181111092AB018091D501882331F039
:10266000909225019092CA010E94D80A8091AE01F1
:102670008823F1F2E7D8DCCF309225018CB7877F31
:102680008CBF0E94CE0AA89540BE7ED910928701C9
:102690008091C4019091C501F3E0813C9F0779F4DA
:1026A000C0E7D0E0FE0184918053ABD98CE291E089
:1026B00074D92196F0E0CC37DF07A1F7ABC02DE04D
:1026C0008136920779F0EEE08C3C9E0709F097C0C6
:1026D00080917A01813009F0DBC0809179018823F3
:1026E00009F4D6C0C0910B01C23018F0C230F1F02D
:1026F0006DCFEC2FF0E0E75FFE4FD08186E90E94BE
:102700009904C11109C0DA3220F4C5010197F1F72B
:1027100007C081E090E003C08D2F869590E03DD901
:1027200080E00E9499048D2F90E0B0C00E949C022E
:102730008F73E82EF12C0E949C02682DDED001E000
:1027400010E0380102C0660C771C9A95E2F70E94EF
:102750009C02652DD2D0E80102C0CC0FDD1F9A95F6
:10276000E2F76C0E7D1E0E949C0290E0B301E5D062
:10277000E301C80FD91FC739D10514F0C6E9D0E06D
:102780008C2F0E949904C70108D98E0133E015955A
:1027900007953A95E1F7011101C001E010E0C7018A
:1027A000FCD8C01BD10BD7FF02C0C0E0D0E08C2FFB
:1027B0000E9499040E949C02837039F4C701EDD8ED
:1027C000CE01959587950E949904C230D1053CF7BA
:1027D0000E949C026DE091D0C1E0D0E002C0CC0F1D
:1027E000DD1F9A95E2F70E949C0290E0BE0191D015
:1027F000C80FD91F80E00E949904CE0147C0F8E0BD
:1028000082339F0781F48091C9012AD98091830185
:10281000882381F0D092B201C092B1011092B00130
:102820001092AF01D3CE28E08935920731F4809120
:10283000C70116D988EE93E029C0E8E082309E07F0
:10284000B9F48091AC018111C1CE80911B010E942D
:10285000990484E690E0A1D880E00E9499048091D8
:102860000E0190E068EE73E01ED0845691090EC010
:10287000815E974069F480917601811105C006D987
:1028800081E004D980E002D980ED97E086D89ECE21
:1028900086B78F7986BF86B7806186BF889586B7F1
:1028A0008F7E86BF93CE0024552704C0080E591F83
:1028B000880F991F009729F076956795B8F37105F1
:1028C000B9F7802D952F0895EE27FF27AA27BB275C
:1028D00008C0A20FB31FE41FF51F220F331F441FB0
:1028E000551F969587957795679598F37040A9F74A
:1028F000009799F7BD01CF010895991B79E004C0B5
:10290000991F961708F0961B881F7A95C9F780952E
:102910000895AA1BBB1B51E107C0AA1FBB1FA61726
:10292000B70710F0A61BB70B881F991F5A95A9F778
:1029300080959095BC01CD01089597FB072E16F464
:10294000009406D077FD08D0E4DF07FC05D03EF404
:10295000909581959F4F0895709561957F4F08954B
:10296000A1E21A2EAA1BBB1BFD010DC0AA1FBB1F93
:10297000EE1FFF1FA217B307E407F50720F0A21B05
:10298000B30BE40BF50B661F771F881F991F1A9472
:1029900069F760957095809590959B01AC01BD019C
:1029A000CF010895E199FECF1FBA8EBBE09A992717
:1029B0008DB30895262FE199FECF1FBA8EBBE09A02
:1029C00081500DB2021639F01CBA2DBB0FB6F89427
:0C29D000E29AE19A0FBE0895F894FFCF40
:1029DC00080E18010101010004294303D002020171
:1029EC0007058282820A0A0A820A0146020102173C
:1029FC00271580320702050403150112010F01028D
:102A0C0001000000000000000100000000000000B8
:102A1C0000010000210123022503270429052C06AF
:022A2C00FF06A3
:00000001FF
