:100000006DC1000088C1000086C100000C94DB0FA8
:1000100082C100000C94CC0F7EC100007CC10000A6
:100020007AC1000078C1000076C1000074C10000F0
:1000300072C1000070C100000C948E0F6CC10000F2
:100040006AC1000068C1000066C1000064C1000010
:1000500062C1000060C100005EC100005CC1000020
:100060005AC1000058C1000056C1000054C1000030
:100070003230323231303032303132350001050425
:1000800014101115FF3FFF3F7430CC1FC62C6C3984
:10009000212B9332E3351F372C377A364935C0335D
:1000A000F7316A340832013361308C304630B12F79
:1000B000E02EE22DC32C8B2B962B292AD4295029F4
:1000C000BD270E274826712537253E243F23C5220C
:1000D000BA2126211820751FC91EBF1D101D5D1CC9
:1000E000611BB01A001A161934188F17BB16EF15BA
:1000F0002B1546146D13C312DB1122115310730F0D
:10010000A10EDD0D0C0D490C7C0BA90AD1090809C3
:100110003D086F07A106D30506052E046703960266
:10012000CB01FF00FF00FF00FF00FF00FF00FF000A
:10013000FF00FF00FF00FF00FF00FF00FF00FF00C7
:10014000FF00FF00FF00FF00FF00FF00FF00FF00B7
:10015000FF00FF00FF00FF00FF00FF00FF00FF00A7
:10016000FF00FF00FF00FF00FF00FF00FF00FF0097
:10017000FF00FF00FF00FF00FF00FF00FF00FF0087
:10018000FF00FF00FF00FF00FF00FF00FF00FF0077
:10019000FF00FF00FF00FF00FF00FF00FF00FF0067
:1001A000FF00FF00FF00FF00FF00FF00FF00FF0057
:1001B0000000010001000100020003000300040030
:1001C000050006000700080009000A000B000D00EA
:1001D0000E001000110013001500170019001B007D
:1001E0001D001F002200240027002A002C002F00E1
:1001F0003200350039003C003F00430046004A0011
:100200004D005100550058005C006000630067001D
:100210006B006E007100750078007B007E0080002E
:100220008200850086008800890089008900890095
:1002300088008700850082007E007A0075006F00CC
:100240006800600057004C00410034002600160092
:10025000170019001A001B001C001D001E002000C2
:100260002100220024002500270028002A002B005E
:100270002D002F00310033003500370039003B00DE
:100280003D003F0042004400460049004C004E0043
:100290005100540057005A005D0060006300670081
:1002A0006A006E007100750079007D008100850094
:1002B00089008E00920097009B00A000A500AA0074
:1002C000AF00B500BA00C000C500CB00D100D70018
:1002D000DE00E400EA00F100F800FF0011241FBE78
:1002E000CFEFD4E0DEBFCDBF11E0A0E0B1E0EAE89F
:1002F000F5E202C005900D92A035B107D9F722E0D2
:10030000A0E5B1E001C01D92A030B207E1F70E9464
:10031000EA0F0C94C31274CEF89498ED9FBD83BF7E
:1003200078940895482F9B01EDECF1E080E090E097
:100330005081552331F00196339680319105C1F7F4
:100340000AC063E070E00E946512FC01E353FE4FB7
:1003500040833283218308950F931F93CF93DF93BC
:10036000D091CD01DD2351F10091CE011091CF014B
:10037000C091AA01C150C7FD0DC0EC2FEE0FFF0BBD
:10038000E555FE4F0190F081E02DB8018D2F0995C4
:100390008111F0CFEDECF1E0838180838481958140
:1003A00092838183339681E0EA3FF807A9F71092A0
:1003B000FA011092FC011092FB01D2CFDF91CF9194
:1003C0001F910F910895BC018091FF01ABCF109256
:1003D000FF011092FE011092FD0181E080938101E6
:1003E00008950F931F93CF93C82F08EA17E0CC23EB
:1003F00049F082E091DFC8010197F1F780E08CDFDE
:10040000C150F5CFCF911F910F9108958BB182FB11
:10041000882780F991E089278093A3010895E091CE
:100420000601F09107013196FB70F460F09307012B
:10043000E093060180919F018B5A80939F01E49184
:1004400080919F018E0F08950F931F93CF93DF9399
:1004500000D01F92CDB7DEB7209124013091250145
:100460004091260129833A834B83FE01319640E077
:1004700050E090E061E070E0B1919A01220F331FEB
:100480008C0102C0159507952A95E2F79801237013
:1004900061F02130D1F4A0B39B0101C0220FBA95C5
:1004A000EAF7322F30953A2318C0A0B39B0101C060
:1004B000220FBA95EAF720953A2F322330BB32B398
:1004C000322332BB31B323230EC0A0B39B0101C042
:1004D000220FBA95EAF73A2F322B30BB32B3322BC8
:1004E00032BB31B3232B21BB4F5F5F4F43305105EC
:1004F00019F60F900F900F90DF91CF911F910F91F0
:100500000895CF93DF9300D000D000D0CDB7DEB7F1
:1005100090917A012091BB013091BC0129583A4059
:1005200009F492E0843019F460937B0121C06623C2
:10053000F9F0823019F427E9261B622F26E0E7E262
:10054000F1E0DE01119601900D922A95E1F7E82F76
:10055000F0E03197EE0FFF1F21E030E02C0F3D1F40
:10056000E20FF31F0190F081E02DE90FF11D608390
:1005700026960FB6F894DEBF0FBECDBFDF91CF91A8
:100580000895813011F4609320010895BF92CF92B5
:10059000DF92EF92FF920F931F93CF93DF93EC01C3
:1005A00040917A01E0917C01EE2311F082E001C0DC
:1005B000842F90E0DC01AC5EBE4F2C91209318019B
:1005C000DC01AF5EBE4F8C9180931701F0E0E25FDB
:1005D000FE4F3181622F70E0442349F0313039F40D
:1005E0009B01280F311DC9019595879538C0C61705
:1005F000D707A4F1682F70E06C177D0784F14111D3
:1006000002C08C2F2CC0821B032F10E00150110957
:10061000E82EF12CC701B8010E9496126093780170
:100620006695E62FF0E0822FC12CD12CB12CB316A9
:10063000B1F0C601B8010E948212822F860FCE0C43
:10064000DF1CAE01481B510957FF03C0519541956E
:100650005109E417F5071CF4B394E9CF822FDF9119
:10066000CF911F910F91FF90EF90DF90CF90BF90AF
:1006700008959091C00180E09D3180F0E82FF0E076
:10068000E05CFE4F2081921710F08E5FF7CF31971C
:10069000E081F0E0E358FF4F84910895089581E0F0
:1006A00008956111609322010895662389F08130D5
:1006B00061F48091BE019091BD01891B681B60931C
:1006C000BD0182E08093230103C0635E609321013A
:1006D00080912101873418F086E4809321010895E8
:1006E00070E070930C0160930B0108950F931F93BA
:1006F000CF93DF9380917A018093820180911401DE
:1007000080938301809111018093840180910E0177
:10071000809385018091150180938601809112015B
:100720008093870180910F01809388018091160149
:10073000809389018091130180938A018091100137
:1007400080938B0180917C0180938C0180917B014F
:1007500080938D018091790180938E0180911901A0
:1007600080938F0180917E018093900180917D0123
:1007700080939101809120018093920180910A01E0
:1007800080939301809108018093940180910901E5
:100790008093950180910D018093960180912101B4
:1007A000809397018091BD018093980180912201EF
:1007B0008093990180911D0180939A0180911C0181
:1007C00080939B0180911F0180939C0180911E0169
:1007D00080939D0180910B0180939E0182E001DE58
:1007E000F89402E811E0C1E8D0E0F80161918F01CE
:1007F000CE010E94B1122196CE39D105B1F765EA3A
:1008000080E890E00E94B1127894DF91CF911F911F
:100810000F910895829A929A8A9A0895882331F0C6
:10082000813041F48298929A8A9A08958298929897
:100830008A980895EFCFCF93C82F8091A10181119D
:1008400009C0CC2339F080912001C81718F4F3DFD8
:1008500082E0C7DDC093A101C093A0018091A201F5
:10086000811109C02C2F30E081E0243031050CF4D7
:1008700080E08F5FD3DFC1110AC010926D0010922B
:100880006C0010926F0010926E0068982CC0689AED
:100890008FEF8C0F90E0880F991FFC01E055FE4F01
:1008A0002591349130936D0020936C00FC01EC573E
:1008B000FF4F2591349180915B01A901405251096C
:1008C000882339F060916E0070916F0046175707CA
:1008D000B8F33093690020936800811104C010922E
:1008E0006F0010926E00C0935B018091A101843073
:1008F00010F482E005C08C3010F481E001C080E08B
:10090000CF910ACD80937F0196CFCF93C091A10163
:1009100082E38C0F873908F080E08DDF83E061DDB2
:100920008C2FCF9188CFCF93C091A10180E083DF3E
:1009300083E057DD8C2FCF917ECF0F931F93CF9302
:10094000DF93E82F8091C00181508C3120F480E04A
:100950007BDD80E07FC0CE2FC295CF70DE2FDF70B1
:100960008091A201811103C0C33008F0C2E0D730EA
:10097000A8F40091550110E00F5F1F4F50DD65E0B6
:100980000E9476129801290F311DC90166E070E0BE
:100990000E94961280935501ED2F2EC0D730A9F4F6
:1009A0000091550110E00F5F1F4F39DD65E00E9497
:1009B00076129801290F311DC90166E070E00E948E
:1009C000961280935501FC0127C08091A201D83076
:1009D000A9F4882311F08FEF01C083E0682351F45C
:1009E0008091550190E0019666E070E00E949612B9
:1009F00080935501E0915501F0E00EC0882319F075
:100A000038DEE82F0CC0862F869563E00E947612B0
:100A1000E92FF0E0EE0FFF1FE358FF4FE491C330E2
:100A200071F48091540190E0019663E170E00E94BE
:100A3000821280935401DC01A35DBE4FCC91CC2384
:100A400021F0C13019F0EE0F01C0E0E08E2FFCDC88
:100A500080911B01DF91CF911F910F91DFCE8130EB
:100A600019F410927E010895823019F460937D018B
:100A70000895833019F4609379010895843011F456
:100A8000609319010895883039F41092770110921B
:100A900075011092740140C0813B59F48091770137
:100AA00081508330D8F583E080937701809376017D
:100AB00035C0853BB1F4CB016EE370E00E94821239
:100AC000892B51F580917701853F30F5865F8093C2
:100AD000770180937601109275011092740115DFF1
:100AE0001BC08130D9F480917401909175010196F9
:100AF00088382EE0920728F4909375018093740152
:100B00000BC01092750110927401809177018823B7
:100B100019F081508093770180E0089581E0089575
:100B2000FF920F931F93CF93DF938C01EB01F42E71
:100B30008091BB019091BC01892B31F0E091BB0108
:100B4000F091BC0189E009951093BC010093BB01B1
:100B5000012B39F0E091BB01F091BC01BE018F2D5A
:100B6000099581E080938101DF91CF911F910F91D1
:100B7000FF900895CF93DF93E091AA01EE2359F0FF
:100B8000E150E093AA01F0E0EE0FFF1FE555FE4FA4
:100B9000C081D18102C0C0E0D0E0E091AA01EE2383
:100BA00041F0F0E0EE0FFF1FE755FE4F808191818D
:100BB00002C080E090E04AE060E070E0B1DFCE018A
:100BC000DF91CF910895883029F41092700110922E
:100BD000560116C0813001F590915601911107C060
:100BE0006032710570F180935601F1DB2AC09130BB
:100BF00089F4673381E0780728F082E0809356011A
:100C000080E01EC061157105E1F06270862F880FCB
:100C10008E5E16C0AFDF15C0813811F0813E89F4B9
:100C200091E090935601813E21F480917001865F9E
:100C300003C0809170018F5F80937001C8DB8BE4EB
:100C4000FADD80E008959C019091AA01983088F423
:100C5000E92FF0E0EE0FFF1FE555FE4F31832083B3
:100C60009F5F9093AA0148E0C9015ADF8091AA01D1
:100C700008958FEF08950F931F93CF93DF93EC01A7
:100C80008B0178DFB801CE01DF91CF911F910F91D9
:100C9000DACF813C39F41092710160E070E088E0B5
:100CA00097E00DC0823C29F460E070E080EC96E0B3
:100CB00006C0833C31F460E070E080E996E0DBDF61
:100CC00005C08A3C29F481E08093710180E0089599
:100CD00081E00895843011F58091BB019091BC01B1
:100CE0002DE0863D920729F469E170E083E398E006
:100CF00013C08353984061F49091A101923040F069
:100D0000892F869596959695890FFCDD80E008954C
:100D100060E070E088E097E0AEDFF8CF81E0089512
:100D2000813C29F460E070E088E097E00DC0823CEF
:100D300029F460E070E089E496E006C0833C31F479
:100D400060E070E087EE96E096DF16C0813B49F4E4
:100D5000CB016EE370E00E948212892B69F4D5DD2D
:100D60000BC0813E59F4CB016EE370E00E94821209
:100D70006F5F60930D01BADC80E0089581E0089513
:100D8000CF93C0917C01C1111EC0813C29F460E069
:100D900070E088E097E006C0823C31F460E070E0EB
:100DA00087EE96E068DF10C0833C29F460E070E0D5
:100DB00089E496E0F7CF873B31F460E070E085E9A5
:100DC0009AE041DF01C0C1E08C2FCF910895813CB2
:100DD00029F460E070E088E097E00DC0823C29F4DF
:100DE00060E070E080E996E006C0833C31F460E0AA
:100DF00070E080EC96E03FDF07C0873B39F460E0AD
:100E000070E089E99AE01FDF80E0089581E00895AD
:100E10000F931F93CF938B018830A1F480E00BDDFB
:100E200060E080911F0189DD80911D0180931B018D
:100E3000F5DC10927701012B19F481E08093A20177
:100E4000C0E00CC1813049F469317105C8F3809369
:100E5000A20180911F0171DDF3CF833031F5209124
:100E60007E01222361F080917D0190E062EC71E0CF
:100E70000E9465120817190710F020931A01602FBD
:100E800080911F015ADD80910B0190910C01009718
:100E9000B9F262EC71E00E9465128017910780F64A
:100EA00060E070E081EA9AE048C0813B99F481E01B
:100EB00090E06CDBC0DC809179018111C1CF809121
:100EC0007A01811104C00831110508F4B9CF61E03D
:100ED00070E028C0813ED9F3813821F480911A0155
:100EE00090E013C0813C21F46091A10170E01AC030
:100EF000823B79F48091190190917C01911180914C
:100F00007B01811104C086E990E040DB05C086E9E1
:100F100003C0823E19F480E08EDC92CF823C29F43B
:100F200066E970E083E398E008C08339A1F3833C6D
:100F300031F460E070E080EC96E09DDE81CF843C8F
:100F400009F4AECF8F3C29F460E070E08FE493E0C9
:100F5000F4CFC0917C018A3B71F4672B61F4CC2300
:100F600029F0D3DC10927C01C1DB6ACF60E070E035
:100F700089E89AE070C0C11170C08A3C29F4C5DCD0
:100F800081E080937C015DC08D3B41F4F89488ED55
:100F90008FBD88E880BF7894A895FFCF833B29F464
:100FA00060E070E086ED9DE006C0853B31F460E0D6
:100FB00070E084E49FE05FDE51C0863C71F4809174
:100FC0001D0190E0019663E070E00E94961280930C
:100FD0001D0180931B0122DC34C0873C91F4909169
:100FE0001F01892F82958F708F5F83708295807F1C
:100FF0009F70892B80931F0160E09FDC77DB85DC8D
:101000002DC0873BD1F481E080938001C8018F73AC
:101010009927892B69F490911F01892F8F708F5F19
:10102000292F207F6BE00E947612922B90931F0154
:10103000602F80911F0181DC11C0873E21F4109246
:10104000800154DB0BC0893B41F4012B31F460E09B
:1010500070E081E99AE0F7DD01C0C1E08C2FCF910B
:101060001F910F9108959F92AF92BF92CF92DF92FE
:10107000EF92FF920F931F93CF93DF93182FEB0103
:10108000D0901801E0901701A0907A01AA2019F0E1
:10109000B090780102C0BB24B394C09019010091B4
:1010A0007C010111C0907B01CC2051F081E0C81679
:1010B00021F080911A018E1518F0A6E9FA2E01C0D0
:1010C000FE2C90907701BE01812FDDDC60917701CD
:1010D000662339F091100CC08091A10180935A01D0
:1010E00007C0992029F060E070E088E097E038C000
:1010F000812F8D7F8830D1F4109273011A3019F44A
:10110000C0911A01D0E08D2D90E08C179D0730F42E
:10111000F12CCE15DF0510F4C0931A01CE0136DA9A
:10112000F1DB81E08093050100E09FC1113CD9F221
:10113000123C71F48091A1018F1510F48F2D02C023
:1011400080911A01DFDB8091A10180935A01ECCFDD
:10115000143C41F480E06FDB60E070E081EA9AE0EB
:101160008ADDE2CF8FE4810F823008F058C0AA20D8
:1011700041F0CE0168E170E00E948212892B31F0CB
:10118000D3CF60910E0170E0CE01F6CF2091A10186
:10119000209761F4123B11F48FEF05C02E15E0F794
:1011A000D21608F181E0809305011DC0E0910E0187
:1011B000F0E0CF0166E371E00E9465128C179D0795
:1011C00010F42E1548F7CF016CE672E00E9465120C
:1011D0008C179D0740F4D21630F097DB60E070E08A
:1011E00081EA9AE048DDD091A101809105016B2D43
:1011F00070E0082E000C990B0E9465128D0F911D56
:10120000C5D9C82F80931A01D81739F0863921F033
:10121000E81611F0D81201C086DB8C2F93CF8FE136
:10122000810F823020F48091050181957BCF1130B0
:1012300009F090C0A99711F4109305016623A1F05D
:1012400080915A0170E06150710990E00E9465122E
:101250006091760170E00E949612611101C061E018
:101260006093A00160937F01C091A0018091A101D2
:101270002C2F30E0281B31096091580170915901E1
:101280006F5F7F4F709359016093580121153105AD
:1012900009F44ACF37FF05C08D3830F040E450E004
:1012A00005C040E052E002C040E051E0569547954D
:1012B00037FF02C02F5F3F4F359527952115310528
:1012C000A9F74617570708F02FCFC81710F4815019
:1012D00005C08C1710F48F5F01C08C2FEFEFE80F63
:1012E000F0E0EE0FFF1F9F0120553E4FF9014591A1
:1012F000549160916C0070916D006417750738F41B
:1013000040916C0050916D004F5F5F4F0DC0609138
:101310006C0070916D004617570750F440916C00B7
:1013200050916D004150510950936D0040936C00F5
:1013300040916C0050916D00F90125913491421754
:10134000530719F478DAC093A00110925901109252
:101350005801EACE1530A9F48091A101813508F435
:10136000E3CE90E08C1B9D0B282F803591052CF04F
:101370008739910518F026E901C020E52093A001E6
:10138000D3CE1630B1F49091A10180917F019817CE
:1013900008F0CACEC90FD11D90E08C179D0734F01C
:1013A000C035D10524F4C0E5D0E001C0EC018C2F9C
:1013B0000EC0173079F49091A0018091A101891796
:1013C00010F48F5F04C0981708F0AECE8150809360
:1013D000A001AACE011148C0133C99F481E0A110EC
:1013E00080E080937A0182D99EDA8091A10190E019
:1013F000CDD880931A0186DA8091A10180935A0199
:1014000034C0133B49F4CD2B09F08ECECC2011F023
:1014100086E9F82E8F2D04C0133E21F480911A0125
:1014200071DA23C0153C41F480E005DA60E070E039
:1014300084E49FE020DC19C0173B29F460E070E0F1
:1014400085E89AE00FC01A3C39F48091A10180939D
:101450007E014CD95ADA09C01A3B31F460E070E0E1
:101460008DE89AE0F0DB01C001E0802FDF91CF91A1
:101470001F910F91FF90EF90DF90CF90BF90AF90B2
:101480009F900895883061F41092570180E0D3D97D
:101490008091A301811137C081E08093570123C05F
:1014A000982F907F903BB9F420915701421780F01C
:1014B000CB016DE570E00E948212029739F42F5F34
:1014C000209357014217F8F088E303C082E101C07E
:1014D00080E0B1D918C0903E61F480915701882313
:1014E00089F0481778F060E070E083EE95E0ABDBC0
:1014F0000AC08A3041F46091700180915701F9016E
:101500000995F4D837DB80E0089521E832E043E024
:10151000B9CF21E832E044E0B5CF2FE235E044E036
:10152000B1CF21EC32E041E0ADCF21E533E041E045
:10153000A9CF25E533E042E0A5CF20E733E041E045
:10154000A1CF0F931F93CF93DF93D82F8B01873BAE
:1015500019F480E070D960C080798039B1F42091AD
:101560001401909115018D2F8F70823041F480917C
:101570007E01811108C0822F291728F403C0822F11
:10158000921708F4892F57D910C0803811F480E0E1
:1015900052D9D83051F460E080911E01CED98091AB
:1015A0001C0180931B013AD937C0D13039F409317D
:1015B000110508F481C0D093A20102C0D33029F4F0
:1015C000602F80911E01B9D977C0D33C29F460E027
:1015D00070E088E097E01EC0D43C71F4C0917E01B9
:1015E000CC2319F06C2F70E013C060911A0170E0E9
:1015F00083E398E040DB63C0D43B31F494D910928C
:10160000FF0161E070E004C0D53C31F466E970E0B0
:1016100083E398E030DB50C0C0917C01C1114EC023
:10162000DA3B31F460E070E08DE99AE00CDB47C012
:10163000D63C69F480911C0190E0019663E070E073
:1016400075D780931C0180931B01E8D833C0D73C29
:1016500091F490911E01892F82958F708F5F837016
:101660008295807F9F70892B80931E0160E065D9F1
:101670003DD84BD924C0D73BC9F481E08093800189
:10168000C8018F739927892B61F490911E01892FCE
:101690008F708F5F292F207F6BE028D7922B90933C
:1016A0001E01602F80911E0148D909C0D73E31F438
:1016B000109280011BD803C0C0E001C0C1E08C2F94
:1016C000DF91CF911F910F91089586E884B9109210
:1016D000CA011092CB0183B1886483B90895F5DF04
:1016E000E1E6F0E0808182608083139A87EE83B91F
:1016F00008951092CC0120B191B130919F012295B3
:10170000269526952370892F90E0880F991F880FC2
:10171000991F820F911D830F80939F018091C101BA
:10172000882309F406C11092C1018091CA019091E9
:10173000A201992319F01F981092CA0181113DC08E
:1017400080912301882349F08091C6019091C701BF
:101750009093C3018093C20104C08091C201909113
:10176000C3014096807E9695879561EC72E0CAD65B
:10177000809122018750680F6093C00180916F01B2
:10178000882311F0815008C06D3140F460E070E0B2
:1017900084E00E94920185E080936F018091A20114
:1017A0008111BEC08EE884B981E08093CA01109295
:1017B000CB0183B1886483B9B3C0813009F0B0C074
:1017C00080912301811143C08091C4019091C50192
:1017D000409645E0969587954A95E1F76091BD0161
:1017E000AC0156954795062E000C770B9B012E50A9
:1017F0003140240F351F3093BF012093BE0120914B
:101800005E01E22FF0E0EE0FFF1FE15AFE4F408134
:101810005181DC01A41BB50BAD01918380832F5F47
:10182000277020935E019D01220F331F220F331F6B
:10183000820F931F2091210130E0261B370B225F7E
:101840003E4F220F331F821B930B23E01CC080915D
:10185000C8019091C9019093C5018093C40140963D
:1018600035E0969587953A95E1F7EFE5F1E08193BC
:101870009193B1E0EF36FB07D1F7A6CF009709F0BF
:101880000196215029F018161906C4F70197F9CFCF
:1018900018161906E4F457FD39C020915D0112169F
:1018A0000CF1880F991FBC016350710977FF02C0CA
:1018B0006F5F7F4F759567951616170614F061E0F8
:1018C00070E088E1861B80935D0185E026C08C3F37
:1018D0002FEF9207DCF457FF19C020915D0127FF1D
:1018E00005C02450281B20935D0119C024EE281B3D
:1018F00020935D012091C0012F3188F06CEF7FEFC4
:10190000681B790B7595679586E007C08091C001CB
:101910008E3128F060E070E087E00E949201D5DE11
:1019200080912301882329F08091230181508093A5
:10193000230108950F931F93CF931092A5018091D7
:10194000FD019091FE019C012F5F3F4F8827907809
:10195000822B932B9093FE018093FD01C091A301F4
:101960000E940602C81731F11092A2018093A301D0
:101970009091FF01882359F0892F80699F709F30D3
:1019800009F08F5F8093FF0180E090E00DC0892F08
:101990008F7E95FD02C0806801C0806C8093FF013E
:1019A0008091FD019091FE010E94E3011092FE01E1
:1019B0001092FD010091FD011091FE018091A201A4
:1019C000882379F0B80183E00E9492010E94AC0163
:1019D0000F731127012B09F046C010925C017FDEC6
:1019E00032C0C091FF018C2F807F803B19F460E0F2
:1019F00070E001C0B80181E00E949201C4FF13C0F1
:101A0000C5FF02C0C8010CC008311105E0F01092FA
:101A1000FE011092FD01C062C093FF0180E090E0E2
:101A20000E94E30110C0CC2371F0C5FD0AC0023151
:101A3000110548F0C064C093FF0180E090E00E946F
:101A4000E3010E94E70180915C01811106C083B12E
:101A5000886483B981E08093C10180915C018F5FCC
:101A60008F7180935C01CF911F910F9108958091A8
:101A7000CC0181113EDE8091A50181115BCF0895DB
:101A8000EF92FF920F931F93CF93DF93EC0108E047
:101A900017E082ECE82EFF24F3942097D9F0809190
:101AA0008101811119C08091A101843028F482E064
:101AB0000E948C01C70104C080E00E948C01C80113
:101AC0000197F1F780E00E948C01D1DF0E94AC0108
:101AD0002197E3CF81E001C080E0DF91CF911F919A
:101AE0000F91FF90EF900895FF920F931F93CF9364
:101AF000DF93C82F882311F007EB02C006E4C1E092
:101B000082E0F82E10E0D1E0F0921B0160E08091BD
:101B10001F010E949D04C801B3DFD0931B0160E048
:101B200080911F010E949D0483E191E0A9DF8091D3
:101B30001D0180931B01C15039F78DED92E0DF91BB
:101B4000CF911F910F91FF909BCFCF93DF9364E6CE
:101B5000CDD4282F892F6AE0C9D4EC01222341F08B
:101B6000822FC2DF8C2FC0DF8D2FDF91CF91BCCFB2
:101B7000C111F8CFF9CFCF93DF93D82FC3E0809175
:101B80001A010E941B0488EC90E07ADFDD2319F033
:101B900080E991E075DF80E00E941B0488EC90E012
:101BA0006FDFC15061F7DF91CF910895DF92EF921F
:101BB000FF920F931F93CF93DF93D82F8B01C09188
:101BC0000A0181E080937301C33009F0DEC0F09018
:101BD00077018D2F0E944305FF2051F080917701FE
:101BE000811106C060E070E088E097E044D8CDC085
:101BF000D83021F481E080930301C9C0D23C19F4AC
:101C000010927701D3C0D13BC1F490910201012B16
:101C100049F4973610F08FEF03C0923018F481E04A
:101C20008093030180910301890F11F481E021C1A8
:101C3000883608F41EC187E61CC1D13E31F480917C
:101C40000301819580930301DAC0D23B61F481E006
:101C50008093030180910201823008F4D8C0815042
:101C600080930201D4C0D13009F0A4C0093211051B
:101C700011F4D0930301D09053018D2D880FD7FC20
:101C8000809590E069E070E020D4292FE090520127
:101C90008E2D880FE7FC8095D09101016D2F70E0AB
:101CA00090E013D4290FF09051018F2D880FF7FC8D
:101CB0008095C09100016C2F70E090E006D4920FE7
:101CC0006091020170E0690F711D80917701813090
:101CD00091F4809174019091750125E09695879516
:101CE0002A95E1F724E730E0A901481B590BCA0106
:101CF000ECD3B90107D4862F0E941B0400FD06C057
:101D00000E940F028170D80ED09253018091500131
:101D1000E80EE09252010E940F0265E2E7D3F90E4D
:101D2000F09251010E940F028F7331F40E940F0252
:101D30006DE0DCD390935001DD2339F00E940F0257
:101D40008F7319F4D150D09301010E940F028111B9
:101D500008C00E940F026EE0C9D390930101109257
:101D60005201C33038F00E940F028F7119F4C15034
:101D7000C09300010E940F028F7709F06EC00E948D
:101D80000F0287708093000168C0D83021F481E091
:101D90008093040170C0D13C39F460E070E088E0C9
:101DA00097E00E943B0667C0D23C31F4EC2FF0E094
:101DB000319607C0D13C89F3D33C41F4EC2FF0E0DD
:101DC0003396E370FF27E0930A0134C0D13BA9F4B6
:101DD000C23008F050C000FD4EC0EC2FF0E0E85FCC
:101DE000FE4F808190910401891B883020F08F3F45
:101DF000E9F48EEF1BC088E019C0D13E31F4809128
:101E0000040181958093040115C0D23B89F481E0DF
:101E100080930401C23078F500FD2DC0EC2FF0E076
:101E2000E85FFE4F80818F3F31F18F5F808323C059
:101E3000D23E19F40E9476031EC0D53C51F460E0F6
:101E400070E084E49FE00E943B0680E00E941B0457
:101E500012C0D13011F081E00FC00932110519F420
:101E600081E08093040180919F01080F00939F01FE
:101E700002C08093020180E0DF91CF911F910F910A
:101E8000FF90EF90DF9008950F931F93CF93DF9310
:101E9000D82F8B01883031F480917301813011F497
:101EA00088E084DE8D2F8079803961F481E0809331
:101EB0007201C0917301C1110EC080911A010E947C
:101EC0001B0426C0803849F41092720180E00E9401
:101ED0001B040E940A04C0E01BC0D130C1F4C091B1
:101EE0007201CC2351F0809173018130A1F7B801C8
:101EF000DF91CF911F910F9159CE0733114058F3C5
:101F0000D093A20160E080E00E949D0401C0C1E086
:101F10008C2FDF91CF911F910F9108951F920F92F7
:101F20000FB60F9211242F933F938F939F93AF93EC
:101F3000BF93EF93FF938091CB018823E9F0E09169
:101F4000CA0120B131B1F0E0EE0FFF1FDF01AA534B
:101F5000BE4F2D933C93EE53FE4F808191818217AB
:101F6000930708F401962817390708F4019791831D
:101F7000808381E08093CC0181E08093CB01FF914D
:101F8000EF91BF91AF919F918F913F912F910F90C2
:101F90000FBE0F901F9018951F920F920FB60F92C1
:101FA00011248F9381E08093A5018F910F900FBE34
:101FB0000F901F9018951F920F920FB60F92112439
:101FC0008F9381E08093A4018F910F900FBE0F90AB
:101FD0001F901895F89485B7877F85BF88ED90E0AE
:101FE0000FB6F894A8958FBD90B7977F90BF0FBE9E
:101FF00089E08CB98CE780BB82EA8093720081E132
:10200000809371008FEF90E0909369008093680057
:1020100084E08EB988BD8CB780618CBFA89580E4C0
:1020200080BF5DDB789481E00E94F10160E070E0A8
:102030008AE696E00E942306109281010E948504A0
:102040000E94060281110BC082E00E94F101F89407
:1020500080E890E07ED2853A89F17894B4C0C0E0FF
:102060008C2F0E941B0483E190E00ADD8C2F869563
:102070000E941B0483E190E003DD0E940602882396
:1020800099F0CF5FC03461F765E181E00E945503AC
:102090000E947603C6E98C2F0E941B0484E090E026
:1020A000EFDCC150C1F7D0CFCC2371F28C2F0E944E
:1020B0001B048DE090E0E4DCC150F6CF02E811E0B3
:1020C000C1E8D0E0CE0145D2F80181938F0121967D
:1020D000CE39D105B9F778948091820180937A0145
:1020E0008091830180931401809184018093110178
:1020F0008091850180930E01809186018093150166
:1021000080918701809312018091880180930F0153
:10211000809189018093160180918A018093130137
:1021200080918B018093100180918C0180937C01C0
:1021300080918D0180937B0180918E018093790144
:1021400080918F01809319018091900180937E018D
:102150008091910180937D01809192018093200173
:102160008091930180930A018091940180930801EA
:1021700080919501809309018091960180930D01D2
:102180008091970180932101809198018093BD01F6
:10219000809199018093220180919A0180931D0181
:1021A00080919B0180931C0180919C0180931F0171
:1021B00080919D0180931E0180919E0190E09093FB
:1021C0000C0180930B0180917E01811180931A0193
:1021D00061E070E088E097E00E94230643E4442E2B
:1021E00052E0552E60E4862E9924939477E0772E62
:1021F000CC24C394D12CF5E06F2EA8E0AA2EA7E042
:10220000BA2E0E94AC018091A8019091A90100977B
:1022100051F06091A6017091A7010E943B061092B7
:10222000A9011092A8018091A201882309F440C05D
:1022300080E00E941B04A89540BE1F980E940602E1
:102240008111FCCF0E94E7018CB780618CBF109296
:10225000CC011092A5011092A4018091A2018823C3
:10226000F9F086B78F79806486BF86B7806186BFB4
:10227000889586B78F7E86BF8091A40181111092C8
:10228000A2018091CC01882329F0909223019092A1
:10229000C1012FDA8091A5018823F9F24BDBDDCF54
:1022A000509223018CB78F7E8CBF19DAA89580BE1F
:1022B000DEDB10928101C091BB01D091BC01809105
:1022C0008001811105C00E943903880F0E942402F9
:1022D000F3E0CF34DF0779F4C0E7D0E0FE0184916A
:1022E000805302DC8CE291E0CBDB2196F0E0CC372E
:1022F000DF07A1F7A1C02DE0C63DD20779F03FE08E
:10230000C434D30709F08DC080917301813009F086
:10231000D1C080917201882309F4CCC0C0910A0118
:10232000C23018F0C230C1F06CCFEC2FF0E0E85FA3
:10233000FE4FD08186E90E941B04C11103C082E0D8
:1023400090E003C08D2F869590E09ADB80E00E949C
:102350001B048D2F90E0ACC00E940F028F73E82EFB
:10236000F12C0E940F02672DC1D0E60102C0CC0FF4
:10237000DD1F9A95E2F70E940F02662DB7D0F60195
:1023800002C0EE0FFF1F9A95E2F7CE0FDF1F0E94EB
:102390000F0290E0BE01CAD0C80FD91FC739D105BE
:1023A00014F0C6E9D0E08C2F0E941B04C70168DB43
:1023B0008E0133E0159507953A95E1F7011101C0BB
:1023C00001E010E0C7015CDBC01BD10BD7FF02C0EE
:1023D000C0E0D0E08C2F0E941B040E940F0283708B
:1023E00039F4C7014DDBCE01959587950E941B04FA
:1023F000C230D1053CF70E940F026DE077D0E601B4
:1024000002C0CC0FDD1F9A95E2F70E940F0290E008
:10241000BE0178D0C80FD91F80E00E941B04CE01F6
:1024200047C0F6E0C03CDF0781F48091C0018DDB3E
:1024300080917C01882381F0B092A901A092A8012B
:102440001092A7011092A601DCCE26E0C73ED2076B
:1024500031F48091BE0179DB88EE93E029C036E04B
:10246000C039D307B9F48091A3018111CACE8091FC
:102470001A010E941B0484E690E002DB80E00E94C7
:102480001B0480910D0190E068EE73E01ED084562D
:1024900091090EC0C954D64069F48091710181112F
:1024A00005C069DB81E067DB80E065DB80ED97E0FC
:1024B000E7DAA7CE86B78F7986BF86B7806186BFF9
:1024C000889586B78F7E86BF9CCE0024552704C092
:1024D000080E591F880F991F009729F07695679568
:1024E000B8F37105B9F7802D952F0895991B79E000
:1024F00004C0991F961708F0961B881F7A95C9F794
:1025000080950895AA1BBB1B51E107C0AA1FBB1FE2
:10251000A617B70710F0A61BB70B881F991F5A956F
:10252000A9F780959095BC01CD01089597FB072EE2
:1025300016F4009406D077FD08D0E4DF07FC05D040
:102540003EF4909581959F4F0895709561957F4FCA
:102550000895E199FECF1FBA8EBBE09A99278DB3FB
:102560000895262FE199FECF1FBA8EBBE09A8150C5
:102570000DB2021639F01CBA2DBB0FB6F894E29AD0
:0A258000E19A0FBE0895F894FFCF12
:10258A00080E180101010004294303D002020107C1
:10259A00058282820B0B0B820B0132020102172782
:1025AA0019320702050403140111010E0102010088
:1025BA00000000000000010000000000000000010F
:1025CA000000210123022503270429052C06FF0602
:00000001FF
