:1000000003C200001EC200001CC200000C94BF10FE
:1000100018C200000C94B01014C2000012C20000FC
:1000200010C200000EC200000CC200000AC2000094
:1000300008C2000006C200000C94721002C2000048
:1000400000C20000FEC10000FCC10000FAC10000B7
:10005000F8C10000F6C10000F4C10000F2C10000C8
:10006000F0C10000EEC10000ECC10000EAC10000D8
:100070003230323231303032303132340001050426
:1000800014101115FF3FFF3FE62D6239DF23973033
:100090002F3583363536F8342533F130EB33E13004
:1000A000D431E131752EE32D352FCD2D412C342C5B
:1000B000632AD92916292A2820270126D424522444
:1000C0000B235A220B2141206B1F231E491D6B1C41
:1000D0008C1B611A8A1974186A17A6167D15971455
:1000E0008E139612AD11AC10BE0FBF0EB40DBF0C27
:1000F000C20BC00AD509D008CE07E306E805E10423
:10010000E203ED02F101FF00FF00FF00FF00FF002E
:10011000FF00FF00FF00FF00FF00FF00FF00FF00E7
:10012000FF00FF00FF00FF00FF00FF00FF00FF00D7
:10013000FF00FF00FF00FF00FF00FF00FF00FF00C7
:10014000FF00FF00FF00FF00FF00FF00FF00FF00B7
:10015000FF00FF00FF00FF00FF00FF00FF00FF00A7
:10016000FF00FF00FF00FF00FF00FF00FF00FF0097
:10017000FF00FF00FF00FF00FF00FF00FF00FF0087
:10018000FF00FF00FF00FF00FF00FF00FF00FF0077
:10019000FF00FF00FF00FF00FF00FF00FF00FF0067
:1001A000FF00FF00FF00FF00FF00FF00FF00FF0057
:1001B000000000000000000000000000000000003F
:1001C000000000000000000000000000000000002F
:1001D000000000000000000000000000000000001F
:1001E000000000000000000000000000000000000F
:1001F00000000000000000000000000000000000FF
:1002000000000000000000000000000000000000EE
:1002100000000000000000000000000000000000DE
:1002200000000000000000000000000000000000CE
:1002300000000000000000000000000000000000BE
:1002400000000000000000000000000000000000AE
:10025000000000000000000000000000000000009E
:10026000000000000000000000000000000000008E
:10027000000000000000000000000000000000007E
:10028000000000000000000000000000000000006E
:10029000000000000000000000000000000000005E
:1002A000000000000000000000000000000000004E
:1002B00000000000090014001E00290034003F0067
:1002C0004B005700630070007D008A009700A50076
:1002D000B300C200D000E000EF00FF00000001000A
:1002E00001000200020003000400050006000700F0
:1002F000080009000B000C000E0010001100130094
:10030000160018001A001D001F00220025002800FA
:100310002B002E003100350038003C003F00430028
:1003200047004A004E005200560059005D00600030
:100330006300670069006C006E007000720073005B
:10034000740074007300720070006D006A00650034
:100350005F005900510047003C00300022001300AC
:10036000140015001600170018001A001B001C00CE
:100370001E001F0020002200240025002700290065
:100380002B002D002F0031003300350038003A00DB
:100390003D003F004200450048004B004E00510028
:1003A000540058005B005F00630067006B006F0043
:1003B000730077007C00810085008A008F00950023
:1003C0009A009F00A500AB00B100B700BD00C400BB
:1003D000CB00D200D900E000E700EF00F700FF00FB
:1003E000FF00FF00FF00FF00FF00FF00FF00FF0015
:1003F000FF00FF00FF00FF00FF00FF00FF00FF0005
:10040000FF00FF00FF00000011241FBECFEFD4E06B
:10041000DEBFCDBF11E0A0E0B1E0E8E6F7E202C048
:1004200005900D92A035B107D9F722E0A0E5B1E023
:1004300001C01D92A030B207E1F70E94CE100C94CB
:10044000B213DECDF89498ED9FBD83BF78940895E4
:10045000482F9B01EDECF1E080E090E050815523C6
:1004600031F00196339680319105C1F70AC063E0FF
:1004700070E00E945413FC01E353FE4F408332832B
:10048000218308950F931F93CF93DF93D091CD01D4
:10049000DD2351F10091CE011091CF01C091AA014D
:1004A000C150C7FD0DC0EC2FEE0FFF0BE555FE4F01
:1004B0000190F081E02DB8018D2F09958111F0CFC9
:1004C000EDECF1E083818083848195819283818347
:1004D000339681E0EA3FF807A9F71092FA011092EB
:1004E000FC011092FB01D2CFDF91CF911F910F91B0
:1004F0000895BC018091FF01ABCF1092FF011092D3
:10050000FE011092FD0181E08093810108950F9317
:100510001F93CF93C82F08EA17E0CC2349F082E05D
:1005200091DFC8010197F1F780E08CDFC150F5CF72
:10053000CF911F910F9108958BB182FB882780F98D
:1005400091E089278093A3010895E0910601F0913D
:1005500007013196FB70F460F0930701E093060108
:1005600080919F018B5A80939F01E49180919F011C
:100570008E0F08950F931F93CF93DF9300D01F9298
:10058000CDB7DEB72091240130912501409126019D
:1005900029833A834B83FE01319640E050E090E09E
:1005A00061E070E0B1919A01220F331F8C0102C00B
:1005B000159507952A95E2F79801237061F021308F
:1005C000D1F4A0B39B0101C0220FBA95EAF7322FF4
:1005D00030953A2318C0A0B39B0101C0220FBA95F1
:1005E000EAF720953A2F322330BB32B3322332BBA5
:1005F00031B323230EC0A0B39B0101C0220FBA95D3
:10060000EAF73A2F322B30BB32B3322B32BB31B345
:10061000232B21BB4F5F5F4F4330510519F60F90DD
:100620000F900F90DF91CF911F910F910895CF936D
:10063000DF9300D000D000D0CDB7DEB790917A0123
:100640002091BB013091BC012A563B4009F492E055
:10065000843019F460937B0121C06623F9F0823065
:1006600019F427E9261B622F26E0E7E2F1E0DE011C
:10067000119601900D922A95E1F7E82FF0E031975D
:10068000EE0FFF1F21E030E02C0F3D1FE20FF31FA4
:100690000190F081E02DE90FF11D608326960FB6E1
:1006A000F894DEBF0FBECDBFDF91CF9108958130AA
:1006B00011F4609320010895BF92CF92DF92EF92E0
:1006C000FF920F931F93CF93DF93EC0140917A0138
:1006D000E0917C01EE2311F082E001C0842F90E0D4
:1006E000DC01AC5EBE4F2C9120931801DC01AF5EA3
:1006F000BE4F8C9180931701F0E0E25FFE4F318195
:10070000622F70E0442349F0313039F49B01280F07
:10071000311DC9019595879538C0C617D707A4F133
:10072000682F70E06C177D0784F1411102C08C2F97
:100730002CC0821B032F10E001501109E82EF12C70
:10074000C701B8010E948513609378016695E62F72
:10075000F0E0822FC12CD12CB12CB316B1F0C60120
:10076000B8010E947113822F860FCE0CDF1CAE01E0
:10077000481B510957FF03C0519541955109E41792
:10078000F5071CF4B394E9CF822FDF91CF911F912D
:100790000F91FF90EF90DF90CF90BF9008959091D0
:1007A000C00180E09D3180F0E82FF0E0E05CFE4F7A
:1007B0002081921710F08E5FF7CF3197E081F0E043
:1007C000E358FF4F84910895089581E008956111E1
:1007D000609322010895662389F0813061F480914D
:1007E000BE019091BD01891B681B6093BD0182E031
:1007F0008093230103C0635E6093210180912101F6
:10080000873418F086E480932101089570E0709396
:100810000C0160930B0108950F931F93CF93DF9307
:1008200080917A01809382018091140180938301E9
:10083000809111018093840180910E018093850144
:100840008091150180938601809112018093870128
:1008500080910F0180938801809116018093890116
:100860008091130180938A018091100180938B0104
:1008700080917C0180938C0180917B0180938D011C
:100880008091790180938E018091190180938F016D
:1008900080917E018093900180917D0180939101F0
:1008A000809120018093920180910A0180939301AD
:1008B00080910801809394018091090180939501B2
:1008C00080910D0180939601809121018093970181
:1008D0008091BD01809398018091220180939901BC
:1008E00080911D0180939A0180911C0180939B014E
:1008F00080911F0180939C0180911E0180939D0136
:1009000080910B0180939E0182E001DEF89402E861
:1009100011E0C1E8D0E0F80161918F01CE010E94A1
:10092000A0132196CE39D105B1F765EA80E890E0B1
:100930000E94A0137894DF91CF911F910F91089599
:10094000829A929A8A9A0895882331F0813041F4EC
:100950008298929A8A9A0895829892988A9808958D
:10096000EFCFCF93C82F8091A101811109C0CC2373
:1009700039F080912001C81718F4F3DF82E0C7DD59
:10098000C093A101C093A0018091A201811109C06F
:100990002C2F30E081E0243031050CF480E08F5FB3
:1009A000D3DFC1110EC010926D0010926C00109236
:1009B0006B0010926A0010926F0010926E0068989F
:1009C00035C0689A8FEF8C0F90E0880F991FFC015B
:1009D000E452FD4F2591349130936D0020936C00CB
:1009E000FC01E055FE4F2591349130936B0020932C
:1009F0006A00FC01EC57FF4F2591349180915B0117
:100A0000A90140525109882339F060916E0070911C
:100A10006F0046175707B8F33093690020936800BA
:100A2000811104C010926F0010926E00C0935B01A0
:100A30008091A101843010F482E005C08C3010F464
:100A400081E001C080E0CF91FDCC80937F0189CF10
:100A5000CF93C091A10182E38C0F873908F080E029
:100A600080DF83E054DD8C2FCF917BCFCF93C0917B
:100A7000A10180E076DF83E04ADD8C2FCF9171CF3A
:100A80000F931F93CF93DF93E82F8091C001815084
:100A90008C3120F480E06EDD80E07FC0CE2FC295E7
:100AA000CF70DE2FDF708091A201811103C0C330AF
:100AB00008F0C2E0D730A8F40091550110E00F5FB4
:100AC0001F4F43DD65E00E9465139801290F311D1A
:100AD000C90166E070E00E94851380935501ED2FF7
:100AE0002EC0D730A9F40091550110E00F5F1F4FC1
:100AF0002CDD65E00E9465139801290F311DC901A5
:100B000066E070E00E94851380935501FC0127C0C8
:100B10008091A201D830A9F4882311F08FEF01C091
:100B200083E0682351F48091550190E0019666E0DE
:100B300070E00E94851380935501E0915501F0E02B
:100B40000EC0882319F02BDEE82F0CC0862F869567
:100B500063E00E946513E92FF0E0EE0FFF1FE358FA
:100B6000FF4FE491C33071F48091540190E00196FD
:100B700063E170E00E94711380935401DC01A35D76
:100B8000BE4FCC91CC2321F0C13019F0EE0F01C043
:100B9000E0E08E2FEFDC80911B01DF91CF911F9160
:100BA0000F91D2CE813019F410927E0108958230D7
:100BB00019F460937D010895833019F460937901ED
:100BC0000895843011F4609319010895883039F440
:100BD00010927701109275011092740140C0813B10
:100BE00059F48091770181508330D8F583E0809368
:100BF00077018093760135C0853BB1F4CB016EE37C
:100C000070E00E947113892B51F580917701853F27
:100C100030F5865F8093770180937601109275019D
:100C20001092740115DF1BC08130D9F480917401DA
:100C300090917501019688382EE0920728F49093E0
:100C40007501809374010BC01092750110927401AC
:100C500080917701882319F081508093770180E09B
:100C6000089581E00895FF920F931F93CF93DF9330
:100C70008C01EB01F42E8091BB019091BC01892B7A
:100C800031F0E091BB01F091BC0189E0099510932E
:100C9000BC010093BB01012B39F0E091BB01F09145
:100CA000BC01BE018F2D099581E080938101DF9108
:100CB000CF911F910F91FF900895CF93DF93E09113
:100CC000AA01EE2359F0E150E093AA01F0E0EE0F03
:100CD000FF1FE555FE4FC081D18102C0C0E0D0E0CA
:100CE000E091AA01EE2341F0F0E0EE0FFF1FE7557F
:100CF000FE4F8081918102C080E090E04AE060E098
:100D000070E0B1DFCE01DF91CF910895883029F4F2
:100D1000109270011092560116C0813001F5909129
:100D20005601911107C06032710570F18093560130
:100D3000E4DB2AC0913089F4673381E0780728F03A
:100D400082E08093560180E01EC061157105E1F0DC
:100D50006270862F880F8E5E16C0AFDF15C0813897
:100D600011F0813E89F491E090935601813E21F487
:100D700080917001865F03C0809170018F5F8093C6
:100D80007001BBDB8BE4EDDD80E008959C01909168
:100D9000AA01983088F4E92FF0E0EE0FFF1FE55527
:100DA000FE4F318320839F5F9093AA0148E0C901E1
:100DB0005ADF8091AA0108958FEF08950F931F9332
:100DC000CF93DF93EC018B0178DFB801CE01DF9187
:100DD000CF911F910F91DACF813C39F410927101BC
:100DE00060E070E08BEA97E00DC0823C29F460E09F
:100DF00070E083E697E006C0833C31F460E070E089
:100E000083E397E0DBDF05C08A3C29F481E080932F
:100E1000710180E0089581E00895843011F580919A
:100E2000BB019091BC012EE0893B920729F469E156
:100E300070E086ED98E013C0865D984061F4909173
:100E4000A101923040F0892F869596959695890F4D
:100E5000FCDD80E0089560E070E08BEA97E0AEDFB3
:100E6000F8CF81E00895813C29F460E070E08BEADE
:100E700097E00DC0823C29F460E070E08CEE96E0D3
:100E800006C0833C31F460E070E08AE897E096DFCA
:100E900016C0813B49F4CB016EE370E00E947113F0
:100EA000892B69F4D5DD0BC0813E59F4CB016EE38B
:100EB00070E00E9471136F5F60930D01ADDC80E004
:100EC000089581E00895CF93C0917C01C1111EC0A7
:100ED000813C29F460E070E08BEA97E006C0823C38
:100EE00031F460E070E08AE897E068DF10C0833C8E
:100EF00029F460E070E08CEE96E0F7CF873B31F4A8
:100F000060E070E086E79BE041DF01C0C1E08C2F2C
:100F1000CF910895813C29F460E070E08BEA97E07E
:100F20000DC0823C29F460E070E083E397E006C0E6
:100F3000833C31F460E070E083E697E03FDF07C078
:100F4000873B39F460E070E08AE79BE01FDF80E0D8
:100F5000089581E008950F931F93CF938B018830FC
:100F6000A1F480E0FEDC60E080911F0189DD8091CA
:100F70001D0180931B01E8DC10927701012B19F40D
:100F800081E08093A201C0E00CC1813049F4693155
:100F90007105C8F38093A20180911F0171DDF3CF29
:100FA000833031F520917E01222361F080917D0113
:100FB00090E062EC71E00E9454130817190710F0DA
:100FC00020931A01602F80911F015ADD80910B013F
:100FD00090910C010097B9F262EC71E00E945413F9
:100FE0008017910780F660E070E082E89BE048C0DF
:100FF000813B99F481E090E05FDBB3DC8091790183
:101000008111C1CF80917A01811104C0083111058D
:1010100008F4B9CF61E070E028C0813ED9F381388F
:1010200021F480911A0190E013C0813C21F4609179
:10103000A10170E01AC0823B79F48091190190916E
:101040007C01911180917B01811104C086E990E0BF
:1010500033DB05C086E903C0823E19F480E081DC01
:1010600092CF823C29F466E970E086ED98E008C0F2
:101070008339A1F3833C31F460E070E083E697E0CC
:101080009DDE81CF843C09F4AECF8F3C29F460E033
:1010900070E085EE93E0F4CFC0917C018A3B71F45F
:1010A000672B61F4CC2329F0D3DC10927C01B4DBF4
:1010B0006ACF60E070E08AE69BE070C0C11170C04A
:1010C0008A3C29F4C5DC81E080937C015DC08D3BC6
:1010D00041F4F89488ED8FBD88E880BF7894A89596
:1010E000FFCF833B29F460E070E089EB9EE006C00F
:1010F000853B31F460E070E088E290E15FDE51C052
:10110000863C71F480911D0190E0019663E070E0EF
:101110000E94851380931D0180931B0115DC34C050
:10112000873C91F490911F01892F82958F708F5F7A
:1011300083708295807F9F70892B80931F0160E070
:101140009FDC6ADB85DC2DC0873BD1F481E0809396
:101150008001C8018F739927892B69F490911F0131
:10116000892F8F708F5F292F207F6BE00E9465137E
:10117000922B90931F01602F80911F0181DC11C081
:10118000873E21F41092800147DB0BC0893B41F47C
:10119000012B31F460E070E082E79BE0F7DD01C0F5
:1011A000C1E08C2FCF911F910F9108959F92AF9224
:1011B000BF92CF92DF92EF92FF920F931F93CF9344
:1011C000DF93182FEB01D0901801F0901701A09039
:1011D0007A01AA2019F0B090780102C0BB24B39420
:1011E000C090190100917C010111C0907B01CC20BD
:1011F00051F081E0C81621F080911A018F1518F086
:10120000A6E9EA2E01C0EF2C90907701BE01812F54
:10121000DDDC60917701662339F091100CC080917C
:10122000A10180935A0107C0992029F060E070E085
:101230008BEA97E039C0812F8D7F8830D9F41092E6
:1012400073011A3019F4C0911A01D0E08D2D90E08D
:101250008C179D0738F48F2D90E0C817D90710F42C
:10126000C0931A01CE0128DAF0DB81E080930501FA
:1012700000E0DCC1113CD1F2123C71F48091A1017B
:101280008E1510F48E2D02C080911A01DEDB809144
:10129000A10180935A01ECCF143C41F480E061DB62
:1012A00060E070E082E89BE089DDE2CF8FE4810FAF
:1012B000823008F058C0AA2041F0CE0168E170E009
:1012C0000E947113892B31F0D3CF60910E0170E031
:1012D000CE01F6CF2091A101209761F4123B11F4C9
:1012E0008FEF05C02F15E0F7D21608F181E080934B
:1012F00005011DC0E0910E01F0E0CF0166E371E051
:101300000E9454138C179D0710F42F1548F7CF0136
:101310006CE672E00E9454138C179D0740F4D216BD
:1013200030F096DB60E070E082E89BE047DDD09132
:10133000A101809105016B2D70E0082E000C990B26
:101340000E9454138D0F911DB7D9C82F80931A0195
:10135000D81739F0823821F0F81611F0D81201C0F0
:1013600085DB8C2F93CF8FE1810F823020F4809129
:10137000050181957BCF113009F0CDC0A99711F4FB
:10138000109305016623A1F080915A0170E061502D
:10139000710990E00E9454136091760170E00E9400
:1013A0008513611101C061E06093A00160937F012A
:1013B000C091A0012091A1018C2F90E0821B910986
:1013C00060915801709159016F5F7F4F709359017F
:1013D00060935801009709F44BCF97FF05C0283858
:1013E00030F040E450E005C040E052E002C040E090
:1013F00051E05695479597FD0196959587950097ED
:10140000C1F74617570708F033CFC21710F48FEF14
:1014100003C02C1718F481E0820F01C08C2F9FEFBE
:10142000980F492F50E0440F551FBA0164527D4F69
:10143000FB01A591B491921770F420916C0030914A
:101440006D00232B41F4AF3FB10529F4B0936D003B
:10145000A0936C001FC020916C0030916D002A1782
:101460003B0738F420916C0030916D002F5F3F4FA7
:101470000DC020916C0030916D00A217B30750F49D
:1014800020916C0030916D002150310930936D0036
:1014900020936C009A0120553E4FF90145915491DB
:1014A000E0916A00F0916B00E417F50738F4409181
:1014B0006A0050916B004F5F5F4F0DC0E0916A0072
:1014C000F0916B004E175F0750F440916A00509105
:1014D0006B004150510950936B0040936A00A091FA
:1014E0006C00B0916D00FB0145915491A417B507B4
:1014F00069F440916A0050916B00F9012591349193
:101500004217530719F42DDAC093A0011092590124
:1015100010925801ADCE1530A9F48091A101833409
:1015200008F4A6CE90E08C1B9D0B282F82349105E9
:101530002CF08739910518F026E901C022E42093A8
:10154000A00196CE1630B1F49091A10180917F0157
:10155000981708F08DCEC90FD11D90E08C179D070C
:1015600034F0C234D10524F4C2E4D0E001C0EC016F
:101570008C2F0EC0173079F49091A0018091A101B9
:10158000891710F48F5F04C0981708F071CE81504E
:101590008093A0016DCE011148C0133C99F481E005
:1015A000A11080E080937A0137D960DA8091A1019F
:1015B00090E082D880931A0148DA8091A10180934B
:1015C0005A0134C0133B49F4CD2B09F051CECC2045
:1015D00011F086E9E82E8E2D04C0133E21F480918F
:1015E0001A0133DA23C0153C41F480E0BAD960E037
:1015F00070E088E290E1E2DB19C0173B29F460E07B
:1016000070E086E69BE00FC01A3C39F48091A1019E
:1016100080937E0101D91CDA09C01A3B31F460E0E5
:1016200070E08EE69BE0B2DB01C001E0802FDF912D
:10163000CF911F910F91FF90EF90DF90CF90BF90CF
:10164000AF909F900895883061F41092570180E028
:1016500088D98091A301811137C081E0809357011F
:1016600023C0982F907F903BB9F4209157014217E7
:1016700080F0CB016DE570E00E947113029739F4A0
:101680002F5F209357014217F8F088E303C082E1EF
:1016900001C080E066D918C0903E61F48091570186
:1016A000882389F0481778F060E070E086E896E0DB
:1016B0006DDB0AC08A3041F460917001809157015E
:1016C000F9010995A9D8F9DA80E0089527E133E016
:1016D00043E0B9CF27E133E044E0B5CF22ED35E078
:1016E00044E0B1CF27E533E041E0ADCF27EE33E072
:1016F00041E0A9CF2BEE33E042E0A5CF26E034E075
:1017000041E0A1CF0F931F93CF93DF93D82F8B018D
:10171000873B19F480E025D960C080798039B1F425
:1017200020911401909115018D2F8F70823041F41A
:1017300080917E01811108C0822F291728F403C0EF
:10174000822F921708F4892F0CD910C0803811F419
:1017500080E007D9D83051F460E080911E0190D923
:1017600080911C0180931B01EFD837C0D13039F430
:101770000931110508F483C0D093A20102C0D3300F
:1017800029F4602F80911E017BD979C0D33C29F4C4
:1017900060E070E08BEA97E01EC0D43C71F4C09129
:1017A0007E01CC2319F06C2F70E013C060911A01F8
:1017B00070E086ED98E002DB65C0D43B31F456D989
:1017C0001092FF0161E070E004C0D53C31F466E99D
:1017D00070E086ED98E0F2DA52C0C0917C01C11150
:1017E00050C0DA3B31F460E070E08EE79BE0CEDA87
:1017F00049C0D63C69F480911C0190E0019663E0F9
:1018000070E083D780931C0180931B019DD834C066
:10181000D73C99F490911E01892F82958F708F5F2C
:1018200083708295807F9F70892B80931E0160E07A
:1018300027D90E940C040CD925C0D73BC9F481E0FC
:1018400080938001C8018F739927892B61F490914F
:101850001E01892F8F708F5F292F207F6BE035D776
:10186000922B90931E01602F80911E0109D90AC00E
:10187000D73E39F4109280010E940C0403C0C0E0EE
:1018800001C0C1E08C2FDF91CF911F910F9108957E
:1018900086E884B91092CA011092CB0183B18864A2
:1018A00083B90895F5DFE1E6F0E08081826080830E
:1018B000139A87EE83B908951092CC0120B191B1AB
:1018C00030919F012295269526952370892F90E0CF
:1018D000880F991F880F991F820F911D830F809386
:1018E0009F018091C101882309F406C11092C101B2
:1018F0008091CA019091A201992319F01F9810922A
:10190000CA0181113DC080912301882349F0809153
:10191000C6019091C7019093C3018093C20104C096
:101920008091C2019091C3014096807E96958795E3
:1019300061EC72E0D6D6809122018750680F6093E7
:10194000C00180916F01882311F0815008C06D3172
:1019500040F460E070E084E00E94280285E080931B
:101960006F018091A2018111BEC08EE884B981E02F
:101970008093CA011092CB0183B1886483B9B3C04C
:10198000813009F0B0C080912301811143C0809162
:10199000C4019091C501409645E0969587954A957A
:1019A000E1F76091BD01AC0156954795062E000CFC
:1019B000770B9B012E503140240F351F3093BF0110
:1019C0002093BE0120915E01E22FF0E0EE0FFF1F99
:1019D000E15AFE4F40815181DC01A41BB50BAD01E2
:1019E000918380832F5F277020935E019D01220FDA
:1019F000331F220F331F820F931F2091210130E0EC
:101A0000261B370B225F3E4F220F331F821B930B87
:101A100023E01CC08091C8019091C9019093C50139
:101A20008093C401409635E0969587953A95E1F705
:101A3000EFE5F1E081939193B1E0EF36FB07D1F749
:101A4000A6CF009709F00196215029F01816190623
:101A5000C4F70197F9CF18161906E4F457FD39C0F9
:101A600020915D0112160CF1880F991FBC01635083
:101A7000710977FF02C06F5F7F4F759567951616E6
:101A8000170614F061E070E088E1861B80935D0129
:101A900085E026C08C3F2FEF9207DCF457FF19C07A
:101AA00020915D0127FF05C02450281B20935D0174
:101AB00019C024EE281B20935D012091C0012F3115
:101AC00088F06CEF7FEF681B790B7595679586E062
:101AD00007C08091C0018E3128F060E070E087E09F
:101AE0000E942802D5DE80912301882329F080916D
:101AF000230181508093230108950F931F93CF9367
:101B00001092A5018091FD019091FE019C012F5F33
:101B10003F4F88279078822B932B9093FE018093E0
:101B2000FD01C091A3010E949C02C81731F11092DF
:101B3000A2018093A3019091FF01882359F0892F7E
:101B400080699F709F3009F08F5F8093FF0180E074
:101B500090E00DC0892F8F7E95FD02C0806801C086
:101B6000806C8093FF018091FD019091FE010E94A5
:101B700079021092FE011092FD010091FD01109179
:101B8000FE018091A201882379F0B80183E00E94D0
:101B900028020E9442020F731127012B09F046C050
:101BA00010925C017FDE32C0C091FF018C2F807FDC
:101BB000803B19F460E070E001C0B80181E00E9450
:101BC0002802C4FF13C0C5FF02C0C8010CC0083101
:101BD0001105E0F01092FE011092FD01C062C09369
:101BE000FF0180E090E00E94790210C0CC2371F0E8
:101BF000C5FD0AC00231110548F0C064C093FF0161
:101C000080E090E00E9479020E947D0280915C0158
:101C1000811106C083B1886483B981E08093C101DA
:101C200080915C018F5F8F7180935C01CF911F91D8
:101C30000F9108958091CC0181113EDE8091A50124
:101C400081115BCF0895EF92FF920F931F93CF9373
:101C5000DF93EC0108E017E082ECE82EFF24F39418
:101C60002097D9F080918101811119C08091A10143
:101C7000843028F482E00E942202C70104C080E080
:101C80000E942202C8010197F1F780E00E9422021F
:101C9000D1DF0E9442022197E3CF81E001C080E0C2
:101CA000DF91CF911F910F91FF90EF900895FF92D8
:101CB0000F931F93CF93DF93C82F882311F007EB67
:101CC00002C006E4C1E082E0F82E10E0D1E0F0921C
:101CD0001B0160E080911F010E944005C801B3DF35
:101CE000D0931B0160E080911F010E94400583E1B9
:101CF00091E0A9DF80911D0180931B01C15039F74C
:101D00008DED92E0DF91CF911F910F91FF909BCFCE
:101D1000CF93DF9364E6D9D4282F892F6AE0D5D4F6
:101D2000EC01222341F0822FC2DF8C2FC0DF8D2FE8
:101D3000DF91CF91BCCFC111F8CFF9CFCF93DF9313
:101D4000D82FC3E080911A010E94B10488EC90E082
:101D50007ADFDD2319F080E991E075DF80E00E94F1
:101D6000B10488EC90E06FDFC15061F7DF91CF9153
:101D70000895DF92EF92FF920F931F93CF93DF931B
:101D8000D82F8B01C0910A0181E080937301C33089
:101D900009F0DFC0F09077018D2F0E94E605FF204B
:101DA00051F080917701811106C060E070E08BEA0C
:101DB00097E004D8CEC0D83021F481E080930301AD
:101DC000CAC0D23C19F410927701D4C0D13BC1F4FF
:101DD00090910201012B49F49E3610F08FEF03C061
:101DE000923018F481E08093030180910301890F00
:101DF00011F481E022C18F3608F41FC18EE61DC1A7
:101E0000D13E31F480910301819580930301DBC0C1
:101E1000D23B61F481E08093030180910201823022
:101E200008F4D9C0815080930201D5C0D13009F0A7
:101E3000A5C00932110511F4D0930301D0905301CC
:101E40008D2D880FD7FC809590E067E070E02CD452
:101E5000292FE09052018E2D880FE7FC8095D091BC
:101E600001016D2F70E090E01FD4290FF090510117
:101E70008F2D880FF7FC8095C09100016C2F70E0CA
:101E800090E012D4920F6091020170E0690F711D11
:101E900080917701813091F4809174019091750166
:101EA00025E0969587952A95E1F724E730E0A9018A
:101EB000481B590BCA01F8D3B90113D4862F0E94CD
:101EC000B10400FD06C00E94A5028170D80ED09218
:101ED000530180915001E80EE09252010E94A50248
:101EE00065E2F3D3F90EF09251010E94A5028F73BF
:101EF00031F40E94A5026DE0E8D390935001DD23F8
:101F000039F00E94A5028F7319F4D150D0930101CA
:101F10000E94A502811108C00E94A5026BE0D5D3E2
:101F20009093010110925201C33038F00E94A50233
:101F30008F7119F4C150C09300010E94A5028F77E0
:101F400009F06FC00E94A50266E0BFD39093000124
:101F500068C0D83021F481E08093040170C0D13C86
:101F600039F460E070E08BEA97E00E94DE0667C01B
:101F7000D23C31F4EC2FF0E0319607C0D13C89F32C
:101F8000D33C41F4EC2FF0E03396E370FF27E0936D
:101F90000A0134C0D13BA9F4C23008F050C000FDA2
:101FA0004EC0EC2FF0E0E85FFE4F8081909104017D
:101FB000891B883020F08F3FE9F48EEF1BC088E04A
:101FC00019C0D13E31F480910401819580930401C0
:101FD00015C0D23B89F481E080930401C23078F5CA
:101FE00000FD2DC0EC2FF0E0E85FFE4F80818F3FB9
:101FF00031F18F5F808323C0D23E19F40E940C041C
:102000001EC0D53C51F460E070E088E290E10E948F
:10201000DE0680E00E94B10412C0D13011F081E0F0
:102020000FC00932110519F481E0809304018091F9
:102030009F01080F00939F0102C08093020180E07E
:10204000DF91CF911F910F91FF90EF90DF90089556
:102050000F931F93CF93DF93D82F8B01883031F4E8
:1020600080917301813011F488E083DE8D2F8079B7
:10207000803961F481E080937201C0917301C111D4
:102080000EC080911A010E94B10426C0803849F424
:102090001092720180E00E94B1040E94A004C0E08E
:1020A0001BC0D130C1F4C0917201CC2351F080919A
:1020B00073018130A1F7B801DF91CF911F910F918A
:1020C00058CE0733114058F3D093A20160E080E06E
:1020D0000E94400501C0C1E08C2FDF91CF911F917C
:1020E0000F9108951F920F920FB60F9211242F9304
:1020F0003F938F939F93AF93BF93EF93FF93809101
:10210000CB018823E9F0E091CA0120B131B1F0E0C0
:10211000EE0FFF1FDF01AA53BE4F2D933C93EE53EA
:10212000FE4F808191818217930708F4019628174A
:10213000390708F401979183808381E08093CC0173
:1021400081E08093CB01FF91EF91BF91AF919F917F
:102150008F913F912F910F900FBE0F901F90189568
:102160001F920F920FB60F9211248F9381E08093EC
:10217000A5018F910F900FBE0F901F9018951F9281
:102180000F920FB60F9211248F9381E08093A401D8
:102190008F910F900FBE0F901F901895F89485B7F0
:1021A000877F85BF88ED90E00FB6F894A8958FBD26
:1021B00090B7977F90BF0FBE89E08CB98CE780BB4A
:1021C00082EA8093720081E1809371008FEF90E04A
:1021D000909369008093680084E08EB988BD8CB7C5
:1021E00080618CBFA89580E480BF5CDB789481E03F
:1021F0000E94870260E070E08DE097E00E94C606D2
:10220000109281010E9428050E949C0281110BC03E
:1022100082E00E948702F89480E890E089D2853AB3
:1022200089F17894B4C0C0E08C2F0E94B10483E19E
:1022300090E009DD8C2F86950E94B10483E190E047
:1022400002DD0E949C02882399F0CF5FC03461F7C1
:1022500065E181E00E94EB030E940C04C6E98C2F2B
:102260000E94B10484E090E0EEDCC150C1F7D0CF11
:10227000CC2371F28C2F0E94B1048DE090E0E3DC5E
:10228000C150F6CF02E811E0C1E8D0E0CE0150D253
:10229000F80181938F012196CE39D105B9F7789451
:1022A0008091820180937A0180918301809314014F
:1022B00080918401809311018091850180930E01AA
:1022C000809186018093150180918701809312018E
:1022D0008091880180930F0180918901809316017C
:1022E00080918A018093130180918B01809310016A
:1022F00080918C0180937C0180918D0180937B0182
:1023000080918E018093790180918F0180931901D2
:102310008091900180937E018091910180937D0155
:1023200080919201809320018091930180930A0112
:102330008091940180930801809195018093090117
:102340008091960180930D018091970180932101E6
:10235000809198018093BD01809199018093220121
:1023600080919A0180931D0180919B0180931C01B3
:1023700080919C0180931F0180919D0180931E019B
:1023800080919E0190E090930C0180930B018091CD
:102390007E01811180931A0161E070E08BEA97E081
:1023A0000E94C60643E4242E52E0352E60E4462EF9
:1023B000992493947CEFA72E73E0B72EE7E08E2E3E
:1023C000F5E05F2EABEACA2EA7E0DA2E0E944202A9
:1023D0008091A8019091A901009751F06091A60108
:1023E0007091A7010E94DE061092A9011092A80127
:1023F0008091A201882309F440C080E00E94B104CA
:10240000A89520BE1F980E949C028111FCCF0E94BB
:102410007D028CB780618CBF1092CC011092A50117
:102420001092A4018091A2018823F9F086B78F79D8
:10243000806486BF86B7806186BF889586B78F7EA9
:1024400086BF8091A40181111092A2018091CC01DC
:10245000882329F0909223019092C1012DDA809176
:10246000A5018823F9F249DBDDCF309223018CB737
:102470008F7E8CBF17DAA89540BEDCDB10928101FD
:10248000C091BB01D091BC0180918001811105C038
:102490000E94CF03880F0E94BA02F3E0C53EDF0717
:1024A00079F4C0E7D0E0FE018491805300DC8CE237
:1024B00091E0C9DB2196F0E0CC37DF07A1F7ABC094
:1024C0008EE0C93BD80779F0E0E1C832DE0709F0B9
:1024D00097C080917301813009F0DBC08091720157
:1024E000882309F4D6C0C0910A01C23018F0C23066
:1024F000F1F06CCFEC2FF0E0E85FFE4FD08186E981
:102500000E94B104C11109C0DA3220F4C50101975B
:10251000F1F707C081E090E003C08D2F869590E031
:1025200092DB80E00E94B1048D2F90E0B0C00E9449
:10253000A5028F73E82EF12C0E94A502682DC5D04C
:1025400001E010E0380102C0660C771C9A95E2F7B2
:102550000E94A502652DB9D0E80102C0CC0FDD1F95
:102560009A95E2F76C0E7D1E0E94A50290E0B301E1
:10257000CCD0E301C80FD91FC739D10514F0C6E983
:10258000D0E08C2F0E94B104C7015DDB8E0133E0E7
:10259000159507953A95E1F7011101C001E010E0AA
:1025A000C70151DBC01BD10BD7FF02C0C0E0D0E098
:1025B0008C2F0E94B1040E94A502837039F4C701D8
:1025C00042DBCE01959587950E94B104C230D105BA
:1025D0003CF70E94A5026DE078D0C1E0D0E002C0D7
:1025E000CC0FDD1F9A95E2F70E94A50290E0BE0194
:1025F00078D0C80FD91F80E00E94B104CE0147C037
:10260000F7E0C336DF0781F48091C00181DB809160
:102610007C01882381F0D092A901C092A801109278
:10262000A7011092A601D2CE87E0CA38D80731F4AC
:102630008091BE016DDB88EE93E029C0E7E0C333F3
:10264000DE07B9F48091A3018111C0CE80911A01F7
:102650000E94B10484E690E0F6DA80E00E94B104C2
:1026600080910D0190E068EE73E01ED084569109D0
:102670000EC0CC5ED64069F480917101811105C015
:102680005DDB81E05BDB80E059DB80ED97E0DBDA4E
:102690009DCE86B78F7986BF86B7806186BF8895C5
:1026A00086B78F7E86BF92CE0024552704C0080EC1
:1026B000591F880F991F009729F076956795B8F3F1
:1026C0007105B9F7802D952F0895991B79E004C005
:1026D000991F961708F0961B881F7A95C9F7809561
:1026E0000895AA1BBB1B51E107C0AA1FBB1FA61759
:1026F000B70710F0A61BB70B881F991F5A95A9F7AB
:1027000080959095BC01CD01089597FB072E16F496
:10271000009406D077FD08D0E4DF07FC05D03EF436
:10272000909581959F4F0895709561957F4F08957D
:10273000E199FECF1FBA8EBBE09A99278DB3089519
:10274000262FE199FECF1FBA8EBBE09A81500DB2C1
:10275000021639F01CBA2DBB0FB6F894E29AE19A32
:082760000FBE0895F894FFCFAD
:10276800060B180101010004294303D002020107E6
:10277800058282820B0B0B820B01320201021727A2
:1027880015320702050403140111010E01020100AC
:10279800000000000000010000000000000000012F
:1027A8000000210123022503270429052C06FF0622
:00000001FF
